{
	"contracts/rankandconsensus.sol": {
		"CommunityGovernanceRankings": {
			"abi": [
				{
					"inputs": [
						{
							"internalType": "address",
							"name": "_contributionsContractAddress",
							"type": "address"
						}
					],
					"stateMutability": "nonpayable",
					"type": "constructor"
				},
				{
					"anonymous": false,
					"inputs": [
						{
							"indexed": true,
							"internalType": "uint256",
							"name": "communityId",
							"type": "uint256"
						},
						{
							"indexed": false,
							"internalType": "uint256",
							"name": "weekNumber",
							"type": "uint256"
						},
						{
							"indexed": false,
							"internalType": "uint256",
							"name": "groupId",
							"type": "uint256"
						},
						{
							"indexed": false,
							"internalType": "uint256[]",
							"name": "consensusRanking",
							"type": "uint256[]"
						}
					],
					"name": "ConsensusReached",
					"type": "event"
				},
				{
					"anonymous": false,
					"inputs": [
						{
							"indexed": false,
							"internalType": "string",
							"name": "message",
							"type": "string"
						},
						{
							"indexed": false,
							"internalType": "uint256",
							"name": "value",
							"type": "uint256"
						}
					],
					"name": "DebugLog",
					"type": "event"
				},
				{
					"anonymous": false,
					"inputs": [
						{
							"indexed": true,
							"internalType": "uint256",
							"name": "communityId",
							"type": "uint256"
						},
						{
							"indexed": false,
							"internalType": "uint256",
							"name": "weekNumber",
							"type": "uint256"
						},
						{
							"indexed": false,
							"internalType": "uint256",
							"name": "groupId",
							"type": "uint256"
						},
						{
							"indexed": true,
							"internalType": "address",
							"name": "submitter",
							"type": "address"
						}
					],
					"name": "RankingSubmitted",
					"type": "event"
				},
				{
					"inputs": [],
					"name": "contributionsContract",
					"outputs": [
						{
							"internalType": "contract ICommunityGovernanceContributions",
							"name": "",
							"type": "address"
						}
					],
					"stateMutability": "view",
					"type": "function"
				},
				{
					"inputs": [
						{
							"internalType": "uint256",
							"name": "_communityId",
							"type": "uint256"
						},
						{
							"internalType": "uint256",
							"name": "_weekNumber",
							"type": "uint256"
						},
						{
							"internalType": "uint256",
							"name": "_groupId",
							"type": "uint256"
						}
					],
					"name": "determineConsensus",
					"outputs": [],
					"stateMutability": "nonpayable",
					"type": "function"
				},
				{
					"inputs": [
						{
							"internalType": "uint256",
							"name": "_communityId",
							"type": "uint256"
						},
						{
							"internalType": "uint256",
							"name": "_weekNumber",
							"type": "uint256"
						},
						{
							"internalType": "uint256",
							"name": "_groupId",
							"type": "uint256"
						}
					],
					"name": "getConsensusRanking",
					"outputs": [
						{
							"internalType": "uint256[]",
							"name": "rankedScores",
							"type": "uint256[]"
						},
						{
							"internalType": "uint256[]",
							"name": "transientScores",
							"type": "uint256[]"
						},
						{
							"internalType": "uint256",
							"name": "timestamp",
							"type": "uint256"
						}
					],
					"stateMutability": "view",
					"type": "function"
				},
				{
					"inputs": [
						{
							"internalType": "uint256",
							"name": "_communityId",
							"type": "uint256"
						},
						{
							"internalType": "uint256",
							"name": "_weekNumber",
							"type": "uint256"
						},
						{
							"internalType": "uint256",
							"name": "_groupId",
							"type": "uint256"
						},
						{
							"internalType": "address",
							"name": "_user",
							"type": "address"
						}
					],
					"name": "getRanking",
					"outputs": [
						{
							"internalType": "uint256[]",
							"name": "",
							"type": "uint256[]"
						}
					],
					"stateMutability": "view",
					"type": "function"
				},
				{
					"inputs": [
						{
							"internalType": "uint256",
							"name": "_communityId",
							"type": "uint256"
						},
						{
							"internalType": "uint256",
							"name": "_weekNumber",
							"type": "uint256"
						},
						{
							"internalType": "uint256",
							"name": "_groupId",
							"type": "uint256"
						}
					],
					"name": "getTransientScores",
					"outputs": [
						{
							"internalType": "address[]",
							"name": "",
							"type": "address[]"
						},
						{
							"internalType": "uint256[]",
							"name": "",
							"type": "uint256[]"
						}
					],
					"stateMutability": "view",
					"type": "function"
				},
				{
					"inputs": [
						{
							"internalType": "uint256",
							"name": "_communityId",
							"type": "uint256"
						},
						{
							"internalType": "uint256",
							"name": "_weekNumber",
							"type": "uint256"
						},
						{
							"internalType": "uint256",
							"name": "_groupId",
							"type": "uint256"
						},
						{
							"internalType": "uint256[]",
							"name": "_ranking",
							"type": "uint256[]"
						}
					],
					"name": "submitRanking",
					"outputs": [],
					"stateMutability": "nonpayable",
					"type": "function"
				}
			],
			"devdoc": {
				"custom:dev-run-script": "/script/threetogether.js",
				"details": "Manages community creation, membership, and contributions",
				"kind": "dev",
				"methods": {},
				"title": "CommunityGovernance",
				"version": 1
			},
			"evm": {
				"assembly": "    /* \"contracts/rankandconsensus.sol\":424:9253  contract CommunityGovernanceRankings {... */\n  mstore(0x40, 0x80)\n    /* \"contracts/rankandconsensus.sol\":1277:1433  constructor(address _contributionsContractAddress) {... */\n  callvalue\n  dup1\n  iszero\n  tag_1\n  jumpi\n  0x00\n  dup1\n  revert\ntag_1:\n  pop\n  mload(0x40)\n  sub(codesize, bytecodeSize)\n  dup1\n  bytecodeSize\n  dup4\n  codecopy\n  dup2\n  dup2\n  add\n  0x40\n  mstore\n  dup2\n  add\n  swap1\n  tag_2\n  swap2\n  swap1\n  tag_3\n  jump\t// in\ntag_2:\n    /* \"contracts/rankandconsensus.sol\":1396:1425  _contributionsContractAddress */\n  dup1\n    /* \"contracts/rankandconsensus.sol\":1338:1359  contributionsContract */\n  0x00\n  dup1\n    /* \"contracts/rankandconsensus.sol\":1338:1426  contributionsContract = ICommunityGovernanceContributions(_contributionsContractAddress) */\n  0x0100\n  exp\n  dup2\n  sload\n  dup2\n  0xffffffffffffffffffffffffffffffffffffffff\n  mul\n  not\n  and\n  swap1\n  dup4\n  0xffffffffffffffffffffffffffffffffffffffff\n  and\n  mul\n  or\n  swap1\n  sstore\n  pop\n    /* \"contracts/rankandconsensus.sol\":1277:1433  constructor(address _contributionsContractAddress) {... */\n  pop\n    /* \"contracts/rankandconsensus.sol\":424:9253  contract CommunityGovernanceRankings {... */\n  jump(tag_6)\n    /* \"#utility.yul\":88:205   */\ntag_8:\n    /* \"#utility.yul\":197:198   */\n  0x00\n    /* \"#utility.yul\":194:195   */\n  dup1\n    /* \"#utility.yul\":187:199   */\n  revert\n    /* \"#utility.yul\":334:460   */\ntag_10:\n    /* \"#utility.yul\":371:378   */\n  0x00\n    /* \"#utility.yul\":411:453   */\n  0xffffffffffffffffffffffffffffffffffffffff\n    /* \"#utility.yul\":404:409   */\n  dup3\n    /* \"#utility.yul\":400:454   */\n  and\n    /* \"#utility.yul\":389:454   */\n  swap1\n  pop\n    /* \"#utility.yul\":334:460   */\n  swap2\n  swap1\n  pop\n  jump\t// out\n    /* \"#utility.yul\":466:562   */\ntag_11:\n    /* \"#utility.yul\":503:510   */\n  0x00\n    /* \"#utility.yul\":532:556   */\n  tag_20\n    /* \"#utility.yul\":550:555   */\n  dup3\n    /* \"#utility.yul\":532:556   */\n  tag_10\n  jump\t// in\ntag_20:\n    /* \"#utility.yul\":521:556   */\n  swap1\n  pop\n    /* \"#utility.yul\":466:562   */\n  swap2\n  swap1\n  pop\n  jump\t// out\n    /* \"#utility.yul\":568:690   */\ntag_12:\n    /* \"#utility.yul\":641:665   */\n  tag_22\n    /* \"#utility.yul\":659:664   */\n  dup2\n    /* \"#utility.yul\":641:665   */\n  tag_11\n  jump\t// in\ntag_22:\n    /* \"#utility.yul\":634:639   */\n  dup2\n    /* \"#utility.yul\":631:666   */\n  eq\n    /* \"#utility.yul\":621:684   */\n  tag_23\n  jumpi\n    /* \"#utility.yul\":680:681   */\n  0x00\n    /* \"#utility.yul\":677:678   */\n  dup1\n    /* \"#utility.yul\":670:682   */\n  revert\n    /* \"#utility.yul\":621:684   */\ntag_23:\n    /* \"#utility.yul\":568:690   */\n  pop\n  jump\t// out\n    /* \"#utility.yul\":696:839   */\ntag_13:\n    /* \"#utility.yul\":753:758   */\n  0x00\n    /* \"#utility.yul\":784:790   */\n  dup2\n    /* \"#utility.yul\":778:791   */\n  mload\n    /* \"#utility.yul\":769:791   */\n  swap1\n  pop\n    /* \"#utility.yul\":800:833   */\n  tag_25\n    /* \"#utility.yul\":827:832   */\n  dup2\n    /* \"#utility.yul\":800:833   */\n  tag_12\n  jump\t// in\ntag_25:\n    /* \"#utility.yul\":696:839   */\n  swap3\n  swap2\n  pop\n  pop\n  jump\t// out\n    /* \"#utility.yul\":845:1196   */\ntag_3:\n    /* \"#utility.yul\":915:921   */\n  0x00\n    /* \"#utility.yul\":964:966   */\n  0x20\n    /* \"#utility.yul\":952:961   */\n  dup3\n    /* \"#utility.yul\":943:950   */\n  dup5\n    /* \"#utility.yul\":939:962   */\n  sub\n    /* \"#utility.yul\":935:967   */\n  slt\n    /* \"#utility.yul\":932:1051   */\n  iszero\n  tag_27\n  jumpi\n    /* \"#utility.yul\":970:1049   */\n  tag_28\n  tag_8\n  jump\t// in\ntag_28:\n    /* \"#utility.yul\":932:1051   */\ntag_27:\n    /* \"#utility.yul\":1090:1091   */\n  0x00\n    /* \"#utility.yul\":1115:1179   */\n  tag_29\n    /* \"#utility.yul\":1171:1178   */\n  dup5\n    /* \"#utility.yul\":1162:1168   */\n  dup3\n    /* \"#utility.yul\":1151:1160   */\n  dup6\n    /* \"#utility.yul\":1147:1169   */\n  add\n    /* \"#utility.yul\":1115:1179   */\n  tag_13\n  jump\t// in\ntag_29:\n    /* \"#utility.yul\":1105:1179   */\n  swap2\n  pop\n    /* \"#utility.yul\":1061:1189   */\n  pop\n    /* \"#utility.yul\":845:1196   */\n  swap3\n  swap2\n  pop\n  pop\n  jump\t// out\n    /* \"contracts/rankandconsensus.sol\":424:9253  contract CommunityGovernanceRankings {... */\ntag_6:\n  dataSize(sub_0)\n  dup1\n  dataOffset(sub_0)\n  0x00\n  codecopy\n  0x00\n  return\nstop\n\nsub_0: assembly {\n        /* \"contracts/rankandconsensus.sol\":424:9253  contract CommunityGovernanceRankings {... */\n      mstore(0x40, 0x80)\n      callvalue\n      dup1\n      iszero\n      tag_1\n      jumpi\n      0x00\n      dup1\n      revert\n    tag_1:\n      pop\n      jumpi(tag_2, lt(calldatasize, 0x04))\n      shr(0xe0, calldataload(0x00))\n      dup1\n      0x17dd9e73\n      eq\n      tag_3\n      jumpi\n      dup1\n      0x2b3dffeb\n      eq\n      tag_4\n      jumpi\n      dup1\n      0x32a7adb0\n      eq\n      tag_5\n      jumpi\n      dup1\n      0x415b5d7d\n      eq\n      tag_6\n      jumpi\n      dup1\n      0xb74ca713\n      eq\n      tag_7\n      jumpi\n      dup1\n      0xde04bbd2\n      eq\n      tag_8\n      jumpi\n    tag_2:\n      0x00\n      dup1\n      revert\n        /* \"contracts/rankandconsensus.sol\":2328:3559  function determineConsensus(uint256 _communityId, uint256 _weekNumber, uint256 _groupId) public {... */\n    tag_3:\n      tag_9\n      0x04\n      dup1\n      calldatasize\n      sub\n      dup2\n      add\n      swap1\n      tag_10\n      swap2\n      swap1\n      tag_11\n      jump\t// in\n    tag_10:\n      tag_12\n      jump\t// in\n    tag_9:\n      stop\n        /* \"contracts/rankandconsensus.sol\":8185:8409  function getRanking(uint256 _communityId, uint256 _weekNumber, uint256 _groupId, address _user) public view returns (uint256[] memory) {... */\n    tag_4:\n      tag_13\n      0x04\n      dup1\n      calldatasize\n      sub\n      dup2\n      add\n      swap1\n      tag_14\n      swap2\n      swap1\n      tag_15\n      jump\t// in\n    tag_14:\n      tag_16\n      jump\t// in\n    tag_13:\n      mload(0x40)\n      tag_17\n      swap2\n      swap1\n      tag_18\n      jump\t// in\n    tag_17:\n      mload(0x40)\n      dup1\n      swap2\n      sub\n      swap1\n      return\n        /* \"contracts/rankandconsensus.sol\":8415:9251  function getTransientScores(uint256 _communityId, uint256 _weekNumber, uint256 _groupId) public view returns (address[] memory, uint256[] memory) {... */\n    tag_5:\n      tag_19\n      0x04\n      dup1\n      calldatasize\n      sub\n      dup2\n      add\n      swap1\n      tag_20\n      swap2\n      swap1\n      tag_11\n      jump\t// in\n    tag_20:\n      tag_21\n      jump\t// in\n    tag_19:\n      mload(0x40)\n      tag_22\n      swap3\n      swap2\n      swap1\n      tag_23\n      jump\t// in\n    tag_22:\n      mload(0x40)\n      dup1\n      swap2\n      sub\n      swap1\n      return\n        /* \"contracts/rankandconsensus.sol\":7759:8179  function getConsensusRanking(uint256 _communityId, uint256 _weekNumber, uint256 _groupId) public view returns (uint256[] memory rankedScores, uint256[] memory transientScores, uint256 timestamp) {... */\n    tag_6:\n      tag_24\n      0x04\n      dup1\n      calldatasize\n      sub\n      dup2\n      add\n      swap1\n      tag_25\n      swap2\n      swap1\n      tag_11\n      jump\t// in\n    tag_25:\n      tag_26\n      jump\t// in\n    tag_24:\n      mload(0x40)\n      tag_27\n      swap4\n      swap3\n      swap2\n      swap1\n      tag_28\n      jump\t// in\n    tag_27:\n      mload(0x40)\n      dup1\n      swap2\n      sub\n      swap1\n      return\n        /* \"contracts/rankandconsensus.sol\":1439:2322  function submitRanking(uint256 _communityId, uint256 _weekNumber, uint256 _groupId, uint256[] memory _ranking) public {... */\n    tag_7:\n      tag_29\n      0x04\n      dup1\n      calldatasize\n      sub\n      dup2\n      add\n      swap1\n      tag_30\n      swap2\n      swap1\n      tag_31\n      jump\t// in\n    tag_30:\n      tag_32\n      jump\t// in\n    tag_29:\n      stop\n        /* \"contracts/rankandconsensus.sol\":467:529  ICommunityGovernanceContributions public contributionsContract */\n    tag_8:\n      tag_33\n      tag_34\n      jump\t// in\n    tag_33:\n      mload(0x40)\n      tag_35\n      swap2\n      swap1\n      tag_36\n      jump\t// in\n    tag_35:\n      mload(0x40)\n      dup1\n      swap2\n      sub\n      swap1\n      return\n        /* \"contracts/rankandconsensus.sol\":2328:3559  function determineConsensus(uint256 _communityId, uint256 _weekNumber, uint256 _groupId) public {... */\n    tag_12:\n        /* \"contracts/rankandconsensus.sol\":2434:2489  ICommunityGovernanceContributions.Group[] memory groups */\n      0x00\n        /* \"contracts/rankandconsensus.sol\":2492:2513  contributionsContract */\n      dup1\n      0x00\n      swap1\n      sload\n      swap1\n      0x0100\n      exp\n      swap1\n      div\n      0xffffffffffffffffffffffffffffffffffffffff\n      and\n        /* \"contracts/rankandconsensus.sol\":2492:2530  contributionsContract.getGroupsForWeek */\n      0xffffffffffffffffffffffffffffffffffffffff\n      and\n      0x6c331bd3\n        /* \"contracts/rankandconsensus.sol\":2531:2543  _communityId */\n      dup6\n        /* \"contracts/rankandconsensus.sol\":2545:2556  _weekNumber */\n      dup6\n        /* \"contracts/rankandconsensus.sol\":2492:2557  contributionsContract.getGroupsForWeek(_communityId, _weekNumber) */\n      mload(0x40)\n      dup4\n      0xffffffff\n      and\n      0xe0\n      shl\n      dup2\n      mstore\n      0x04\n      add\n      tag_38\n      swap3\n      swap2\n      swap1\n      tag_39\n      jump\t// in\n    tag_38:\n      0x00\n      mload(0x40)\n      dup1\n      dup4\n      sub\n      dup2\n      dup7\n      gas\n      staticcall\n      iszero\n      dup1\n      iszero\n      tag_41\n      jumpi\n      returndatasize\n      0x00\n      dup1\n      returndatacopy\n      revert(0x00, returndatasize)\n    tag_41:\n      pop\n      pop\n      pop\n      pop\n      mload(0x40)\n      returndatasize\n      0x00\n      dup3\n      returndatacopy\n      returndatasize\n      not(0x1f)\n      0x1f\n      dup3\n      add\n      and\n      dup3\n      add\n      dup1\n      0x40\n      mstore\n      pop\n      dup2\n      add\n      swap1\n      tag_42\n      swap2\n      swap1\n      tag_43\n      jump\t// in\n    tag_42:\n        /* \"contracts/rankandconsensus.sol\":2434:2557  ICommunityGovernanceContributions.Group[] memory groups = contributionsContract.getGroupsForWeek(_communityId, _weekNumber) */\n      swap1\n      pop\n        /* \"contracts/rankandconsensus.sol\":2586:2592  groups */\n      dup1\n        /* \"contracts/rankandconsensus.sol\":2586:2599  groups.length */\n      mload\n        /* \"contracts/rankandconsensus.sol\":2575:2583  _groupId */\n      dup3\n        /* \"contracts/rankandconsensus.sol\":2575:2599  _groupId < groups.length */\n      lt\n        /* \"contracts/rankandconsensus.sol\":2567:2620  require(_groupId < groups.length, \"Invalid group ID\") */\n      tag_44\n      jumpi\n      mload(0x40)\n      0x08c379a000000000000000000000000000000000000000000000000000000000\n      dup2\n      mstore\n      0x04\n      add\n      tag_45\n      swap1\n      tag_46\n      jump\t// in\n    tag_45:\n      mload(0x40)\n      dup1\n      swap2\n      sub\n      swap1\n      revert\n    tag_44:\n        /* \"contracts/rankandconsensus.sol\":2630:2682  ICommunityGovernanceContributions.Group memory group */\n      0x00\n        /* \"contracts/rankandconsensus.sol\":2685:2691  groups */\n      dup2\n        /* \"contracts/rankandconsensus.sol\":2692:2700  _groupId */\n      dup4\n        /* \"contracts/rankandconsensus.sol\":2685:2701  groups[_groupId] */\n      dup2\n      mload\n      dup2\n      lt\n      tag_47\n      jumpi\n      tag_48\n      tag_49\n      jump\t// in\n    tag_48:\n    tag_47:\n      0x20\n      mul\n      0x20\n      add\n      add\n      mload\n        /* \"contracts/rankandconsensus.sol\":2630:2701  ICommunityGovernanceContributions.Group memory group = groups[_groupId] */\n      swap1\n      pop\n        /* \"contracts/rankandconsensus.sol\":2742:2743  0 */\n      0x00\n        /* \"contracts/rankandconsensus.sol\":2719:2724  group */\n      dup2\n        /* \"contracts/rankandconsensus.sol\":2719:2732  group.members */\n      0x00\n      add\n      mload\n        /* \"contracts/rankandconsensus.sol\":2719:2739  group.members.length */\n      mload\n        /* \"contracts/rankandconsensus.sol\":2719:2743  group.members.length > 0 */\n      gt\n        /* \"contracts/rankandconsensus.sol\":2711:2768  require(group.members.length > 0, \"Group does not exist\") */\n      tag_50\n      jumpi\n      mload(0x40)\n      0x08c379a000000000000000000000000000000000000000000000000000000000\n      dup2\n      mstore\n      0x04\n      add\n      tag_51\n      swap1\n      tag_52\n      jump\t// in\n    tag_51:\n      mload(0x40)\n      dup1\n      swap2\n      sub\n      swap1\n      revert\n    tag_50:\n        /* \"contracts/rankandconsensus.sol\":2786:2849  allMembersSubmitted(_communityId, _weekNumber, _groupId, group) */\n      tag_53\n        /* \"contracts/rankandconsensus.sol\":2806:2818  _communityId */\n      dup6\n        /* \"contracts/rankandconsensus.sol\":2820:2831  _weekNumber */\n      dup6\n        /* \"contracts/rankandconsensus.sol\":2833:2841  _groupId */\n      dup6\n        /* \"contracts/rankandconsensus.sol\":2843:2848  group */\n      dup5\n        /* \"contracts/rankandconsensus.sol\":2786:2805  allMembersSubmitted */\n      tag_54\n        /* \"contracts/rankandconsensus.sol\":2786:2849  allMembersSubmitted(_communityId, _weekNumber, _groupId, group) */\n      jump\t// in\n    tag_53:\n        /* \"contracts/rankandconsensus.sol\":2778:2893  require(allMembersSubmitted(_communityId, _weekNumber, _groupId, group), \"Not all members have submitted rankings\") */\n      tag_55\n      jumpi\n      mload(0x40)\n      0x08c379a000000000000000000000000000000000000000000000000000000000\n      dup2\n      mstore\n      0x04\n      add\n      tag_56\n      swap1\n      tag_57\n      jump\t// in\n    tag_56:\n      mload(0x40)\n      dup1\n      swap2\n      sub\n      swap1\n      revert\n    tag_55:\n        /* \"contracts/rankandconsensus.sol\":2904:2921  uint256 groupSize */\n      0x00\n        /* \"contracts/rankandconsensus.sol\":2924:2929  group */\n      dup2\n        /* \"contracts/rankandconsensus.sol\":2924:2937  group.members */\n      0x00\n      add\n      mload\n        /* \"contracts/rankandconsensus.sol\":2924:2944  group.members.length */\n      mload\n        /* \"contracts/rankandconsensus.sol\":2904:2944  uint256 groupSize = group.members.length */\n      swap1\n      pop\n        /* \"contracts/rankandconsensus.sol\":2954:2986  uint256[] memory transientScores */\n      0x00\n        /* \"contracts/rankandconsensus.sol\":3003:3012  groupSize */\n      dup2\n        /* \"contracts/rankandconsensus.sol\":2989:3013  new uint256[](groupSize) */\n      0xffffffffffffffff\n      dup2\n      gt\n      iszero\n      tag_58\n      jumpi\n      tag_59\n      tag_60\n      jump\t// in\n    tag_59:\n    tag_58:\n      mload(0x40)\n      swap1\n      dup1\n      dup3\n      mstore\n      dup1\n      0x20\n      mul\n      0x20\n      add\n      dup3\n      add\n      0x40\n      mstore\n      dup1\n      iszero\n      tag_61\n      jumpi\n      dup2\n      0x20\n      add\n      0x20\n      dup3\n      mul\n      dup1\n      calldatasize\n      dup4\n      calldatacopy\n      dup1\n      dup3\n      add\n      swap2\n      pop\n      pop\n      swap1\n      pop\n    tag_61:\n      pop\n        /* \"contracts/rankandconsensus.sol\":2954:3013  uint256[] memory transientScores = new uint256[](groupSize) */\n      swap1\n      pop\n        /* \"contracts/rankandconsensus.sol\":3029:3038  uint256 i */\n      0x00\n        /* \"contracts/rankandconsensus.sol\":3024:3257  for (uint256 i = 0; i < groupSize; i++) {... */\n    tag_62:\n        /* \"contracts/rankandconsensus.sol\":3048:3057  groupSize */\n      dup3\n        /* \"contracts/rankandconsensus.sol\":3044:3045  i */\n      dup2\n        /* \"contracts/rankandconsensus.sol\":3044:3057  i < groupSize */\n      lt\n        /* \"contracts/rankandconsensus.sol\":3024:3257  for (uint256 i = 0; i < groupSize; i++) {... */\n      iszero\n      tag_63\n      jumpi\n        /* \"contracts/rankandconsensus.sol\":3099:3169  calculateTransientScore(_communityId, _weekNumber, _groupId, i, group) */\n      tag_65\n        /* \"contracts/rankandconsensus.sol\":3123:3135  _communityId */\n      dup9\n        /* \"contracts/rankandconsensus.sol\":3137:3148  _weekNumber */\n      dup9\n        /* \"contracts/rankandconsensus.sol\":3150:3158  _groupId */\n      dup9\n        /* \"contracts/rankandconsensus.sol\":3160:3161  i */\n      dup5\n        /* \"contracts/rankandconsensus.sol\":3163:3168  group */\n      dup9\n        /* \"contracts/rankandconsensus.sol\":3099:3122  calculateTransientScore */\n      tag_66\n        /* \"contracts/rankandconsensus.sol\":3099:3169  calculateTransientScore(_communityId, _weekNumber, _groupId, i, group) */\n      jump\t// in\n    tag_65:\n        /* \"contracts/rankandconsensus.sol\":3078:3093  transientScores */\n      dup3\n        /* \"contracts/rankandconsensus.sol\":3094:3095  i */\n      dup3\n        /* \"contracts/rankandconsensus.sol\":3078:3096  transientScores[i] */\n      dup2\n      mload\n      dup2\n      lt\n      tag_67\n      jumpi\n      tag_68\n      tag_49\n      jump\t// in\n    tag_68:\n    tag_67:\n      0x20\n      mul\n      0x20\n      add\n      add\n        /* \"contracts/rankandconsensus.sol\":3078:3169  transientScores[i] = calculateTransientScore(_communityId, _weekNumber, _groupId, i, group) */\n      dup2\n      dup2\n      mstore\n      pop\n      pop\n        /* \"contracts/rankandconsensus.sol\":3188:3246  DebugLog(\"Transient score for member\", transientScores[i]) */\n      0xf6ff2ad7fc16bda2a7d32462729431bce3ebe9b75cc7c9b35a0adfbf7e7bb9e6\n        /* \"contracts/rankandconsensus.sol\":3227:3242  transientScores */\n      dup3\n        /* \"contracts/rankandconsensus.sol\":3243:3244  i */\n      dup3\n        /* \"contracts/rankandconsensus.sol\":3227:3245  transientScores[i] */\n      dup2\n      mload\n      dup2\n      lt\n      tag_69\n      jumpi\n      tag_70\n      tag_49\n      jump\t// in\n    tag_70:\n    tag_69:\n      0x20\n      mul\n      0x20\n      add\n      add\n      mload\n        /* \"contracts/rankandconsensus.sol\":3188:3246  DebugLog(\"Transient score for member\", transientScores[i]) */\n      mload(0x40)\n      tag_71\n      swap2\n      swap1\n      tag_72\n      jump\t// in\n    tag_71:\n      mload(0x40)\n      dup1\n      swap2\n      sub\n      swap1\n      log1\n        /* \"contracts/rankandconsensus.sol\":3059:3062  i++ */\n      dup1\n      dup1\n      0x01\n      add\n      swap2\n      pop\n      pop\n        /* \"contracts/rankandconsensus.sol\":3024:3257  for (uint256 i = 0; i < groupSize; i++) {... */\n      jump(tag_62)\n    tag_63:\n      pop\n        /* \"contracts/rankandconsensus.sol\":3267:3300  uint256[] memory consensusRanking */\n      0x00\n        /* \"contracts/rankandconsensus.sol\":3303:3331  sortByScore(transientScores) */\n      tag_73\n        /* \"contracts/rankandconsensus.sol\":3315:3330  transientScores */\n      dup3\n        /* \"contracts/rankandconsensus.sol\":3303:3314  sortByScore */\n      tag_74\n        /* \"contracts/rankandconsensus.sol\":3303:3331  sortByScore(transientScores) */\n      jump\t// in\n    tag_73:\n        /* \"contracts/rankandconsensus.sol\":3267:3331  uint256[] memory consensusRanking = sortByScore(transientScores) */\n      swap1\n      pop\n        /* \"contracts/rankandconsensus.sol\":3398:3466  ConsensusRanking(consensusRanking, transientScores, block.timestamp) */\n      mload(0x40)\n      dup1\n      0x60\n      add\n      0x40\n      mstore\n      dup1\n        /* \"contracts/rankandconsensus.sol\":3415:3431  consensusRanking */\n      dup3\n        /* \"contracts/rankandconsensus.sol\":3398:3466  ConsensusRanking(consensusRanking, transientScores, block.timestamp) */\n      dup2\n      mstore\n      0x20\n      add\n        /* \"contracts/rankandconsensus.sol\":3433:3448  transientScores */\n      dup4\n        /* \"contracts/rankandconsensus.sol\":3398:3466  ConsensusRanking(consensusRanking, transientScores, block.timestamp) */\n      dup2\n      mstore\n      0x20\n      add\n        /* \"contracts/rankandconsensus.sol\":3450:3465  block.timestamp */\n      timestamp\n        /* \"contracts/rankandconsensus.sol\":3398:3466  ConsensusRanking(consensusRanking, transientScores, block.timestamp) */\n      dup2\n      mstore\n      pop\n        /* \"contracts/rankandconsensus.sol\":3341:3358  consensusRankings */\n      0x02\n        /* \"contracts/rankandconsensus.sol\":3341:3372  consensusRankings[_communityId] */\n      0x00\n        /* \"contracts/rankandconsensus.sol\":3359:3371  _communityId */\n      dup11\n        /* \"contracts/rankandconsensus.sol\":3341:3372  consensusRankings[_communityId] */\n      dup2\n      mstore\n      0x20\n      add\n      swap1\n      dup2\n      mstore\n      0x20\n      add\n      0x00\n      keccak256\n        /* \"contracts/rankandconsensus.sol\":3341:3385  consensusRankings[_communityId][_weekNumber] */\n      0x00\n        /* \"contracts/rankandconsensus.sol\":3373:3384  _weekNumber */\n      dup10\n        /* \"contracts/rankandconsensus.sol\":3341:3385  consensusRankings[_communityId][_weekNumber] */\n      dup2\n      mstore\n      0x20\n      add\n      swap1\n      dup2\n      mstore\n      0x20\n      add\n      0x00\n      keccak256\n        /* \"contracts/rankandconsensus.sol\":3341:3395  consensusRankings[_communityId][_weekNumber][_groupId] */\n      0x00\n        /* \"contracts/rankandconsensus.sol\":3386:3394  _groupId */\n      dup9\n        /* \"contracts/rankandconsensus.sol\":3341:3395  consensusRankings[_communityId][_weekNumber][_groupId] */\n      dup2\n      mstore\n      0x20\n      add\n      swap1\n      dup2\n      mstore\n      0x20\n      add\n      0x00\n      keccak256\n        /* \"contracts/rankandconsensus.sol\":3341:3466  consensusRankings[_communityId][_weekNumber][_groupId] = ConsensusRanking(consensusRanking, transientScores, block.timestamp) */\n      0x00\n      dup3\n      add\n      mload\n      dup2\n      0x00\n      add\n      swap1\n      dup1\n      mload\n      swap1\n      0x20\n      add\n      swap1\n      tag_75\n      swap3\n      swap2\n      swap1\n      tag_76\n      jump\t// in\n    tag_75:\n      pop\n      0x20\n      dup3\n      add\n      mload\n      dup2\n      0x01\n      add\n      swap1\n      dup1\n      mload\n      swap1\n      0x20\n      add\n      swap1\n      tag_77\n      swap3\n      swap2\n      swap1\n      tag_76\n      jump\t// in\n    tag_77:\n      pop\n      0x40\n      dup3\n      add\n      mload\n      dup2\n      0x02\n      add\n      sstore\n      swap1\n      pop\n      pop\n        /* \"contracts/rankandconsensus.sol\":3498:3510  _communityId */\n      dup8\n        /* \"contracts/rankandconsensus.sol\":3481:3552  ConsensusReached(_communityId, _weekNumber, _groupId, consensusRanking) */\n      0x0b7561a7dcbdf981c91bcbdaef28458903367918c2b25fe6c1a2485997a91820\n        /* \"contracts/rankandconsensus.sol\":3512:3523  _weekNumber */\n      dup9\n        /* \"contracts/rankandconsensus.sol\":3525:3533  _groupId */\n      dup9\n        /* \"contracts/rankandconsensus.sol\":3535:3551  consensusRanking */\n      dup5\n        /* \"contracts/rankandconsensus.sol\":3481:3552  ConsensusReached(_communityId, _weekNumber, _groupId, consensusRanking) */\n      mload(0x40)\n      tag_78\n      swap4\n      swap3\n      swap2\n      swap1\n      tag_79\n      jump\t// in\n    tag_78:\n      mload(0x40)\n      dup1\n      swap2\n      sub\n      swap1\n      log2\n        /* \"contracts/rankandconsensus.sol\":2424:3559  {... */\n      pop\n      pop\n      pop\n      pop\n      pop\n        /* \"contracts/rankandconsensus.sol\":2328:3559  function determineConsensus(uint256 _communityId, uint256 _weekNumber, uint256 _groupId) public {... */\n      pop\n      pop\n      pop\n      jump\t// out\n        /* \"contracts/rankandconsensus.sol\":8185:8409  function getRanking(uint256 _communityId, uint256 _weekNumber, uint256 _groupId, address _user) public view returns (uint256[] memory) {... */\n    tag_16:\n        /* \"contracts/rankandconsensus.sol\":8302:8318  uint256[] memory */\n      0x60\n        /* \"contracts/rankandconsensus.sol\":8337:8345  rankings */\n      0x01\n        /* \"contracts/rankandconsensus.sol\":8337:8359  rankings[_communityId] */\n      0x00\n        /* \"contracts/rankandconsensus.sol\":8346:8358  _communityId */\n      dup7\n        /* \"contracts/rankandconsensus.sol\":8337:8359  rankings[_communityId] */\n      dup2\n      mstore\n      0x20\n      add\n      swap1\n      dup2\n      mstore\n      0x20\n      add\n      0x00\n      keccak256\n        /* \"contracts/rankandconsensus.sol\":8337:8372  rankings[_communityId][_weekNumber] */\n      0x00\n        /* \"contracts/rankandconsensus.sol\":8360:8371  _weekNumber */\n      dup6\n        /* \"contracts/rankandconsensus.sol\":8337:8372  rankings[_communityId][_weekNumber] */\n      dup2\n      mstore\n      0x20\n      add\n      swap1\n      dup2\n      mstore\n      0x20\n      add\n      0x00\n      keccak256\n        /* \"contracts/rankandconsensus.sol\":8337:8382  rankings[_communityId][_weekNumber][_groupId] */\n      0x00\n        /* \"contracts/rankandconsensus.sol\":8373:8381  _groupId */\n      dup5\n        /* \"contracts/rankandconsensus.sol\":8337:8382  rankings[_communityId][_weekNumber][_groupId] */\n      dup2\n      mstore\n      0x20\n      add\n      swap1\n      dup2\n      mstore\n      0x20\n      add\n      0x00\n      keccak256\n        /* \"contracts/rankandconsensus.sol\":8337:8389  rankings[_communityId][_weekNumber][_groupId][_user] */\n      0x00\n        /* \"contracts/rankandconsensus.sol\":8383:8388  _user */\n      dup4\n        /* \"contracts/rankandconsensus.sol\":8337:8389  rankings[_communityId][_weekNumber][_groupId][_user] */\n      0xffffffffffffffffffffffffffffffffffffffff\n      and\n      0xffffffffffffffffffffffffffffffffffffffff\n      and\n      dup2\n      mstore\n      0x20\n      add\n      swap1\n      dup2\n      mstore\n      0x20\n      add\n      0x00\n      keccak256\n        /* \"contracts/rankandconsensus.sol\":8337:8402  rankings[_communityId][_weekNumber][_groupId][_user].rankedScores */\n      0x00\n      add\n        /* \"contracts/rankandconsensus.sol\":8330:8402  return rankings[_communityId][_weekNumber][_groupId][_user].rankedScores */\n      dup1\n      sload\n      dup1\n      0x20\n      mul\n      0x20\n      add\n      mload(0x40)\n      swap1\n      dup2\n      add\n      0x40\n      mstore\n      dup1\n      swap3\n      swap2\n      swap1\n      dup2\n      dup2\n      mstore\n      0x20\n      add\n      dup3\n      dup1\n      sload\n      dup1\n      iszero\n      tag_81\n      jumpi\n      0x20\n      mul\n      dup3\n      add\n      swap2\n      swap1\n      0x00\n      mstore\n      keccak256(0x00, 0x20)\n      swap1\n    tag_82:\n      dup2\n      sload\n      dup2\n      mstore\n      0x20\n      add\n      swap1\n      0x01\n      add\n      swap1\n      dup1\n      dup4\n      gt\n      tag_82\n      jumpi\n    tag_81:\n      pop\n      pop\n      pop\n      pop\n      pop\n      swap1\n      pop\n        /* \"contracts/rankandconsensus.sol\":8185:8409  function getRanking(uint256 _communityId, uint256 _weekNumber, uint256 _groupId, address _user) public view returns (uint256[] memory) {... */\n      swap5\n      swap4\n      pop\n      pop\n      pop\n      pop\n      jump\t// out\n        /* \"contracts/rankandconsensus.sol\":8415:9251  function getTransientScores(uint256 _communityId, uint256 _weekNumber, uint256 _groupId) public view returns (address[] memory, uint256[] memory) {... */\n    tag_21:\n        /* \"contracts/rankandconsensus.sol\":8525:8541  address[] memory */\n      0x60\n        /* \"contracts/rankandconsensus.sol\":8543:8559  uint256[] memory */\n      dup1\n        /* \"contracts/rankandconsensus.sol\":8571:8626  ICommunityGovernanceContributions.Group[] memory groups */\n      0x00\n        /* \"contracts/rankandconsensus.sol\":8629:8650  contributionsContract */\n      dup1\n      0x00\n      swap1\n      sload\n      swap1\n      0x0100\n      exp\n      swap1\n      div\n      0xffffffffffffffffffffffffffffffffffffffff\n      and\n        /* \"contracts/rankandconsensus.sol\":8629:8667  contributionsContract.getGroupsForWeek */\n      0xffffffffffffffffffffffffffffffffffffffff\n      and\n      0x6c331bd3\n        /* \"contracts/rankandconsensus.sol\":8668:8680  _communityId */\n      dup8\n        /* \"contracts/rankandconsensus.sol\":8682:8693  _weekNumber */\n      dup8\n        /* \"contracts/rankandconsensus.sol\":8629:8694  contributionsContract.getGroupsForWeek(_communityId, _weekNumber) */\n      mload(0x40)\n      dup4\n      0xffffffff\n      and\n      0xe0\n      shl\n      dup2\n      mstore\n      0x04\n      add\n      tag_84\n      swap3\n      swap2\n      swap1\n      tag_39\n      jump\t// in\n    tag_84:\n      0x00\n      mload(0x40)\n      dup1\n      dup4\n      sub\n      dup2\n      dup7\n      gas\n      staticcall\n      iszero\n      dup1\n      iszero\n      tag_86\n      jumpi\n      returndatasize\n      0x00\n      dup1\n      returndatacopy\n      revert(0x00, returndatasize)\n    tag_86:\n      pop\n      pop\n      pop\n      pop\n      mload(0x40)\n      returndatasize\n      0x00\n      dup3\n      returndatacopy\n      returndatasize\n      not(0x1f)\n      0x1f\n      dup3\n      add\n      and\n      dup3\n      add\n      dup1\n      0x40\n      mstore\n      pop\n      dup2\n      add\n      swap1\n      tag_87\n      swap2\n      swap1\n      tag_43\n      jump\t// in\n    tag_87:\n        /* \"contracts/rankandconsensus.sol\":8571:8694  ICommunityGovernanceContributions.Group[] memory groups = contributionsContract.getGroupsForWeek(_communityId, _weekNumber) */\n      swap1\n      pop\n        /* \"contracts/rankandconsensus.sol\":8723:8729  groups */\n      dup1\n        /* \"contracts/rankandconsensus.sol\":8723:8736  groups.length */\n      mload\n        /* \"contracts/rankandconsensus.sol\":8712:8720  _groupId */\n      dup5\n        /* \"contracts/rankandconsensus.sol\":8712:8736  _groupId < groups.length */\n      lt\n        /* \"contracts/rankandconsensus.sol\":8704:8757  require(_groupId < groups.length, \"Invalid group ID\") */\n      tag_88\n      jumpi\n      mload(0x40)\n      0x08c379a000000000000000000000000000000000000000000000000000000000\n      dup2\n      mstore\n      0x04\n      add\n      tag_89\n      swap1\n      tag_46\n      jump\t// in\n    tag_89:\n      mload(0x40)\n      dup1\n      swap2\n      sub\n      swap1\n      revert\n    tag_88:\n        /* \"contracts/rankandconsensus.sol\":8767:8819  ICommunityGovernanceContributions.Group memory group */\n      0x00\n        /* \"contracts/rankandconsensus.sol\":8822:8828  groups */\n      dup2\n        /* \"contracts/rankandconsensus.sol\":8829:8837  _groupId */\n      dup6\n        /* \"contracts/rankandconsensus.sol\":8822:8838  groups[_groupId] */\n      dup2\n      mload\n      dup2\n      lt\n      tag_90\n      jumpi\n      tag_91\n      tag_49\n      jump\t// in\n    tag_91:\n    tag_90:\n      0x20\n      mul\n      0x20\n      add\n      add\n      mload\n        /* \"contracts/rankandconsensus.sol\":8767:8838  ICommunityGovernanceContributions.Group memory group = groups[_groupId] */\n      swap1\n      pop\n        /* \"contracts/rankandconsensus.sol\":8848:8865  uint256 groupSize */\n      0x00\n        /* \"contracts/rankandconsensus.sol\":8868:8873  group */\n      dup2\n        /* \"contracts/rankandconsensus.sol\":8868:8881  group.members */\n      0x00\n      add\n      mload\n        /* \"contracts/rankandconsensus.sol\":8868:8888  group.members.length */\n      mload\n        /* \"contracts/rankandconsensus.sol\":8848:8888  uint256 groupSize = group.members.length */\n      swap1\n      pop\n        /* \"contracts/rankandconsensus.sol\":8898:8922  address[] memory members */\n      0x00\n        /* \"contracts/rankandconsensus.sol\":8939:8948  groupSize */\n      dup2\n        /* \"contracts/rankandconsensus.sol\":8925:8949  new address[](groupSize) */\n      0xffffffffffffffff\n      dup2\n      gt\n      iszero\n      tag_92\n      jumpi\n      tag_93\n      tag_60\n      jump\t// in\n    tag_93:\n    tag_92:\n      mload(0x40)\n      swap1\n      dup1\n      dup3\n      mstore\n      dup1\n      0x20\n      mul\n      0x20\n      add\n      dup3\n      add\n      0x40\n      mstore\n      dup1\n      iszero\n      tag_94\n      jumpi\n      dup2\n      0x20\n      add\n      0x20\n      dup3\n      mul\n      dup1\n      calldatasize\n      dup4\n      calldatacopy\n      dup1\n      dup3\n      add\n      swap2\n      pop\n      pop\n      swap1\n      pop\n    tag_94:\n      pop\n        /* \"contracts/rankandconsensus.sol\":8898:8949  address[] memory members = new address[](groupSize) */\n      swap1\n      pop\n        /* \"contracts/rankandconsensus.sol\":8959:8982  uint256[] memory scores */\n      0x00\n        /* \"contracts/rankandconsensus.sol\":8999:9008  groupSize */\n      dup3\n        /* \"contracts/rankandconsensus.sol\":8985:9009  new uint256[](groupSize) */\n      0xffffffffffffffff\n      dup2\n      gt\n      iszero\n      tag_95\n      jumpi\n      tag_96\n      tag_60\n      jump\t// in\n    tag_96:\n    tag_95:\n      mload(0x40)\n      swap1\n      dup1\n      dup3\n      mstore\n      dup1\n      0x20\n      mul\n      0x20\n      add\n      dup3\n      add\n      0x40\n      mstore\n      dup1\n      iszero\n      tag_97\n      jumpi\n      dup2\n      0x20\n      add\n      0x20\n      dup3\n      mul\n      dup1\n      calldatasize\n      dup4\n      calldatacopy\n      dup1\n      dup3\n      add\n      swap2\n      pop\n      pop\n      swap1\n      pop\n    tag_97:\n      pop\n        /* \"contracts/rankandconsensus.sol\":8959:9009  uint256[] memory scores = new uint256[](groupSize) */\n      swap1\n      pop\n        /* \"contracts/rankandconsensus.sol\":9025:9034  uint256 i */\n      0x00\n        /* \"contracts/rankandconsensus.sol\":9020:9210  for (uint256 i = 0; i < groupSize; i++) {... */\n    tag_98:\n        /* \"contracts/rankandconsensus.sol\":9044:9053  groupSize */\n      dup4\n        /* \"contracts/rankandconsensus.sol\":9040:9041  i */\n      dup2\n        /* \"contracts/rankandconsensus.sol\":9040:9053  i < groupSize */\n      lt\n        /* \"contracts/rankandconsensus.sol\":9020:9210  for (uint256 i = 0; i < groupSize; i++) {... */\n      iszero\n      tag_99\n      jumpi\n        /* \"contracts/rankandconsensus.sol\":9087:9092  group */\n      dup5\n        /* \"contracts/rankandconsensus.sol\":9087:9100  group.members */\n      0x00\n      add\n      mload\n        /* \"contracts/rankandconsensus.sol\":9101:9102  i */\n      dup2\n        /* \"contracts/rankandconsensus.sol\":9087:9103  group.members[i] */\n      dup2\n      mload\n      dup2\n      lt\n      tag_101\n      jumpi\n      tag_102\n      tag_49\n      jump\t// in\n    tag_102:\n    tag_101:\n      0x20\n      mul\n      0x20\n      add\n      add\n      mload\n        /* \"contracts/rankandconsensus.sol\":9074:9081  members */\n      dup4\n        /* \"contracts/rankandconsensus.sol\":9082:9083  i */\n      dup3\n        /* \"contracts/rankandconsensus.sol\":9074:9084  members[i] */\n      dup2\n      mload\n      dup2\n      lt\n      tag_103\n      jumpi\n      tag_104\n      tag_49\n      jump\t// in\n    tag_104:\n    tag_103:\n      0x20\n      mul\n      0x20\n      add\n      add\n        /* \"contracts/rankandconsensus.sol\":9074:9103  members[i] = group.members[i] */\n      swap1\n      0xffffffffffffffffffffffffffffffffffffffff\n      and\n      swap1\n      dup2\n      0xffffffffffffffffffffffffffffffffffffffff\n      and\n      dup2\n      mstore\n      pop\n      pop\n        /* \"contracts/rankandconsensus.sol\":9129:9199  calculateTransientScore(_communityId, _weekNumber, _groupId, i, group) */\n      tag_105\n        /* \"contracts/rankandconsensus.sol\":9153:9165  _communityId */\n      dup12\n        /* \"contracts/rankandconsensus.sol\":9167:9178  _weekNumber */\n      dup12\n        /* \"contracts/rankandconsensus.sol\":9180:9188  _groupId */\n      dup12\n        /* \"contracts/rankandconsensus.sol\":9190:9191  i */\n      dup5\n        /* \"contracts/rankandconsensus.sol\":9193:9198  group */\n      dup10\n        /* \"contracts/rankandconsensus.sol\":9129:9152  calculateTransientScore */\n      tag_66\n        /* \"contracts/rankandconsensus.sol\":9129:9199  calculateTransientScore(_communityId, _weekNumber, _groupId, i, group) */\n      jump\t// in\n    tag_105:\n        /* \"contracts/rankandconsensus.sol\":9117:9123  scores */\n      dup3\n        /* \"contracts/rankandconsensus.sol\":9124:9125  i */\n      dup3\n        /* \"contracts/rankandconsensus.sol\":9117:9126  scores[i] */\n      dup2\n      mload\n      dup2\n      lt\n      tag_106\n      jumpi\n      tag_107\n      tag_49\n      jump\t// in\n    tag_107:\n    tag_106:\n      0x20\n      mul\n      0x20\n      add\n      add\n        /* \"contracts/rankandconsensus.sol\":9117:9199  scores[i] = calculateTransientScore(_communityId, _weekNumber, _groupId, i, group) */\n      dup2\n      dup2\n      mstore\n      pop\n      pop\n        /* \"contracts/rankandconsensus.sol\":9055:9058  i++ */\n      dup1\n      dup1\n      0x01\n      add\n      swap2\n      pop\n      pop\n        /* \"contracts/rankandconsensus.sol\":9020:9210  for (uint256 i = 0; i < groupSize; i++) {... */\n      jump(tag_98)\n    tag_99:\n      pop\n        /* \"contracts/rankandconsensus.sol\":9228:9235  members */\n      dup2\n        /* \"contracts/rankandconsensus.sol\":9237:9243  scores */\n      dup2\n        /* \"contracts/rankandconsensus.sol\":9220:9244  return (members, scores) */\n      swap7\n      pop\n      swap7\n      pop\n      pop\n      pop\n      pop\n      pop\n      pop\n        /* \"contracts/rankandconsensus.sol\":8415:9251  function getTransientScores(uint256 _communityId, uint256 _weekNumber, uint256 _groupId) public view returns (address[] memory, uint256[] memory) {... */\n      swap4\n      pop\n      swap4\n      swap2\n      pop\n      pop\n      jump\t// out\n        /* \"contracts/rankandconsensus.sol\":7759:8179  function getConsensusRanking(uint256 _communityId, uint256 _weekNumber, uint256 _groupId) public view returns (uint256[] memory rankedScores, uint256[] memory transientScores, uint256 timestamp) {... */\n    tag_26:\n        /* \"contracts/rankandconsensus.sol\":7870:7899  uint256[] memory rankedScores */\n      0x60\n        /* \"contracts/rankandconsensus.sol\":7901:7933  uint256[] memory transientScores */\n      dup1\n        /* \"contracts/rankandconsensus.sol\":7935:7952  uint256 timestamp */\n      0x00\n        /* \"contracts/rankandconsensus.sol\":7964:8005  ConsensusRanking storage consensusRanking */\n      dup1\n        /* \"contracts/rankandconsensus.sol\":8008:8025  consensusRankings */\n      0x02\n        /* \"contracts/rankandconsensus.sol\":8008:8039  consensusRankings[_communityId] */\n      0x00\n        /* \"contracts/rankandconsensus.sol\":8026:8038  _communityId */\n      dup9\n        /* \"contracts/rankandconsensus.sol\":8008:8039  consensusRankings[_communityId] */\n      dup2\n      mstore\n      0x20\n      add\n      swap1\n      dup2\n      mstore\n      0x20\n      add\n      0x00\n      keccak256\n        /* \"contracts/rankandconsensus.sol\":8008:8052  consensusRankings[_communityId][_weekNumber] */\n      0x00\n        /* \"contracts/rankandconsensus.sol\":8040:8051  _weekNumber */\n      dup8\n        /* \"contracts/rankandconsensus.sol\":8008:8052  consensusRankings[_communityId][_weekNumber] */\n      dup2\n      mstore\n      0x20\n      add\n      swap1\n      dup2\n      mstore\n      0x20\n      add\n      0x00\n      keccak256\n        /* \"contracts/rankandconsensus.sol\":8008:8062  consensusRankings[_communityId][_weekNumber][_groupId] */\n      0x00\n        /* \"contracts/rankandconsensus.sol\":8053:8061  _groupId */\n      dup7\n        /* \"contracts/rankandconsensus.sol\":8008:8062  consensusRankings[_communityId][_weekNumber][_groupId] */\n      dup2\n      mstore\n      0x20\n      add\n      swap1\n      dup2\n      mstore\n      0x20\n      add\n      0x00\n      keccak256\n        /* \"contracts/rankandconsensus.sol\":7964:8062  ConsensusRanking storage consensusRanking = consensusRankings[_communityId][_weekNumber][_groupId] */\n      swap1\n      pop\n        /* \"contracts/rankandconsensus.sol\":8080:8096  consensusRanking */\n      dup1\n        /* \"contracts/rankandconsensus.sol\":8080:8109  consensusRanking.rankedScores */\n      0x00\n      add\n        /* \"contracts/rankandconsensus.sol\":8111:8127  consensusRanking */\n      dup2\n        /* \"contracts/rankandconsensus.sol\":8111:8143  consensusRanking.transientScores */\n      0x01\n      add\n        /* \"contracts/rankandconsensus.sol\":8145:8161  consensusRanking */\n      dup3\n        /* \"contracts/rankandconsensus.sol\":8145:8171  consensusRanking.timestamp */\n      0x02\n      add\n      sload\n        /* \"contracts/rankandconsensus.sol\":8072:8172  return (consensusRanking.rankedScores, consensusRanking.transientScores, consensusRanking.timestamp) */\n      dup3\n      dup1\n      sload\n      dup1\n      0x20\n      mul\n      0x20\n      add\n      mload(0x40)\n      swap1\n      dup2\n      add\n      0x40\n      mstore\n      dup1\n      swap3\n      swap2\n      swap1\n      dup2\n      dup2\n      mstore\n      0x20\n      add\n      dup3\n      dup1\n      sload\n      dup1\n      iszero\n      tag_109\n      jumpi\n      0x20\n      mul\n      dup3\n      add\n      swap2\n      swap1\n      0x00\n      mstore\n      keccak256(0x00, 0x20)\n      swap1\n    tag_110:\n      dup2\n      sload\n      dup2\n      mstore\n      0x20\n      add\n      swap1\n      0x01\n      add\n      swap1\n      dup1\n      dup4\n      gt\n      tag_110\n      jumpi\n    tag_109:\n      pop\n      pop\n      pop\n      pop\n      pop\n      swap3\n      pop\n      dup2\n      dup1\n      sload\n      dup1\n      0x20\n      mul\n      0x20\n      add\n      mload(0x40)\n      swap1\n      dup2\n      add\n      0x40\n      mstore\n      dup1\n      swap3\n      swap2\n      swap1\n      dup2\n      dup2\n      mstore\n      0x20\n      add\n      dup3\n      dup1\n      sload\n      dup1\n      iszero\n      tag_111\n      jumpi\n      0x20\n      mul\n      dup3\n      add\n      swap2\n      swap1\n      0x00\n      mstore\n      keccak256(0x00, 0x20)\n      swap1\n    tag_112:\n      dup2\n      sload\n      dup2\n      mstore\n      0x20\n      add\n      swap1\n      0x01\n      add\n      swap1\n      dup1\n      dup4\n      gt\n      tag_112\n      jumpi\n    tag_111:\n      pop\n      pop\n      pop\n      pop\n      pop\n      swap2\n      pop\n      swap4\n      pop\n      swap4\n      pop\n      swap4\n      pop\n      pop\n        /* \"contracts/rankandconsensus.sol\":7759:8179  function getConsensusRanking(uint256 _communityId, uint256 _weekNumber, uint256 _groupId) public view returns (uint256[] memory rankedScores, uint256[] memory transientScores, uint256 timestamp) {... */\n      swap4\n      pop\n      swap4\n      pop\n      swap4\n      swap1\n      pop\n      jump\t// out\n        /* \"contracts/rankandconsensus.sol\":1439:2322  function submitRanking(uint256 _communityId, uint256 _weekNumber, uint256 _groupId, uint256[] memory _ranking) public {... */\n    tag_32:\n        /* \"contracts/rankandconsensus.sol\":1567:1622  ICommunityGovernanceContributions.Group[] memory groups */\n      0x00\n        /* \"contracts/rankandconsensus.sol\":1625:1646  contributionsContract */\n      dup1\n      0x00\n      swap1\n      sload\n      swap1\n      0x0100\n      exp\n      swap1\n      div\n      0xffffffffffffffffffffffffffffffffffffffff\n      and\n        /* \"contracts/rankandconsensus.sol\":1625:1663  contributionsContract.getGroupsForWeek */\n      0xffffffffffffffffffffffffffffffffffffffff\n      and\n      0x6c331bd3\n        /* \"contracts/rankandconsensus.sol\":1664:1676  _communityId */\n      dup7\n        /* \"contracts/rankandconsensus.sol\":1678:1689  _weekNumber */\n      dup7\n        /* \"contracts/rankandconsensus.sol\":1625:1690  contributionsContract.getGroupsForWeek(_communityId, _weekNumber) */\n      mload(0x40)\n      dup4\n      0xffffffff\n      and\n      0xe0\n      shl\n      dup2\n      mstore\n      0x04\n      add\n      tag_114\n      swap3\n      swap2\n      swap1\n      tag_39\n      jump\t// in\n    tag_114:\n      0x00\n      mload(0x40)\n      dup1\n      dup4\n      sub\n      dup2\n      dup7\n      gas\n      staticcall\n      iszero\n      dup1\n      iszero\n      tag_116\n      jumpi\n      returndatasize\n      0x00\n      dup1\n      returndatacopy\n      revert(0x00, returndatasize)\n    tag_116:\n      pop\n      pop\n      pop\n      pop\n      mload(0x40)\n      returndatasize\n      0x00\n      dup3\n      returndatacopy\n      returndatasize\n      not(0x1f)\n      0x1f\n      dup3\n      add\n      and\n      dup3\n      add\n      dup1\n      0x40\n      mstore\n      pop\n      dup2\n      add\n      swap1\n      tag_117\n      swap2\n      swap1\n      tag_43\n      jump\t// in\n    tag_117:\n        /* \"contracts/rankandconsensus.sol\":1567:1690  ICommunityGovernanceContributions.Group[] memory groups = contributionsContract.getGroupsForWeek(_communityId, _weekNumber) */\n      swap1\n      pop\n        /* \"contracts/rankandconsensus.sol\":1719:1725  groups */\n      dup1\n        /* \"contracts/rankandconsensus.sol\":1719:1732  groups.length */\n      mload\n        /* \"contracts/rankandconsensus.sol\":1708:1716  _groupId */\n      dup4\n        /* \"contracts/rankandconsensus.sol\":1708:1732  _groupId < groups.length */\n      lt\n        /* \"contracts/rankandconsensus.sol\":1700:1753  require(_groupId < groups.length, \"Invalid group ID\") */\n      tag_118\n      jumpi\n      mload(0x40)\n      0x08c379a000000000000000000000000000000000000000000000000000000000\n      dup2\n      mstore\n      0x04\n      add\n      tag_119\n      swap1\n      tag_46\n      jump\t// in\n    tag_119:\n      mload(0x40)\n      dup1\n      swap2\n      sub\n      swap1\n      revert\n    tag_118:\n        /* \"contracts/rankandconsensus.sol\":1763:1815  ICommunityGovernanceContributions.Group memory group */\n      0x00\n        /* \"contracts/rankandconsensus.sol\":1818:1824  groups */\n      dup2\n        /* \"contracts/rankandconsensus.sol\":1825:1833  _groupId */\n      dup5\n        /* \"contracts/rankandconsensus.sol\":1818:1834  groups[_groupId] */\n      dup2\n      mload\n      dup2\n      lt\n      tag_120\n      jumpi\n      tag_121\n      tag_49\n      jump\t// in\n    tag_121:\n    tag_120:\n      0x20\n      mul\n      0x20\n      add\n      add\n      mload\n        /* \"contracts/rankandconsensus.sol\":1763:1834  ICommunityGovernanceContributions.Group memory group = groups[_groupId] */\n      swap1\n      pop\n        /* \"contracts/rankandconsensus.sol\":1871:1876  group */\n      dup1\n        /* \"contracts/rankandconsensus.sol\":1871:1884  group.members */\n      0x00\n      add\n      mload\n        /* \"contracts/rankandconsensus.sol\":1871:1891  group.members.length */\n      mload\n        /* \"contracts/rankandconsensus.sol\":1852:1860  _ranking */\n      dup4\n        /* \"contracts/rankandconsensus.sol\":1852:1867  _ranking.length */\n      mload\n        /* \"contracts/rankandconsensus.sol\":1852:1891  _ranking.length == group.members.length */\n      eq\n        /* \"contracts/rankandconsensus.sol\":1844:1934  require(_ranking.length == group.members.length, \"Ranking must include all group members\") */\n      tag_122\n      jumpi\n      mload(0x40)\n      0x08c379a000000000000000000000000000000000000000000000000000000000\n      dup2\n      mstore\n      0x04\n      add\n      tag_123\n      swap1\n      tag_124\n      jump\t// in\n    tag_123:\n      mload(0x40)\n      dup1\n      swap2\n      sub\n      swap1\n      revert\n    tag_122:\n        /* \"contracts/rankandconsensus.sol\":1952:1984  isPartOfGroup(group, msg.sender) */\n      tag_125\n        /* \"contracts/rankandconsensus.sol\":1966:1971  group */\n      dup2\n        /* \"contracts/rankandconsensus.sol\":1973:1983  msg.sender */\n      caller\n        /* \"contracts/rankandconsensus.sol\":1952:1965  isPartOfGroup */\n      tag_126\n        /* \"contracts/rankandconsensus.sol\":1952:1984  isPartOfGroup(group, msg.sender) */\n      jump\t// in\n    tag_125:\n        /* \"contracts/rankandconsensus.sol\":1944:2017  require(isPartOfGroup(group, msg.sender), \"Sender not part of the group\") */\n      tag_127\n      jumpi\n      mload(0x40)\n      0x08c379a000000000000000000000000000000000000000000000000000000000\n      dup2\n      mstore\n      0x04\n      add\n      tag_128\n      swap1\n      tag_129\n      jump\t// in\n    tag_128:\n      mload(0x40)\n      dup1\n      swap2\n      sub\n      swap1\n      revert\n    tag_127:\n        /* \"contracts/rankandconsensus.sol\":2116:2117  0 */\n      0x00\n        /* \"contracts/rankandconsensus.sol\":2035:2043  rankings */\n      0x01\n        /* \"contracts/rankandconsensus.sol\":2035:2057  rankings[_communityId] */\n      0x00\n        /* \"contracts/rankandconsensus.sol\":2044:2056  _communityId */\n      dup9\n        /* \"contracts/rankandconsensus.sol\":2035:2057  rankings[_communityId] */\n      dup2\n      mstore\n      0x20\n      add\n      swap1\n      dup2\n      mstore\n      0x20\n      add\n      0x00\n      keccak256\n        /* \"contracts/rankandconsensus.sol\":2035:2070  rankings[_communityId][_weekNumber] */\n      0x00\n        /* \"contracts/rankandconsensus.sol\":2058:2069  _weekNumber */\n      dup8\n        /* \"contracts/rankandconsensus.sol\":2035:2070  rankings[_communityId][_weekNumber] */\n      dup2\n      mstore\n      0x20\n      add\n      swap1\n      dup2\n      mstore\n      0x20\n      add\n      0x00\n      keccak256\n        /* \"contracts/rankandconsensus.sol\":2035:2080  rankings[_communityId][_weekNumber][_groupId] */\n      0x00\n        /* \"contracts/rankandconsensus.sol\":2071:2079  _groupId */\n      dup7\n        /* \"contracts/rankandconsensus.sol\":2035:2080  rankings[_communityId][_weekNumber][_groupId] */\n      dup2\n      mstore\n      0x20\n      add\n      swap1\n      dup2\n      mstore\n      0x20\n      add\n      0x00\n      keccak256\n        /* \"contracts/rankandconsensus.sol\":2035:2092  rankings[_communityId][_weekNumber][_groupId][msg.sender] */\n      0x00\n        /* \"contracts/rankandconsensus.sol\":2081:2091  msg.sender */\n      caller\n        /* \"contracts/rankandconsensus.sol\":2035:2092  rankings[_communityId][_weekNumber][_groupId][msg.sender] */\n      0xffffffffffffffffffffffffffffffffffffffff\n      and\n      0xffffffffffffffffffffffffffffffffffffffff\n      and\n      dup2\n      mstore\n      0x20\n      add\n      swap1\n      dup2\n      mstore\n      0x20\n      add\n      0x00\n      keccak256\n        /* \"contracts/rankandconsensus.sol\":2035:2105  rankings[_communityId][_weekNumber][_groupId][msg.sender].rankedScores */\n      0x00\n      add\n        /* \"contracts/rankandconsensus.sol\":2035:2112  rankings[_communityId][_weekNumber][_groupId][msg.sender].rankedScores.length */\n      dup1\n      sload\n      swap1\n      pop\n        /* \"contracts/rankandconsensus.sol\":2035:2117  rankings[_communityId][_weekNumber][_groupId][msg.sender].rankedScores.length == 0 */\n      eq\n        /* \"contracts/rankandconsensus.sol\":2027:2147  require(rankings[_communityId][_weekNumber][_groupId][msg.sender].rankedScores.length == 0, \"Ranking already submitted\") */\n      tag_130\n      jumpi\n      mload(0x40)\n      0x08c379a000000000000000000000000000000000000000000000000000000000\n      dup2\n      mstore\n      0x04\n      add\n      tag_131\n      swap1\n      tag_132\n      jump\t// in\n    tag_131:\n      mload(0x40)\n      dup1\n      swap2\n      sub\n      swap1\n      revert\n    tag_130:\n        /* \"contracts/rankandconsensus.sol\":2218:2235  Ranking(_ranking) */\n      mload(0x40)\n      dup1\n      0x20\n      add\n      0x40\n      mstore\n      dup1\n        /* \"contracts/rankandconsensus.sol\":2226:2234  _ranking */\n      dup5\n        /* \"contracts/rankandconsensus.sol\":2218:2235  Ranking(_ranking) */\n      dup2\n      mstore\n      pop\n        /* \"contracts/rankandconsensus.sol\":2158:2166  rankings */\n      0x01\n        /* \"contracts/rankandconsensus.sol\":2158:2180  rankings[_communityId] */\n      0x00\n        /* \"contracts/rankandconsensus.sol\":2167:2179  _communityId */\n      dup9\n        /* \"contracts/rankandconsensus.sol\":2158:2180  rankings[_communityId] */\n      dup2\n      mstore\n      0x20\n      add\n      swap1\n      dup2\n      mstore\n      0x20\n      add\n      0x00\n      keccak256\n        /* \"contracts/rankandconsensus.sol\":2158:2193  rankings[_communityId][_weekNumber] */\n      0x00\n        /* \"contracts/rankandconsensus.sol\":2181:2192  _weekNumber */\n      dup8\n        /* \"contracts/rankandconsensus.sol\":2158:2193  rankings[_communityId][_weekNumber] */\n      dup2\n      mstore\n      0x20\n      add\n      swap1\n      dup2\n      mstore\n      0x20\n      add\n      0x00\n      keccak256\n        /* \"contracts/rankandconsensus.sol\":2158:2203  rankings[_communityId][_weekNumber][_groupId] */\n      0x00\n        /* \"contracts/rankandconsensus.sol\":2194:2202  _groupId */\n      dup7\n        /* \"contracts/rankandconsensus.sol\":2158:2203  rankings[_communityId][_weekNumber][_groupId] */\n      dup2\n      mstore\n      0x20\n      add\n      swap1\n      dup2\n      mstore\n      0x20\n      add\n      0x00\n      keccak256\n        /* \"contracts/rankandconsensus.sol\":2158:2215  rankings[_communityId][_weekNumber][_groupId][msg.sender] */\n      0x00\n        /* \"contracts/rankandconsensus.sol\":2204:2214  msg.sender */\n      caller\n        /* \"contracts/rankandconsensus.sol\":2158:2215  rankings[_communityId][_weekNumber][_groupId][msg.sender] */\n      0xffffffffffffffffffffffffffffffffffffffff\n      and\n      0xffffffffffffffffffffffffffffffffffffffff\n      and\n      dup2\n      mstore\n      0x20\n      add\n      swap1\n      dup2\n      mstore\n      0x20\n      add\n      0x00\n      keccak256\n        /* \"contracts/rankandconsensus.sol\":2158:2235  rankings[_communityId][_weekNumber][_groupId][msg.sender] = Ranking(_ranking) */\n      0x00\n      dup3\n      add\n      mload\n      dup2\n      0x00\n      add\n      swap1\n      dup1\n      mload\n      swap1\n      0x20\n      add\n      swap1\n      tag_133\n      swap3\n      swap2\n      swap1\n      tag_76\n      jump\t// in\n    tag_133:\n      pop\n      swap1\n      pop\n      pop\n        /* \"contracts/rankandconsensus.sol\":2304:2314  msg.sender */\n      caller\n        /* \"contracts/rankandconsensus.sol\":2250:2315  RankingSubmitted(_communityId, _weekNumber, _groupId, msg.sender) */\n      0xffffffffffffffffffffffffffffffffffffffff\n      and\n        /* \"contracts/rankandconsensus.sol\":2267:2279  _communityId */\n      dup7\n        /* \"contracts/rankandconsensus.sol\":2250:2315  RankingSubmitted(_communityId, _weekNumber, _groupId, msg.sender) */\n      0xe2d0f4a25c2b0cc7ccda020bcd4293dceffb51708b88b9c58ef71a0ab96b5e16\n        /* \"contracts/rankandconsensus.sol\":2281:2292  _weekNumber */\n      dup8\n        /* \"contracts/rankandconsensus.sol\":2294:2302  _groupId */\n      dup8\n        /* \"contracts/rankandconsensus.sol\":2250:2315  RankingSubmitted(_communityId, _weekNumber, _groupId, msg.sender) */\n      mload(0x40)\n      tag_134\n      swap3\n      swap2\n      swap1\n      tag_39\n      jump\t// in\n    tag_134:\n      mload(0x40)\n      dup1\n      swap2\n      sub\n      swap1\n      log3\n        /* \"contracts/rankandconsensus.sol\":1557:2322  {... */\n      pop\n      pop\n        /* \"contracts/rankandconsensus.sol\":1439:2322  function submitRanking(uint256 _communityId, uint256 _weekNumber, uint256 _groupId, uint256[] memory _ranking) public {... */\n      pop\n      pop\n      pop\n      pop\n      jump\t// out\n        /* \"contracts/rankandconsensus.sol\":467:529  ICommunityGovernanceContributions public contributionsContract */\n    tag_34:\n      0x00\n      dup1\n      sload\n      swap1\n      0x0100\n      exp\n      swap1\n      div\n      0xffffffffffffffffffffffffffffffffffffffff\n      and\n      dup2\n      jump\t// out\n        /* \"contracts/rankandconsensus.sol\":7306:7729  function allMembersSubmitted(uint256 _communityId, uint256 _weekNumber, uint256 _groupId, ICommunityGovernanceContributions.Group memory group) private view returns (bool) {... */\n    tag_54:\n        /* \"contracts/rankandconsensus.sol\":7472:7476  bool */\n      0x00\n        /* \"contracts/rankandconsensus.sol\":7493:7502  uint256 i */\n      dup1\n        /* \"contracts/rankandconsensus.sol\":7505:7506  0 */\n      0x00\n        /* \"contracts/rankandconsensus.sol\":7493:7506  uint256 i = 0 */\n      swap1\n      pop\n        /* \"contracts/rankandconsensus.sol\":7488:7702  for (uint256 i = 0; i < group.members.length; i++) {... */\n    tag_136:\n        /* \"contracts/rankandconsensus.sol\":7512:7517  group */\n      dup3\n        /* \"contracts/rankandconsensus.sol\":7512:7525  group.members */\n      0x00\n      add\n      mload\n        /* \"contracts/rankandconsensus.sol\":7512:7532  group.members.length */\n      mload\n        /* \"contracts/rankandconsensus.sol\":7508:7509  i */\n      dup2\n        /* \"contracts/rankandconsensus.sol\":7508:7532  i < group.members.length */\n      lt\n        /* \"contracts/rankandconsensus.sol\":7488:7702  for (uint256 i = 0; i < group.members.length; i++) {... */\n      iszero\n      tag_137\n      jumpi\n        /* \"contracts/rankandconsensus.sol\":7644:7645  0 */\n      0x00\n        /* \"contracts/rankandconsensus.sol\":7557:7565  rankings */\n      0x01\n        /* \"contracts/rankandconsensus.sol\":7557:7579  rankings[_communityId] */\n      0x00\n        /* \"contracts/rankandconsensus.sol\":7566:7578  _communityId */\n      dup9\n        /* \"contracts/rankandconsensus.sol\":7557:7579  rankings[_communityId] */\n      dup2\n      mstore\n      0x20\n      add\n      swap1\n      dup2\n      mstore\n      0x20\n      add\n      0x00\n      keccak256\n        /* \"contracts/rankandconsensus.sol\":7557:7592  rankings[_communityId][_weekNumber] */\n      0x00\n        /* \"contracts/rankandconsensus.sol\":7580:7591  _weekNumber */\n      dup8\n        /* \"contracts/rankandconsensus.sol\":7557:7592  rankings[_communityId][_weekNumber] */\n      dup2\n      mstore\n      0x20\n      add\n      swap1\n      dup2\n      mstore\n      0x20\n      add\n      0x00\n      keccak256\n        /* \"contracts/rankandconsensus.sol\":7557:7602  rankings[_communityId][_weekNumber][_groupId] */\n      0x00\n        /* \"contracts/rankandconsensus.sol\":7593:7601  _groupId */\n      dup7\n        /* \"contracts/rankandconsensus.sol\":7557:7602  rankings[_communityId][_weekNumber][_groupId] */\n      dup2\n      mstore\n      0x20\n      add\n      swap1\n      dup2\n      mstore\n      0x20\n      add\n      0x00\n      keccak256\n        /* \"contracts/rankandconsensus.sol\":7557:7620  rankings[_communityId][_weekNumber][_groupId][group.members[i]] */\n      0x00\n        /* \"contracts/rankandconsensus.sol\":7603:7608  group */\n      dup6\n        /* \"contracts/rankandconsensus.sol\":7603:7616  group.members */\n      0x00\n      add\n      mload\n        /* \"contracts/rankandconsensus.sol\":7617:7618  i */\n      dup5\n        /* \"contracts/rankandconsensus.sol\":7603:7619  group.members[i] */\n      dup2\n      mload\n      dup2\n      lt\n      tag_139\n      jumpi\n      tag_140\n      tag_49\n      jump\t// in\n    tag_140:\n    tag_139:\n      0x20\n      mul\n      0x20\n      add\n      add\n      mload\n        /* \"contracts/rankandconsensus.sol\":7557:7620  rankings[_communityId][_weekNumber][_groupId][group.members[i]] */\n      0xffffffffffffffffffffffffffffffffffffffff\n      and\n      0xffffffffffffffffffffffffffffffffffffffff\n      and\n      dup2\n      mstore\n      0x20\n      add\n      swap1\n      dup2\n      mstore\n      0x20\n      add\n      0x00\n      keccak256\n        /* \"contracts/rankandconsensus.sol\":7557:7633  rankings[_communityId][_weekNumber][_groupId][group.members[i]].rankedScores */\n      0x00\n      add\n        /* \"contracts/rankandconsensus.sol\":7557:7640  rankings[_communityId][_weekNumber][_groupId][group.members[i]].rankedScores.length */\n      dup1\n      sload\n      swap1\n      pop\n        /* \"contracts/rankandconsensus.sol\":7557:7645  rankings[_communityId][_weekNumber][_groupId][group.members[i]].rankedScores.length == 0 */\n      sub\n        /* \"contracts/rankandconsensus.sol\":7553:7692  if (rankings[_communityId][_weekNumber][_groupId][group.members[i]].rankedScores.length == 0) {... */\n      tag_141\n      jumpi\n        /* \"contracts/rankandconsensus.sol\":7672:7677  false */\n      0x00\n        /* \"contracts/rankandconsensus.sol\":7665:7677  return false */\n      swap2\n      pop\n      pop\n      jump(tag_135)\n        /* \"contracts/rankandconsensus.sol\":7553:7692  if (rankings[_communityId][_weekNumber][_groupId][group.members[i]].rankedScores.length == 0) {... */\n    tag_141:\n        /* \"contracts/rankandconsensus.sol\":7534:7537  i++ */\n      dup1\n      dup1\n      0x01\n      add\n      swap2\n      pop\n      pop\n        /* \"contracts/rankandconsensus.sol\":7488:7702  for (uint256 i = 0; i < group.members.length; i++) {... */\n      jump(tag_136)\n    tag_137:\n      pop\n        /* \"contracts/rankandconsensus.sol\":7718:7722  true */\n      0x01\n        /* \"contracts/rankandconsensus.sol\":7711:7722  return true */\n      swap1\n      pop\n        /* \"contracts/rankandconsensus.sol\":7306:7729  function allMembersSubmitted(uint256 _communityId, uint256 _weekNumber, uint256 _groupId, ICommunityGovernanceContributions.Group memory group) private view returns (bool) {... */\n    tag_135:\n      swap5\n      swap4\n      pop\n      pop\n      pop\n      pop\n      jump\t// out\n        /* \"contracts/rankandconsensus.sol\":3565:4504  function calculateTransientScore(uint256 _communityId, uint256 _weekNumber, uint256 _groupId, uint256 memberIndex, ICommunityGovernanceContributions.Group memory group) private view returns (uint256) {... */\n    tag_66:\n        /* \"contracts/rankandconsensus.sol\":3756:3763  uint256 */\n      0x00\n        /* \"contracts/rankandconsensus.sol\":3775:3806  uint256[] memory memberRankings */\n      dup1\n        /* \"contracts/rankandconsensus.sol\":3823:3828  group */\n      dup3\n        /* \"contracts/rankandconsensus.sol\":3823:3836  group.members */\n      0x00\n      add\n      mload\n        /* \"contracts/rankandconsensus.sol\":3823:3843  group.members.length */\n      mload\n        /* \"contracts/rankandconsensus.sol\":3809:3844  new uint256[](group.members.length) */\n      0xffffffffffffffff\n      dup2\n      gt\n      iszero\n      tag_143\n      jumpi\n      tag_144\n      tag_60\n      jump\t// in\n    tag_144:\n    tag_143:\n      mload(0x40)\n      swap1\n      dup1\n      dup3\n      mstore\n      dup1\n      0x20\n      mul\n      0x20\n      add\n      dup3\n      add\n      0x40\n      mstore\n      dup1\n      iszero\n      tag_145\n      jumpi\n      dup2\n      0x20\n      add\n      0x20\n      dup3\n      mul\n      dup1\n      calldatasize\n      dup4\n      calldatacopy\n      dup1\n      dup3\n      add\n      swap2\n      pop\n      pop\n      swap1\n      pop\n    tag_145:\n      pop\n        /* \"contracts/rankandconsensus.sol\":3775:3844  uint256[] memory memberRankings = new uint256[](group.members.length) */\n      swap1\n      pop\n        /* \"contracts/rankandconsensus.sol\":3859:3868  uint256 i */\n      0x00\n        /* \"contracts/rankandconsensus.sol\":3854:4039  for (uint256 i = 0; i < group.members.length; i++) {... */\n    tag_146:\n        /* \"contracts/rankandconsensus.sol\":3878:3883  group */\n      dup4\n        /* \"contracts/rankandconsensus.sol\":3878:3891  group.members */\n      0x00\n      add\n      mload\n        /* \"contracts/rankandconsensus.sol\":3878:3898  group.members.length */\n      mload\n        /* \"contracts/rankandconsensus.sol\":3874:3875  i */\n      dup2\n        /* \"contracts/rankandconsensus.sol\":3874:3898  i < group.members.length */\n      lt\n        /* \"contracts/rankandconsensus.sol\":3854:4039  for (uint256 i = 0; i < group.members.length; i++) {... */\n      iszero\n      tag_147\n      jumpi\n        /* \"contracts/rankandconsensus.sol\":3939:3947  rankings */\n      0x01\n        /* \"contracts/rankandconsensus.sol\":3939:3961  rankings[_communityId] */\n      0x00\n        /* \"contracts/rankandconsensus.sol\":3948:3960  _communityId */\n      dup10\n        /* \"contracts/rankandconsensus.sol\":3939:3961  rankings[_communityId] */\n      dup2\n      mstore\n      0x20\n      add\n      swap1\n      dup2\n      mstore\n      0x20\n      add\n      0x00\n      keccak256\n        /* \"contracts/rankandconsensus.sol\":3939:3974  rankings[_communityId][_weekNumber] */\n      0x00\n        /* \"contracts/rankandconsensus.sol\":3962:3973  _weekNumber */\n      dup9\n        /* \"contracts/rankandconsensus.sol\":3939:3974  rankings[_communityId][_weekNumber] */\n      dup2\n      mstore\n      0x20\n      add\n      swap1\n      dup2\n      mstore\n      0x20\n      add\n      0x00\n      keccak256\n        /* \"contracts/rankandconsensus.sol\":3939:3984  rankings[_communityId][_weekNumber][_groupId] */\n      0x00\n        /* \"contracts/rankandconsensus.sol\":3975:3983  _groupId */\n      dup8\n        /* \"contracts/rankandconsensus.sol\":3939:3984  rankings[_communityId][_weekNumber][_groupId] */\n      dup2\n      mstore\n      0x20\n      add\n      swap1\n      dup2\n      mstore\n      0x20\n      add\n      0x00\n      keccak256\n        /* \"contracts/rankandconsensus.sol\":3939:4002  rankings[_communityId][_weekNumber][_groupId][group.members[i]] */\n      0x00\n        /* \"contracts/rankandconsensus.sol\":3985:3990  group */\n      dup6\n        /* \"contracts/rankandconsensus.sol\":3985:3998  group.members */\n      0x00\n      add\n      mload\n        /* \"contracts/rankandconsensus.sol\":3999:4000  i */\n      dup4\n        /* \"contracts/rankandconsensus.sol\":3985:4001  group.members[i] */\n      dup2\n      mload\n      dup2\n      lt\n      tag_149\n      jumpi\n      tag_150\n      tag_49\n      jump\t// in\n    tag_150:\n    tag_149:\n      0x20\n      mul\n      0x20\n      add\n      add\n      mload\n        /* \"contracts/rankandconsensus.sol\":3939:4002  rankings[_communityId][_weekNumber][_groupId][group.members[i]] */\n      0xffffffffffffffffffffffffffffffffffffffff\n      and\n      0xffffffffffffffffffffffffffffffffffffffff\n      and\n      dup2\n      mstore\n      0x20\n      add\n      swap1\n      dup2\n      mstore\n      0x20\n      add\n      0x00\n      keccak256\n        /* \"contracts/rankandconsensus.sol\":3939:4015  rankings[_communityId][_weekNumber][_groupId][group.members[i]].rankedScores */\n      0x00\n      add\n        /* \"contracts/rankandconsensus.sol\":4016:4027  memberIndex */\n      dup6\n        /* \"contracts/rankandconsensus.sol\":3939:4028  rankings[_communityId][_weekNumber][_groupId][group.members[i]].rankedScores[memberIndex] */\n      dup2\n      sload\n      dup2\n      lt\n      tag_151\n      jumpi\n      tag_152\n      tag_49\n      jump\t// in\n    tag_152:\n    tag_151:\n      swap1\n      0x00\n      mstore\n      keccak256(0x00, 0x20)\n      add\n      sload\n        /* \"contracts/rankandconsensus.sol\":3919:3933  memberRankings */\n      dup3\n        /* \"contracts/rankandconsensus.sol\":3934:3935  i */\n      dup3\n        /* \"contracts/rankandconsensus.sol\":3919:3936  memberRankings[i] */\n      dup2\n      mload\n      dup2\n      lt\n      tag_154\n      jumpi\n      tag_155\n      tag_49\n      jump\t// in\n    tag_155:\n    tag_154:\n      0x20\n      mul\n      0x20\n      add\n      add\n        /* \"contracts/rankandconsensus.sol\":3919:4028  memberRankings[i] = rankings[_communityId][_weekNumber][_groupId][group.members[i]].rankedScores[memberIndex] */\n      dup2\n      dup2\n      mstore\n      pop\n      pop\n        /* \"contracts/rankandconsensus.sol\":3900:3903  i++ */\n      dup1\n      dup1\n      0x01\n      add\n      swap2\n      pop\n      pop\n        /* \"contracts/rankandconsensus.sol\":3854:4039  for (uint256 i = 0; i < group.members.length; i++) {... */\n      jump(tag_146)\n    tag_147:\n      pop\n        /* \"contracts/rankandconsensus.sol\":4049:4068  uint256 meanRanking */\n      0x00\n        /* \"contracts/rankandconsensus.sol\":4071:4100  calculateMean(memberRankings) */\n      tag_156\n        /* \"contracts/rankandconsensus.sol\":4085:4099  memberRankings */\n      dup3\n        /* \"contracts/rankandconsensus.sol\":4071:4084  calculateMean */\n      tag_157\n        /* \"contracts/rankandconsensus.sol\":4071:4100  calculateMean(memberRankings) */\n      jump\t// in\n    tag_156:\n        /* \"contracts/rankandconsensus.sol\":4049:4100  uint256 meanRanking = calculateMean(memberRankings) */\n      swap1\n      pop\n        /* \"contracts/rankandconsensus.sol\":4110:4126  uint256 variance */\n      0x00\n        /* \"contracts/rankandconsensus.sol\":4129:4162  calculateVariance(memberRankings) */\n      tag_158\n        /* \"contracts/rankandconsensus.sol\":4147:4161  memberRankings */\n      dup4\n        /* \"contracts/rankandconsensus.sol\":4129:4146  calculateVariance */\n      tag_159\n        /* \"contracts/rankandconsensus.sol\":4129:4162  calculateVariance(memberRankings) */\n      jump\t// in\n    tag_158:\n        /* \"contracts/rankandconsensus.sol\":4110:4162  uint256 variance = calculateVariance(memberRankings) */\n      swap1\n      pop\n        /* \"contracts/rankandconsensus.sol\":4172:4191  uint256 maxVariance */\n      0x00\n        /* \"contracts/rankandconsensus.sol\":4194:4236  calculateMaxVariance(group.members.length) */\n      tag_160\n        /* \"contracts/rankandconsensus.sol\":4215:4220  group */\n      dup7\n        /* \"contracts/rankandconsensus.sol\":4215:4228  group.members */\n      0x00\n      add\n      mload\n        /* \"contracts/rankandconsensus.sol\":4215:4235  group.members.length */\n      mload\n        /* \"contracts/rankandconsensus.sol\":4194:4214  calculateMaxVariance */\n      tag_161\n        /* \"contracts/rankandconsensus.sol\":4194:4236  calculateMaxVariance(group.members.length) */\n      jump\t// in\n    tag_160:\n        /* \"contracts/rankandconsensus.sol\":4172:4236  uint256 maxVariance = calculateMaxVariance(group.members.length) */\n      swap1\n      pop\n        /* \"contracts/rankandconsensus.sol\":4255:4276  uint256 consensusTerm */\n      0x00\n        /* \"contracts/rankandconsensus.sol\":4305:4306  0 */\n      dup1\n        /* \"contracts/rankandconsensus.sol\":4290:4301  maxVariance */\n      dup3\n        /* \"contracts/rankandconsensus.sol\":4290:4306  maxVariance == 0 */\n      sub\n        /* \"contracts/rankandconsensus.sol\":4286:4443  if (maxVariance == 0) {... */\n      tag_162\n      jumpi\n        /* \"contracts/rankandconsensus.sol\":561:565  1e18 */\n      0x0de0b6b3a7640000\n        /* \"contracts/rankandconsensus.sol\":4322:4343  consensusTerm = SCALE */\n      swap1\n      pop\n        /* \"contracts/rankandconsensus.sol\":4286:4443  if (maxVariance == 0) {... */\n      jump(tag_163)\n    tag_162:\n        /* \"contracts/rankandconsensus.sol\":4420:4431  maxVariance */\n      dup2\n        /* \"contracts/rankandconsensus.sol\":561:565  1e18 */\n      0x0de0b6b3a7640000\n        /* \"contracts/rankandconsensus.sol\":4400:4408  variance */\n      dup5\n        /* \"contracts/rankandconsensus.sol\":4400:4416  variance * SCALE */\n      tag_164\n      swap2\n      swap1\n      tag_165\n      jump\t// in\n    tag_164:\n        /* \"contracts/rankandconsensus.sol\":4399:4431  (variance * SCALE) / maxVariance */\n      tag_166\n      swap2\n      swap1\n      tag_167\n      jump\t// in\n    tag_166:\n        /* \"contracts/rankandconsensus.sol\":561:565  1e18 */\n      0x0de0b6b3a7640000\n        /* \"contracts/rankandconsensus.sol\":4390:4432  SCALE - ((variance * SCALE) / maxVariance) */\n      tag_168\n      swap2\n      swap1\n      tag_169\n      jump\t// in\n    tag_168:\n        /* \"contracts/rankandconsensus.sol\":4374:4432  consensusTerm = SCALE - ((variance * SCALE) / maxVariance) */\n      swap1\n      pop\n        /* \"contracts/rankandconsensus.sol\":4286:4443  if (maxVariance == 0) {... */\n    tag_163:\n        /* \"contracts/rankandconsensus.sol\":561:565  1e18 */\n      0x0de0b6b3a7640000\n        /* \"contracts/rankandconsensus.sol\":4475:4488  consensusTerm */\n      dup2\n        /* \"contracts/rankandconsensus.sol\":4461:4472  meanRanking */\n      dup6\n        /* \"contracts/rankandconsensus.sol\":4461:4488  meanRanking * consensusTerm */\n      tag_170\n      swap2\n      swap1\n      tag_165\n      jump\t// in\n    tag_170:\n        /* \"contracts/rankandconsensus.sol\":4460:4497  (meanRanking * consensusTerm) / SCALE */\n      tag_171\n      swap2\n      swap1\n      tag_167\n      jump\t// in\n    tag_171:\n        /* \"contracts/rankandconsensus.sol\":4453:4497  return (meanRanking * consensusTerm) / SCALE */\n      swap6\n      pop\n      pop\n      pop\n      pop\n      pop\n      pop\n        /* \"contracts/rankandconsensus.sol\":3565:4504  function calculateTransientScore(uint256 _communityId, uint256 _weekNumber, uint256 _groupId, uint256 memberIndex, ICommunityGovernanceContributions.Group memory group) private view returns (uint256) {... */\n      swap6\n      swap5\n      pop\n      pop\n      pop\n      pop\n      pop\n      jump\t// out\n        /* \"contracts/rankandconsensus.sol\":6296:7015  function sortByScore(uint256[] memory _scores) private pure returns (uint256[] memory) {... */\n    tag_74:\n        /* \"contracts/rankandconsensus.sol\":6365:6381  uint256[] memory */\n      0x60\n        /* \"contracts/rankandconsensus.sol\":6389:6413  uint256[] memory indices */\n      0x00\n        /* \"contracts/rankandconsensus.sol\":6430:6437  _scores */\n      dup3\n        /* \"contracts/rankandconsensus.sol\":6430:6444  _scores.length */\n      mload\n        /* \"contracts/rankandconsensus.sol\":6416:6445  new uint256[](_scores.length) */\n      0xffffffffffffffff\n      dup2\n      gt\n      iszero\n      tag_173\n      jumpi\n      tag_174\n      tag_60\n      jump\t// in\n    tag_174:\n    tag_173:\n      mload(0x40)\n      swap1\n      dup1\n      dup3\n      mstore\n      dup1\n      0x20\n      mul\n      0x20\n      add\n      dup3\n      add\n      0x40\n      mstore\n      dup1\n      iszero\n      tag_175\n      jumpi\n      dup2\n      0x20\n      add\n      0x20\n      dup3\n      mul\n      dup1\n      calldatasize\n      dup4\n      calldatacopy\n      dup1\n      dup3\n      add\n      swap2\n      pop\n      pop\n      swap1\n      pop\n    tag_175:\n      pop\n        /* \"contracts/rankandconsensus.sol\":6389:6445  uint256[] memory indices = new uint256[](_scores.length) */\n      swap1\n      pop\n        /* \"contracts/rankandconsensus.sol\":6456:6465  uint256 i */\n      0x00\n        /* \"contracts/rankandconsensus.sol\":6451:6527  for (uint256 i = 0; i < indices.length; i++) {... */\n    tag_176:\n        /* \"contracts/rankandconsensus.sol\":6475:6482  indices */\n      dup2\n        /* \"contracts/rankandconsensus.sol\":6475:6489  indices.length */\n      mload\n        /* \"contracts/rankandconsensus.sol\":6471:6472  i */\n      dup2\n        /* \"contracts/rankandconsensus.sol\":6471:6489  i < indices.length */\n      lt\n        /* \"contracts/rankandconsensus.sol\":6451:6527  for (uint256 i = 0; i < indices.length; i++) {... */\n      iszero\n      tag_177\n      jumpi\n        /* \"contracts/rankandconsensus.sol\":6519:6520  i */\n      dup1\n        /* \"contracts/rankandconsensus.sol\":6506:6513  indices */\n      dup3\n        /* \"contracts/rankandconsensus.sol\":6514:6515  i */\n      dup3\n        /* \"contracts/rankandconsensus.sol\":6506:6516  indices[i] */\n      dup2\n      mload\n      dup2\n      lt\n      tag_179\n      jumpi\n      tag_180\n      tag_49\n      jump\t// in\n    tag_180:\n    tag_179:\n      0x20\n      mul\n      0x20\n      add\n      add\n        /* \"contracts/rankandconsensus.sol\":6506:6520  indices[i] = i */\n      dup2\n      dup2\n      mstore\n      pop\n      pop\n        /* \"contracts/rankandconsensus.sol\":6491:6494  i++ */\n      dup1\n      dup1\n      0x01\n      add\n      swap2\n      pop\n      pop\n        /* \"contracts/rankandconsensus.sol\":6451:6527  for (uint256 i = 0; i < indices.length; i++) {... */\n      jump(tag_176)\n    tag_177:\n      pop\n        /* \"contracts/rankandconsensus.sol\":6538:6547  uint256 i */\n      0x00\n        /* \"contracts/rankandconsensus.sol\":6533:6802  for (uint256 i = 0; i < _scores.length - 1; i++) {... */\n    tag_181:\n        /* \"contracts/rankandconsensus.sol\":6574:6575  1 */\n      0x01\n        /* \"contracts/rankandconsensus.sol\":6557:6564  _scores */\n      dup5\n        /* \"contracts/rankandconsensus.sol\":6557:6571  _scores.length */\n      mload\n        /* \"contracts/rankandconsensus.sol\":6557:6575  _scores.length - 1 */\n      tag_184\n      swap2\n      swap1\n      tag_169\n      jump\t// in\n    tag_184:\n        /* \"contracts/rankandconsensus.sol\":6553:6554  i */\n      dup2\n        /* \"contracts/rankandconsensus.sol\":6553:6575  i < _scores.length - 1 */\n      lt\n        /* \"contracts/rankandconsensus.sol\":6533:6802  for (uint256 i = 0; i < _scores.length - 1; i++) {... */\n      iszero\n      tag_182\n      jumpi\n        /* \"contracts/rankandconsensus.sol\":6597:6606  uint256 j */\n      0x00\n        /* \"contracts/rankandconsensus.sol\":6613:6614  1 */\n      0x01\n        /* \"contracts/rankandconsensus.sol\":6609:6610  i */\n      dup3\n        /* \"contracts/rankandconsensus.sol\":6609:6614  i + 1 */\n      tag_188\n      swap2\n      swap1\n      tag_189\n      jump\t// in\n    tag_188:\n        /* \"contracts/rankandconsensus.sol\":6597:6614  uint256 j = i + 1 */\n      swap1\n      pop\n        /* \"contracts/rankandconsensus.sol\":6592:6796  for (uint256 j = i + 1; j < _scores.length; j++) {... */\n    tag_185:\n        /* \"contracts/rankandconsensus.sol\":6620:6627  _scores */\n      dup5\n        /* \"contracts/rankandconsensus.sol\":6620:6634  _scores.length */\n      mload\n        /* \"contracts/rankandconsensus.sol\":6616:6617  j */\n      dup2\n        /* \"contracts/rankandconsensus.sol\":6616:6634  j < _scores.length */\n      lt\n        /* \"contracts/rankandconsensus.sol\":6592:6796  for (uint256 j = i + 1; j < _scores.length; j++) {... */\n      iszero\n      tag_186\n      jumpi\n        /* \"contracts/rankandconsensus.sol\":6681:6688  _scores */\n      dup5\n        /* \"contracts/rankandconsensus.sol\":6689:6696  indices */\n      dup4\n        /* \"contracts/rankandconsensus.sol\":6697:6698  j */\n      dup3\n        /* \"contracts/rankandconsensus.sol\":6689:6699  indices[j] */\n      dup2\n      mload\n      dup2\n      lt\n      tag_190\n      jumpi\n      tag_191\n      tag_49\n      jump\t// in\n    tag_191:\n    tag_190:\n      0x20\n      mul\n      0x20\n      add\n      add\n      mload\n        /* \"contracts/rankandconsensus.sol\":6681:6700  _scores[indices[j]] */\n      dup2\n      mload\n      dup2\n      lt\n      tag_192\n      jumpi\n      tag_193\n      tag_49\n      jump\t// in\n    tag_193:\n    tag_192:\n      0x20\n      mul\n      0x20\n      add\n      add\n      mload\n        /* \"contracts/rankandconsensus.sol\":6659:6666  _scores */\n      dup6\n        /* \"contracts/rankandconsensus.sol\":6667:6674  indices */\n      dup5\n        /* \"contracts/rankandconsensus.sol\":6675:6676  i */\n      dup5\n        /* \"contracts/rankandconsensus.sol\":6667:6677  indices[i] */\n      dup2\n      mload\n      dup2\n      lt\n      tag_194\n      jumpi\n      tag_195\n      tag_49\n      jump\t// in\n    tag_195:\n    tag_194:\n      0x20\n      mul\n      0x20\n      add\n      add\n      mload\n        /* \"contracts/rankandconsensus.sol\":6659:6678  _scores[indices[i]] */\n      dup2\n      mload\n      dup2\n      lt\n      tag_196\n      jumpi\n      tag_197\n      tag_49\n      jump\t// in\n    tag_197:\n    tag_196:\n      0x20\n      mul\n      0x20\n      add\n      add\n      mload\n        /* \"contracts/rankandconsensus.sol\":6659:6700  _scores[indices[i]] < _scores[indices[j]] */\n      lt\n        /* \"contracts/rankandconsensus.sol\":6655:6786  if (_scores[indices[i]] < _scores[indices[j]]) {... */\n      iszero\n      tag_198\n      jumpi\n        /* \"contracts/rankandconsensus.sol\":6748:6755  indices */\n      dup3\n        /* \"contracts/rankandconsensus.sol\":6756:6757  j */\n      dup2\n        /* \"contracts/rankandconsensus.sol\":6748:6758  indices[j] */\n      dup2\n      mload\n      dup2\n      lt\n      tag_199\n      jumpi\n      tag_200\n      tag_49\n      jump\t// in\n    tag_200:\n    tag_199:\n      0x20\n      mul\n      0x20\n      add\n      add\n      mload\n        /* \"contracts/rankandconsensus.sol\":6760:6767  indices */\n      dup4\n        /* \"contracts/rankandconsensus.sol\":6768:6769  i */\n      dup4\n        /* \"contracts/rankandconsensus.sol\":6760:6770  indices[i] */\n      dup2\n      mload\n      dup2\n      lt\n      tag_201\n      jumpi\n      tag_202\n      tag_49\n      jump\t// in\n    tag_202:\n    tag_201:\n      0x20\n      mul\n      0x20\n      add\n      add\n      mload\n        /* \"contracts/rankandconsensus.sol\":6721:6728  indices */\n      dup5\n        /* \"contracts/rankandconsensus.sol\":6729:6730  i */\n      dup5\n        /* \"contracts/rankandconsensus.sol\":6721:6731  indices[i] */\n      dup2\n      mload\n      dup2\n      lt\n      tag_203\n      jumpi\n      tag_204\n      tag_49\n      jump\t// in\n    tag_204:\n    tag_203:\n      0x20\n      mul\n      0x20\n      add\n      add\n        /* \"contracts/rankandconsensus.sol\":6733:6740  indices */\n      dup6\n        /* \"contracts/rankandconsensus.sol\":6741:6742  j */\n      dup5\n        /* \"contracts/rankandconsensus.sol\":6733:6743  indices[j] */\n      dup2\n      mload\n      dup2\n      lt\n      tag_205\n      jumpi\n      tag_206\n      tag_49\n      jump\t// in\n    tag_206:\n    tag_205:\n      0x20\n      mul\n      0x20\n      add\n      add\n        /* \"contracts/rankandconsensus.sol\":6720:6771  (indices[i], indices[j]) = (indices[j], indices[i]) */\n      dup3\n      dup2\n      mstore\n      pop\n      dup3\n      dup2\n      mstore\n      pop\n      pop\n      pop\n        /* \"contracts/rankandconsensus.sol\":6655:6786  if (_scores[indices[i]] < _scores[indices[j]]) {... */\n    tag_198:\n        /* \"contracts/rankandconsensus.sol\":6636:6639  j++ */\n      dup1\n      dup1\n      0x01\n      add\n      swap2\n      pop\n      pop\n        /* \"contracts/rankandconsensus.sol\":6592:6796  for (uint256 j = i + 1; j < _scores.length; j++) {... */\n      jump(tag_185)\n    tag_186:\n      pop\n        /* \"contracts/rankandconsensus.sol\":6577:6580  i++ */\n      dup1\n      dup1\n      0x01\n      add\n      swap2\n      pop\n      pop\n        /* \"contracts/rankandconsensus.sol\":6533:6802  for (uint256 i = 0; i < _scores.length - 1; i++) {... */\n      jump(tag_181)\n    tag_182:\n      pop\n        /* \"contracts/rankandconsensus.sol\":6808:6837  uint256[] memory finalRanking */\n      0x00\n        /* \"contracts/rankandconsensus.sol\":6854:6861  _scores */\n      dup4\n        /* \"contracts/rankandconsensus.sol\":6854:6868  _scores.length */\n      mload\n        /* \"contracts/rankandconsensus.sol\":6840:6869  new uint256[](_scores.length) */\n      0xffffffffffffffff\n      dup2\n      gt\n      iszero\n      tag_207\n      jumpi\n      tag_208\n      tag_60\n      jump\t// in\n    tag_208:\n    tag_207:\n      mload(0x40)\n      swap1\n      dup1\n      dup3\n      mstore\n      dup1\n      0x20\n      mul\n      0x20\n      add\n      dup3\n      add\n      0x40\n      mstore\n      dup1\n      iszero\n      tag_209\n      jumpi\n      dup2\n      0x20\n      add\n      0x20\n      dup3\n      mul\n      dup1\n      calldatasize\n      dup4\n      calldatacopy\n      dup1\n      dup3\n      add\n      swap2\n      pop\n      pop\n      swap1\n      pop\n    tag_209:\n      pop\n        /* \"contracts/rankandconsensus.sol\":6808:6869  uint256[] memory finalRanking = new uint256[](_scores.length) */\n      swap1\n      pop\n        /* \"contracts/rankandconsensus.sol\":6880:6889  uint256 i */\n      0x00\n        /* \"contracts/rankandconsensus.sol\":6875:6987  for (uint256 i = 0; i < finalRanking.length; i++) {... */\n    tag_210:\n        /* \"contracts/rankandconsensus.sol\":6899:6911  finalRanking */\n      dup2\n        /* \"contracts/rankandconsensus.sol\":6899:6918  finalRanking.length */\n      mload\n        /* \"contracts/rankandconsensus.sol\":6895:6896  i */\n      dup2\n        /* \"contracts/rankandconsensus.sol\":6895:6918  i < finalRanking.length */\n      lt\n        /* \"contracts/rankandconsensus.sol\":6875:6987  for (uint256 i = 0; i < finalRanking.length; i++) {... */\n      iszero\n      tag_211\n      jumpi\n        /* \"contracts/rankandconsensus.sol\":6979:6980  i */\n      dup1\n        /* \"contracts/rankandconsensus.sol\":6962:6969  _scores */\n      dup6\n        /* \"contracts/rankandconsensus.sol\":6962:6976  _scores.length */\n      mload\n        /* \"contracts/rankandconsensus.sol\":6962:6980  _scores.length - i */\n      tag_213\n      swap2\n      swap1\n      tag_169\n      jump\t// in\n    tag_213:\n        /* \"contracts/rankandconsensus.sol\":6935:6947  finalRanking */\n      dup3\n        /* \"contracts/rankandconsensus.sol\":6948:6955  indices */\n      dup5\n        /* \"contracts/rankandconsensus.sol\":6956:6957  i */\n      dup4\n        /* \"contracts/rankandconsensus.sol\":6948:6958  indices[i] */\n      dup2\n      mload\n      dup2\n      lt\n      tag_214\n      jumpi\n      tag_215\n      tag_49\n      jump\t// in\n    tag_215:\n    tag_214:\n      0x20\n      mul\n      0x20\n      add\n      add\n      mload\n        /* \"contracts/rankandconsensus.sol\":6935:6959  finalRanking[indices[i]] */\n      dup2\n      mload\n      dup2\n      lt\n      tag_216\n      jumpi\n      tag_217\n      tag_49\n      jump\t// in\n    tag_217:\n    tag_216:\n      0x20\n      mul\n      0x20\n      add\n      add\n        /* \"contracts/rankandconsensus.sol\":6935:6980  finalRanking[indices[i]] = _scores.length - i */\n      dup2\n      dup2\n      mstore\n      pop\n      pop\n        /* \"contracts/rankandconsensus.sol\":6920:6923  i++ */\n      dup1\n      dup1\n      0x01\n      add\n      swap2\n      pop\n      pop\n        /* \"contracts/rankandconsensus.sol\":6875:6987  for (uint256 i = 0; i < finalRanking.length; i++) {... */\n      jump(tag_210)\n    tag_211:\n      pop\n        /* \"contracts/rankandconsensus.sol\":7000:7012  finalRanking */\n      dup1\n        /* \"contracts/rankandconsensus.sol\":6993:7012  return finalRanking */\n      swap3\n      pop\n      pop\n      pop\n        /* \"contracts/rankandconsensus.sol\":6296:7015  function sortByScore(uint256[] memory _scores) private pure returns (uint256[] memory) {... */\n      swap2\n      swap1\n      pop\n      jump\t// out\n        /* \"contracts/rankandconsensus.sol\":7020:7300  function isPartOfGroup(ICommunityGovernanceContributions.Group memory group, address _member) private pure returns (bool) {... */\n    tag_126:\n        /* \"contracts/rankandconsensus.sol\":7136:7140  bool */\n      0x00\n        /* \"contracts/rankandconsensus.sol\":7157:7166  uint256 i */\n      dup1\n        /* \"contracts/rankandconsensus.sol\":7169:7170  0 */\n      0x00\n        /* \"contracts/rankandconsensus.sol\":7157:7170  uint256 i = 0 */\n      swap1\n      pop\n        /* \"contracts/rankandconsensus.sol\":7152:7272  for (uint256 i = 0; i < group.members.length; i++) {... */\n    tag_219:\n        /* \"contracts/rankandconsensus.sol\":7176:7181  group */\n      dup4\n        /* \"contracts/rankandconsensus.sol\":7176:7189  group.members */\n      0x00\n      add\n      mload\n        /* \"contracts/rankandconsensus.sol\":7176:7196  group.members.length */\n      mload\n        /* \"contracts/rankandconsensus.sol\":7172:7173  i */\n      dup2\n        /* \"contracts/rankandconsensus.sol\":7172:7196  i < group.members.length */\n      lt\n        /* \"contracts/rankandconsensus.sol\":7152:7272  for (uint256 i = 0; i < group.members.length; i++) {... */\n      iszero\n      tag_220\n      jumpi\n        /* \"contracts/rankandconsensus.sol\":7241:7248  _member */\n      dup3\n        /* \"contracts/rankandconsensus.sol\":7221:7248  group.members[i] == _member */\n      0xffffffffffffffffffffffffffffffffffffffff\n      and\n        /* \"contracts/rankandconsensus.sol\":7221:7226  group */\n      dup5\n        /* \"contracts/rankandconsensus.sol\":7221:7234  group.members */\n      0x00\n      add\n      mload\n        /* \"contracts/rankandconsensus.sol\":7235:7236  i */\n      dup3\n        /* \"contracts/rankandconsensus.sol\":7221:7237  group.members[i] */\n      dup2\n      mload\n      dup2\n      lt\n      tag_222\n      jumpi\n      tag_223\n      tag_49\n      jump\t// in\n    tag_223:\n    tag_222:\n      0x20\n      mul\n      0x20\n      add\n      add\n      mload\n        /* \"contracts/rankandconsensus.sol\":7221:7248  group.members[i] == _member */\n      0xffffffffffffffffffffffffffffffffffffffff\n      and\n      sub\n        /* \"contracts/rankandconsensus.sol\":7217:7261  if (group.members[i] == _member) return true */\n      tag_224\n      jumpi\n        /* \"contracts/rankandconsensus.sol\":7257:7261  true */\n      0x01\n        /* \"contracts/rankandconsensus.sol\":7250:7261  return true */\n      swap2\n      pop\n      pop\n      jump(tag_218)\n        /* \"contracts/rankandconsensus.sol\":7217:7261  if (group.members[i] == _member) return true */\n    tag_224:\n        /* \"contracts/rankandconsensus.sol\":7198:7201  i++ */\n      dup1\n      dup1\n      0x01\n      add\n      swap2\n      pop\n      pop\n        /* \"contracts/rankandconsensus.sol\":7152:7272  for (uint256 i = 0; i < group.members.length; i++) {... */\n      jump(tag_219)\n    tag_220:\n      pop\n        /* \"contracts/rankandconsensus.sol\":7288:7293  false */\n      0x00\n        /* \"contracts/rankandconsensus.sol\":7281:7293  return false */\n      swap1\n      pop\n        /* \"contracts/rankandconsensus.sol\":7020:7300  function isPartOfGroup(ICommunityGovernanceContributions.Group memory group, address _member) private pure returns (bool) {... */\n    tag_218:\n      swap3\n      swap2\n      pop\n      pop\n      jump\t// out\n        /* \"contracts/rankandconsensus.sol\":4510:4761  function calculateMean(uint256[] memory values) private pure returns (uint256) {... */\n    tag_157:\n        /* \"contracts/rankandconsensus.sol\":4580:4587  uint256 */\n      0x00\n        /* \"contracts/rankandconsensus.sol\":4599:4610  uint256 sum */\n      dup1\n        /* \"contracts/rankandconsensus.sol\":4613:4614  0 */\n      0x00\n        /* \"contracts/rankandconsensus.sol\":4599:4614  uint256 sum = 0 */\n      swap1\n      pop\n        /* \"contracts/rankandconsensus.sol\":4629:4638  uint256 i */\n      0x00\n        /* \"contracts/rankandconsensus.sol\":4624:4709  for (uint256 i = 0; i < values.length; i++) {... */\n    tag_226:\n        /* \"contracts/rankandconsensus.sol\":4648:4654  values */\n      dup4\n        /* \"contracts/rankandconsensus.sol\":4648:4661  values.length */\n      mload\n        /* \"contracts/rankandconsensus.sol\":4644:4645  i */\n      dup2\n        /* \"contracts/rankandconsensus.sol\":4644:4661  i < values.length */\n      lt\n        /* \"contracts/rankandconsensus.sol\":4624:4709  for (uint256 i = 0; i < values.length; i++) {... */\n      iszero\n      tag_227\n      jumpi\n        /* \"contracts/rankandconsensus.sol\":4689:4695  values */\n      dup4\n        /* \"contracts/rankandconsensus.sol\":4696:4697  i */\n      dup2\n        /* \"contracts/rankandconsensus.sol\":4689:4698  values[i] */\n      dup2\n      mload\n      dup2\n      lt\n      tag_229\n      jumpi\n      tag_230\n      tag_49\n      jump\t// in\n    tag_230:\n    tag_229:\n      0x20\n      mul\n      0x20\n      add\n      add\n      mload\n        /* \"contracts/rankandconsensus.sol\":4682:4698  sum += values[i] */\n      dup3\n      tag_231\n      swap2\n      swap1\n      tag_189\n      jump\t// in\n    tag_231:\n      swap2\n      pop\n        /* \"contracts/rankandconsensus.sol\":4663:4666  i++ */\n      dup1\n      dup1\n      0x01\n      add\n      swap2\n      pop\n      pop\n        /* \"contracts/rankandconsensus.sol\":4624:4709  for (uint256 i = 0; i < values.length; i++) {... */\n      jump(tag_226)\n    tag_227:\n      pop\n        /* \"contracts/rankandconsensus.sol\":4741:4747  values */\n      dup3\n        /* \"contracts/rankandconsensus.sol\":4741:4754  values.length */\n      mload\n        /* \"contracts/rankandconsensus.sol\":561:565  1e18 */\n      0x0de0b6b3a7640000\n        /* \"contracts/rankandconsensus.sol\":4726:4729  sum */\n      dup3\n        /* \"contracts/rankandconsensus.sol\":4726:4737  sum * SCALE */\n      tag_232\n      swap2\n      swap1\n      tag_165\n      jump\t// in\n    tag_232:\n        /* \"contracts/rankandconsensus.sol\":4725:4754  (sum * SCALE) / values.length */\n      tag_233\n      swap2\n      swap1\n      tag_167\n      jump\t// in\n    tag_233:\n        /* \"contracts/rankandconsensus.sol\":4718:4754  return (sum * SCALE) / values.length */\n      swap2\n      pop\n      pop\n        /* \"contracts/rankandconsensus.sol\":4510:4761  function calculateMean(uint256[] memory values) private pure returns (uint256) {... */\n      swap2\n      swap1\n      pop\n      jump\t// out\n        /* \"contracts/rankandconsensus.sol\":4767:5178  function calculateVariance(uint256[] memory values) private pure returns (uint256) {... */\n    tag_159:\n        /* \"contracts/rankandconsensus.sol\":4841:4848  uint256 */\n      0x00\n        /* \"contracts/rankandconsensus.sol\":4860:4872  uint256 mean */\n      dup1\n        /* \"contracts/rankandconsensus.sol\":4875:4896  calculateMean(values) */\n      tag_235\n        /* \"contracts/rankandconsensus.sol\":4889:4895  values */\n      dup4\n        /* \"contracts/rankandconsensus.sol\":4875:4888  calculateMean */\n      tag_157\n        /* \"contracts/rankandconsensus.sol\":4875:4896  calculateMean(values) */\n      jump\t// in\n    tag_235:\n        /* \"contracts/rankandconsensus.sol\":4860:4896  uint256 mean = calculateMean(values) */\n      swap1\n      pop\n        /* \"contracts/rankandconsensus.sol\":4906:4928  uint256 sumSquaredDiff */\n      0x00\n        /* \"contracts/rankandconsensus.sol\":4947:4956  uint256 i */\n      dup1\n        /* \"contracts/rankandconsensus.sol\":4942:5125  for (uint256 i = 0; i < values.length; i++) {... */\n    tag_236:\n        /* \"contracts/rankandconsensus.sol\":4966:4972  values */\n      dup5\n        /* \"contracts/rankandconsensus.sol\":4966:4979  values.length */\n      mload\n        /* \"contracts/rankandconsensus.sol\":4962:4963  i */\n      dup2\n        /* \"contracts/rankandconsensus.sol\":4962:4979  i < values.length */\n      lt\n        /* \"contracts/rankandconsensus.sol\":4942:5125  for (uint256 i = 0; i < values.length; i++) {... */\n      iszero\n      tag_237\n      jumpi\n        /* \"contracts/rankandconsensus.sol\":5000:5011  int256 diff */\n      0x00\n        /* \"contracts/rankandconsensus.sol\":5049:5053  mean */\n      dup4\n        /* \"contracts/rankandconsensus.sol\":561:565  1e18 */\n      0x0de0b6b3a7640000\n        /* \"contracts/rankandconsensus.sol\":5021:5027  values */\n      dup8\n        /* \"contracts/rankandconsensus.sol\":5028:5029  i */\n      dup5\n        /* \"contracts/rankandconsensus.sol\":5021:5030  values[i] */\n      dup2\n      mload\n      dup2\n      lt\n      tag_239\n      jumpi\n      tag_240\n      tag_49\n      jump\t// in\n    tag_240:\n    tag_239:\n      0x20\n      mul\n      0x20\n      add\n      add\n      mload\n        /* \"contracts/rankandconsensus.sol\":5021:5038  values[i] * SCALE */\n      tag_241\n      swap2\n      swap1\n      tag_165\n      jump\t// in\n    tag_241:\n        /* \"contracts/rankandconsensus.sol\":5014:5054  int256(values[i] * SCALE) - int256(mean) */\n      tag_242\n      swap2\n      swap1\n      tag_243\n      jump\t// in\n    tag_242:\n        /* \"contracts/rankandconsensus.sol\":5000:5054  int256 diff = int256(values[i] * SCALE) - int256(mean) */\n      swap1\n      pop\n        /* \"contracts/rankandconsensus.sol\":561:565  1e18 */\n      0x0de0b6b3a7640000\n        /* \"contracts/rankandconsensus.sol\":5101:5105  diff */\n      dup2\n        /* \"contracts/rankandconsensus.sol\":5094:5098  diff */\n      dup3\n        /* \"contracts/rankandconsensus.sol\":5094:5105  diff * diff */\n      tag_244\n      swap2\n      swap1\n      tag_245\n      jump\t// in\n    tag_244:\n        /* \"contracts/rankandconsensus.sol\":5086:5114  uint256(diff * diff) / SCALE */\n      tag_246\n      swap2\n      swap1\n      tag_167\n      jump\t// in\n    tag_246:\n        /* \"contracts/rankandconsensus.sol\":5068:5114  sumSquaredDiff += uint256(diff * diff) / SCALE */\n      dup4\n      tag_247\n      swap2\n      swap1\n      tag_189\n      jump\t// in\n    tag_247:\n      swap3\n      pop\n        /* \"contracts/rankandconsensus.sol\":4986:5125  {... */\n      pop\n        /* \"contracts/rankandconsensus.sol\":4981:4984  i++ */\n      dup1\n      dup1\n      0x01\n      add\n      swap2\n      pop\n      pop\n        /* \"contracts/rankandconsensus.sol\":4942:5125  for (uint256 i = 0; i < values.length; i++) {... */\n      jump(tag_236)\n    tag_237:\n      pop\n        /* \"contracts/rankandconsensus.sol\":5158:5164  values */\n      dup4\n        /* \"contracts/rankandconsensus.sol\":5158:5171  values.length */\n      mload\n        /* \"contracts/rankandconsensus.sol\":5141:5155  sumSquaredDiff */\n      dup2\n        /* \"contracts/rankandconsensus.sol\":5141:5171  sumSquaredDiff / values.length */\n      tag_248\n      swap2\n      swap1\n      tag_167\n      jump\t// in\n    tag_248:\n        /* \"contracts/rankandconsensus.sol\":5134:5171  return sumSquaredDiff / values.length */\n      swap3\n      pop\n      pop\n      pop\n        /* \"contracts/rankandconsensus.sol\":4767:5178  function calculateVariance(uint256[] memory values) private pure returns (uint256) {... */\n      swap2\n      swap1\n      pop\n      jump\t// out\n        /* \"contracts/rankandconsensus.sol\":5184:5442  function calculateMaxVariance(uint256 groupSize) private pure returns (uint256) {... */\n    tag_161:\n        /* \"contracts/rankandconsensus.sol\":5255:5262  uint256 */\n      0x00\n        /* \"contracts/rankandconsensus.sol\":5274:5285  uint256 sum */\n      dup1\n        /* \"contracts/rankandconsensus.sol\":5288:5289  0 */\n      0x00\n        /* \"contracts/rankandconsensus.sol\":5274:5289  uint256 sum = 0 */\n      swap1\n      pop\n        /* \"contracts/rankandconsensus.sol\":5304:5313  uint256 x */\n      0x00\n        /* \"contracts/rankandconsensus.sol\":5316:5317  1 */\n      0x01\n        /* \"contracts/rankandconsensus.sol\":5304:5317  uint256 x = 1 */\n      swap1\n      pop\n        /* \"contracts/rankandconsensus.sol\":5299:5384  for (uint256 x = 1; x < groupSize; x++) {... */\n    tag_250:\n        /* \"contracts/rankandconsensus.sol\":5323:5332  groupSize */\n      dup4\n        /* \"contracts/rankandconsensus.sol\":5319:5320  x */\n      dup2\n        /* \"contracts/rankandconsensus.sol\":5319:5332  x < groupSize */\n      lt\n        /* \"contracts/rankandconsensus.sol\":5299:5384  for (uint256 x = 1; x < groupSize; x++) {... */\n      iszero\n      tag_251\n      jumpi\n        /* \"contracts/rankandconsensus.sol\":5372:5373  2 */\n      0x02\n        /* \"contracts/rankandconsensus.sol\":561:565  1e18 */\n      0x0de0b6b3a7640000\n        /* \"contracts/rankandconsensus.sol\":5360:5361  x */\n      dup3\n        /* \"contracts/rankandconsensus.sol\":5360:5369  x * SCALE */\n      tag_253\n      swap2\n      swap1\n      tag_165\n      jump\t// in\n    tag_253:\n        /* \"contracts/rankandconsensus.sol\":5360:5373  x * SCALE / 2 */\n      tag_254\n      swap2\n      swap1\n      tag_167\n      jump\t// in\n    tag_254:\n        /* \"contracts/rankandconsensus.sol\":5353:5373  sum += x * SCALE / 2 */\n      dup3\n      tag_255\n      swap2\n      swap1\n      tag_189\n      jump\t// in\n    tag_255:\n      swap2\n      pop\n        /* \"contracts/rankandconsensus.sol\":5334:5337  x++ */\n      dup1\n      dup1\n      0x01\n      add\n      swap2\n      pop\n      pop\n        /* \"contracts/rankandconsensus.sol\":5299:5384  for (uint256 x = 1; x < groupSize; x++) {... */\n      jump(tag_250)\n    tag_251:\n      pop\n        /* \"contracts/rankandconsensus.sol\":5433:5434  1 */\n      0x01\n        /* \"contracts/rankandconsensus.sol\":5421:5430  groupSize */\n      dup4\n        /* \"contracts/rankandconsensus.sol\":5421:5434  groupSize - 1 */\n      tag_256\n      swap2\n      swap1\n      tag_169\n      jump\t// in\n    tag_256:\n        /* \"contracts/rankandconsensus.sol\":5413:5416  sum */\n      dup2\n        /* \"contracts/rankandconsensus.sol\":5401:5410  groupSize */\n      dup5\n        /* \"contracts/rankandconsensus.sol\":5401:5416  groupSize * sum */\n      tag_257\n      swap2\n      swap1\n      tag_165\n      jump\t// in\n    tag_257:\n        /* \"contracts/rankandconsensus.sol\":5400:5435  (groupSize * sum) / (groupSize - 1) */\n      tag_258\n      swap2\n      swap1\n      tag_167\n      jump\t// in\n    tag_258:\n        /* \"contracts/rankandconsensus.sol\":5393:5435  return (groupSize * sum) / (groupSize - 1) */\n      swap2\n      pop\n      pop\n        /* \"contracts/rankandconsensus.sol\":5184:5442  function calculateMaxVariance(uint256 groupSize) private pure returns (uint256) {... */\n      swap2\n      swap1\n      pop\n      jump\t// out\n    tag_76:\n      dup3\n      dup1\n      sload\n      dup3\n      dup3\n      sstore\n      swap1\n      0x00\n      mstore\n      keccak256(0x00, 0x20)\n      swap1\n      dup2\n      add\n      swap3\n      dup3\n      iszero\n      tag_259\n      jumpi\n      swap2\n      0x20\n      mul\n      dup3\n      add\n    tag_260:\n      dup3\n      dup2\n      gt\n      iszero\n      tag_261\n      jumpi\n      dup3\n      mload\n      dup3\n      sstore\n      swap2\n      0x20\n      add\n      swap2\n      swap1\n      0x01\n      add\n      swap1\n      jump(tag_260)\n    tag_261:\n    tag_259:\n      pop\n      swap1\n      pop\n      tag_262\n      swap2\n      swap1\n      tag_263\n      jump\t// in\n    tag_262:\n      pop\n      swap1\n      jump\t// out\n    tag_263:\n    tag_264:\n      dup1\n      dup3\n      gt\n      iszero\n      tag_265\n      jumpi\n      0x00\n      dup2\n      0x00\n      swap1\n      sstore\n      pop\n      0x01\n      add\n      jump(tag_264)\n    tag_265:\n      pop\n      swap1\n      jump\t// out\n        /* \"#utility.yul\":7:82   */\n    tag_266:\n        /* \"#utility.yul\":40:46   */\n      0x00\n        /* \"#utility.yul\":73:75   */\n      0x40\n        /* \"#utility.yul\":67:76   */\n      mload\n        /* \"#utility.yul\":57:76   */\n      swap1\n      pop\n        /* \"#utility.yul\":7:82   */\n      swap1\n      jump\t// out\n        /* \"#utility.yul\":88:205   */\n    tag_267:\n        /* \"#utility.yul\":197:198   */\n      0x00\n        /* \"#utility.yul\":194:195   */\n      dup1\n        /* \"#utility.yul\":187:199   */\n      revert\n        /* \"#utility.yul\":211:328   */\n    tag_268:\n        /* \"#utility.yul\":320:321   */\n      0x00\n        /* \"#utility.yul\":317:318   */\n      dup1\n        /* \"#utility.yul\":310:322   */\n      revert\n        /* \"#utility.yul\":334:411   */\n    tag_269:\n        /* \"#utility.yul\":371:378   */\n      0x00\n        /* \"#utility.yul\":400:405   */\n      dup2\n        /* \"#utility.yul\":389:405   */\n      swap1\n      pop\n        /* \"#utility.yul\":334:411   */\n      swap2\n      swap1\n      pop\n      jump\t// out\n        /* \"#utility.yul\":417:539   */\n    tag_270:\n        /* \"#utility.yul\":490:514   */\n      tag_338\n        /* \"#utility.yul\":508:513   */\n      dup2\n        /* \"#utility.yul\":490:514   */\n      tag_269\n      jump\t// in\n    tag_338:\n        /* \"#utility.yul\":483:488   */\n      dup2\n        /* \"#utility.yul\":480:515   */\n      eq\n        /* \"#utility.yul\":470:533   */\n      tag_339\n      jumpi\n        /* \"#utility.yul\":529:530   */\n      0x00\n        /* \"#utility.yul\":526:527   */\n      dup1\n        /* \"#utility.yul\":519:531   */\n      revert\n        /* \"#utility.yul\":470:533   */\n    tag_339:\n        /* \"#utility.yul\":417:539   */\n      pop\n      jump\t// out\n        /* \"#utility.yul\":545:684   */\n    tag_271:\n        /* \"#utility.yul\":591:596   */\n      0x00\n        /* \"#utility.yul\":629:635   */\n      dup2\n        /* \"#utility.yul\":616:636   */\n      calldataload\n        /* \"#utility.yul\":607:636   */\n      swap1\n      pop\n        /* \"#utility.yul\":645:678   */\n      tag_341\n        /* \"#utility.yul\":672:677   */\n      dup2\n        /* \"#utility.yul\":645:678   */\n      tag_270\n      jump\t// in\n    tag_341:\n        /* \"#utility.yul\":545:684   */\n      swap3\n      swap2\n      pop\n      pop\n      jump\t// out\n        /* \"#utility.yul\":690:1309   */\n    tag_11:\n        /* \"#utility.yul\":767:773   */\n      0x00\n        /* \"#utility.yul\":775:781   */\n      dup1\n        /* \"#utility.yul\":783:789   */\n      0x00\n        /* \"#utility.yul\":832:834   */\n      0x60\n        /* \"#utility.yul\":820:829   */\n      dup5\n        /* \"#utility.yul\":811:818   */\n      dup7\n        /* \"#utility.yul\":807:830   */\n      sub\n        /* \"#utility.yul\":803:835   */\n      slt\n        /* \"#utility.yul\":800:919   */\n      iszero\n      tag_343\n      jumpi\n        /* \"#utility.yul\":838:917   */\n      tag_344\n      tag_267\n      jump\t// in\n    tag_344:\n        /* \"#utility.yul\":800:919   */\n    tag_343:\n        /* \"#utility.yul\":958:959   */\n      0x00\n        /* \"#utility.yul\":983:1036   */\n      tag_345\n        /* \"#utility.yul\":1028:1035   */\n      dup7\n        /* \"#utility.yul\":1019:1025   */\n      dup3\n        /* \"#utility.yul\":1008:1017   */\n      dup8\n        /* \"#utility.yul\":1004:1026   */\n      add\n        /* \"#utility.yul\":983:1036   */\n      tag_271\n      jump\t// in\n    tag_345:\n        /* \"#utility.yul\":973:1036   */\n      swap4\n      pop\n        /* \"#utility.yul\":929:1046   */\n      pop\n        /* \"#utility.yul\":1085:1087   */\n      0x20\n        /* \"#utility.yul\":1111:1164   */\n      tag_346\n        /* \"#utility.yul\":1156:1163   */\n      dup7\n        /* \"#utility.yul\":1147:1153   */\n      dup3\n        /* \"#utility.yul\":1136:1145   */\n      dup8\n        /* \"#utility.yul\":1132:1154   */\n      add\n        /* \"#utility.yul\":1111:1164   */\n      tag_271\n      jump\t// in\n    tag_346:\n        /* \"#utility.yul\":1101:1164   */\n      swap3\n      pop\n        /* \"#utility.yul\":1056:1174   */\n      pop\n        /* \"#utility.yul\":1213:1215   */\n      0x40\n        /* \"#utility.yul\":1239:1292   */\n      tag_347\n        /* \"#utility.yul\":1284:1291   */\n      dup7\n        /* \"#utility.yul\":1275:1281   */\n      dup3\n        /* \"#utility.yul\":1264:1273   */\n      dup8\n        /* \"#utility.yul\":1260:1282   */\n      add\n        /* \"#utility.yul\":1239:1292   */\n      tag_271\n      jump\t// in\n    tag_347:\n        /* \"#utility.yul\":1229:1292   */\n      swap2\n      pop\n        /* \"#utility.yul\":1184:1302   */\n      pop\n        /* \"#utility.yul\":690:1309   */\n      swap3\n      pop\n      swap3\n      pop\n      swap3\n      jump\t// out\n        /* \"#utility.yul\":1315:1441   */\n    tag_272:\n        /* \"#utility.yul\":1352:1359   */\n      0x00\n        /* \"#utility.yul\":1392:1434   */\n      0xffffffffffffffffffffffffffffffffffffffff\n        /* \"#utility.yul\":1385:1390   */\n      dup3\n        /* \"#utility.yul\":1381:1435   */\n      and\n        /* \"#utility.yul\":1370:1435   */\n      swap1\n      pop\n        /* \"#utility.yul\":1315:1441   */\n      swap2\n      swap1\n      pop\n      jump\t// out\n        /* \"#utility.yul\":1447:1543   */\n    tag_273:\n        /* \"#utility.yul\":1484:1491   */\n      0x00\n        /* \"#utility.yul\":1513:1537   */\n      tag_350\n        /* \"#utility.yul\":1531:1536   */\n      dup3\n        /* \"#utility.yul\":1513:1537   */\n      tag_272\n      jump\t// in\n    tag_350:\n        /* \"#utility.yul\":1502:1537   */\n      swap1\n      pop\n        /* \"#utility.yul\":1447:1543   */\n      swap2\n      swap1\n      pop\n      jump\t// out\n        /* \"#utility.yul\":1549:1671   */\n    tag_274:\n        /* \"#utility.yul\":1622:1646   */\n      tag_352\n        /* \"#utility.yul\":1640:1645   */\n      dup2\n        /* \"#utility.yul\":1622:1646   */\n      tag_273\n      jump\t// in\n    tag_352:\n        /* \"#utility.yul\":1615:1620   */\n      dup2\n        /* \"#utility.yul\":1612:1647   */\n      eq\n        /* \"#utility.yul\":1602:1665   */\n      tag_353\n      jumpi\n        /* \"#utility.yul\":1661:1662   */\n      0x00\n        /* \"#utility.yul\":1658:1659   */\n      dup1\n        /* \"#utility.yul\":1651:1663   */\n      revert\n        /* \"#utility.yul\":1602:1665   */\n    tag_353:\n        /* \"#utility.yul\":1549:1671   */\n      pop\n      jump\t// out\n        /* \"#utility.yul\":1677:1816   */\n    tag_275:\n        /* \"#utility.yul\":1723:1728   */\n      0x00\n        /* \"#utility.yul\":1761:1767   */\n      dup2\n        /* \"#utility.yul\":1748:1768   */\n      calldataload\n        /* \"#utility.yul\":1739:1768   */\n      swap1\n      pop\n        /* \"#utility.yul\":1777:1810   */\n      tag_355\n        /* \"#utility.yul\":1804:1809   */\n      dup2\n        /* \"#utility.yul\":1777:1810   */\n      tag_274\n      jump\t// in\n    tag_355:\n        /* \"#utility.yul\":1677:1816   */\n      swap3\n      swap2\n      pop\n      pop\n      jump\t// out\n        /* \"#utility.yul\":1822:2587   */\n    tag_15:\n        /* \"#utility.yul\":1908:1914   */\n      0x00\n        /* \"#utility.yul\":1916:1922   */\n      dup1\n        /* \"#utility.yul\":1924:1930   */\n      0x00\n        /* \"#utility.yul\":1932:1938   */\n      dup1\n        /* \"#utility.yul\":1981:1984   */\n      0x80\n        /* \"#utility.yul\":1969:1978   */\n      dup6\n        /* \"#utility.yul\":1960:1967   */\n      dup8\n        /* \"#utility.yul\":1956:1979   */\n      sub\n        /* \"#utility.yul\":1952:1985   */\n      slt\n        /* \"#utility.yul\":1949:2069   */\n      iszero\n      tag_357\n      jumpi\n        /* \"#utility.yul\":1988:2067   */\n      tag_358\n      tag_267\n      jump\t// in\n    tag_358:\n        /* \"#utility.yul\":1949:2069   */\n    tag_357:\n        /* \"#utility.yul\":2108:2109   */\n      0x00\n        /* \"#utility.yul\":2133:2186   */\n      tag_359\n        /* \"#utility.yul\":2178:2185   */\n      dup8\n        /* \"#utility.yul\":2169:2175   */\n      dup3\n        /* \"#utility.yul\":2158:2167   */\n      dup9\n        /* \"#utility.yul\":2154:2176   */\n      add\n        /* \"#utility.yul\":2133:2186   */\n      tag_271\n      jump\t// in\n    tag_359:\n        /* \"#utility.yul\":2123:2186   */\n      swap5\n      pop\n        /* \"#utility.yul\":2079:2196   */\n      pop\n        /* \"#utility.yul\":2235:2237   */\n      0x20\n        /* \"#utility.yul\":2261:2314   */\n      tag_360\n        /* \"#utility.yul\":2306:2313   */\n      dup8\n        /* \"#utility.yul\":2297:2303   */\n      dup3\n        /* \"#utility.yul\":2286:2295   */\n      dup9\n        /* \"#utility.yul\":2282:2304   */\n      add\n        /* \"#utility.yul\":2261:2314   */\n      tag_271\n      jump\t// in\n    tag_360:\n        /* \"#utility.yul\":2251:2314   */\n      swap4\n      pop\n        /* \"#utility.yul\":2206:2324   */\n      pop\n        /* \"#utility.yul\":2363:2365   */\n      0x40\n        /* \"#utility.yul\":2389:2442   */\n      tag_361\n        /* \"#utility.yul\":2434:2441   */\n      dup8\n        /* \"#utility.yul\":2425:2431   */\n      dup3\n        /* \"#utility.yul\":2414:2423   */\n      dup9\n        /* \"#utility.yul\":2410:2432   */\n      add\n        /* \"#utility.yul\":2389:2442   */\n      tag_271\n      jump\t// in\n    tag_361:\n        /* \"#utility.yul\":2379:2442   */\n      swap3\n      pop\n        /* \"#utility.yul\":2334:2452   */\n      pop\n        /* \"#utility.yul\":2491:2493   */\n      0x60\n        /* \"#utility.yul\":2517:2570   */\n      tag_362\n        /* \"#utility.yul\":2562:2569   */\n      dup8\n        /* \"#utility.yul\":2553:2559   */\n      dup3\n        /* \"#utility.yul\":2542:2551   */\n      dup9\n        /* \"#utility.yul\":2538:2560   */\n      add\n        /* \"#utility.yul\":2517:2570   */\n      tag_275\n      jump\t// in\n    tag_362:\n        /* \"#utility.yul\":2507:2570   */\n      swap2\n      pop\n        /* \"#utility.yul\":2462:2580   */\n      pop\n        /* \"#utility.yul\":1822:2587   */\n      swap3\n      swap6\n      swap2\n      swap5\n      pop\n      swap3\n      pop\n      jump\t// out\n        /* \"#utility.yul\":2593:2707   */\n    tag_276:\n        /* \"#utility.yul\":2660:2666   */\n      0x00\n        /* \"#utility.yul\":2694:2699   */\n      dup2\n        /* \"#utility.yul\":2688:2700   */\n      mload\n        /* \"#utility.yul\":2678:2700   */\n      swap1\n      pop\n        /* \"#utility.yul\":2593:2707   */\n      swap2\n      swap1\n      pop\n      jump\t// out\n        /* \"#utility.yul\":2713:2897   */\n    tag_277:\n        /* \"#utility.yul\":2812:2823   */\n      0x00\n        /* \"#utility.yul\":2846:2852   */\n      dup3\n        /* \"#utility.yul\":2841:2844   */\n      dup3\n        /* \"#utility.yul\":2834:2853   */\n      mstore\n        /* \"#utility.yul\":2886:2890   */\n      0x20\n        /* \"#utility.yul\":2881:2884   */\n      dup3\n        /* \"#utility.yul\":2877:2891   */\n      add\n        /* \"#utility.yul\":2862:2891   */\n      swap1\n      pop\n        /* \"#utility.yul\":2713:2897   */\n      swap3\n      swap2\n      pop\n      pop\n      jump\t// out\n        /* \"#utility.yul\":2903:3035   */\n    tag_278:\n        /* \"#utility.yul\":2970:2974   */\n      0x00\n        /* \"#utility.yul\":2993:2996   */\n      dup2\n        /* \"#utility.yul\":2985:2996   */\n      swap1\n      pop\n        /* \"#utility.yul\":3023:3027   */\n      0x20\n        /* \"#utility.yul\":3018:3021   */\n      dup3\n        /* \"#utility.yul\":3014:3028   */\n      add\n        /* \"#utility.yul\":3006:3028   */\n      swap1\n      pop\n        /* \"#utility.yul\":2903:3035   */\n      swap2\n      swap1\n      pop\n      jump\t// out\n        /* \"#utility.yul\":3041:3149   */\n    tag_279:\n        /* \"#utility.yul\":3118:3142   */\n      tag_367\n        /* \"#utility.yul\":3136:3141   */\n      dup2\n        /* \"#utility.yul\":3118:3142   */\n      tag_269\n      jump\t// in\n    tag_367:\n        /* \"#utility.yul\":3113:3116   */\n      dup3\n        /* \"#utility.yul\":3106:3143   */\n      mstore\n        /* \"#utility.yul\":3041:3149   */\n      pop\n      pop\n      jump\t// out\n        /* \"#utility.yul\":3155:3334   */\n    tag_280:\n        /* \"#utility.yul\":3224:3234   */\n      0x00\n        /* \"#utility.yul\":3245:3291   */\n      tag_369\n        /* \"#utility.yul\":3287:3290   */\n      dup4\n        /* \"#utility.yul\":3279:3285   */\n      dup4\n        /* \"#utility.yul\":3245:3291   */\n      tag_279\n      jump\t// in\n    tag_369:\n        /* \"#utility.yul\":3323:3327   */\n      0x20\n        /* \"#utility.yul\":3318:3321   */\n      dup4\n        /* \"#utility.yul\":3314:3328   */\n      add\n        /* \"#utility.yul\":3300:3328   */\n      swap1\n      pop\n        /* \"#utility.yul\":3155:3334   */\n      swap3\n      swap2\n      pop\n      pop\n      jump\t// out\n        /* \"#utility.yul\":3340:3453   */\n    tag_281:\n        /* \"#utility.yul\":3410:3414   */\n      0x00\n        /* \"#utility.yul\":3442:3446   */\n      0x20\n        /* \"#utility.yul\":3437:3440   */\n      dup3\n        /* \"#utility.yul\":3433:3447   */\n      add\n        /* \"#utility.yul\":3425:3447   */\n      swap1\n      pop\n        /* \"#utility.yul\":3340:3453   */\n      swap2\n      swap1\n      pop\n      jump\t// out\n        /* \"#utility.yul\":3489:4221   */\n    tag_282:\n        /* \"#utility.yul\":3608:3611   */\n      0x00\n        /* \"#utility.yul\":3637:3691   */\n      tag_372\n        /* \"#utility.yul\":3685:3690   */\n      dup3\n        /* \"#utility.yul\":3637:3691   */\n      tag_276\n      jump\t// in\n    tag_372:\n        /* \"#utility.yul\":3707:3793   */\n      tag_373\n        /* \"#utility.yul\":3786:3792   */\n      dup2\n        /* \"#utility.yul\":3781:3784   */\n      dup6\n        /* \"#utility.yul\":3707:3793   */\n      tag_277\n      jump\t// in\n    tag_373:\n        /* \"#utility.yul\":3700:3793   */\n      swap4\n      pop\n        /* \"#utility.yul\":3817:3873   */\n      tag_374\n        /* \"#utility.yul\":3867:3872   */\n      dup4\n        /* \"#utility.yul\":3817:3873   */\n      tag_278\n      jump\t// in\n    tag_374:\n        /* \"#utility.yul\":3896:3903   */\n      dup1\n        /* \"#utility.yul\":3927:3928   */\n      0x00\n        /* \"#utility.yul\":3912:4196   */\n    tag_375:\n        /* \"#utility.yul\":3937:3943   */\n      dup4\n        /* \"#utility.yul\":3934:3935   */\n      dup2\n        /* \"#utility.yul\":3931:3944   */\n      lt\n        /* \"#utility.yul\":3912:4196   */\n      iszero\n      tag_377\n      jumpi\n        /* \"#utility.yul\":4013:4019   */\n      dup2\n        /* \"#utility.yul\":4007:4020   */\n      mload\n        /* \"#utility.yul\":4040:4103   */\n      tag_378\n        /* \"#utility.yul\":4099:4102   */\n      dup9\n        /* \"#utility.yul\":4084:4097   */\n      dup3\n        /* \"#utility.yul\":4040:4103   */\n      tag_280\n      jump\t// in\n    tag_378:\n        /* \"#utility.yul\":4033:4103   */\n      swap8\n      pop\n        /* \"#utility.yul\":4126:4186   */\n      tag_379\n        /* \"#utility.yul\":4179:4185   */\n      dup4\n        /* \"#utility.yul\":4126:4186   */\n      tag_281\n      jump\t// in\n    tag_379:\n        /* \"#utility.yul\":4116:4186   */\n      swap3\n      pop\n        /* \"#utility.yul\":3972:4196   */\n      pop\n        /* \"#utility.yul\":3959:3960   */\n      0x01\n        /* \"#utility.yul\":3956:3957   */\n      dup2\n        /* \"#utility.yul\":3952:3961   */\n      add\n        /* \"#utility.yul\":3947:3961   */\n      swap1\n      pop\n        /* \"#utility.yul\":3912:4196   */\n      jump(tag_375)\n    tag_377:\n        /* \"#utility.yul\":3916:3930   */\n      pop\n        /* \"#utility.yul\":4212:4215   */\n      dup6\n        /* \"#utility.yul\":4205:4215   */\n      swap4\n      pop\n        /* \"#utility.yul\":3613:4221   */\n      pop\n      pop\n      pop\n        /* \"#utility.yul\":3489:4221   */\n      swap3\n      swap2\n      pop\n      pop\n      jump\t// out\n        /* \"#utility.yul\":4227:4600   */\n    tag_18:\n        /* \"#utility.yul\":4370:4374   */\n      0x00\n        /* \"#utility.yul\":4408:4410   */\n      0x20\n        /* \"#utility.yul\":4397:4406   */\n      dup3\n        /* \"#utility.yul\":4393:4411   */\n      add\n        /* \"#utility.yul\":4385:4411   */\n      swap1\n      pop\n        /* \"#utility.yul\":4457:4466   */\n      dup2\n        /* \"#utility.yul\":4451:4455   */\n      dup2\n        /* \"#utility.yul\":4447:4467   */\n      sub\n        /* \"#utility.yul\":4443:4444   */\n      0x00\n        /* \"#utility.yul\":4432:4441   */\n      dup4\n        /* \"#utility.yul\":4428:4445   */\n      add\n        /* \"#utility.yul\":4421:4468   */\n      mstore\n        /* \"#utility.yul\":4485:4593   */\n      tag_381\n        /* \"#utility.yul\":4588:4592   */\n      dup2\n        /* \"#utility.yul\":4579:4585   */\n      dup5\n        /* \"#utility.yul\":4485:4593   */\n      tag_282\n      jump\t// in\n    tag_381:\n        /* \"#utility.yul\":4477:4593   */\n      swap1\n      pop\n        /* \"#utility.yul\":4227:4600   */\n      swap3\n      swap2\n      pop\n      pop\n      jump\t// out\n        /* \"#utility.yul\":4606:4720   */\n    tag_283:\n        /* \"#utility.yul\":4673:4679   */\n      0x00\n        /* \"#utility.yul\":4707:4712   */\n      dup2\n        /* \"#utility.yul\":4701:4713   */\n      mload\n        /* \"#utility.yul\":4691:4713   */\n      swap1\n      pop\n        /* \"#utility.yul\":4606:4720   */\n      swap2\n      swap1\n      pop\n      jump\t// out\n        /* \"#utility.yul\":4726:4910   */\n    tag_284:\n        /* \"#utility.yul\":4825:4836   */\n      0x00\n        /* \"#utility.yul\":4859:4865   */\n      dup3\n        /* \"#utility.yul\":4854:4857   */\n      dup3\n        /* \"#utility.yul\":4847:4866   */\n      mstore\n        /* \"#utility.yul\":4899:4903   */\n      0x20\n        /* \"#utility.yul\":4894:4897   */\n      dup3\n        /* \"#utility.yul\":4890:4904   */\n      add\n        /* \"#utility.yul\":4875:4904   */\n      swap1\n      pop\n        /* \"#utility.yul\":4726:4910   */\n      swap3\n      swap2\n      pop\n      pop\n      jump\t// out\n        /* \"#utility.yul\":4916:5048   */\n    tag_285:\n        /* \"#utility.yul\":4983:4987   */\n      0x00\n        /* \"#utility.yul\":5006:5009   */\n      dup2\n        /* \"#utility.yul\":4998:5009   */\n      swap1\n      pop\n        /* \"#utility.yul\":5036:5040   */\n      0x20\n        /* \"#utility.yul\":5031:5034   */\n      dup3\n        /* \"#utility.yul\":5027:5041   */\n      add\n        /* \"#utility.yul\":5019:5041   */\n      swap1\n      pop\n        /* \"#utility.yul\":4916:5048   */\n      swap2\n      swap1\n      pop\n      jump\t// out\n        /* \"#utility.yul\":5054:5162   */\n    tag_286:\n        /* \"#utility.yul\":5131:5155   */\n      tag_386\n        /* \"#utility.yul\":5149:5154   */\n      dup2\n        /* \"#utility.yul\":5131:5155   */\n      tag_273\n      jump\t// in\n    tag_386:\n        /* \"#utility.yul\":5126:5129   */\n      dup3\n        /* \"#utility.yul\":5119:5156   */\n      mstore\n        /* \"#utility.yul\":5054:5162   */\n      pop\n      pop\n      jump\t// out\n        /* \"#utility.yul\":5168:5347   */\n    tag_287:\n        /* \"#utility.yul\":5237:5247   */\n      0x00\n        /* \"#utility.yul\":5258:5304   */\n      tag_388\n        /* \"#utility.yul\":5300:5303   */\n      dup4\n        /* \"#utility.yul\":5292:5298   */\n      dup4\n        /* \"#utility.yul\":5258:5304   */\n      tag_286\n      jump\t// in\n    tag_388:\n        /* \"#utility.yul\":5336:5340   */\n      0x20\n        /* \"#utility.yul\":5331:5334   */\n      dup4\n        /* \"#utility.yul\":5327:5341   */\n      add\n        /* \"#utility.yul\":5313:5341   */\n      swap1\n      pop\n        /* \"#utility.yul\":5168:5347   */\n      swap3\n      swap2\n      pop\n      pop\n      jump\t// out\n        /* \"#utility.yul\":5353:5466   */\n    tag_288:\n        /* \"#utility.yul\":5423:5427   */\n      0x00\n        /* \"#utility.yul\":5455:5459   */\n      0x20\n        /* \"#utility.yul\":5450:5453   */\n      dup3\n        /* \"#utility.yul\":5446:5460   */\n      add\n        /* \"#utility.yul\":5438:5460   */\n      swap1\n      pop\n        /* \"#utility.yul\":5353:5466   */\n      swap2\n      swap1\n      pop\n      jump\t// out\n        /* \"#utility.yul\":5502:6234   */\n    tag_289:\n        /* \"#utility.yul\":5621:5624   */\n      0x00\n        /* \"#utility.yul\":5650:5704   */\n      tag_391\n        /* \"#utility.yul\":5698:5703   */\n      dup3\n        /* \"#utility.yul\":5650:5704   */\n      tag_283\n      jump\t// in\n    tag_391:\n        /* \"#utility.yul\":5720:5806   */\n      tag_392\n        /* \"#utility.yul\":5799:5805   */\n      dup2\n        /* \"#utility.yul\":5794:5797   */\n      dup6\n        /* \"#utility.yul\":5720:5806   */\n      tag_284\n      jump\t// in\n    tag_392:\n        /* \"#utility.yul\":5713:5806   */\n      swap4\n      pop\n        /* \"#utility.yul\":5830:5886   */\n      tag_393\n        /* \"#utility.yul\":5880:5885   */\n      dup4\n        /* \"#utility.yul\":5830:5886   */\n      tag_285\n      jump\t// in\n    tag_393:\n        /* \"#utility.yul\":5909:5916   */\n      dup1\n        /* \"#utility.yul\":5940:5941   */\n      0x00\n        /* \"#utility.yul\":5925:6209   */\n    tag_394:\n        /* \"#utility.yul\":5950:5956   */\n      dup4\n        /* \"#utility.yul\":5947:5948   */\n      dup2\n        /* \"#utility.yul\":5944:5957   */\n      lt\n        /* \"#utility.yul\":5925:6209   */\n      iszero\n      tag_396\n      jumpi\n        /* \"#utility.yul\":6026:6032   */\n      dup2\n        /* \"#utility.yul\":6020:6033   */\n      mload\n        /* \"#utility.yul\":6053:6116   */\n      tag_397\n        /* \"#utility.yul\":6112:6115   */\n      dup9\n        /* \"#utility.yul\":6097:6110   */\n      dup3\n        /* \"#utility.yul\":6053:6116   */\n      tag_287\n      jump\t// in\n    tag_397:\n        /* \"#utility.yul\":6046:6116   */\n      swap8\n      pop\n        /* \"#utility.yul\":6139:6199   */\n      tag_398\n        /* \"#utility.yul\":6192:6198   */\n      dup4\n        /* \"#utility.yul\":6139:6199   */\n      tag_288\n      jump\t// in\n    tag_398:\n        /* \"#utility.yul\":6129:6199   */\n      swap3\n      pop\n        /* \"#utility.yul\":5985:6209   */\n      pop\n        /* \"#utility.yul\":5972:5973   */\n      0x01\n        /* \"#utility.yul\":5969:5970   */\n      dup2\n        /* \"#utility.yul\":5965:5974   */\n      add\n        /* \"#utility.yul\":5960:5974   */\n      swap1\n      pop\n        /* \"#utility.yul\":5925:6209   */\n      jump(tag_394)\n    tag_396:\n        /* \"#utility.yul\":5929:5943   */\n      pop\n        /* \"#utility.yul\":6225:6228   */\n      dup6\n        /* \"#utility.yul\":6218:6228   */\n      swap4\n      pop\n        /* \"#utility.yul\":5626:6234   */\n      pop\n      pop\n      pop\n        /* \"#utility.yul\":5502:6234   */\n      swap3\n      swap2\n      pop\n      pop\n      jump\t// out\n        /* \"#utility.yul\":6240:6874   */\n    tag_23:\n        /* \"#utility.yul\":6461:6465   */\n      0x00\n        /* \"#utility.yul\":6499:6501   */\n      0x40\n        /* \"#utility.yul\":6488:6497   */\n      dup3\n        /* \"#utility.yul\":6484:6502   */\n      add\n        /* \"#utility.yul\":6476:6502   */\n      swap1\n      pop\n        /* \"#utility.yul\":6548:6557   */\n      dup2\n        /* \"#utility.yul\":6542:6546   */\n      dup2\n        /* \"#utility.yul\":6538:6558   */\n      sub\n        /* \"#utility.yul\":6534:6535   */\n      0x00\n        /* \"#utility.yul\":6523:6532   */\n      dup4\n        /* \"#utility.yul\":6519:6536   */\n      add\n        /* \"#utility.yul\":6512:6559   */\n      mstore\n        /* \"#utility.yul\":6576:6684   */\n      tag_400\n        /* \"#utility.yul\":6679:6683   */\n      dup2\n        /* \"#utility.yul\":6670:6676   */\n      dup6\n        /* \"#utility.yul\":6576:6684   */\n      tag_289\n      jump\t// in\n    tag_400:\n        /* \"#utility.yul\":6568:6684   */\n      swap1\n      pop\n        /* \"#utility.yul\":6731:6740   */\n      dup2\n        /* \"#utility.yul\":6725:6729   */\n      dup2\n        /* \"#utility.yul\":6721:6741   */\n      sub\n        /* \"#utility.yul\":6716:6718   */\n      0x20\n        /* \"#utility.yul\":6705:6714   */\n      dup4\n        /* \"#utility.yul\":6701:6719   */\n      add\n        /* \"#utility.yul\":6694:6742   */\n      mstore\n        /* \"#utility.yul\":6759:6867   */\n      tag_401\n        /* \"#utility.yul\":6862:6866   */\n      dup2\n        /* \"#utility.yul\":6853:6859   */\n      dup5\n        /* \"#utility.yul\":6759:6867   */\n      tag_282\n      jump\t// in\n    tag_401:\n        /* \"#utility.yul\":6751:6867   */\n      swap1\n      pop\n        /* \"#utility.yul\":6240:6874   */\n      swap4\n      swap3\n      pop\n      pop\n      pop\n      jump\t// out\n        /* \"#utility.yul\":6880:6998   */\n    tag_290:\n        /* \"#utility.yul\":6967:6991   */\n      tag_403\n        /* \"#utility.yul\":6985:6990   */\n      dup2\n        /* \"#utility.yul\":6967:6991   */\n      tag_269\n      jump\t// in\n    tag_403:\n        /* \"#utility.yul\":6962:6965   */\n      dup3\n        /* \"#utility.yul\":6955:6992   */\n      mstore\n        /* \"#utility.yul\":6880:6998   */\n      pop\n      pop\n      jump\t// out\n        /* \"#utility.yul\":7004:7748   */\n    tag_28:\n        /* \"#utility.yul\":7253:7257   */\n      0x00\n        /* \"#utility.yul\":7291:7293   */\n      0x60\n        /* \"#utility.yul\":7280:7289   */\n      dup3\n        /* \"#utility.yul\":7276:7294   */\n      add\n        /* \"#utility.yul\":7268:7294   */\n      swap1\n      pop\n        /* \"#utility.yul\":7340:7349   */\n      dup2\n        /* \"#utility.yul\":7334:7338   */\n      dup2\n        /* \"#utility.yul\":7330:7350   */\n      sub\n        /* \"#utility.yul\":7326:7327   */\n      0x00\n        /* \"#utility.yul\":7315:7324   */\n      dup4\n        /* \"#utility.yul\":7311:7328   */\n      add\n        /* \"#utility.yul\":7304:7351   */\n      mstore\n        /* \"#utility.yul\":7368:7476   */\n      tag_405\n        /* \"#utility.yul\":7471:7475   */\n      dup2\n        /* \"#utility.yul\":7462:7468   */\n      dup7\n        /* \"#utility.yul\":7368:7476   */\n      tag_282\n      jump\t// in\n    tag_405:\n        /* \"#utility.yul\":7360:7476   */\n      swap1\n      pop\n        /* \"#utility.yul\":7523:7532   */\n      dup2\n        /* \"#utility.yul\":7517:7521   */\n      dup2\n        /* \"#utility.yul\":7513:7533   */\n      sub\n        /* \"#utility.yul\":7508:7510   */\n      0x20\n        /* \"#utility.yul\":7497:7506   */\n      dup4\n        /* \"#utility.yul\":7493:7511   */\n      add\n        /* \"#utility.yul\":7486:7534   */\n      mstore\n        /* \"#utility.yul\":7551:7659   */\n      tag_406\n        /* \"#utility.yul\":7654:7658   */\n      dup2\n        /* \"#utility.yul\":7645:7651   */\n      dup6\n        /* \"#utility.yul\":7551:7659   */\n      tag_282\n      jump\t// in\n    tag_406:\n        /* \"#utility.yul\":7543:7659   */\n      swap1\n      pop\n        /* \"#utility.yul\":7669:7741   */\n      tag_407\n        /* \"#utility.yul\":7737:7739   */\n      0x40\n        /* \"#utility.yul\":7726:7735   */\n      dup4\n        /* \"#utility.yul\":7722:7740   */\n      add\n        /* \"#utility.yul\":7713:7719   */\n      dup5\n        /* \"#utility.yul\":7669:7741   */\n      tag_290\n      jump\t// in\n    tag_407:\n        /* \"#utility.yul\":7004:7748   */\n      swap5\n      swap4\n      pop\n      pop\n      pop\n      pop\n      jump\t// out\n        /* \"#utility.yul\":7754:7871   */\n    tag_291:\n        /* \"#utility.yul\":7863:7864   */\n      0x00\n        /* \"#utility.yul\":7860:7861   */\n      dup1\n        /* \"#utility.yul\":7853:7865   */\n      revert\n        /* \"#utility.yul\":7877:7979   */\n    tag_292:\n        /* \"#utility.yul\":7918:7924   */\n      0x00\n        /* \"#utility.yul\":7969:7971   */\n      0x1f\n        /* \"#utility.yul\":7965:7972   */\n      not\n        /* \"#utility.yul\":7960:7962   */\n      0x1f\n        /* \"#utility.yul\":7953:7958   */\n      dup4\n        /* \"#utility.yul\":7949:7963   */\n      add\n        /* \"#utility.yul\":7945:7973   */\n      and\n        /* \"#utility.yul\":7935:7973   */\n      swap1\n      pop\n        /* \"#utility.yul\":7877:7979   */\n      swap2\n      swap1\n      pop\n      jump\t// out\n        /* \"#utility.yul\":7985:8165   */\n    tag_60:\n        /* \"#utility.yul\":8033:8110   */\n      0x4e487b7100000000000000000000000000000000000000000000000000000000\n        /* \"#utility.yul\":8030:8031   */\n      0x00\n        /* \"#utility.yul\":8023:8111   */\n      mstore\n        /* \"#utility.yul\":8130:8134   */\n      0x41\n        /* \"#utility.yul\":8127:8128   */\n      0x04\n        /* \"#utility.yul\":8120:8135   */\n      mstore\n        /* \"#utility.yul\":8154:8158   */\n      0x24\n        /* \"#utility.yul\":8151:8152   */\n      0x00\n        /* \"#utility.yul\":8144:8159   */\n      revert\n        /* \"#utility.yul\":8171:8452   */\n    tag_293:\n        /* \"#utility.yul\":8254:8281   */\n      tag_412\n        /* \"#utility.yul\":8276:8280   */\n      dup3\n        /* \"#utility.yul\":8254:8281   */\n      tag_292\n      jump\t// in\n    tag_412:\n        /* \"#utility.yul\":8246:8252   */\n      dup2\n        /* \"#utility.yul\":8242:8282   */\n      add\n        /* \"#utility.yul\":8384:8390   */\n      dup2\n        /* \"#utility.yul\":8372:8382   */\n      dup2\n        /* \"#utility.yul\":8369:8391   */\n      lt\n        /* \"#utility.yul\":8348:8366   */\n      0xffffffffffffffff\n        /* \"#utility.yul\":8336:8346   */\n      dup3\n        /* \"#utility.yul\":8333:8367   */\n      gt\n        /* \"#utility.yul\":8330:8392   */\n      or\n        /* \"#utility.yul\":8327:8415   */\n      iszero\n      tag_413\n      jumpi\n        /* \"#utility.yul\":8395:8413   */\n      tag_414\n      tag_60\n      jump\t// in\n    tag_414:\n        /* \"#utility.yul\":8327:8415   */\n    tag_413:\n        /* \"#utility.yul\":8435:8445   */\n      dup1\n        /* \"#utility.yul\":8431:8433   */\n      0x40\n        /* \"#utility.yul\":8424:8446   */\n      mstore\n        /* \"#utility.yul\":8214:8452   */\n      pop\n        /* \"#utility.yul\":8171:8452   */\n      pop\n      pop\n      jump\t// out\n        /* \"#utility.yul\":8458:8587   */\n    tag_294:\n        /* \"#utility.yul\":8492:8498   */\n      0x00\n        /* \"#utility.yul\":8519:8539   */\n      tag_416\n      tag_266\n      jump\t// in\n    tag_416:\n        /* \"#utility.yul\":8509:8539   */\n      swap1\n      pop\n        /* \"#utility.yul\":8548:8581   */\n      tag_417\n        /* \"#utility.yul\":8576:8580   */\n      dup3\n        /* \"#utility.yul\":8568:8574   */\n      dup3\n        /* \"#utility.yul\":8548:8581   */\n      tag_293\n      jump\t// in\n    tag_417:\n        /* \"#utility.yul\":8458:8587   */\n      swap2\n      swap1\n      pop\n      jump\t// out\n        /* \"#utility.yul\":8593:8904   */\n    tag_295:\n        /* \"#utility.yul\":8670:8674   */\n      0x00\n        /* \"#utility.yul\":8760:8778   */\n      0xffffffffffffffff\n        /* \"#utility.yul\":8752:8758   */\n      dup3\n        /* \"#utility.yul\":8749:8779   */\n      gt\n        /* \"#utility.yul\":8746:8802   */\n      iszero\n      tag_419\n      jumpi\n        /* \"#utility.yul\":8782:8800   */\n      tag_420\n      tag_60\n      jump\t// in\n    tag_420:\n        /* \"#utility.yul\":8746:8802   */\n    tag_419:\n        /* \"#utility.yul\":8832:8836   */\n      0x20\n        /* \"#utility.yul\":8824:8830   */\n      dup3\n        /* \"#utility.yul\":8820:8837   */\n      mul\n        /* \"#utility.yul\":8812:8837   */\n      swap1\n      pop\n        /* \"#utility.yul\":8892:8896   */\n      0x20\n        /* \"#utility.yul\":8886:8890   */\n      dup2\n        /* \"#utility.yul\":8882:8897   */\n      add\n        /* \"#utility.yul\":8874:8897   */\n      swap1\n      pop\n        /* \"#utility.yul\":8593:8904   */\n      swap2\n      swap1\n      pop\n      jump\t// out\n        /* \"#utility.yul\":8910:9027   */\n    tag_296:\n        /* \"#utility.yul\":9019:9020   */\n      0x00\n        /* \"#utility.yul\":9016:9017   */\n      dup1\n        /* \"#utility.yul\":9009:9021   */\n      revert\n        /* \"#utility.yul\":9050:9760   */\n    tag_297:\n        /* \"#utility.yul\":9146:9151   */\n      0x00\n        /* \"#utility.yul\":9171:9252   */\n      tag_423\n        /* \"#utility.yul\":9187:9251   */\n      tag_424\n        /* \"#utility.yul\":9244:9250   */\n      dup5\n        /* \"#utility.yul\":9187:9251   */\n      tag_295\n      jump\t// in\n    tag_424:\n        /* \"#utility.yul\":9171:9252   */\n      tag_294\n      jump\t// in\n    tag_423:\n        /* \"#utility.yul\":9162:9252   */\n      swap1\n      pop\n        /* \"#utility.yul\":9272:9277   */\n      dup1\n        /* \"#utility.yul\":9301:9307   */\n      dup4\n        /* \"#utility.yul\":9294:9299   */\n      dup3\n        /* \"#utility.yul\":9287:9308   */\n      mstore\n        /* \"#utility.yul\":9335:9339   */\n      0x20\n        /* \"#utility.yul\":9328:9333   */\n      dup3\n        /* \"#utility.yul\":9324:9340   */\n      add\n        /* \"#utility.yul\":9317:9340   */\n      swap1\n      pop\n        /* \"#utility.yul\":9388:9392   */\n      0x20\n        /* \"#utility.yul\":9380:9386   */\n      dup5\n        /* \"#utility.yul\":9376:9393   */\n      mul\n        /* \"#utility.yul\":9368:9374   */\n      dup4\n        /* \"#utility.yul\":9364:9394   */\n      add\n        /* \"#utility.yul\":9417:9420   */\n      dup6\n        /* \"#utility.yul\":9409:9415   */\n      dup2\n        /* \"#utility.yul\":9406:9421   */\n      gt\n        /* \"#utility.yul\":9403:9525   */\n      iszero\n      tag_425\n      jumpi\n        /* \"#utility.yul\":9436:9515   */\n      tag_426\n      tag_296\n      jump\t// in\n    tag_426:\n        /* \"#utility.yul\":9403:9525   */\n    tag_425:\n        /* \"#utility.yul\":9551:9557   */\n      dup4\n        /* \"#utility.yul\":9534:9754   */\n    tag_427:\n        /* \"#utility.yul\":9568:9574   */\n      dup2\n        /* \"#utility.yul\":9563:9566   */\n      dup2\n        /* \"#utility.yul\":9560:9575   */\n      lt\n        /* \"#utility.yul\":9534:9754   */\n      iszero\n      tag_429\n      jumpi\n        /* \"#utility.yul\":9643:9646   */\n      dup1\n        /* \"#utility.yul\":9672:9709   */\n      tag_430\n        /* \"#utility.yul\":9705:9708   */\n      dup9\n        /* \"#utility.yul\":9693:9703   */\n      dup3\n        /* \"#utility.yul\":9672:9709   */\n      tag_271\n      jump\t// in\n    tag_430:\n        /* \"#utility.yul\":9667:9670   */\n      dup5\n        /* \"#utility.yul\":9660:9710   */\n      mstore\n        /* \"#utility.yul\":9739:9743   */\n      0x20\n        /* \"#utility.yul\":9734:9737   */\n      dup5\n        /* \"#utility.yul\":9730:9744   */\n      add\n        /* \"#utility.yul\":9723:9744   */\n      swap4\n      pop\n        /* \"#utility.yul\":9610:9754   */\n      pop\n        /* \"#utility.yul\":9594:9598   */\n      0x20\n        /* \"#utility.yul\":9589:9592   */\n      dup2\n        /* \"#utility.yul\":9585:9599   */\n      add\n        /* \"#utility.yul\":9578:9599   */\n      swap1\n      pop\n        /* \"#utility.yul\":9534:9754   */\n      jump(tag_427)\n    tag_429:\n        /* \"#utility.yul\":9538:9559   */\n      pop\n        /* \"#utility.yul\":9152:9760   */\n      pop\n      pop\n        /* \"#utility.yul\":9050:9760   */\n      swap4\n      swap3\n      pop\n      pop\n      pop\n      jump\t// out\n        /* \"#utility.yul\":9783:10153   */\n    tag_298:\n        /* \"#utility.yul\":9854:9859   */\n      0x00\n        /* \"#utility.yul\":9903:9906   */\n      dup3\n        /* \"#utility.yul\":9896:9900   */\n      0x1f\n        /* \"#utility.yul\":9888:9894   */\n      dup4\n        /* \"#utility.yul\":9884:9901   */\n      add\n        /* \"#utility.yul\":9880:9907   */\n      slt\n        /* \"#utility.yul\":9870:9992   */\n      tag_432\n      jumpi\n        /* \"#utility.yul\":9911:9990   */\n      tag_433\n      tag_291\n      jump\t// in\n    tag_433:\n        /* \"#utility.yul\":9870:9992   */\n    tag_432:\n        /* \"#utility.yul\":10028:10034   */\n      dup2\n        /* \"#utility.yul\":10015:10035   */\n      calldataload\n        /* \"#utility.yul\":10053:10147   */\n      tag_434\n        /* \"#utility.yul\":10143:10146   */\n      dup5\n        /* \"#utility.yul\":10135:10141   */\n      dup3\n        /* \"#utility.yul\":10128:10132   */\n      0x20\n        /* \"#utility.yul\":10120:10126   */\n      dup7\n        /* \"#utility.yul\":10116:10133   */\n      add\n        /* \"#utility.yul\":10053:10147   */\n      tag_297\n      jump\t// in\n    tag_434:\n        /* \"#utility.yul\":10044:10147   */\n      swap2\n      pop\n        /* \"#utility.yul\":9860:10153   */\n      pop\n        /* \"#utility.yul\":9783:10153   */\n      swap3\n      swap2\n      pop\n      pop\n      jump\t// out\n        /* \"#utility.yul\":10159:11134   */\n    tag_31:\n        /* \"#utility.yul\":10270:10276   */\n      0x00\n        /* \"#utility.yul\":10278:10284   */\n      dup1\n        /* \"#utility.yul\":10286:10292   */\n      0x00\n        /* \"#utility.yul\":10294:10300   */\n      dup1\n        /* \"#utility.yul\":10343:10346   */\n      0x80\n        /* \"#utility.yul\":10331:10340   */\n      dup6\n        /* \"#utility.yul\":10322:10329   */\n      dup8\n        /* \"#utility.yul\":10318:10341   */\n      sub\n        /* \"#utility.yul\":10314:10347   */\n      slt\n        /* \"#utility.yul\":10311:10431   */\n      iszero\n      tag_436\n      jumpi\n        /* \"#utility.yul\":10350:10429   */\n      tag_437\n      tag_267\n      jump\t// in\n    tag_437:\n        /* \"#utility.yul\":10311:10431   */\n    tag_436:\n        /* \"#utility.yul\":10470:10471   */\n      0x00\n        /* \"#utility.yul\":10495:10548   */\n      tag_438\n        /* \"#utility.yul\":10540:10547   */\n      dup8\n        /* \"#utility.yul\":10531:10537   */\n      dup3\n        /* \"#utility.yul\":10520:10529   */\n      dup9\n        /* \"#utility.yul\":10516:10538   */\n      add\n        /* \"#utility.yul\":10495:10548   */\n      tag_271\n      jump\t// in\n    tag_438:\n        /* \"#utility.yul\":10485:10548   */\n      swap5\n      pop\n        /* \"#utility.yul\":10441:10558   */\n      pop\n        /* \"#utility.yul\":10597:10599   */\n      0x20\n        /* \"#utility.yul\":10623:10676   */\n      tag_439\n        /* \"#utility.yul\":10668:10675   */\n      dup8\n        /* \"#utility.yul\":10659:10665   */\n      dup3\n        /* \"#utility.yul\":10648:10657   */\n      dup9\n        /* \"#utility.yul\":10644:10666   */\n      add\n        /* \"#utility.yul\":10623:10676   */\n      tag_271\n      jump\t// in\n    tag_439:\n        /* \"#utility.yul\":10613:10676   */\n      swap4\n      pop\n        /* \"#utility.yul\":10568:10686   */\n      pop\n        /* \"#utility.yul\":10725:10727   */\n      0x40\n        /* \"#utility.yul\":10751:10804   */\n      tag_440\n        /* \"#utility.yul\":10796:10803   */\n      dup8\n        /* \"#utility.yul\":10787:10793   */\n      dup3\n        /* \"#utility.yul\":10776:10785   */\n      dup9\n        /* \"#utility.yul\":10772:10794   */\n      add\n        /* \"#utility.yul\":10751:10804   */\n      tag_271\n      jump\t// in\n    tag_440:\n        /* \"#utility.yul\":10741:10804   */\n      swap3\n      pop\n        /* \"#utility.yul\":10696:10814   */\n      pop\n        /* \"#utility.yul\":10881:10883   */\n      0x60\n        /* \"#utility.yul\":10870:10879   */\n      dup6\n        /* \"#utility.yul\":10866:10884   */\n      add\n        /* \"#utility.yul\":10853:10885   */\n      calldataload\n        /* \"#utility.yul\":10912:10930   */\n      0xffffffffffffffff\n        /* \"#utility.yul\":10904:10910   */\n      dup2\n        /* \"#utility.yul\":10901:10931   */\n      gt\n        /* \"#utility.yul\":10898:11015   */\n      iszero\n      tag_441\n      jumpi\n        /* \"#utility.yul\":10934:11013   */\n      tag_442\n      tag_268\n      jump\t// in\n    tag_442:\n        /* \"#utility.yul\":10898:11015   */\n    tag_441:\n        /* \"#utility.yul\":11039:11117   */\n      tag_443\n        /* \"#utility.yul\":11109:11116   */\n      dup8\n        /* \"#utility.yul\":11100:11106   */\n      dup3\n        /* \"#utility.yul\":11089:11098   */\n      dup9\n        /* \"#utility.yul\":11085:11107   */\n      add\n        /* \"#utility.yul\":11039:11117   */\n      tag_298\n      jump\t// in\n    tag_443:\n        /* \"#utility.yul\":11029:11117   */\n      swap2\n      pop\n        /* \"#utility.yul\":10824:11127   */\n      pop\n        /* \"#utility.yul\":10159:11134   */\n      swap3\n      swap6\n      swap2\n      swap5\n      pop\n      swap3\n      pop\n      jump\t// out\n        /* \"#utility.yul\":11140:11200   */\n    tag_299:\n        /* \"#utility.yul\":11168:11171   */\n      0x00\n        /* \"#utility.yul\":11189:11194   */\n      dup2\n        /* \"#utility.yul\":11182:11194   */\n      swap1\n      pop\n        /* \"#utility.yul\":11140:11200   */\n      swap2\n      swap1\n      pop\n      jump\t// out\n        /* \"#utility.yul\":11206:11348   */\n    tag_300:\n        /* \"#utility.yul\":11256:11265   */\n      0x00\n        /* \"#utility.yul\":11289:11342   */\n      tag_446\n        /* \"#utility.yul\":11307:11341   */\n      tag_447\n        /* \"#utility.yul\":11316:11340   */\n      tag_448\n        /* \"#utility.yul\":11334:11339   */\n      dup5\n        /* \"#utility.yul\":11316:11340   */\n      tag_272\n      jump\t// in\n    tag_448:\n        /* \"#utility.yul\":11307:11341   */\n      tag_299\n      jump\t// in\n    tag_447:\n        /* \"#utility.yul\":11289:11342   */\n      tag_272\n      jump\t// in\n    tag_446:\n        /* \"#utility.yul\":11276:11342   */\n      swap1\n      pop\n        /* \"#utility.yul\":11206:11348   */\n      swap2\n      swap1\n      pop\n      jump\t// out\n        /* \"#utility.yul\":11354:11480   */\n    tag_301:\n        /* \"#utility.yul\":11404:11413   */\n      0x00\n        /* \"#utility.yul\":11437:11474   */\n      tag_450\n        /* \"#utility.yul\":11468:11473   */\n      dup3\n        /* \"#utility.yul\":11437:11474   */\n      tag_300\n      jump\t// in\n    tag_450:\n        /* \"#utility.yul\":11424:11474   */\n      swap1\n      pop\n        /* \"#utility.yul\":11354:11480   */\n      swap2\n      swap1\n      pop\n      jump\t// out\n        /* \"#utility.yul\":11486:11652   */\n    tag_302:\n        /* \"#utility.yul\":11576:11585   */\n      0x00\n        /* \"#utility.yul\":11609:11646   */\n      tag_452\n        /* \"#utility.yul\":11640:11645   */\n      dup3\n        /* \"#utility.yul\":11609:11646   */\n      tag_301\n      jump\t// in\n    tag_452:\n        /* \"#utility.yul\":11596:11646   */\n      swap1\n      pop\n        /* \"#utility.yul\":11486:11652   */\n      swap2\n      swap1\n      pop\n      jump\t// out\n        /* \"#utility.yul\":11658:11869   */\n    tag_303:\n        /* \"#utility.yul\":11785:11862   */\n      tag_454\n        /* \"#utility.yul\":11856:11861   */\n      dup2\n        /* \"#utility.yul\":11785:11862   */\n      tag_302\n      jump\t// in\n    tag_454:\n        /* \"#utility.yul\":11780:11783   */\n      dup3\n        /* \"#utility.yul\":11773:11863   */\n      mstore\n        /* \"#utility.yul\":11658:11869   */\n      pop\n      pop\n      jump\t// out\n        /* \"#utility.yul\":11875:12177   */\n    tag_36:\n        /* \"#utility.yul\":12008:12012   */\n      0x00\n        /* \"#utility.yul\":12046:12048   */\n      0x20\n        /* \"#utility.yul\":12035:12044   */\n      dup3\n        /* \"#utility.yul\":12031:12049   */\n      add\n        /* \"#utility.yul\":12023:12049   */\n      swap1\n      pop\n        /* \"#utility.yul\":12059:12170   */\n      tag_456\n        /* \"#utility.yul\":12167:12168   */\n      0x00\n        /* \"#utility.yul\":12156:12165   */\n      dup4\n        /* \"#utility.yul\":12152:12169   */\n      add\n        /* \"#utility.yul\":12143:12149   */\n      dup5\n        /* \"#utility.yul\":12059:12170   */\n      tag_303\n      jump\t// in\n    tag_456:\n        /* \"#utility.yul\":11875:12177   */\n      swap3\n      swap2\n      pop\n      pop\n      jump\t// out\n        /* \"#utility.yul\":12183:12515   */\n    tag_39:\n        /* \"#utility.yul\":12304:12308   */\n      0x00\n        /* \"#utility.yul\":12342:12344   */\n      0x40\n        /* \"#utility.yul\":12331:12340   */\n      dup3\n        /* \"#utility.yul\":12327:12345   */\n      add\n        /* \"#utility.yul\":12319:12345   */\n      swap1\n      pop\n        /* \"#utility.yul\":12355:12426   */\n      tag_458\n        /* \"#utility.yul\":12423:12424   */\n      0x00\n        /* \"#utility.yul\":12412:12421   */\n      dup4\n        /* \"#utility.yul\":12408:12425   */\n      add\n        /* \"#utility.yul\":12399:12405   */\n      dup6\n        /* \"#utility.yul\":12355:12426   */\n      tag_290\n      jump\t// in\n    tag_458:\n        /* \"#utility.yul\":12436:12508   */\n      tag_459\n        /* \"#utility.yul\":12504:12506   */\n      0x20\n        /* \"#utility.yul\":12493:12502   */\n      dup4\n        /* \"#utility.yul\":12489:12507   */\n      add\n        /* \"#utility.yul\":12480:12486   */\n      dup5\n        /* \"#utility.yul\":12436:12508   */\n      tag_290\n      jump\t// in\n    tag_459:\n        /* \"#utility.yul\":12183:12515   */\n      swap4\n      swap3\n      pop\n      pop\n      pop\n      jump\t// out\n        /* \"#utility.yul\":12521:12852   */\n    tag_304:\n        /* \"#utility.yul\":12618:12622   */\n      0x00\n        /* \"#utility.yul\":12708:12726   */\n      0xffffffffffffffff\n        /* \"#utility.yul\":12700:12706   */\n      dup3\n        /* \"#utility.yul\":12697:12727   */\n      gt\n        /* \"#utility.yul\":12694:12750   */\n      iszero\n      tag_461\n      jumpi\n        /* \"#utility.yul\":12730:12748   */\n      tag_462\n      tag_60\n      jump\t// in\n    tag_462:\n        /* \"#utility.yul\":12694:12750   */\n    tag_461:\n        /* \"#utility.yul\":12780:12784   */\n      0x20\n        /* \"#utility.yul\":12772:12778   */\n      dup3\n        /* \"#utility.yul\":12768:12785   */\n      mul\n        /* \"#utility.yul\":12760:12785   */\n      swap1\n      pop\n        /* \"#utility.yul\":12840:12844   */\n      0x20\n        /* \"#utility.yul\":12834:12838   */\n      dup2\n        /* \"#utility.yul\":12830:12845   */\n      add\n        /* \"#utility.yul\":12822:12845   */\n      swap1\n      pop\n        /* \"#utility.yul\":12521:12852   */\n      swap2\n      swap1\n      pop\n      jump\t// out\n        /* \"#utility.yul\":12858:12975   */\n    tag_305:\n        /* \"#utility.yul\":12967:12968   */\n      0x00\n        /* \"#utility.yul\":12964:12965   */\n      dup1\n        /* \"#utility.yul\":12957:12969   */\n      revert\n        /* \"#utility.yul\":12981:13098   */\n    tag_306:\n        /* \"#utility.yul\":13090:13091   */\n      0x00\n        /* \"#utility.yul\":13087:13088   */\n      dup1\n        /* \"#utility.yul\":13080:13092   */\n      revert\n        /* \"#utility.yul\":13104:13415   */\n    tag_307:\n        /* \"#utility.yul\":13181:13185   */\n      0x00\n        /* \"#utility.yul\":13271:13289   */\n      0xffffffffffffffff\n        /* \"#utility.yul\":13263:13269   */\n      dup3\n        /* \"#utility.yul\":13260:13290   */\n      gt\n        /* \"#utility.yul\":13257:13313   */\n      iszero\n      tag_466\n      jumpi\n        /* \"#utility.yul\":13293:13311   */\n      tag_467\n      tag_60\n      jump\t// in\n    tag_467:\n        /* \"#utility.yul\":13257:13313   */\n    tag_466:\n        /* \"#utility.yul\":13343:13347   */\n      0x20\n        /* \"#utility.yul\":13335:13341   */\n      dup3\n        /* \"#utility.yul\":13331:13348   */\n      mul\n        /* \"#utility.yul\":13323:13348   */\n      swap1\n      pop\n        /* \"#utility.yul\":13403:13407   */\n      0x20\n        /* \"#utility.yul\":13397:13401   */\n      dup2\n        /* \"#utility.yul\":13393:13408   */\n      add\n        /* \"#utility.yul\":13385:13408   */\n      swap1\n      pop\n        /* \"#utility.yul\":13104:13415   */\n      swap2\n      swap1\n      pop\n      jump\t// out\n        /* \"#utility.yul\":13421:13564   */\n    tag_308:\n        /* \"#utility.yul\":13478:13483   */\n      0x00\n        /* \"#utility.yul\":13509:13515   */\n      dup2\n        /* \"#utility.yul\":13503:13516   */\n      mload\n        /* \"#utility.yul\":13494:13516   */\n      swap1\n      pop\n        /* \"#utility.yul\":13525:13558   */\n      tag_469\n        /* \"#utility.yul\":13552:13557   */\n      dup2\n        /* \"#utility.yul\":13525:13558   */\n      tag_274\n      jump\t// in\n    tag_469:\n        /* \"#utility.yul\":13421:13564   */\n      swap3\n      swap2\n      pop\n      pop\n      jump\t// out\n        /* \"#utility.yul\":13587:14319   */\n    tag_309:\n        /* \"#utility.yul\":13694:13699   */\n      0x00\n        /* \"#utility.yul\":13719:13800   */\n      tag_471\n        /* \"#utility.yul\":13735:13799   */\n      tag_472\n        /* \"#utility.yul\":13792:13798   */\n      dup5\n        /* \"#utility.yul\":13735:13799   */\n      tag_307\n      jump\t// in\n    tag_472:\n        /* \"#utility.yul\":13719:13800   */\n      tag_294\n      jump\t// in\n    tag_471:\n        /* \"#utility.yul\":13710:13800   */\n      swap1\n      pop\n        /* \"#utility.yul\":13820:13825   */\n      dup1\n        /* \"#utility.yul\":13849:13855   */\n      dup4\n        /* \"#utility.yul\":13842:13847   */\n      dup3\n        /* \"#utility.yul\":13835:13856   */\n      mstore\n        /* \"#utility.yul\":13883:13887   */\n      0x20\n        /* \"#utility.yul\":13876:13881   */\n      dup3\n        /* \"#utility.yul\":13872:13888   */\n      add\n        /* \"#utility.yul\":13865:13888   */\n      swap1\n      pop\n        /* \"#utility.yul\":13936:13940   */\n      0x20\n        /* \"#utility.yul\":13928:13934   */\n      dup5\n        /* \"#utility.yul\":13924:13941   */\n      mul\n        /* \"#utility.yul\":13916:13922   */\n      dup4\n        /* \"#utility.yul\":13912:13942   */\n      add\n        /* \"#utility.yul\":13965:13968   */\n      dup6\n        /* \"#utility.yul\":13957:13963   */\n      dup2\n        /* \"#utility.yul\":13954:13969   */\n      gt\n        /* \"#utility.yul\":13951:14073   */\n      iszero\n      tag_473\n      jumpi\n        /* \"#utility.yul\":13984:14063   */\n      tag_474\n      tag_296\n      jump\t// in\n    tag_474:\n        /* \"#utility.yul\":13951:14073   */\n    tag_473:\n        /* \"#utility.yul\":14099:14105   */\n      dup4\n        /* \"#utility.yul\":14082:14313   */\n    tag_475:\n        /* \"#utility.yul\":14116:14122   */\n      dup2\n        /* \"#utility.yul\":14111:14114   */\n      dup2\n        /* \"#utility.yul\":14108:14123   */\n      lt\n        /* \"#utility.yul\":14082:14313   */\n      iszero\n      tag_477\n      jumpi\n        /* \"#utility.yul\":14191:14194   */\n      dup1\n        /* \"#utility.yul\":14220:14268   */\n      tag_478\n        /* \"#utility.yul\":14264:14267   */\n      dup9\n        /* \"#utility.yul\":14252:14262   */\n      dup3\n        /* \"#utility.yul\":14220:14268   */\n      tag_308\n      jump\t// in\n    tag_478:\n        /* \"#utility.yul\":14215:14218   */\n      dup5\n        /* \"#utility.yul\":14208:14269   */\n      mstore\n        /* \"#utility.yul\":14298:14302   */\n      0x20\n        /* \"#utility.yul\":14293:14296   */\n      dup5\n        /* \"#utility.yul\":14289:14303   */\n      add\n        /* \"#utility.yul\":14282:14303   */\n      swap4\n      pop\n        /* \"#utility.yul\":14158:14313   */\n      pop\n        /* \"#utility.yul\":14142:14146   */\n      0x20\n        /* \"#utility.yul\":14137:14140   */\n      dup2\n        /* \"#utility.yul\":14133:14147   */\n      add\n        /* \"#utility.yul\":14126:14147   */\n      swap1\n      pop\n        /* \"#utility.yul\":14082:14313   */\n      jump(tag_475)\n    tag_477:\n        /* \"#utility.yul\":14086:14107   */\n      pop\n        /* \"#utility.yul\":13700:14319   */\n      pop\n      pop\n        /* \"#utility.yul\":13587:14319   */\n      swap4\n      swap3\n      pop\n      pop\n      pop\n      jump\t// out\n        /* \"#utility.yul\":14342:14727   */\n    tag_310:\n        /* \"#utility.yul\":14424:14429   */\n      0x00\n        /* \"#utility.yul\":14473:14476   */\n      dup3\n        /* \"#utility.yul\":14466:14470   */\n      0x1f\n        /* \"#utility.yul\":14458:14464   */\n      dup4\n        /* \"#utility.yul\":14454:14471   */\n      add\n        /* \"#utility.yul\":14450:14477   */\n      slt\n        /* \"#utility.yul\":14440:14562   */\n      tag_480\n      jumpi\n        /* \"#utility.yul\":14481:14560   */\n      tag_481\n      tag_291\n      jump\t// in\n    tag_481:\n        /* \"#utility.yul\":14440:14562   */\n    tag_480:\n        /* \"#utility.yul\":14591:14597   */\n      dup2\n        /* \"#utility.yul\":14585:14598   */\n      mload\n        /* \"#utility.yul\":14616:14721   */\n      tag_482\n        /* \"#utility.yul\":14717:14720   */\n      dup5\n        /* \"#utility.yul\":14709:14715   */\n      dup3\n        /* \"#utility.yul\":14702:14706   */\n      0x20\n        /* \"#utility.yul\":14694:14700   */\n      dup7\n        /* \"#utility.yul\":14690:14707   */\n      add\n        /* \"#utility.yul\":14616:14721   */\n      tag_309\n      jump\t// in\n    tag_482:\n        /* \"#utility.yul\":14607:14721   */\n      swap2\n      pop\n        /* \"#utility.yul\":14430:14727   */\n      pop\n        /* \"#utility.yul\":14342:14727   */\n      swap3\n      swap2\n      pop\n      pop\n      jump\t// out\n        /* \"#utility.yul\":14787:15398   */\n    tag_311:\n        /* \"#utility.yul\":14867:14872   */\n      0x00\n        /* \"#utility.yul\":14911:14915   */\n      0x20\n        /* \"#utility.yul\":14899:14908   */\n      dup3\n        /* \"#utility.yul\":14894:14897   */\n      dup5\n        /* \"#utility.yul\":14890:14909   */\n      sub\n        /* \"#utility.yul\":14886:14916   */\n      slt\n        /* \"#utility.yul\":14883:15000   */\n      iszero\n      tag_484\n      jumpi\n        /* \"#utility.yul\":14919:14998   */\n      tag_485\n      tag_305\n      jump\t// in\n    tag_485:\n        /* \"#utility.yul\":14883:15000   */\n    tag_484:\n        /* \"#utility.yul\":15018:15039   */\n      tag_486\n        /* \"#utility.yul\":15034:15038   */\n      0x20\n        /* \"#utility.yul\":15018:15039   */\n      tag_294\n      jump\t// in\n    tag_486:\n        /* \"#utility.yul\":15009:15039   */\n      swap1\n      pop\n        /* \"#utility.yul\":15122:15123   */\n      0x00\n        /* \"#utility.yul\":15111:15120   */\n      dup3\n        /* \"#utility.yul\":15107:15124   */\n      add\n        /* \"#utility.yul\":15101:15125   */\n      mload\n        /* \"#utility.yul\":15152:15170   */\n      0xffffffffffffffff\n        /* \"#utility.yul\":15144:15150   */\n      dup2\n        /* \"#utility.yul\":15141:15171   */\n      gt\n        /* \"#utility.yul\":15138:15255   */\n      iszero\n      tag_487\n      jumpi\n        /* \"#utility.yul\":15174:15253   */\n      tag_488\n      tag_306\n      jump\t// in\n    tag_488:\n        /* \"#utility.yul\":15138:15255   */\n    tag_487:\n        /* \"#utility.yul\":15294:15379   */\n      tag_489\n        /* \"#utility.yul\":15375:15378   */\n      dup5\n        /* \"#utility.yul\":15366:15372   */\n      dup3\n        /* \"#utility.yul\":15355:15364   */\n      dup6\n        /* \"#utility.yul\":15351:15373   */\n      add\n        /* \"#utility.yul\":15294:15379   */\n      tag_310\n      jump\t// in\n    tag_489:\n        /* \"#utility.yul\":15287:15291   */\n      0x00\n        /* \"#utility.yul\":15280:15285   */\n      dup4\n        /* \"#utility.yul\":15276:15292   */\n      add\n        /* \"#utility.yul\":15269:15380   */\n      mstore\n        /* \"#utility.yul\":15049:15391   */\n      pop\n        /* \"#utility.yul\":14787:15398   */\n      swap3\n      swap2\n      pop\n      pop\n      jump\t// out\n        /* \"#utility.yul\":15460:16450   */\n    tag_312:\n        /* \"#utility.yul\":15587:15592   */\n      0x00\n        /* \"#utility.yul\":15612:15713   */\n      tag_491\n        /* \"#utility.yul\":15628:15712   */\n      tag_492\n        /* \"#utility.yul\":15705:15711   */\n      dup5\n        /* \"#utility.yul\":15628:15712   */\n      tag_304\n      jump\t// in\n    tag_492:\n        /* \"#utility.yul\":15612:15713   */\n      tag_294\n      jump\t// in\n    tag_491:\n        /* \"#utility.yul\":15603:15713   */\n      swap1\n      pop\n        /* \"#utility.yul\":15733:15738   */\n      dup1\n        /* \"#utility.yul\":15762:15768   */\n      dup4\n        /* \"#utility.yul\":15755:15760   */\n      dup3\n        /* \"#utility.yul\":15748:15769   */\n      mstore\n        /* \"#utility.yul\":15796:15800   */\n      0x20\n        /* \"#utility.yul\":15789:15794   */\n      dup3\n        /* \"#utility.yul\":15785:15801   */\n      add\n        /* \"#utility.yul\":15778:15801   */\n      swap1\n      pop\n        /* \"#utility.yul\":15849:15853   */\n      0x20\n        /* \"#utility.yul\":15841:15847   */\n      dup5\n        /* \"#utility.yul\":15837:15854   */\n      mul\n        /* \"#utility.yul\":15829:15835   */\n      dup4\n        /* \"#utility.yul\":15825:15855   */\n      add\n        /* \"#utility.yul\":15878:15881   */\n      dup6\n        /* \"#utility.yul\":15870:15876   */\n      dup2\n        /* \"#utility.yul\":15867:15882   */\n      gt\n        /* \"#utility.yul\":15864:15986   */\n      iszero\n      tag_493\n      jumpi\n        /* \"#utility.yul\":15897:15976   */\n      tag_494\n      tag_296\n      jump\t// in\n    tag_494:\n        /* \"#utility.yul\":15864:15986   */\n    tag_493:\n        /* \"#utility.yul\":16012:16018   */\n      dup4\n        /* \"#utility.yul\":15995:16444   */\n    tag_495:\n        /* \"#utility.yul\":16029:16035   */\n      dup2\n        /* \"#utility.yul\":16024:16027   */\n      dup2\n        /* \"#utility.yul\":16021:16036   */\n      lt\n        /* \"#utility.yul\":15995:16444   */\n      iszero\n      tag_497\n      jumpi\n        /* \"#utility.yul\":16111:16114   */\n      dup1\n        /* \"#utility.yul\":16105:16115   */\n      mload\n        /* \"#utility.yul\":16147:16165   */\n      0xffffffffffffffff\n        /* \"#utility.yul\":16134:16145   */\n      dup2\n        /* \"#utility.yul\":16131:16166   */\n      gt\n        /* \"#utility.yul\":16128:16250   */\n      iszero\n      tag_498\n      jumpi\n        /* \"#utility.yul\":16169:16248   */\n      tag_499\n      tag_291\n      jump\t// in\n    tag_499:\n        /* \"#utility.yul\":16128:16250   */\n    tag_498:\n        /* \"#utility.yul\":16293:16304   */\n      dup1\n        /* \"#utility.yul\":16285:16291   */\n      dup7\n        /* \"#utility.yul\":16281:16305   */\n      add\n        /* \"#utility.yul\":16331:16399   */\n      tag_500\n        /* \"#utility.yul\":16395:16398   */\n      dup10\n        /* \"#utility.yul\":16383:16393   */\n      dup3\n        /* \"#utility.yul\":16331:16399   */\n      tag_311\n      jump\t// in\n    tag_500:\n        /* \"#utility.yul\":16326:16329   */\n      dup6\n        /* \"#utility.yul\":16319:16400   */\n      mstore\n        /* \"#utility.yul\":16429:16433   */\n      0x20\n        /* \"#utility.yul\":16424:16427   */\n      dup6\n        /* \"#utility.yul\":16420:16434   */\n      add\n        /* \"#utility.yul\":16413:16434   */\n      swap5\n      pop\n        /* \"#utility.yul\":16071:16444   */\n      pop\n      pop\n        /* \"#utility.yul\":16055:16059   */\n      0x20\n        /* \"#utility.yul\":16050:16053   */\n      dup2\n        /* \"#utility.yul\":16046:16060   */\n      add\n        /* \"#utility.yul\":16039:16060   */\n      swap1\n      pop\n        /* \"#utility.yul\":15995:16444   */\n      jump(tag_495)\n    tag_497:\n        /* \"#utility.yul\":15999:16020   */\n      pop\n        /* \"#utility.yul\":15593:16450   */\n      pop\n      pop\n        /* \"#utility.yul\":15460:16450   */\n      swap4\n      swap3\n      pop\n      pop\n      pop\n      jump\t// out\n        /* \"#utility.yul\":16512:16937   */\n    tag_313:\n        /* \"#utility.yul\":16614:16619   */\n      0x00\n        /* \"#utility.yul\":16663:16666   */\n      dup3\n        /* \"#utility.yul\":16656:16660   */\n      0x1f\n        /* \"#utility.yul\":16648:16654   */\n      dup4\n        /* \"#utility.yul\":16644:16661   */\n      add\n        /* \"#utility.yul\":16640:16667   */\n      slt\n        /* \"#utility.yul\":16630:16752   */\n      tag_502\n      jumpi\n        /* \"#utility.yul\":16671:16750   */\n      tag_503\n      tag_291\n      jump\t// in\n    tag_503:\n        /* \"#utility.yul\":16630:16752   */\n    tag_502:\n        /* \"#utility.yul\":16781:16787   */\n      dup2\n        /* \"#utility.yul\":16775:16788   */\n      mload\n        /* \"#utility.yul\":16806:16931   */\n      tag_504\n        /* \"#utility.yul\":16927:16930   */\n      dup5\n        /* \"#utility.yul\":16919:16925   */\n      dup3\n        /* \"#utility.yul\":16912:16916   */\n      0x20\n        /* \"#utility.yul\":16904:16910   */\n      dup7\n        /* \"#utility.yul\":16900:16917   */\n      add\n        /* \"#utility.yul\":16806:16931   */\n      tag_312\n      jump\t// in\n    tag_504:\n        /* \"#utility.yul\":16797:16931   */\n      swap2\n      pop\n        /* \"#utility.yul\":16620:16937   */\n      pop\n        /* \"#utility.yul\":16512:16937   */\n      swap3\n      swap2\n      pop\n      pop\n      jump\t// out\n        /* \"#utility.yul\":16943:17537   */\n    tag_43:\n        /* \"#utility.yul\":17058:17064   */\n      0x00\n        /* \"#utility.yul\":17107:17109   */\n      0x20\n        /* \"#utility.yul\":17095:17104   */\n      dup3\n        /* \"#utility.yul\":17086:17093   */\n      dup5\n        /* \"#utility.yul\":17082:17105   */\n      sub\n        /* \"#utility.yul\":17078:17110   */\n      slt\n        /* \"#utility.yul\":17075:17194   */\n      iszero\n      tag_506\n      jumpi\n        /* \"#utility.yul\":17113:17192   */\n      tag_507\n      tag_267\n      jump\t// in\n    tag_507:\n        /* \"#utility.yul\":17075:17194   */\n    tag_506:\n        /* \"#utility.yul\":17254:17255   */\n      0x00\n        /* \"#utility.yul\":17243:17252   */\n      dup3\n        /* \"#utility.yul\":17239:17256   */\n      add\n        /* \"#utility.yul\":17233:17257   */\n      mload\n        /* \"#utility.yul\":17284:17302   */\n      0xffffffffffffffff\n        /* \"#utility.yul\":17276:17282   */\n      dup2\n        /* \"#utility.yul\":17273:17303   */\n      gt\n        /* \"#utility.yul\":17270:17387   */\n      iszero\n      tag_508\n      jumpi\n        /* \"#utility.yul\":17306:17385   */\n      tag_509\n      tag_268\n      jump\t// in\n    tag_509:\n        /* \"#utility.yul\":17270:17387   */\n    tag_508:\n        /* \"#utility.yul\":17411:17520   */\n      tag_510\n        /* \"#utility.yul\":17512:17519   */\n      dup5\n        /* \"#utility.yul\":17503:17509   */\n      dup3\n        /* \"#utility.yul\":17492:17501   */\n      dup6\n        /* \"#utility.yul\":17488:17510   */\n      add\n        /* \"#utility.yul\":17411:17520   */\n      tag_313\n      jump\t// in\n    tag_510:\n        /* \"#utility.yul\":17401:17520   */\n      swap2\n      pop\n        /* \"#utility.yul\":17204:17530   */\n      pop\n        /* \"#utility.yul\":16943:17537   */\n      swap3\n      swap2\n      pop\n      pop\n      jump\t// out\n        /* \"#utility.yul\":17543:17712   */\n    tag_314:\n        /* \"#utility.yul\":17627:17638   */\n      0x00\n        /* \"#utility.yul\":17661:17667   */\n      dup3\n        /* \"#utility.yul\":17656:17659   */\n      dup3\n        /* \"#utility.yul\":17649:17668   */\n      mstore\n        /* \"#utility.yul\":17701:17705   */\n      0x20\n        /* \"#utility.yul\":17696:17699   */\n      dup3\n        /* \"#utility.yul\":17692:17706   */\n      add\n        /* \"#utility.yul\":17677:17706   */\n      swap1\n      pop\n        /* \"#utility.yul\":17543:17712   */\n      swap3\n      swap2\n      pop\n      pop\n      jump\t// out\n        /* \"#utility.yul\":17718:17884   */\n    tag_315:\n        /* \"#utility.yul\":17858:17876   */\n      0x496e76616c69642067726f757020494400000000000000000000000000000000\n        /* \"#utility.yul\":17854:17855   */\n      0x00\n        /* \"#utility.yul\":17846:17852   */\n      dup3\n        /* \"#utility.yul\":17842:17856   */\n      add\n        /* \"#utility.yul\":17835:17877   */\n      mstore\n        /* \"#utility.yul\":17718:17884   */\n      pop\n      jump\t// out\n        /* \"#utility.yul\":17890:18256   */\n    tag_316:\n        /* \"#utility.yul\":18032:18035   */\n      0x00\n        /* \"#utility.yul\":18053:18120   */\n      tag_514\n        /* \"#utility.yul\":18117:18119   */\n      0x10\n        /* \"#utility.yul\":18112:18115   */\n      dup4\n        /* \"#utility.yul\":18053:18120   */\n      tag_314\n      jump\t// in\n    tag_514:\n        /* \"#utility.yul\":18046:18120   */\n      swap2\n      pop\n        /* \"#utility.yul\":18129:18222   */\n      tag_515\n        /* \"#utility.yul\":18218:18221   */\n      dup3\n        /* \"#utility.yul\":18129:18222   */\n      tag_315\n      jump\t// in\n    tag_515:\n        /* \"#utility.yul\":18247:18249   */\n      0x20\n        /* \"#utility.yul\":18242:18245   */\n      dup3\n        /* \"#utility.yul\":18238:18250   */\n      add\n        /* \"#utility.yul\":18231:18250   */\n      swap1\n      pop\n        /* \"#utility.yul\":17890:18256   */\n      swap2\n      swap1\n      pop\n      jump\t// out\n        /* \"#utility.yul\":18262:18681   */\n    tag_46:\n        /* \"#utility.yul\":18428:18432   */\n      0x00\n        /* \"#utility.yul\":18466:18468   */\n      0x20\n        /* \"#utility.yul\":18455:18464   */\n      dup3\n        /* \"#utility.yul\":18451:18469   */\n      add\n        /* \"#utility.yul\":18443:18469   */\n      swap1\n      pop\n        /* \"#utility.yul\":18515:18524   */\n      dup2\n        /* \"#utility.yul\":18509:18513   */\n      dup2\n        /* \"#utility.yul\":18505:18525   */\n      sub\n        /* \"#utility.yul\":18501:18502   */\n      0x00\n        /* \"#utility.yul\":18490:18499   */\n      dup4\n        /* \"#utility.yul\":18486:18503   */\n      add\n        /* \"#utility.yul\":18479:18526   */\n      mstore\n        /* \"#utility.yul\":18543:18674   */\n      tag_517\n        /* \"#utility.yul\":18669:18673   */\n      dup2\n        /* \"#utility.yul\":18543:18674   */\n      tag_316\n      jump\t// in\n    tag_517:\n        /* \"#utility.yul\":18535:18674   */\n      swap1\n      pop\n        /* \"#utility.yul\":18262:18681   */\n      swap2\n      swap1\n      pop\n      jump\t// out\n        /* \"#utility.yul\":18687:18867   */\n    tag_49:\n        /* \"#utility.yul\":18735:18812   */\n      0x4e487b7100000000000000000000000000000000000000000000000000000000\n        /* \"#utility.yul\":18732:18733   */\n      0x00\n        /* \"#utility.yul\":18725:18813   */\n      mstore\n        /* \"#utility.yul\":18832:18836   */\n      0x32\n        /* \"#utility.yul\":18829:18830   */\n      0x04\n        /* \"#utility.yul\":18822:18837   */\n      mstore\n        /* \"#utility.yul\":18856:18860   */\n      0x24\n        /* \"#utility.yul\":18853:18854   */\n      0x00\n        /* \"#utility.yul\":18846:18861   */\n      revert\n        /* \"#utility.yul\":18873:19043   */\n    tag_317:\n        /* \"#utility.yul\":19013:19035   */\n      0x47726f757020646f6573206e6f74206578697374000000000000000000000000\n        /* \"#utility.yul\":19009:19010   */\n      0x00\n        /* \"#utility.yul\":19001:19007   */\n      dup3\n        /* \"#utility.yul\":18997:19011   */\n      add\n        /* \"#utility.yul\":18990:19036   */\n      mstore\n        /* \"#utility.yul\":18873:19043   */\n      pop\n      jump\t// out\n        /* \"#utility.yul\":19049:19415   */\n    tag_318:\n        /* \"#utility.yul\":19191:19194   */\n      0x00\n        /* \"#utility.yul\":19212:19279   */\n      tag_521\n        /* \"#utility.yul\":19276:19278   */\n      0x14\n        /* \"#utility.yul\":19271:19274   */\n      dup4\n        /* \"#utility.yul\":19212:19279   */\n      tag_314\n      jump\t// in\n    tag_521:\n        /* \"#utility.yul\":19205:19279   */\n      swap2\n      pop\n        /* \"#utility.yul\":19288:19381   */\n      tag_522\n        /* \"#utility.yul\":19377:19380   */\n      dup3\n        /* \"#utility.yul\":19288:19381   */\n      tag_317\n      jump\t// in\n    tag_522:\n        /* \"#utility.yul\":19406:19408   */\n      0x20\n        /* \"#utility.yul\":19401:19404   */\n      dup3\n        /* \"#utility.yul\":19397:19409   */\n      add\n        /* \"#utility.yul\":19390:19409   */\n      swap1\n      pop\n        /* \"#utility.yul\":19049:19415   */\n      swap2\n      swap1\n      pop\n      jump\t// out\n        /* \"#utility.yul\":19421:19840   */\n    tag_52:\n        /* \"#utility.yul\":19587:19591   */\n      0x00\n        /* \"#utility.yul\":19625:19627   */\n      0x20\n        /* \"#utility.yul\":19614:19623   */\n      dup3\n        /* \"#utility.yul\":19610:19628   */\n      add\n        /* \"#utility.yul\":19602:19628   */\n      swap1\n      pop\n        /* \"#utility.yul\":19674:19683   */\n      dup2\n        /* \"#utility.yul\":19668:19672   */\n      dup2\n        /* \"#utility.yul\":19664:19684   */\n      sub\n        /* \"#utility.yul\":19660:19661   */\n      0x00\n        /* \"#utility.yul\":19649:19658   */\n      dup4\n        /* \"#utility.yul\":19645:19662   */\n      add\n        /* \"#utility.yul\":19638:19685   */\n      mstore\n        /* \"#utility.yul\":19702:19833   */\n      tag_524\n        /* \"#utility.yul\":19828:19832   */\n      dup2\n        /* \"#utility.yul\":19702:19833   */\n      tag_318\n      jump\t// in\n    tag_524:\n        /* \"#utility.yul\":19694:19833   */\n      swap1\n      pop\n        /* \"#utility.yul\":19421:19840   */\n      swap2\n      swap1\n      pop\n      jump\t// out\n        /* \"#utility.yul\":19846:20072   */\n    tag_319:\n        /* \"#utility.yul\":19986:20020   */\n      0x4e6f7420616c6c206d656d626572732068617665207375626d69747465642072\n        /* \"#utility.yul\":19982:19983   */\n      0x00\n        /* \"#utility.yul\":19974:19980   */\n      dup3\n        /* \"#utility.yul\":19970:19984   */\n      add\n        /* \"#utility.yul\":19963:20021   */\n      mstore\n        /* \"#utility.yul\":20055:20064   */\n      0x616e6b696e677300000000000000000000000000000000000000000000000000\n        /* \"#utility.yul\":20050:20052   */\n      0x20\n        /* \"#utility.yul\":20042:20048   */\n      dup3\n        /* \"#utility.yul\":20038:20053   */\n      add\n        /* \"#utility.yul\":20031:20065   */\n      mstore\n        /* \"#utility.yul\":19846:20072   */\n      pop\n      jump\t// out\n        /* \"#utility.yul\":20078:20444   */\n    tag_320:\n        /* \"#utility.yul\":20220:20223   */\n      0x00\n        /* \"#utility.yul\":20241:20308   */\n      tag_527\n        /* \"#utility.yul\":20305:20307   */\n      0x27\n        /* \"#utility.yul\":20300:20303   */\n      dup4\n        /* \"#utility.yul\":20241:20308   */\n      tag_314\n      jump\t// in\n    tag_527:\n        /* \"#utility.yul\":20234:20308   */\n      swap2\n      pop\n        /* \"#utility.yul\":20317:20410   */\n      tag_528\n        /* \"#utility.yul\":20406:20409   */\n      dup3\n        /* \"#utility.yul\":20317:20410   */\n      tag_319\n      jump\t// in\n    tag_528:\n        /* \"#utility.yul\":20435:20437   */\n      0x40\n        /* \"#utility.yul\":20430:20433   */\n      dup3\n        /* \"#utility.yul\":20426:20438   */\n      add\n        /* \"#utility.yul\":20419:20438   */\n      swap1\n      pop\n        /* \"#utility.yul\":20078:20444   */\n      swap2\n      swap1\n      pop\n      jump\t// out\n        /* \"#utility.yul\":20450:20869   */\n    tag_57:\n        /* \"#utility.yul\":20616:20620   */\n      0x00\n        /* \"#utility.yul\":20654:20656   */\n      0x20\n        /* \"#utility.yul\":20643:20652   */\n      dup3\n        /* \"#utility.yul\":20639:20657   */\n      add\n        /* \"#utility.yul\":20631:20657   */\n      swap1\n      pop\n        /* \"#utility.yul\":20703:20712   */\n      dup2\n        /* \"#utility.yul\":20697:20701   */\n      dup2\n        /* \"#utility.yul\":20693:20713   */\n      sub\n        /* \"#utility.yul\":20689:20690   */\n      0x00\n        /* \"#utility.yul\":20678:20687   */\n      dup4\n        /* \"#utility.yul\":20674:20691   */\n      add\n        /* \"#utility.yul\":20667:20714   */\n      mstore\n        /* \"#utility.yul\":20731:20862   */\n      tag_530\n        /* \"#utility.yul\":20857:20861   */\n      dup2\n        /* \"#utility.yul\":20731:20862   */\n      tag_320\n      jump\t// in\n    tag_530:\n        /* \"#utility.yul\":20723:20862   */\n      swap1\n      pop\n        /* \"#utility.yul\":20450:20869   */\n      swap2\n      swap1\n      pop\n      jump\t// out\n        /* \"#utility.yul\":20875:21051   */\n    tag_321:\n        /* \"#utility.yul\":21015:21043   */\n      0x5472616e7369656e742073636f726520666f72206d656d626572000000000000\n        /* \"#utility.yul\":21011:21012   */\n      0x00\n        /* \"#utility.yul\":21003:21009   */\n      dup3\n        /* \"#utility.yul\":20999:21013   */\n      add\n        /* \"#utility.yul\":20992:21044   */\n      mstore\n        /* \"#utility.yul\":20875:21051   */\n      pop\n      jump\t// out\n        /* \"#utility.yul\":21057:21423   */\n    tag_322:\n        /* \"#utility.yul\":21199:21202   */\n      0x00\n        /* \"#utility.yul\":21220:21287   */\n      tag_533\n        /* \"#utility.yul\":21284:21286   */\n      0x1a\n        /* \"#utility.yul\":21279:21282   */\n      dup4\n        /* \"#utility.yul\":21220:21287   */\n      tag_314\n      jump\t// in\n    tag_533:\n        /* \"#utility.yul\":21213:21287   */\n      swap2\n      pop\n        /* \"#utility.yul\":21296:21389   */\n      tag_534\n        /* \"#utility.yul\":21385:21388   */\n      dup3\n        /* \"#utility.yul\":21296:21389   */\n      tag_321\n      jump\t// in\n    tag_534:\n        /* \"#utility.yul\":21414:21416   */\n      0x20\n        /* \"#utility.yul\":21409:21412   */\n      dup3\n        /* \"#utility.yul\":21405:21417   */\n      add\n        /* \"#utility.yul\":21398:21417   */\n      swap1\n      pop\n        /* \"#utility.yul\":21057:21423   */\n      swap2\n      swap1\n      pop\n      jump\t// out\n        /* \"#utility.yul\":21429:21958   */\n    tag_72:\n        /* \"#utility.yul\":21623:21627   */\n      0x00\n        /* \"#utility.yul\":21661:21663   */\n      0x40\n        /* \"#utility.yul\":21650:21659   */\n      dup3\n        /* \"#utility.yul\":21646:21664   */\n      add\n        /* \"#utility.yul\":21638:21664   */\n      swap1\n      pop\n        /* \"#utility.yul\":21710:21719   */\n      dup2\n        /* \"#utility.yul\":21704:21708   */\n      dup2\n        /* \"#utility.yul\":21700:21720   */\n      sub\n        /* \"#utility.yul\":21696:21697   */\n      0x00\n        /* \"#utility.yul\":21685:21694   */\n      dup4\n        /* \"#utility.yul\":21681:21698   */\n      add\n        /* \"#utility.yul\":21674:21721   */\n      mstore\n        /* \"#utility.yul\":21738:21869   */\n      tag_536\n        /* \"#utility.yul\":21864:21868   */\n      dup2\n        /* \"#utility.yul\":21738:21869   */\n      tag_322\n      jump\t// in\n    tag_536:\n        /* \"#utility.yul\":21730:21869   */\n      swap1\n      pop\n        /* \"#utility.yul\":21879:21951   */\n      tag_537\n        /* \"#utility.yul\":21947:21949   */\n      0x20\n        /* \"#utility.yul\":21936:21945   */\n      dup4\n        /* \"#utility.yul\":21932:21950   */\n      add\n        /* \"#utility.yul\":21923:21929   */\n      dup5\n        /* \"#utility.yul\":21879:21951   */\n      tag_290\n      jump\t// in\n    tag_537:\n        /* \"#utility.yul\":21429:21958   */\n      swap3\n      swap2\n      pop\n      pop\n      jump\t// out\n        /* \"#utility.yul\":21964:22557   */\n    tag_79:\n        /* \"#utility.yul\":22163:22167   */\n      0x00\n        /* \"#utility.yul\":22201:22203   */\n      0x60\n        /* \"#utility.yul\":22190:22199   */\n      dup3\n        /* \"#utility.yul\":22186:22204   */\n      add\n        /* \"#utility.yul\":22178:22204   */\n      swap1\n      pop\n        /* \"#utility.yul\":22214:22285   */\n      tag_539\n        /* \"#utility.yul\":22282:22283   */\n      0x00\n        /* \"#utility.yul\":22271:22280   */\n      dup4\n        /* \"#utility.yul\":22267:22284   */\n      add\n        /* \"#utility.yul\":22258:22264   */\n      dup7\n        /* \"#utility.yul\":22214:22285   */\n      tag_290\n      jump\t// in\n    tag_539:\n        /* \"#utility.yul\":22295:22367   */\n      tag_540\n        /* \"#utility.yul\":22363:22365   */\n      0x20\n        /* \"#utility.yul\":22352:22361   */\n      dup4\n        /* \"#utility.yul\":22348:22366   */\n      add\n        /* \"#utility.yul\":22339:22345   */\n      dup6\n        /* \"#utility.yul\":22295:22367   */\n      tag_290\n      jump\t// in\n    tag_540:\n        /* \"#utility.yul\":22414:22423   */\n      dup2\n        /* \"#utility.yul\":22408:22412   */\n      dup2\n        /* \"#utility.yul\":22404:22424   */\n      sub\n        /* \"#utility.yul\":22399:22401   */\n      0x40\n        /* \"#utility.yul\":22388:22397   */\n      dup4\n        /* \"#utility.yul\":22384:22402   */\n      add\n        /* \"#utility.yul\":22377:22425   */\n      mstore\n        /* \"#utility.yul\":22442:22550   */\n      tag_541\n        /* \"#utility.yul\":22545:22549   */\n      dup2\n        /* \"#utility.yul\":22536:22542   */\n      dup5\n        /* \"#utility.yul\":22442:22550   */\n      tag_282\n      jump\t// in\n    tag_541:\n        /* \"#utility.yul\":22434:22550   */\n      swap1\n      pop\n        /* \"#utility.yul\":21964:22557   */\n      swap5\n      swap4\n      pop\n      pop\n      pop\n      pop\n      jump\t// out\n        /* \"#utility.yul\":22563:22788   */\n    tag_323:\n        /* \"#utility.yul\":22703:22737   */\n      0x52616e6b696e67206d75737420696e636c75646520616c6c2067726f7570206d\n        /* \"#utility.yul\":22699:22700   */\n      0x00\n        /* \"#utility.yul\":22691:22697   */\n      dup3\n        /* \"#utility.yul\":22687:22701   */\n      add\n        /* \"#utility.yul\":22680:22738   */\n      mstore\n        /* \"#utility.yul\":22772:22780   */\n      0x656d626572730000000000000000000000000000000000000000000000000000\n        /* \"#utility.yul\":22767:22769   */\n      0x20\n        /* \"#utility.yul\":22759:22765   */\n      dup3\n        /* \"#utility.yul\":22755:22770   */\n      add\n        /* \"#utility.yul\":22748:22781   */\n      mstore\n        /* \"#utility.yul\":22563:22788   */\n      pop\n      jump\t// out\n        /* \"#utility.yul\":22794:23160   */\n    tag_324:\n        /* \"#utility.yul\":22936:22939   */\n      0x00\n        /* \"#utility.yul\":22957:23024   */\n      tag_544\n        /* \"#utility.yul\":23021:23023   */\n      0x26\n        /* \"#utility.yul\":23016:23019   */\n      dup4\n        /* \"#utility.yul\":22957:23024   */\n      tag_314\n      jump\t// in\n    tag_544:\n        /* \"#utility.yul\":22950:23024   */\n      swap2\n      pop\n        /* \"#utility.yul\":23033:23126   */\n      tag_545\n        /* \"#utility.yul\":23122:23125   */\n      dup3\n        /* \"#utility.yul\":23033:23126   */\n      tag_323\n      jump\t// in\n    tag_545:\n        /* \"#utility.yul\":23151:23153   */\n      0x40\n        /* \"#utility.yul\":23146:23149   */\n      dup3\n        /* \"#utility.yul\":23142:23154   */\n      add\n        /* \"#utility.yul\":23135:23154   */\n      swap1\n      pop\n        /* \"#utility.yul\":22794:23160   */\n      swap2\n      swap1\n      pop\n      jump\t// out\n        /* \"#utility.yul\":23166:23585   */\n    tag_124:\n        /* \"#utility.yul\":23332:23336   */\n      0x00\n        /* \"#utility.yul\":23370:23372   */\n      0x20\n        /* \"#utility.yul\":23359:23368   */\n      dup3\n        /* \"#utility.yul\":23355:23373   */\n      add\n        /* \"#utility.yul\":23347:23373   */\n      swap1\n      pop\n        /* \"#utility.yul\":23419:23428   */\n      dup2\n        /* \"#utility.yul\":23413:23417   */\n      dup2\n        /* \"#utility.yul\":23409:23429   */\n      sub\n        /* \"#utility.yul\":23405:23406   */\n      0x00\n        /* \"#utility.yul\":23394:23403   */\n      dup4\n        /* \"#utility.yul\":23390:23407   */\n      add\n        /* \"#utility.yul\":23383:23430   */\n      mstore\n        /* \"#utility.yul\":23447:23578   */\n      tag_547\n        /* \"#utility.yul\":23573:23577   */\n      dup2\n        /* \"#utility.yul\":23447:23578   */\n      tag_324\n      jump\t// in\n    tag_547:\n        /* \"#utility.yul\":23439:23578   */\n      swap1\n      pop\n        /* \"#utility.yul\":23166:23585   */\n      swap2\n      swap1\n      pop\n      jump\t// out\n        /* \"#utility.yul\":23591:23769   */\n    tag_325:\n        /* \"#utility.yul\":23731:23761   */\n      0x53656e646572206e6f742070617274206f66207468652067726f757000000000\n        /* \"#utility.yul\":23727:23728   */\n      0x00\n        /* \"#utility.yul\":23719:23725   */\n      dup3\n        /* \"#utility.yul\":23715:23729   */\n      add\n        /* \"#utility.yul\":23708:23762   */\n      mstore\n        /* \"#utility.yul\":23591:23769   */\n      pop\n      jump\t// out\n        /* \"#utility.yul\":23775:24141   */\n    tag_326:\n        /* \"#utility.yul\":23917:23920   */\n      0x00\n        /* \"#utility.yul\":23938:24005   */\n      tag_550\n        /* \"#utility.yul\":24002:24004   */\n      0x1c\n        /* \"#utility.yul\":23997:24000   */\n      dup4\n        /* \"#utility.yul\":23938:24005   */\n      tag_314\n      jump\t// in\n    tag_550:\n        /* \"#utility.yul\":23931:24005   */\n      swap2\n      pop\n        /* \"#utility.yul\":24014:24107   */\n      tag_551\n        /* \"#utility.yul\":24103:24106   */\n      dup3\n        /* \"#utility.yul\":24014:24107   */\n      tag_325\n      jump\t// in\n    tag_551:\n        /* \"#utility.yul\":24132:24134   */\n      0x20\n        /* \"#utility.yul\":24127:24130   */\n      dup3\n        /* \"#utility.yul\":24123:24135   */\n      add\n        /* \"#utility.yul\":24116:24135   */\n      swap1\n      pop\n        /* \"#utility.yul\":23775:24141   */\n      swap2\n      swap1\n      pop\n      jump\t// out\n        /* \"#utility.yul\":24147:24566   */\n    tag_129:\n        /* \"#utility.yul\":24313:24317   */\n      0x00\n        /* \"#utility.yul\":24351:24353   */\n      0x20\n        /* \"#utility.yul\":24340:24349   */\n      dup3\n        /* \"#utility.yul\":24336:24354   */\n      add\n        /* \"#utility.yul\":24328:24354   */\n      swap1\n      pop\n        /* \"#utility.yul\":24400:24409   */\n      dup2\n        /* \"#utility.yul\":24394:24398   */\n      dup2\n        /* \"#utility.yul\":24390:24410   */\n      sub\n        /* \"#utility.yul\":24386:24387   */\n      0x00\n        /* \"#utility.yul\":24375:24384   */\n      dup4\n        /* \"#utility.yul\":24371:24388   */\n      add\n        /* \"#utility.yul\":24364:24411   */\n      mstore\n        /* \"#utility.yul\":24428:24559   */\n      tag_553\n        /* \"#utility.yul\":24554:24558   */\n      dup2\n        /* \"#utility.yul\":24428:24559   */\n      tag_326\n      jump\t// in\n    tag_553:\n        /* \"#utility.yul\":24420:24559   */\n      swap1\n      pop\n        /* \"#utility.yul\":24147:24566   */\n      swap2\n      swap1\n      pop\n      jump\t// out\n        /* \"#utility.yul\":24572:24747   */\n    tag_327:\n        /* \"#utility.yul\":24712:24739   */\n      0x52616e6b696e6720616c7265616479207375626d697474656400000000000000\n        /* \"#utility.yul\":24708:24709   */\n      0x00\n        /* \"#utility.yul\":24700:24706   */\n      dup3\n        /* \"#utility.yul\":24696:24710   */\n      add\n        /* \"#utility.yul\":24689:24740   */\n      mstore\n        /* \"#utility.yul\":24572:24747   */\n      pop\n      jump\t// out\n        /* \"#utility.yul\":24753:25119   */\n    tag_328:\n        /* \"#utility.yul\":24895:24898   */\n      0x00\n        /* \"#utility.yul\":24916:24983   */\n      tag_556\n        /* \"#utility.yul\":24980:24982   */\n      0x19\n        /* \"#utility.yul\":24975:24978   */\n      dup4\n        /* \"#utility.yul\":24916:24983   */\n      tag_314\n      jump\t// in\n    tag_556:\n        /* \"#utility.yul\":24909:24983   */\n      swap2\n      pop\n        /* \"#utility.yul\":24992:25085   */\n      tag_557\n        /* \"#utility.yul\":25081:25084   */\n      dup3\n        /* \"#utility.yul\":24992:25085   */\n      tag_327\n      jump\t// in\n    tag_557:\n        /* \"#utility.yul\":25110:25112   */\n      0x20\n        /* \"#utility.yul\":25105:25108   */\n      dup3\n        /* \"#utility.yul\":25101:25113   */\n      add\n        /* \"#utility.yul\":25094:25113   */\n      swap1\n      pop\n        /* \"#utility.yul\":24753:25119   */\n      swap2\n      swap1\n      pop\n      jump\t// out\n        /* \"#utility.yul\":25125:25544   */\n    tag_132:\n        /* \"#utility.yul\":25291:25295   */\n      0x00\n        /* \"#utility.yul\":25329:25331   */\n      0x20\n        /* \"#utility.yul\":25318:25327   */\n      dup3\n        /* \"#utility.yul\":25314:25332   */\n      add\n        /* \"#utility.yul\":25306:25332   */\n      swap1\n      pop\n        /* \"#utility.yul\":25378:25387   */\n      dup2\n        /* \"#utility.yul\":25372:25376   */\n      dup2\n        /* \"#utility.yul\":25368:25388   */\n      sub\n        /* \"#utility.yul\":25364:25365   */\n      0x00\n        /* \"#utility.yul\":25353:25362   */\n      dup4\n        /* \"#utility.yul\":25349:25366   */\n      add\n        /* \"#utility.yul\":25342:25389   */\n      mstore\n        /* \"#utility.yul\":25406:25537   */\n      tag_559\n        /* \"#utility.yul\":25532:25536   */\n      dup2\n        /* \"#utility.yul\":25406:25537   */\n      tag_328\n      jump\t// in\n    tag_559:\n        /* \"#utility.yul\":25398:25537   */\n      swap1\n      pop\n        /* \"#utility.yul\":25125:25544   */\n      swap2\n      swap1\n      pop\n      jump\t// out\n        /* \"#utility.yul\":25550:25730   */\n    tag_329:\n        /* \"#utility.yul\":25598:25675   */\n      0x4e487b7100000000000000000000000000000000000000000000000000000000\n        /* \"#utility.yul\":25595:25596   */\n      0x00\n        /* \"#utility.yul\":25588:25676   */\n      mstore\n        /* \"#utility.yul\":25695:25699   */\n      0x11\n        /* \"#utility.yul\":25692:25693   */\n      0x04\n        /* \"#utility.yul\":25685:25700   */\n      mstore\n        /* \"#utility.yul\":25719:25723   */\n      0x24\n        /* \"#utility.yul\":25716:25717   */\n      0x00\n        /* \"#utility.yul\":25709:25724   */\n      revert\n        /* \"#utility.yul\":25736:26146   */\n    tag_165:\n        /* \"#utility.yul\":25776:25783   */\n      0x00\n        /* \"#utility.yul\":25799:25819   */\n      tag_562\n        /* \"#utility.yul\":25817:25818   */\n      dup3\n        /* \"#utility.yul\":25799:25819   */\n      tag_269\n      jump\t// in\n    tag_562:\n        /* \"#utility.yul\":25794:25819   */\n      swap2\n      pop\n        /* \"#utility.yul\":25833:25853   */\n      tag_563\n        /* \"#utility.yul\":25851:25852   */\n      dup4\n        /* \"#utility.yul\":25833:25853   */\n      tag_269\n      jump\t// in\n    tag_563:\n        /* \"#utility.yul\":25828:25853   */\n      swap3\n      pop\n        /* \"#utility.yul\":25888:25889   */\n      dup3\n        /* \"#utility.yul\":25885:25886   */\n      dup3\n        /* \"#utility.yul\":25881:25890   */\n      mul\n        /* \"#utility.yul\":25910:25940   */\n      tag_564\n        /* \"#utility.yul\":25928:25939   */\n      dup2\n        /* \"#utility.yul\":25910:25940   */\n      tag_269\n      jump\t// in\n    tag_564:\n        /* \"#utility.yul\":25899:25940   */\n      swap2\n      pop\n        /* \"#utility.yul\":26089:26090   */\n      dup3\n        /* \"#utility.yul\":26080:26087   */\n      dup3\n        /* \"#utility.yul\":26076:26091   */\n      div\n        /* \"#utility.yul\":26073:26074   */\n      dup5\n        /* \"#utility.yul\":26070:26092   */\n      eq\n        /* \"#utility.yul\":26050:26051   */\n      dup4\n        /* \"#utility.yul\":26043:26052   */\n      iszero\n        /* \"#utility.yul\":26023:26106   */\n      or\n        /* \"#utility.yul\":26000:26139   */\n      tag_565\n      jumpi\n        /* \"#utility.yul\":26119:26137   */\n      tag_566\n      tag_329\n      jump\t// in\n    tag_566:\n        /* \"#utility.yul\":26000:26139   */\n    tag_565:\n        /* \"#utility.yul\":25784:26146   */\n      pop\n        /* \"#utility.yul\":25736:26146   */\n      swap3\n      swap2\n      pop\n      pop\n      jump\t// out\n        /* \"#utility.yul\":26152:26332   */\n    tag_330:\n        /* \"#utility.yul\":26200:26277   */\n      0x4e487b7100000000000000000000000000000000000000000000000000000000\n        /* \"#utility.yul\":26197:26198   */\n      0x00\n        /* \"#utility.yul\":26190:26278   */\n      mstore\n        /* \"#utility.yul\":26297:26301   */\n      0x12\n        /* \"#utility.yul\":26294:26295   */\n      0x04\n        /* \"#utility.yul\":26287:26302   */\n      mstore\n        /* \"#utility.yul\":26321:26325   */\n      0x24\n        /* \"#utility.yul\":26318:26319   */\n      0x00\n        /* \"#utility.yul\":26311:26326   */\n      revert\n        /* \"#utility.yul\":26338:26523   */\n    tag_167:\n        /* \"#utility.yul\":26378:26379   */\n      0x00\n        /* \"#utility.yul\":26395:26415   */\n      tag_569\n        /* \"#utility.yul\":26413:26414   */\n      dup3\n        /* \"#utility.yul\":26395:26415   */\n      tag_269\n      jump\t// in\n    tag_569:\n        /* \"#utility.yul\":26390:26415   */\n      swap2\n      pop\n        /* \"#utility.yul\":26429:26449   */\n      tag_570\n        /* \"#utility.yul\":26447:26448   */\n      dup4\n        /* \"#utility.yul\":26429:26449   */\n      tag_269\n      jump\t// in\n    tag_570:\n        /* \"#utility.yul\":26424:26449   */\n      swap3\n      pop\n        /* \"#utility.yul\":26468:26469   */\n      dup3\n        /* \"#utility.yul\":26458:26493   */\n      tag_571\n      jumpi\n        /* \"#utility.yul\":26473:26491   */\n      tag_572\n      tag_330\n      jump\t// in\n    tag_572:\n        /* \"#utility.yul\":26458:26493   */\n    tag_571:\n        /* \"#utility.yul\":26515:26516   */\n      dup3\n        /* \"#utility.yul\":26512:26513   */\n      dup3\n        /* \"#utility.yul\":26508:26517   */\n      div\n        /* \"#utility.yul\":26503:26517   */\n      swap1\n      pop\n        /* \"#utility.yul\":26338:26523   */\n      swap3\n      swap2\n      pop\n      pop\n      jump\t// out\n        /* \"#utility.yul\":26529:26723   */\n    tag_169:\n        /* \"#utility.yul\":26569:26573   */\n      0x00\n        /* \"#utility.yul\":26589:26609   */\n      tag_574\n        /* \"#utility.yul\":26607:26608   */\n      dup3\n        /* \"#utility.yul\":26589:26609   */\n      tag_269\n      jump\t// in\n    tag_574:\n        /* \"#utility.yul\":26584:26609   */\n      swap2\n      pop\n        /* \"#utility.yul\":26623:26643   */\n      tag_575\n        /* \"#utility.yul\":26641:26642   */\n      dup4\n        /* \"#utility.yul\":26623:26643   */\n      tag_269\n      jump\t// in\n    tag_575:\n        /* \"#utility.yul\":26618:26643   */\n      swap3\n      pop\n        /* \"#utility.yul\":26667:26668   */\n      dup3\n        /* \"#utility.yul\":26664:26665   */\n      dup3\n        /* \"#utility.yul\":26660:26669   */\n      sub\n        /* \"#utility.yul\":26652:26669   */\n      swap1\n      pop\n        /* \"#utility.yul\":26691:26692   */\n      dup2\n        /* \"#utility.yul\":26685:26689   */\n      dup2\n        /* \"#utility.yul\":26682:26693   */\n      gt\n        /* \"#utility.yul\":26679:26716   */\n      iszero\n      tag_576\n      jumpi\n        /* \"#utility.yul\":26696:26714   */\n      tag_577\n      tag_329\n      jump\t// in\n    tag_577:\n        /* \"#utility.yul\":26679:26716   */\n    tag_576:\n        /* \"#utility.yul\":26529:26723   */\n      swap3\n      swap2\n      pop\n      pop\n      jump\t// out\n        /* \"#utility.yul\":26729:26920   */\n    tag_189:\n        /* \"#utility.yul\":26769:26772   */\n      0x00\n        /* \"#utility.yul\":26788:26808   */\n      tag_579\n        /* \"#utility.yul\":26806:26807   */\n      dup3\n        /* \"#utility.yul\":26788:26808   */\n      tag_269\n      jump\t// in\n    tag_579:\n        /* \"#utility.yul\":26783:26808   */\n      swap2\n      pop\n        /* \"#utility.yul\":26822:26842   */\n      tag_580\n        /* \"#utility.yul\":26840:26841   */\n      dup4\n        /* \"#utility.yul\":26822:26842   */\n      tag_269\n      jump\t// in\n    tag_580:\n        /* \"#utility.yul\":26817:26842   */\n      swap3\n      pop\n        /* \"#utility.yul\":26865:26866   */\n      dup3\n        /* \"#utility.yul\":26862:26863   */\n      dup3\n        /* \"#utility.yul\":26858:26867   */\n      add\n        /* \"#utility.yul\":26851:26867   */\n      swap1\n      pop\n        /* \"#utility.yul\":26886:26889   */\n      dup1\n        /* \"#utility.yul\":26883:26884   */\n      dup3\n        /* \"#utility.yul\":26880:26890   */\n      gt\n        /* \"#utility.yul\":26877:26913   */\n      iszero\n      tag_581\n      jumpi\n        /* \"#utility.yul\":26893:26911   */\n      tag_582\n      tag_329\n      jump\t// in\n    tag_582:\n        /* \"#utility.yul\":26877:26913   */\n    tag_581:\n        /* \"#utility.yul\":26729:26920   */\n      swap3\n      swap2\n      pop\n      pop\n      jump\t// out\n        /* \"#utility.yul\":26926:27002   */\n    tag_331:\n        /* \"#utility.yul\":26962:26969   */\n      0x00\n        /* \"#utility.yul\":26991:26996   */\n      dup2\n        /* \"#utility.yul\":26980:26996   */\n      swap1\n      pop\n        /* \"#utility.yul\":26926:27002   */\n      swap2\n      swap1\n      pop\n      jump\t// out\n        /* \"#utility.yul\":27008:27380   */\n    tag_243:\n        /* \"#utility.yul\":27047:27051   */\n      0x00\n        /* \"#utility.yul\":27067:27086   */\n      tag_585\n        /* \"#utility.yul\":27084:27085   */\n      dup3\n        /* \"#utility.yul\":27067:27086   */\n      tag_331\n      jump\t// in\n    tag_585:\n        /* \"#utility.yul\":27062:27086   */\n      swap2\n      pop\n        /* \"#utility.yul\":27100:27119   */\n      tag_586\n        /* \"#utility.yul\":27117:27118   */\n      dup4\n        /* \"#utility.yul\":27100:27119   */\n      tag_331\n      jump\t// in\n    tag_586:\n        /* \"#utility.yul\":27095:27119   */\n      swap3\n      pop\n        /* \"#utility.yul\":27143:27144   */\n      dup3\n        /* \"#utility.yul\":27140:27141   */\n      dup3\n        /* \"#utility.yul\":27136:27145   */\n      sub\n        /* \"#utility.yul\":27128:27145   */\n      swap1\n      pop\n        /* \"#utility.yul\":27337:27338   */\n      dup2\n        /* \"#utility.yul\":27331:27335   */\n      dup2\n        /* \"#utility.yul\":27327:27339   */\n      slt\n        /* \"#utility.yul\":27323:27324   */\n      0x00\n        /* \"#utility.yul\":27320:27321   */\n      dup5\n        /* \"#utility.yul\":27316:27325   */\n      slt\n        /* \"#utility.yul\":27312:27340   */\n      and\n        /* \"#utility.yul\":27295:27296   */\n      dup3\n        /* \"#utility.yul\":27289:27293   */\n      dup3\n        /* \"#utility.yul\":27285:27297   */\n      sgt\n        /* \"#utility.yul\":27280:27281   */\n      0x00\n        /* \"#utility.yul\":27277:27278   */\n      dup6\n        /* \"#utility.yul\":27273:27282   */\n      slt\n        /* \"#utility.yul\":27266:27283   */\n      iszero\n        /* \"#utility.yul\":27262:27298   */\n      and\n        /* \"#utility.yul\":27246:27350   */\n      or\n        /* \"#utility.yul\":27243:27373   */\n      iszero\n      tag_587\n      jumpi\n        /* \"#utility.yul\":27353:27371   */\n      tag_588\n      tag_329\n      jump\t// in\n    tag_588:\n        /* \"#utility.yul\":27243:27373   */\n    tag_587:\n        /* \"#utility.yul\":27008:27380   */\n      swap3\n      swap2\n      pop\n      pop\n      jump\t// out\n        /* \"#utility.yul\":27386:27942   */\n    tag_245:\n        /* \"#utility.yul\":27425:27432   */\n      0x00\n        /* \"#utility.yul\":27448:27467   */\n      tag_590\n        /* \"#utility.yul\":27465:27466   */\n      dup3\n        /* \"#utility.yul\":27448:27467   */\n      tag_331\n      jump\t// in\n    tag_590:\n        /* \"#utility.yul\":27443:27467   */\n      swap2\n      pop\n        /* \"#utility.yul\":27481:27500   */\n      tag_591\n        /* \"#utility.yul\":27498:27499   */\n      dup4\n        /* \"#utility.yul\":27481:27500   */\n      tag_331\n      jump\t// in\n    tag_591:\n        /* \"#utility.yul\":27476:27500   */\n      swap3\n      pop\n        /* \"#utility.yul\":27535:27536   */\n      dup3\n        /* \"#utility.yul\":27532:27533   */\n      dup3\n        /* \"#utility.yul\":27528:27537   */\n      mul\n        /* \"#utility.yul\":27557:27586   */\n      tag_592\n        /* \"#utility.yul\":27574:27585   */\n      dup2\n        /* \"#utility.yul\":27557:27586   */\n      tag_331\n      jump\t// in\n    tag_592:\n        /* \"#utility.yul\":27546:27586   */\n      swap2\n      pop\n        /* \"#utility.yul\":27644:27710   */\n      0x8000000000000000000000000000000000000000000000000000000000000000\n        /* \"#utility.yul\":27641:27642   */\n      dup5\n        /* \"#utility.yul\":27638:27711   */\n      eq\n        /* \"#utility.yul\":27634:27635   */\n      0x00\n        /* \"#utility.yul\":27631:27632   */\n      dup5\n        /* \"#utility.yul\":27627:27636   */\n      slt\n        /* \"#utility.yul\":27623:27712   */\n      and\n        /* \"#utility.yul\":27620:27735   */\n      iszero\n      tag_593\n      jumpi\n        /* \"#utility.yul\":27715:27733   */\n      tag_594\n      tag_329\n      jump\t// in\n    tag_594:\n        /* \"#utility.yul\":27620:27735   */\n    tag_593:\n        /* \"#utility.yul\":27885:27886   */\n      dup3\n        /* \"#utility.yul\":27876:27883   */\n      dup3\n        /* \"#utility.yul\":27871:27887   */\n      sdiv\n        /* \"#utility.yul\":27868:27869   */\n      dup5\n        /* \"#utility.yul\":27865:27888   */\n      eq\n        /* \"#utility.yul\":27845:27846   */\n      dup4\n        /* \"#utility.yul\":27838:27847   */\n      iszero\n        /* \"#utility.yul\":27818:27902   */\n      or\n        /* \"#utility.yul\":27795:27935   */\n      tag_595\n      jumpi\n        /* \"#utility.yul\":27915:27933   */\n      tag_596\n      tag_329\n      jump\t// in\n    tag_596:\n        /* \"#utility.yul\":27795:27935   */\n    tag_595:\n        /* \"#utility.yul\":27433:27942   */\n      pop\n        /* \"#utility.yul\":27386:27942   */\n      swap3\n      swap2\n      pop\n      pop\n      jump\t// out\n\n    auxdata: 0xa26469706673582212206acd25059808bf559a0b2d7f90475a793e89a396ff6bf39aa3395104f46d7a1764736f6c634300081a0033\n}\n",
				"bytecode": {
					"linkReferences": {},
					"object": "608060405234801561000f575f80fd5b506040516122a43803806122a4833981810160405281019061003191906100d4565b805f806101000a81548173ffffffffffffffffffffffffffffffffffffffff021916908373ffffffffffffffffffffffffffffffffffffffff160217905550506100ff565b5f80fd5b5f73ffffffffffffffffffffffffffffffffffffffff82169050919050565b5f6100a38261007a565b9050919050565b6100b381610099565b81146100bd575f80fd5b50565b5f815190506100ce816100aa565b92915050565b5f602082840312156100e9576100e8610076565b5b5f6100f6848285016100c0565b91505092915050565b6121988061010c5f395ff3fe608060405234801561000f575f80fd5b5060043610610060575f3560e01c806317dd9e73146100645780632b3dffeb1461008057806332a7adb0146100b0578063415b5d7d146100e1578063b74ca71314610113578063de04bbd21461012f575b5f80fd5b61007e600480360381019061007991906113e3565b61014d565b005b61009a6004803603810190610095919061148d565b6104a9565b6040516100a791906115a8565b60405180910390f35b6100ca60048036038101906100c591906113e3565b61056e565b6040516100d892919061167f565b60405180910390f35b6100fb60048036038101906100f691906113e3565b6107d4565b60405161010a939291906116c3565b60405180910390f35b61012d60048036038101906101289190611856565b6108c6565b005b610137610bf8565b6040516101449190611931565b60405180910390f35b5f805f9054906101000a900473ffffffffffffffffffffffffffffffffffffffff1673ffffffffffffffffffffffffffffffffffffffff16636c331bd385856040518363ffffffff1660e01b81526004016101a992919061194a565b5f60405180830381865afa1580156101c3573d5f803e3d5ffd5b505050506040513d5f823e3d601f19601f820116820180604052508101906101eb9190611b80565b905080518210610230576040517f08c379a000000000000000000000000000000000000000000000000000000000815260040161022790611c21565b60405180910390fd5b5f81838151811061024457610243611c3f565b5b602002602001015190505f815f01515111610294576040517f08c379a000000000000000000000000000000000000000000000000000000000815260040161028b90611cb6565b60405180910390fd5b6102a085858584610c1b565b6102df576040517f08c379a00000000000000000000000000000000000000000000000000000000081526004016102d690611d44565b60405180910390fd5b5f815f01515190505f8167ffffffffffffffff8111156103025761030161171a565b5b6040519080825280602002602001820160405280156103305781602001602082028036833780820191505090505b5090505f5b828110156103c75761034a8888888488610ce4565b82828151811061035d5761035c611c3f565b5b6020026020010181815250507ff6ff2ad7fc16bda2a7d32462729431bce3ebe9b75cc7c9b35a0adfbf7e7bb9e682828151811061039d5761039c611c3f565b5b60200260200101516040516103b29190611dac565b60405180910390a18080600101915050610335565b505f6103d282610eb8565b905060405180606001604052808281526020018381526020014281525060025f8a81526020019081526020015f205f8981526020019081526020015f205f8881526020019081526020015f205f820151815f019080519060200190610438929190611339565b506020820151816001019080519060200190610455929190611339565b5060408201518160020155905050877f0b7561a7dcbdf981c91bcbdaef28458903367918c2b25fe6c1a2485997a9182088888460405161049793929190611dd8565b60405180910390a25050505050505050565b606060015f8681526020019081526020015f205f8581526020019081526020015f205f8481526020019081526020015f205f8373ffffffffffffffffffffffffffffffffffffffff1673ffffffffffffffffffffffffffffffffffffffff1681526020019081526020015f205f0180548060200260200160405190810160405280929190818152602001828054801561055f57602002820191905f5260205f20905b81548152602001906001019080831161054b575b50505050509050949350505050565b6060805f805f9054906101000a900473ffffffffffffffffffffffffffffffffffffffff1673ffffffffffffffffffffffffffffffffffffffff16636c331bd387876040518363ffffffff1660e01b81526004016105cd92919061194a565b5f60405180830381865afa1580156105e7573d5f803e3d5ffd5b505050506040513d5f823e3d601f19601f8201168201806040525081019061060f9190611b80565b905080518410610654576040517f08c379a000000000000000000000000000000000000000000000000000000000815260040161064b90611c21565b60405180910390fd5b5f81858151811061066857610667611c3f565b5b602002602001015190505f815f01515190505f8167ffffffffffffffff8111156106955761069461171a565b5b6040519080825280602002602001820160405280156106c35781602001602082028036833780820191505090505b5090505f8267ffffffffffffffff8111156106e1576106e061171a565b5b60405190808252806020026020018201604052801561070f5781602001602082028036833780820191505090505b5090505f5b838110156107c057845f0151818151811061073257610731611c3f565b5b602002602001015183828151811061074d5761074c611c3f565b5b602002602001019073ffffffffffffffffffffffffffffffffffffffff16908173ffffffffffffffffffffffffffffffffffffffff16815250506107948b8b8b8489610ce4565b8282815181106107a7576107a6611c3f565b5b6020026020010181815250508080600101915050610714565b508181965096505050505050935093915050565b6060805f8060025f8881526020019081526020015f205f8781526020019081526020015f205f8681526020019081526020015f209050805f018160010182600201548280548060200260200160405190810160405280929190818152602001828054801561085f57602002820191905f5260205f20905b81548152602001906001019080831161084b575b50505050509250818054806020026020016040519081016040528092919081815260200182805480156108af57602002820191905f5260205f20905b81548152602001906001019080831161089b575b505050505091509350935093505093509350939050565b5f805f9054906101000a900473ffffffffffffffffffffffffffffffffffffffff1673ffffffffffffffffffffffffffffffffffffffff16636c331bd386866040518363ffffffff1660e01b815260040161092292919061194a565b5f60405180830381865afa15801561093c573d5f803e3d5ffd5b505050506040513d5f823e3d601f19601f820116820180604052508101906109649190611b80565b9050805183106109a9576040517f08c379a00000000000000000000000000000000000000000000000000000000081526004016109a090611c21565b60405180910390fd5b5f8184815181106109bd576109bc611c3f565b5b60200260200101519050805f015151835114610a0e576040517f08c379a0000000000000000000000000000000000000000000000000000000008152600401610a0590611e84565b60405180910390fd5b610a188133611128565b610a57576040517f08c379a0000000000000000000000000000000000000000000000000000000008152600401610a4e90611eec565b60405180910390fd5b5f60015f8881526020019081526020015f205f8781526020019081526020015f205f8681526020019081526020015f205f3373ffffffffffffffffffffffffffffffffffffffff1673ffffffffffffffffffffffffffffffffffffffff1681526020019081526020015f205f018054905014610b08576040517f08c379a0000000000000000000000000000000000000000000000000000000008152600401610aff90611f54565b60405180910390fd5b60405180602001604052808481525060015f8881526020019081526020015f205f8781526020019081526020015f205f8681526020019081526020015f205f3373ffffffffffffffffffffffffffffffffffffffff1673ffffffffffffffffffffffffffffffffffffffff1681526020019081526020015f205f820151815f019080519060200190610b9b929190611339565b509050503373ffffffffffffffffffffffffffffffffffffffff16867fe2d0f4a25c2b0cc7ccda020bcd4293dceffb51708b88b9c58ef71a0ab96b5e168787604051610be892919061194a565b60405180910390a3505050505050565b5f8054906101000a900473ffffffffffffffffffffffffffffffffffffffff1681565b5f805f90505b825f015151811015610cd6575f60015f8881526020019081526020015f205f8781526020019081526020015f205f8681526020019081526020015f205f855f01518481518110610c7457610c73611c3f565b5b602002602001015173ffffffffffffffffffffffffffffffffffffffff1673ffffffffffffffffffffffffffffffffffffffff1681526020019081526020015f205f018054905003610cc9575f915050610cdc565b8080600101915050610c21565b50600190505b949350505050565b5f80825f01515167ffffffffffffffff811115610d0457610d0361171a565b5b604051908082528060200260200182016040528015610d325781602001602082028036833780820191505090505b5090505f5b835f015151811015610e135760015f8981526020019081526020015f205f8881526020019081526020015f205f8781526020019081526020015f205f855f01518381518110610d8957610d88611c3f565b5b602002602001015173ffffffffffffffffffffffffffffffffffffffff1673ffffffffffffffffffffffffffffffffffffffff1681526020019081526020015f205f018581548110610dde57610ddd611c3f565b5b905f5260205f200154828281518110610dfa57610df9611c3f565b5b6020026020010181815250508080600101915050610d37565b505f610e1e826111ac565b90505f610e2a8361121a565b90505f610e3a865f0151516112c0565b90505f808203610e5457670de0b6b3a76400009050610e89565b81670de0b6b3a764000084610e699190611f9f565b610e73919061200d565b670de0b6b3a7640000610e86919061203d565b90505b670de0b6b3a76400008185610e9e9190611f9f565b610ea8919061200d565b9550505050505095945050505050565b60605f825167ffffffffffffffff811115610ed657610ed561171a565b5b604051908082528060200260200182016040528015610f045781602001602082028036833780820191505090505b5090505f5b8151811015610f3f5780828281518110610f2657610f25611c3f565b5b6020026020010181815250508080600101915050610f09565b505f5b60018451610f50919061203d565b811015611071575f600182610f659190612070565b90505b84518110156110635784838281518110610f8557610f84611c3f565b5b602002602001015181518110610f9e57610f9d611c3f565b5b602002602001015185848481518110610fba57610fb9611c3f565b5b602002602001015181518110610fd357610fd2611c3f565b5b6020026020010151101561105657828181518110610ff457610ff3611c3f565b5b602002602001015183838151811061100f5761100e611c3f565b5b602002602001015184848151811061102a57611029611c3f565b5b6020026020010185848151811061104457611043611c3f565b5b60200260200101828152508281525050505b8080600101915050610f68565b508080600101915050610f42565b505f835167ffffffffffffffff81111561108e5761108d61171a565b5b6040519080825280602002602001820160405280156110bc5781602001602082028036833780820191505090505b5090505f5b815181101561111d578085516110d7919061203d565b828483815181106110eb576110ea611c3f565b5b60200260200101518151811061110457611103611c3f565b5b60200260200101818152505080806001019150506110c1565b508092505050919050565b5f805f90505b835f0151518110156111a1578273ffffffffffffffffffffffffffffffffffffffff16845f0151828151811061116757611166611c3f565b5b602002602001015173ffffffffffffffffffffffffffffffffffffffff16036111945760019150506111a6565b808060010191505061112e565b505f90505b92915050565b5f805f90505f5b83518110156111f1578381815181106111cf576111ce611c3f565b5b6020026020010151826111e29190612070565b915080806001019150506111b3565b508251670de0b6b3a7640000826112089190611f9f565b611212919061200d565b915050919050565b5f80611225836111ac565b90505f805b84518110156112a9575f83670de0b6b3a764000087848151811061125157611250611c3f565b5b60200260200101516112639190611f9f565b61126d91906120ac565b9050670de0b6b3a7640000818261128491906120ec565b61128e919061200d565b836112999190612070565b925050808060010191505061122a565b508351816112b7919061200d565b92505050919050565b5f805f90505f600190505b8381101561130d576002670de0b6b3a7640000826112e99190611f9f565b6112f3919061200d565b826112fe9190612070565b915080806001019150506112cb565b5060018361131b919061203d565b81846113279190611f9f565b611331919061200d565b915050919050565b828054828255905f5260205f20908101928215611373579160200282015b82811115611372578251825591602001919060010190611357565b5b5090506113809190611384565b5090565b5b8082111561139b575f815f905550600101611385565b5090565b5f604051905090565b5f80fd5b5f80fd5b5f819050919050565b6113c2816113b0565b81146113cc575f80fd5b50565b5f813590506113dd816113b9565b92915050565b5f805f606084860312156113fa576113f96113a8565b5b5f611407868287016113cf565b9350506020611418868287016113cf565b9250506040611429868287016113cf565b9150509250925092565b5f73ffffffffffffffffffffffffffffffffffffffff82169050919050565b5f61145c82611433565b9050919050565b61146c81611452565b8114611476575f80fd5b50565b5f8135905061148781611463565b92915050565b5f805f80608085870312156114a5576114a46113a8565b5b5f6114b2878288016113cf565b94505060206114c3878288016113cf565b93505060406114d4878288016113cf565b92505060606114e587828801611479565b91505092959194509250565b5f81519050919050565b5f82825260208201905092915050565b5f819050602082019050919050565b611523816113b0565b82525050565b5f611534838361151a565b60208301905092915050565b5f602082019050919050565b5f611556826114f1565b61156081856114fb565b935061156b8361150b565b805f5b8381101561159b5781516115828882611529565b975061158d83611540565b92505060018101905061156e565b5085935050505092915050565b5f6020820190508181035f8301526115c0818461154c565b905092915050565b5f81519050919050565b5f82825260208201905092915050565b5f819050602082019050919050565b6115fa81611452565b82525050565b5f61160b83836115f1565b60208301905092915050565b5f602082019050919050565b5f61162d826115c8565b61163781856115d2565b9350611642836115e2565b805f5b838110156116725781516116598882611600565b975061166483611617565b925050600181019050611645565b5085935050505092915050565b5f6040820190508181035f8301526116978185611623565b905081810360208301526116ab818461154c565b90509392505050565b6116bd816113b0565b82525050565b5f6060820190508181035f8301526116db818661154c565b905081810360208301526116ef818561154c565b90506116fe60408301846116b4565b949350505050565b5f80fd5b5f601f19601f8301169050919050565b7f4e487b71000000000000000000000000000000000000000000000000000000005f52604160045260245ffd5b6117508261170a565b810181811067ffffffffffffffff8211171561176f5761176e61171a565b5b80604052505050565b5f61178161139f565b905061178d8282611747565b919050565b5f67ffffffffffffffff8211156117ac576117ab61171a565b5b602082029050602081019050919050565b5f80fd5b5f6117d36117ce84611792565b611778565b905080838252602082019050602084028301858111156117f6576117f56117bd565b5b835b8181101561181f578061180b88826113cf565b8452602084019350506020810190506117f8565b5050509392505050565b5f82601f83011261183d5761183c611706565b5b813561184d8482602086016117c1565b91505092915050565b5f805f806080858703121561186e5761186d6113a8565b5b5f61187b878288016113cf565b945050602061188c878288016113cf565b935050604061189d878288016113cf565b925050606085013567ffffffffffffffff8111156118be576118bd6113ac565b5b6118ca87828801611829565b91505092959194509250565b5f819050919050565b5f6118f96118f46118ef84611433565b6118d6565b611433565b9050919050565b5f61190a826118df565b9050919050565b5f61191b82611900565b9050919050565b61192b81611911565b82525050565b5f6020820190506119445f830184611922565b92915050565b5f60408201905061195d5f8301856116b4565b61196a60208301846116b4565b9392505050565b5f67ffffffffffffffff82111561198b5761198a61171a565b5b602082029050602081019050919050565b5f80fd5b5f80fd5b5f67ffffffffffffffff8211156119be576119bd61171a565b5b602082029050602081019050919050565b5f815190506119dd81611463565b92915050565b5f6119f56119f0846119a4565b611778565b90508083825260208201905060208402830185811115611a1857611a176117bd565b5b835b81811015611a415780611a2d88826119cf565b845260208401935050602081019050611a1a565b5050509392505050565b5f82601f830112611a5f57611a5e611706565b5b8151611a6f8482602086016119e3565b91505092915050565b5f60208284031215611a8d57611a8c61199c565b5b611a976020611778565b90505f82015167ffffffffffffffff811115611ab657611ab56119a0565b5b611ac284828501611a4b565b5f8301525092915050565b5f611adf611ada84611971565b611778565b90508083825260208201905060208402830185811115611b0257611b016117bd565b5b835b81811015611b4957805167ffffffffffffffff811115611b2757611b26611706565b5b808601611b348982611a78565b85526020850194505050602081019050611b04565b5050509392505050565b5f82601f830112611b6757611b66611706565b5b8151611b77848260208601611acd565b91505092915050565b5f60208284031215611b9557611b946113a8565b5b5f82015167ffffffffffffffff811115611bb257611bb16113ac565b5b611bbe84828501611b53565b91505092915050565b5f82825260208201905092915050565b7f496e76616c69642067726f7570204944000000000000000000000000000000005f82015250565b5f611c0b601083611bc7565b9150611c1682611bd7565b602082019050919050565b5f6020820190508181035f830152611c3881611bff565b9050919050565b7f4e487b71000000000000000000000000000000000000000000000000000000005f52603260045260245ffd5b7f47726f757020646f6573206e6f742065786973740000000000000000000000005f82015250565b5f611ca0601483611bc7565b9150611cab82611c6c565b602082019050919050565b5f6020820190508181035f830152611ccd81611c94565b9050919050565b7f4e6f7420616c6c206d656d626572732068617665207375626d697474656420725f8201527f616e6b696e677300000000000000000000000000000000000000000000000000602082015250565b5f611d2e602783611bc7565b9150611d3982611cd4565b604082019050919050565b5f6020820190508181035f830152611d5b81611d22565b9050919050565b7f5472616e7369656e742073636f726520666f72206d656d6265720000000000005f82015250565b5f611d96601a83611bc7565b9150611da182611d62565b602082019050919050565b5f6040820190508181035f830152611dc381611d8a565b9050611dd260208301846116b4565b92915050565b5f606082019050611deb5f8301866116b4565b611df860208301856116b4565b8181036040830152611e0a818461154c565b9050949350505050565b7f52616e6b696e67206d75737420696e636c75646520616c6c2067726f7570206d5f8201527f656d626572730000000000000000000000000000000000000000000000000000602082015250565b5f611e6e602683611bc7565b9150611e7982611e14565b604082019050919050565b5f6020820190508181035f830152611e9b81611e62565b9050919050565b7f53656e646572206e6f742070617274206f66207468652067726f7570000000005f82015250565b5f611ed6601c83611bc7565b9150611ee182611ea2565b602082019050919050565b5f6020820190508181035f830152611f0381611eca565b9050919050565b7f52616e6b696e6720616c7265616479207375626d6974746564000000000000005f82015250565b5f611f3e601983611bc7565b9150611f4982611f0a565b602082019050919050565b5f6020820190508181035f830152611f6b81611f32565b9050919050565b7f4e487b71000000000000000000000000000000000000000000000000000000005f52601160045260245ffd5b5f611fa9826113b0565b9150611fb4836113b0565b9250828202611fc2816113b0565b91508282048414831517611fd957611fd8611f72565b5b5092915050565b7f4e487b71000000000000000000000000000000000000000000000000000000005f52601260045260245ffd5b5f612017826113b0565b9150612022836113b0565b92508261203257612031611fe0565b5b828204905092915050565b5f612047826113b0565b9150612052836113b0565b925082820390508181111561206a57612069611f72565b5b92915050565b5f61207a826113b0565b9150612085836113b0565b925082820190508082111561209d5761209c611f72565b5b92915050565b5f819050919050565b5f6120b6826120a3565b91506120c1836120a3565b925082820390508181125f8412168282135f8512151617156120e6576120e5611f72565b5b92915050565b5f6120f6826120a3565b9150612101836120a3565b925082820261210f816120a3565b91507f800000000000000000000000000000000000000000000000000000000000000084145f8412161561214657612145611f72565b5b828205841483151761215b5761215a611f72565b5b509291505056fea26469706673582212206acd25059808bf559a0b2d7f90475a793e89a396ff6bf39aa3395104f46d7a1764736f6c634300081a0033",
					"opcodes": "PUSH1 0x80 PUSH1 0x40 MSTORE CALLVALUE DUP1 ISZERO PUSH2 0xF JUMPI PUSH0 DUP1 REVERT JUMPDEST POP PUSH1 0x40 MLOAD PUSH2 0x22A4 CODESIZE SUB DUP1 PUSH2 0x22A4 DUP4 CODECOPY DUP2 DUP2 ADD PUSH1 0x40 MSTORE DUP2 ADD SWAP1 PUSH2 0x31 SWAP2 SWAP1 PUSH2 0xD4 JUMP JUMPDEST DUP1 PUSH0 DUP1 PUSH2 0x100 EXP DUP2 SLOAD DUP2 PUSH20 0xFFFFFFFFFFFFFFFFFFFFFFFFFFFFFFFFFFFFFFFF MUL NOT AND SWAP1 DUP4 PUSH20 0xFFFFFFFFFFFFFFFFFFFFFFFFFFFFFFFFFFFFFFFF AND MUL OR SWAP1 SSTORE POP POP PUSH2 0xFF JUMP JUMPDEST PUSH0 DUP1 REVERT JUMPDEST PUSH0 PUSH20 0xFFFFFFFFFFFFFFFFFFFFFFFFFFFFFFFFFFFFFFFF DUP3 AND SWAP1 POP SWAP2 SWAP1 POP JUMP JUMPDEST PUSH0 PUSH2 0xA3 DUP3 PUSH2 0x7A JUMP JUMPDEST SWAP1 POP SWAP2 SWAP1 POP JUMP JUMPDEST PUSH2 0xB3 DUP2 PUSH2 0x99 JUMP JUMPDEST DUP2 EQ PUSH2 0xBD JUMPI PUSH0 DUP1 REVERT JUMPDEST POP JUMP JUMPDEST PUSH0 DUP2 MLOAD SWAP1 POP PUSH2 0xCE DUP2 PUSH2 0xAA JUMP JUMPDEST SWAP3 SWAP2 POP POP JUMP JUMPDEST PUSH0 PUSH1 0x20 DUP3 DUP5 SUB SLT ISZERO PUSH2 0xE9 JUMPI PUSH2 0xE8 PUSH2 0x76 JUMP JUMPDEST JUMPDEST PUSH0 PUSH2 0xF6 DUP5 DUP3 DUP6 ADD PUSH2 0xC0 JUMP JUMPDEST SWAP2 POP POP SWAP3 SWAP2 POP POP JUMP JUMPDEST PUSH2 0x2198 DUP1 PUSH2 0x10C PUSH0 CODECOPY PUSH0 RETURN INVALID PUSH1 0x80 PUSH1 0x40 MSTORE CALLVALUE DUP1 ISZERO PUSH2 0xF JUMPI PUSH0 DUP1 REVERT JUMPDEST POP PUSH1 0x4 CALLDATASIZE LT PUSH2 0x60 JUMPI PUSH0 CALLDATALOAD PUSH1 0xE0 SHR DUP1 PUSH4 0x17DD9E73 EQ PUSH2 0x64 JUMPI DUP1 PUSH4 0x2B3DFFEB EQ PUSH2 0x80 JUMPI DUP1 PUSH4 0x32A7ADB0 EQ PUSH2 0xB0 JUMPI DUP1 PUSH4 0x415B5D7D EQ PUSH2 0xE1 JUMPI DUP1 PUSH4 0xB74CA713 EQ PUSH2 0x113 JUMPI DUP1 PUSH4 0xDE04BBD2 EQ PUSH2 0x12F JUMPI JUMPDEST PUSH0 DUP1 REVERT JUMPDEST PUSH2 0x7E PUSH1 0x4 DUP1 CALLDATASIZE SUB DUP2 ADD SWAP1 PUSH2 0x79 SWAP2 SWAP1 PUSH2 0x13E3 JUMP JUMPDEST PUSH2 0x14D JUMP JUMPDEST STOP JUMPDEST PUSH2 0x9A PUSH1 0x4 DUP1 CALLDATASIZE SUB DUP2 ADD SWAP1 PUSH2 0x95 SWAP2 SWAP1 PUSH2 0x148D JUMP JUMPDEST PUSH2 0x4A9 JUMP JUMPDEST PUSH1 0x40 MLOAD PUSH2 0xA7 SWAP2 SWAP1 PUSH2 0x15A8 JUMP JUMPDEST PUSH1 0x40 MLOAD DUP1 SWAP2 SUB SWAP1 RETURN JUMPDEST PUSH2 0xCA PUSH1 0x4 DUP1 CALLDATASIZE SUB DUP2 ADD SWAP1 PUSH2 0xC5 SWAP2 SWAP1 PUSH2 0x13E3 JUMP JUMPDEST PUSH2 0x56E JUMP JUMPDEST PUSH1 0x40 MLOAD PUSH2 0xD8 SWAP3 SWAP2 SWAP1 PUSH2 0x167F JUMP JUMPDEST PUSH1 0x40 MLOAD DUP1 SWAP2 SUB SWAP1 RETURN JUMPDEST PUSH2 0xFB PUSH1 0x4 DUP1 CALLDATASIZE SUB DUP2 ADD SWAP1 PUSH2 0xF6 SWAP2 SWAP1 PUSH2 0x13E3 JUMP JUMPDEST PUSH2 0x7D4 JUMP JUMPDEST PUSH1 0x40 MLOAD PUSH2 0x10A SWAP4 SWAP3 SWAP2 SWAP1 PUSH2 0x16C3 JUMP JUMPDEST PUSH1 0x40 MLOAD DUP1 SWAP2 SUB SWAP1 RETURN JUMPDEST PUSH2 0x12D PUSH1 0x4 DUP1 CALLDATASIZE SUB DUP2 ADD SWAP1 PUSH2 0x128 SWAP2 SWAP1 PUSH2 0x1856 JUMP JUMPDEST PUSH2 0x8C6 JUMP JUMPDEST STOP JUMPDEST PUSH2 0x137 PUSH2 0xBF8 JUMP JUMPDEST PUSH1 0x40 MLOAD PUSH2 0x144 SWAP2 SWAP1 PUSH2 0x1931 JUMP JUMPDEST PUSH1 0x40 MLOAD DUP1 SWAP2 SUB SWAP1 RETURN JUMPDEST PUSH0 DUP1 PUSH0 SWAP1 SLOAD SWAP1 PUSH2 0x100 EXP SWAP1 DIV PUSH20 0xFFFFFFFFFFFFFFFFFFFFFFFFFFFFFFFFFFFFFFFF AND PUSH20 0xFFFFFFFFFFFFFFFFFFFFFFFFFFFFFFFFFFFFFFFF AND PUSH4 0x6C331BD3 DUP6 DUP6 PUSH1 0x40 MLOAD DUP4 PUSH4 0xFFFFFFFF AND PUSH1 0xE0 SHL DUP2 MSTORE PUSH1 0x4 ADD PUSH2 0x1A9 SWAP3 SWAP2 SWAP1 PUSH2 0x194A JUMP JUMPDEST PUSH0 PUSH1 0x40 MLOAD DUP1 DUP4 SUB DUP2 DUP7 GAS STATICCALL ISZERO DUP1 ISZERO PUSH2 0x1C3 JUMPI RETURNDATASIZE PUSH0 DUP1 RETURNDATACOPY RETURNDATASIZE PUSH0 REVERT JUMPDEST POP POP POP POP PUSH1 0x40 MLOAD RETURNDATASIZE PUSH0 DUP3 RETURNDATACOPY RETURNDATASIZE PUSH1 0x1F NOT PUSH1 0x1F DUP3 ADD AND DUP3 ADD DUP1 PUSH1 0x40 MSTORE POP DUP2 ADD SWAP1 PUSH2 0x1EB SWAP2 SWAP1 PUSH2 0x1B80 JUMP JUMPDEST SWAP1 POP DUP1 MLOAD DUP3 LT PUSH2 0x230 JUMPI PUSH1 0x40 MLOAD PUSH32 0x8C379A000000000000000000000000000000000000000000000000000000000 DUP2 MSTORE PUSH1 0x4 ADD PUSH2 0x227 SWAP1 PUSH2 0x1C21 JUMP JUMPDEST PUSH1 0x40 MLOAD DUP1 SWAP2 SUB SWAP1 REVERT JUMPDEST PUSH0 DUP2 DUP4 DUP2 MLOAD DUP2 LT PUSH2 0x244 JUMPI PUSH2 0x243 PUSH2 0x1C3F JUMP JUMPDEST JUMPDEST PUSH1 0x20 MUL PUSH1 0x20 ADD ADD MLOAD SWAP1 POP PUSH0 DUP2 PUSH0 ADD MLOAD MLOAD GT PUSH2 0x294 JUMPI PUSH1 0x40 MLOAD PUSH32 0x8C379A000000000000000000000000000000000000000000000000000000000 DUP2 MSTORE PUSH1 0x4 ADD PUSH2 0x28B SWAP1 PUSH2 0x1CB6 JUMP JUMPDEST PUSH1 0x40 MLOAD DUP1 SWAP2 SUB SWAP1 REVERT JUMPDEST PUSH2 0x2A0 DUP6 DUP6 DUP6 DUP5 PUSH2 0xC1B JUMP JUMPDEST PUSH2 0x2DF JUMPI PUSH1 0x40 MLOAD PUSH32 0x8C379A000000000000000000000000000000000000000000000000000000000 DUP2 MSTORE PUSH1 0x4 ADD PUSH2 0x2D6 SWAP1 PUSH2 0x1D44 JUMP JUMPDEST PUSH1 0x40 MLOAD DUP1 SWAP2 SUB SWAP1 REVERT JUMPDEST PUSH0 DUP2 PUSH0 ADD MLOAD MLOAD SWAP1 POP PUSH0 DUP2 PUSH8 0xFFFFFFFFFFFFFFFF DUP2 GT ISZERO PUSH2 0x302 JUMPI PUSH2 0x301 PUSH2 0x171A JUMP JUMPDEST JUMPDEST PUSH1 0x40 MLOAD SWAP1 DUP1 DUP3 MSTORE DUP1 PUSH1 0x20 MUL PUSH1 0x20 ADD DUP3 ADD PUSH1 0x40 MSTORE DUP1 ISZERO PUSH2 0x330 JUMPI DUP2 PUSH1 0x20 ADD PUSH1 0x20 DUP3 MUL DUP1 CALLDATASIZE DUP4 CALLDATACOPY DUP1 DUP3 ADD SWAP2 POP POP SWAP1 POP JUMPDEST POP SWAP1 POP PUSH0 JUMPDEST DUP3 DUP2 LT ISZERO PUSH2 0x3C7 JUMPI PUSH2 0x34A DUP9 DUP9 DUP9 DUP5 DUP9 PUSH2 0xCE4 JUMP JUMPDEST DUP3 DUP3 DUP2 MLOAD DUP2 LT PUSH2 0x35D JUMPI PUSH2 0x35C PUSH2 0x1C3F JUMP JUMPDEST JUMPDEST PUSH1 0x20 MUL PUSH1 0x20 ADD ADD DUP2 DUP2 MSTORE POP POP PUSH32 0xF6FF2AD7FC16BDA2A7D32462729431BCE3EBE9B75CC7C9B35A0ADFBF7E7BB9E6 DUP3 DUP3 DUP2 MLOAD DUP2 LT PUSH2 0x39D JUMPI PUSH2 0x39C PUSH2 0x1C3F JUMP JUMPDEST JUMPDEST PUSH1 0x20 MUL PUSH1 0x20 ADD ADD MLOAD PUSH1 0x40 MLOAD PUSH2 0x3B2 SWAP2 SWAP1 PUSH2 0x1DAC JUMP JUMPDEST PUSH1 0x40 MLOAD DUP1 SWAP2 SUB SWAP1 LOG1 DUP1 DUP1 PUSH1 0x1 ADD SWAP2 POP POP PUSH2 0x335 JUMP JUMPDEST POP PUSH0 PUSH2 0x3D2 DUP3 PUSH2 0xEB8 JUMP JUMPDEST SWAP1 POP PUSH1 0x40 MLOAD DUP1 PUSH1 0x60 ADD PUSH1 0x40 MSTORE DUP1 DUP3 DUP2 MSTORE PUSH1 0x20 ADD DUP4 DUP2 MSTORE PUSH1 0x20 ADD TIMESTAMP DUP2 MSTORE POP PUSH1 0x2 PUSH0 DUP11 DUP2 MSTORE PUSH1 0x20 ADD SWAP1 DUP2 MSTORE PUSH1 0x20 ADD PUSH0 KECCAK256 PUSH0 DUP10 DUP2 MSTORE PUSH1 0x20 ADD SWAP1 DUP2 MSTORE PUSH1 0x20 ADD PUSH0 KECCAK256 PUSH0 DUP9 DUP2 MSTORE PUSH1 0x20 ADD SWAP1 DUP2 MSTORE PUSH1 0x20 ADD PUSH0 KECCAK256 PUSH0 DUP3 ADD MLOAD DUP2 PUSH0 ADD SWAP1 DUP1 MLOAD SWAP1 PUSH1 0x20 ADD SWAP1 PUSH2 0x438 SWAP3 SWAP2 SWAP1 PUSH2 0x1339 JUMP JUMPDEST POP PUSH1 0x20 DUP3 ADD MLOAD DUP2 PUSH1 0x1 ADD SWAP1 DUP1 MLOAD SWAP1 PUSH1 0x20 ADD SWAP1 PUSH2 0x455 SWAP3 SWAP2 SWAP1 PUSH2 0x1339 JUMP JUMPDEST POP PUSH1 0x40 DUP3 ADD MLOAD DUP2 PUSH1 0x2 ADD SSTORE SWAP1 POP POP DUP8 PUSH32 0xB7561A7DCBDF981C91BCBDAEF28458903367918C2B25FE6C1A2485997A91820 DUP9 DUP9 DUP5 PUSH1 0x40 MLOAD PUSH2 0x497 SWAP4 SWAP3 SWAP2 SWAP1 PUSH2 0x1DD8 JUMP JUMPDEST PUSH1 0x40 MLOAD DUP1 SWAP2 SUB SWAP1 LOG2 POP POP POP POP POP POP POP POP JUMP JUMPDEST PUSH1 0x60 PUSH1 0x1 PUSH0 DUP7 DUP2 MSTORE PUSH1 0x20 ADD SWAP1 DUP2 MSTORE PUSH1 0x20 ADD PUSH0 KECCAK256 PUSH0 DUP6 DUP2 MSTORE PUSH1 0x20 ADD SWAP1 DUP2 MSTORE PUSH1 0x20 ADD PUSH0 KECCAK256 PUSH0 DUP5 DUP2 MSTORE PUSH1 0x20 ADD SWAP1 DUP2 MSTORE PUSH1 0x20 ADD PUSH0 KECCAK256 PUSH0 DUP4 PUSH20 0xFFFFFFFFFFFFFFFFFFFFFFFFFFFFFFFFFFFFFFFF AND PUSH20 0xFFFFFFFFFFFFFFFFFFFFFFFFFFFFFFFFFFFFFFFF AND DUP2 MSTORE PUSH1 0x20 ADD SWAP1 DUP2 MSTORE PUSH1 0x20 ADD PUSH0 KECCAK256 PUSH0 ADD DUP1 SLOAD DUP1 PUSH1 0x20 MUL PUSH1 0x20 ADD PUSH1 0x40 MLOAD SWAP1 DUP2 ADD PUSH1 0x40 MSTORE DUP1 SWAP3 SWAP2 SWAP1 DUP2 DUP2 MSTORE PUSH1 0x20 ADD DUP3 DUP1 SLOAD DUP1 ISZERO PUSH2 0x55F JUMPI PUSH1 0x20 MUL DUP3 ADD SWAP2 SWAP1 PUSH0 MSTORE PUSH1 0x20 PUSH0 KECCAK256 SWAP1 JUMPDEST DUP2 SLOAD DUP2 MSTORE PUSH1 0x20 ADD SWAP1 PUSH1 0x1 ADD SWAP1 DUP1 DUP4 GT PUSH2 0x54B JUMPI JUMPDEST POP POP POP POP POP SWAP1 POP SWAP5 SWAP4 POP POP POP POP JUMP JUMPDEST PUSH1 0x60 DUP1 PUSH0 DUP1 PUSH0 SWAP1 SLOAD SWAP1 PUSH2 0x100 EXP SWAP1 DIV PUSH20 0xFFFFFFFFFFFFFFFFFFFFFFFFFFFFFFFFFFFFFFFF AND PUSH20 0xFFFFFFFFFFFFFFFFFFFFFFFFFFFFFFFFFFFFFFFF AND PUSH4 0x6C331BD3 DUP8 DUP8 PUSH1 0x40 MLOAD DUP4 PUSH4 0xFFFFFFFF AND PUSH1 0xE0 SHL DUP2 MSTORE PUSH1 0x4 ADD PUSH2 0x5CD SWAP3 SWAP2 SWAP1 PUSH2 0x194A JUMP JUMPDEST PUSH0 PUSH1 0x40 MLOAD DUP1 DUP4 SUB DUP2 DUP7 GAS STATICCALL ISZERO DUP1 ISZERO PUSH2 0x5E7 JUMPI RETURNDATASIZE PUSH0 DUP1 RETURNDATACOPY RETURNDATASIZE PUSH0 REVERT JUMPDEST POP POP POP POP PUSH1 0x40 MLOAD RETURNDATASIZE PUSH0 DUP3 RETURNDATACOPY RETURNDATASIZE PUSH1 0x1F NOT PUSH1 0x1F DUP3 ADD AND DUP3 ADD DUP1 PUSH1 0x40 MSTORE POP DUP2 ADD SWAP1 PUSH2 0x60F SWAP2 SWAP1 PUSH2 0x1B80 JUMP JUMPDEST SWAP1 POP DUP1 MLOAD DUP5 LT PUSH2 0x654 JUMPI PUSH1 0x40 MLOAD PUSH32 0x8C379A000000000000000000000000000000000000000000000000000000000 DUP2 MSTORE PUSH1 0x4 ADD PUSH2 0x64B SWAP1 PUSH2 0x1C21 JUMP JUMPDEST PUSH1 0x40 MLOAD DUP1 SWAP2 SUB SWAP1 REVERT JUMPDEST PUSH0 DUP2 DUP6 DUP2 MLOAD DUP2 LT PUSH2 0x668 JUMPI PUSH2 0x667 PUSH2 0x1C3F JUMP JUMPDEST JUMPDEST PUSH1 0x20 MUL PUSH1 0x20 ADD ADD MLOAD SWAP1 POP PUSH0 DUP2 PUSH0 ADD MLOAD MLOAD SWAP1 POP PUSH0 DUP2 PUSH8 0xFFFFFFFFFFFFFFFF DUP2 GT ISZERO PUSH2 0x695 JUMPI PUSH2 0x694 PUSH2 0x171A JUMP JUMPDEST JUMPDEST PUSH1 0x40 MLOAD SWAP1 DUP1 DUP3 MSTORE DUP1 PUSH1 0x20 MUL PUSH1 0x20 ADD DUP3 ADD PUSH1 0x40 MSTORE DUP1 ISZERO PUSH2 0x6C3 JUMPI DUP2 PUSH1 0x20 ADD PUSH1 0x20 DUP3 MUL DUP1 CALLDATASIZE DUP4 CALLDATACOPY DUP1 DUP3 ADD SWAP2 POP POP SWAP1 POP JUMPDEST POP SWAP1 POP PUSH0 DUP3 PUSH8 0xFFFFFFFFFFFFFFFF DUP2 GT ISZERO PUSH2 0x6E1 JUMPI PUSH2 0x6E0 PUSH2 0x171A JUMP JUMPDEST JUMPDEST PUSH1 0x40 MLOAD SWAP1 DUP1 DUP3 MSTORE DUP1 PUSH1 0x20 MUL PUSH1 0x20 ADD DUP3 ADD PUSH1 0x40 MSTORE DUP1 ISZERO PUSH2 0x70F JUMPI DUP2 PUSH1 0x20 ADD PUSH1 0x20 DUP3 MUL DUP1 CALLDATASIZE DUP4 CALLDATACOPY DUP1 DUP3 ADD SWAP2 POP POP SWAP1 POP JUMPDEST POP SWAP1 POP PUSH0 JUMPDEST DUP4 DUP2 LT ISZERO PUSH2 0x7C0 JUMPI DUP5 PUSH0 ADD MLOAD DUP2 DUP2 MLOAD DUP2 LT PUSH2 0x732 JUMPI PUSH2 0x731 PUSH2 0x1C3F JUMP JUMPDEST JUMPDEST PUSH1 0x20 MUL PUSH1 0x20 ADD ADD MLOAD DUP4 DUP3 DUP2 MLOAD DUP2 LT PUSH2 0x74D JUMPI PUSH2 0x74C PUSH2 0x1C3F JUMP JUMPDEST JUMPDEST PUSH1 0x20 MUL PUSH1 0x20 ADD ADD SWAP1 PUSH20 0xFFFFFFFFFFFFFFFFFFFFFFFFFFFFFFFFFFFFFFFF AND SWAP1 DUP2 PUSH20 0xFFFFFFFFFFFFFFFFFFFFFFFFFFFFFFFFFFFFFFFF AND DUP2 MSTORE POP POP PUSH2 0x794 DUP12 DUP12 DUP12 DUP5 DUP10 PUSH2 0xCE4 JUMP JUMPDEST DUP3 DUP3 DUP2 MLOAD DUP2 LT PUSH2 0x7A7 JUMPI PUSH2 0x7A6 PUSH2 0x1C3F JUMP JUMPDEST JUMPDEST PUSH1 0x20 MUL PUSH1 0x20 ADD ADD DUP2 DUP2 MSTORE POP POP DUP1 DUP1 PUSH1 0x1 ADD SWAP2 POP POP PUSH2 0x714 JUMP JUMPDEST POP DUP2 DUP2 SWAP7 POP SWAP7 POP POP POP POP POP POP SWAP4 POP SWAP4 SWAP2 POP POP JUMP JUMPDEST PUSH1 0x60 DUP1 PUSH0 DUP1 PUSH1 0x2 PUSH0 DUP9 DUP2 MSTORE PUSH1 0x20 ADD SWAP1 DUP2 MSTORE PUSH1 0x20 ADD PUSH0 KECCAK256 PUSH0 DUP8 DUP2 MSTORE PUSH1 0x20 ADD SWAP1 DUP2 MSTORE PUSH1 0x20 ADD PUSH0 KECCAK256 PUSH0 DUP7 DUP2 MSTORE PUSH1 0x20 ADD SWAP1 DUP2 MSTORE PUSH1 0x20 ADD PUSH0 KECCAK256 SWAP1 POP DUP1 PUSH0 ADD DUP2 PUSH1 0x1 ADD DUP3 PUSH1 0x2 ADD SLOAD DUP3 DUP1 SLOAD DUP1 PUSH1 0x20 MUL PUSH1 0x20 ADD PUSH1 0x40 MLOAD SWAP1 DUP2 ADD PUSH1 0x40 MSTORE DUP1 SWAP3 SWAP2 SWAP1 DUP2 DUP2 MSTORE PUSH1 0x20 ADD DUP3 DUP1 SLOAD DUP1 ISZERO PUSH2 0x85F JUMPI PUSH1 0x20 MUL DUP3 ADD SWAP2 SWAP1 PUSH0 MSTORE PUSH1 0x20 PUSH0 KECCAK256 SWAP1 JUMPDEST DUP2 SLOAD DUP2 MSTORE PUSH1 0x20 ADD SWAP1 PUSH1 0x1 ADD SWAP1 DUP1 DUP4 GT PUSH2 0x84B JUMPI JUMPDEST POP POP POP POP POP SWAP3 POP DUP2 DUP1 SLOAD DUP1 PUSH1 0x20 MUL PUSH1 0x20 ADD PUSH1 0x40 MLOAD SWAP1 DUP2 ADD PUSH1 0x40 MSTORE DUP1 SWAP3 SWAP2 SWAP1 DUP2 DUP2 MSTORE PUSH1 0x20 ADD DUP3 DUP1 SLOAD DUP1 ISZERO PUSH2 0x8AF JUMPI PUSH1 0x20 MUL DUP3 ADD SWAP2 SWAP1 PUSH0 MSTORE PUSH1 0x20 PUSH0 KECCAK256 SWAP1 JUMPDEST DUP2 SLOAD DUP2 MSTORE PUSH1 0x20 ADD SWAP1 PUSH1 0x1 ADD SWAP1 DUP1 DUP4 GT PUSH2 0x89B JUMPI JUMPDEST POP POP POP POP POP SWAP2 POP SWAP4 POP SWAP4 POP SWAP4 POP POP SWAP4 POP SWAP4 POP SWAP4 SWAP1 POP JUMP JUMPDEST PUSH0 DUP1 PUSH0 SWAP1 SLOAD SWAP1 PUSH2 0x100 EXP SWAP1 DIV PUSH20 0xFFFFFFFFFFFFFFFFFFFFFFFFFFFFFFFFFFFFFFFF AND PUSH20 0xFFFFFFFFFFFFFFFFFFFFFFFFFFFFFFFFFFFFFFFF AND PUSH4 0x6C331BD3 DUP7 DUP7 PUSH1 0x40 MLOAD DUP4 PUSH4 0xFFFFFFFF AND PUSH1 0xE0 SHL DUP2 MSTORE PUSH1 0x4 ADD PUSH2 0x922 SWAP3 SWAP2 SWAP1 PUSH2 0x194A JUMP JUMPDEST PUSH0 PUSH1 0x40 MLOAD DUP1 DUP4 SUB DUP2 DUP7 GAS STATICCALL ISZERO DUP1 ISZERO PUSH2 0x93C JUMPI RETURNDATASIZE PUSH0 DUP1 RETURNDATACOPY RETURNDATASIZE PUSH0 REVERT JUMPDEST POP POP POP POP PUSH1 0x40 MLOAD RETURNDATASIZE PUSH0 DUP3 RETURNDATACOPY RETURNDATASIZE PUSH1 0x1F NOT PUSH1 0x1F DUP3 ADD AND DUP3 ADD DUP1 PUSH1 0x40 MSTORE POP DUP2 ADD SWAP1 PUSH2 0x964 SWAP2 SWAP1 PUSH2 0x1B80 JUMP JUMPDEST SWAP1 POP DUP1 MLOAD DUP4 LT PUSH2 0x9A9 JUMPI PUSH1 0x40 MLOAD PUSH32 0x8C379A000000000000000000000000000000000000000000000000000000000 DUP2 MSTORE PUSH1 0x4 ADD PUSH2 0x9A0 SWAP1 PUSH2 0x1C21 JUMP JUMPDEST PUSH1 0x40 MLOAD DUP1 SWAP2 SUB SWAP1 REVERT JUMPDEST PUSH0 DUP2 DUP5 DUP2 MLOAD DUP2 LT PUSH2 0x9BD JUMPI PUSH2 0x9BC PUSH2 0x1C3F JUMP JUMPDEST JUMPDEST PUSH1 0x20 MUL PUSH1 0x20 ADD ADD MLOAD SWAP1 POP DUP1 PUSH0 ADD MLOAD MLOAD DUP4 MLOAD EQ PUSH2 0xA0E JUMPI PUSH1 0x40 MLOAD PUSH32 0x8C379A000000000000000000000000000000000000000000000000000000000 DUP2 MSTORE PUSH1 0x4 ADD PUSH2 0xA05 SWAP1 PUSH2 0x1E84 JUMP JUMPDEST PUSH1 0x40 MLOAD DUP1 SWAP2 SUB SWAP1 REVERT JUMPDEST PUSH2 0xA18 DUP2 CALLER PUSH2 0x1128 JUMP JUMPDEST PUSH2 0xA57 JUMPI PUSH1 0x40 MLOAD PUSH32 0x8C379A000000000000000000000000000000000000000000000000000000000 DUP2 MSTORE PUSH1 0x4 ADD PUSH2 0xA4E SWAP1 PUSH2 0x1EEC JUMP JUMPDEST PUSH1 0x40 MLOAD DUP1 SWAP2 SUB SWAP1 REVERT JUMPDEST PUSH0 PUSH1 0x1 PUSH0 DUP9 DUP2 MSTORE PUSH1 0x20 ADD SWAP1 DUP2 MSTORE PUSH1 0x20 ADD PUSH0 KECCAK256 PUSH0 DUP8 DUP2 MSTORE PUSH1 0x20 ADD SWAP1 DUP2 MSTORE PUSH1 0x20 ADD PUSH0 KECCAK256 PUSH0 DUP7 DUP2 MSTORE PUSH1 0x20 ADD SWAP1 DUP2 MSTORE PUSH1 0x20 ADD PUSH0 KECCAK256 PUSH0 CALLER PUSH20 0xFFFFFFFFFFFFFFFFFFFFFFFFFFFFFFFFFFFFFFFF AND PUSH20 0xFFFFFFFFFFFFFFFFFFFFFFFFFFFFFFFFFFFFFFFF AND DUP2 MSTORE PUSH1 0x20 ADD SWAP1 DUP2 MSTORE PUSH1 0x20 ADD PUSH0 KECCAK256 PUSH0 ADD DUP1 SLOAD SWAP1 POP EQ PUSH2 0xB08 JUMPI PUSH1 0x40 MLOAD PUSH32 0x8C379A000000000000000000000000000000000000000000000000000000000 DUP2 MSTORE PUSH1 0x4 ADD PUSH2 0xAFF SWAP1 PUSH2 0x1F54 JUMP JUMPDEST PUSH1 0x40 MLOAD DUP1 SWAP2 SUB SWAP1 REVERT JUMPDEST PUSH1 0x40 MLOAD DUP1 PUSH1 0x20 ADD PUSH1 0x40 MSTORE DUP1 DUP5 DUP2 MSTORE POP PUSH1 0x1 PUSH0 DUP9 DUP2 MSTORE PUSH1 0x20 ADD SWAP1 DUP2 MSTORE PUSH1 0x20 ADD PUSH0 KECCAK256 PUSH0 DUP8 DUP2 MSTORE PUSH1 0x20 ADD SWAP1 DUP2 MSTORE PUSH1 0x20 ADD PUSH0 KECCAK256 PUSH0 DUP7 DUP2 MSTORE PUSH1 0x20 ADD SWAP1 DUP2 MSTORE PUSH1 0x20 ADD PUSH0 KECCAK256 PUSH0 CALLER PUSH20 0xFFFFFFFFFFFFFFFFFFFFFFFFFFFFFFFFFFFFFFFF AND PUSH20 0xFFFFFFFFFFFFFFFFFFFFFFFFFFFFFFFFFFFFFFFF AND DUP2 MSTORE PUSH1 0x20 ADD SWAP1 DUP2 MSTORE PUSH1 0x20 ADD PUSH0 KECCAK256 PUSH0 DUP3 ADD MLOAD DUP2 PUSH0 ADD SWAP1 DUP1 MLOAD SWAP1 PUSH1 0x20 ADD SWAP1 PUSH2 0xB9B SWAP3 SWAP2 SWAP1 PUSH2 0x1339 JUMP JUMPDEST POP SWAP1 POP POP CALLER PUSH20 0xFFFFFFFFFFFFFFFFFFFFFFFFFFFFFFFFFFFFFFFF AND DUP7 PUSH32 0xE2D0F4A25C2B0CC7CCDA020BCD4293DCEFFB51708B88B9C58EF71A0AB96B5E16 DUP8 DUP8 PUSH1 0x40 MLOAD PUSH2 0xBE8 SWAP3 SWAP2 SWAP1 PUSH2 0x194A JUMP JUMPDEST PUSH1 0x40 MLOAD DUP1 SWAP2 SUB SWAP1 LOG3 POP POP POP POP POP POP JUMP JUMPDEST PUSH0 DUP1 SLOAD SWAP1 PUSH2 0x100 EXP SWAP1 DIV PUSH20 0xFFFFFFFFFFFFFFFFFFFFFFFFFFFFFFFFFFFFFFFF AND DUP2 JUMP JUMPDEST PUSH0 DUP1 PUSH0 SWAP1 POP JUMPDEST DUP3 PUSH0 ADD MLOAD MLOAD DUP2 LT ISZERO PUSH2 0xCD6 JUMPI PUSH0 PUSH1 0x1 PUSH0 DUP9 DUP2 MSTORE PUSH1 0x20 ADD SWAP1 DUP2 MSTORE PUSH1 0x20 ADD PUSH0 KECCAK256 PUSH0 DUP8 DUP2 MSTORE PUSH1 0x20 ADD SWAP1 DUP2 MSTORE PUSH1 0x20 ADD PUSH0 KECCAK256 PUSH0 DUP7 DUP2 MSTORE PUSH1 0x20 ADD SWAP1 DUP2 MSTORE PUSH1 0x20 ADD PUSH0 KECCAK256 PUSH0 DUP6 PUSH0 ADD MLOAD DUP5 DUP2 MLOAD DUP2 LT PUSH2 0xC74 JUMPI PUSH2 0xC73 PUSH2 0x1C3F JUMP JUMPDEST JUMPDEST PUSH1 0x20 MUL PUSH1 0x20 ADD ADD MLOAD PUSH20 0xFFFFFFFFFFFFFFFFFFFFFFFFFFFFFFFFFFFFFFFF AND PUSH20 0xFFFFFFFFFFFFFFFFFFFFFFFFFFFFFFFFFFFFFFFF AND DUP2 MSTORE PUSH1 0x20 ADD SWAP1 DUP2 MSTORE PUSH1 0x20 ADD PUSH0 KECCAK256 PUSH0 ADD DUP1 SLOAD SWAP1 POP SUB PUSH2 0xCC9 JUMPI PUSH0 SWAP2 POP POP PUSH2 0xCDC JUMP JUMPDEST DUP1 DUP1 PUSH1 0x1 ADD SWAP2 POP POP PUSH2 0xC21 JUMP JUMPDEST POP PUSH1 0x1 SWAP1 POP JUMPDEST SWAP5 SWAP4 POP POP POP POP JUMP JUMPDEST PUSH0 DUP1 DUP3 PUSH0 ADD MLOAD MLOAD PUSH8 0xFFFFFFFFFFFFFFFF DUP2 GT ISZERO PUSH2 0xD04 JUMPI PUSH2 0xD03 PUSH2 0x171A JUMP JUMPDEST JUMPDEST PUSH1 0x40 MLOAD SWAP1 DUP1 DUP3 MSTORE DUP1 PUSH1 0x20 MUL PUSH1 0x20 ADD DUP3 ADD PUSH1 0x40 MSTORE DUP1 ISZERO PUSH2 0xD32 JUMPI DUP2 PUSH1 0x20 ADD PUSH1 0x20 DUP3 MUL DUP1 CALLDATASIZE DUP4 CALLDATACOPY DUP1 DUP3 ADD SWAP2 POP POP SWAP1 POP JUMPDEST POP SWAP1 POP PUSH0 JUMPDEST DUP4 PUSH0 ADD MLOAD MLOAD DUP2 LT ISZERO PUSH2 0xE13 JUMPI PUSH1 0x1 PUSH0 DUP10 DUP2 MSTORE PUSH1 0x20 ADD SWAP1 DUP2 MSTORE PUSH1 0x20 ADD PUSH0 KECCAK256 PUSH0 DUP9 DUP2 MSTORE PUSH1 0x20 ADD SWAP1 DUP2 MSTORE PUSH1 0x20 ADD PUSH0 KECCAK256 PUSH0 DUP8 DUP2 MSTORE PUSH1 0x20 ADD SWAP1 DUP2 MSTORE PUSH1 0x20 ADD PUSH0 KECCAK256 PUSH0 DUP6 PUSH0 ADD MLOAD DUP4 DUP2 MLOAD DUP2 LT PUSH2 0xD89 JUMPI PUSH2 0xD88 PUSH2 0x1C3F JUMP JUMPDEST JUMPDEST PUSH1 0x20 MUL PUSH1 0x20 ADD ADD MLOAD PUSH20 0xFFFFFFFFFFFFFFFFFFFFFFFFFFFFFFFFFFFFFFFF AND PUSH20 0xFFFFFFFFFFFFFFFFFFFFFFFFFFFFFFFFFFFFFFFF AND DUP2 MSTORE PUSH1 0x20 ADD SWAP1 DUP2 MSTORE PUSH1 0x20 ADD PUSH0 KECCAK256 PUSH0 ADD DUP6 DUP2 SLOAD DUP2 LT PUSH2 0xDDE JUMPI PUSH2 0xDDD PUSH2 0x1C3F JUMP JUMPDEST JUMPDEST SWAP1 PUSH0 MSTORE PUSH1 0x20 PUSH0 KECCAK256 ADD SLOAD DUP3 DUP3 DUP2 MLOAD DUP2 LT PUSH2 0xDFA JUMPI PUSH2 0xDF9 PUSH2 0x1C3F JUMP JUMPDEST JUMPDEST PUSH1 0x20 MUL PUSH1 0x20 ADD ADD DUP2 DUP2 MSTORE POP POP DUP1 DUP1 PUSH1 0x1 ADD SWAP2 POP POP PUSH2 0xD37 JUMP JUMPDEST POP PUSH0 PUSH2 0xE1E DUP3 PUSH2 0x11AC JUMP JUMPDEST SWAP1 POP PUSH0 PUSH2 0xE2A DUP4 PUSH2 0x121A JUMP JUMPDEST SWAP1 POP PUSH0 PUSH2 0xE3A DUP7 PUSH0 ADD MLOAD MLOAD PUSH2 0x12C0 JUMP JUMPDEST SWAP1 POP PUSH0 DUP1 DUP3 SUB PUSH2 0xE54 JUMPI PUSH8 0xDE0B6B3A7640000 SWAP1 POP PUSH2 0xE89 JUMP JUMPDEST DUP2 PUSH8 0xDE0B6B3A7640000 DUP5 PUSH2 0xE69 SWAP2 SWAP1 PUSH2 0x1F9F JUMP JUMPDEST PUSH2 0xE73 SWAP2 SWAP1 PUSH2 0x200D JUMP JUMPDEST PUSH8 0xDE0B6B3A7640000 PUSH2 0xE86 SWAP2 SWAP1 PUSH2 0x203D JUMP JUMPDEST SWAP1 POP JUMPDEST PUSH8 0xDE0B6B3A7640000 DUP2 DUP6 PUSH2 0xE9E SWAP2 SWAP1 PUSH2 0x1F9F JUMP JUMPDEST PUSH2 0xEA8 SWAP2 SWAP1 PUSH2 0x200D JUMP JUMPDEST SWAP6 POP POP POP POP POP POP SWAP6 SWAP5 POP POP POP POP POP JUMP JUMPDEST PUSH1 0x60 PUSH0 DUP3 MLOAD PUSH8 0xFFFFFFFFFFFFFFFF DUP2 GT ISZERO PUSH2 0xED6 JUMPI PUSH2 0xED5 PUSH2 0x171A JUMP JUMPDEST JUMPDEST PUSH1 0x40 MLOAD SWAP1 DUP1 DUP3 MSTORE DUP1 PUSH1 0x20 MUL PUSH1 0x20 ADD DUP3 ADD PUSH1 0x40 MSTORE DUP1 ISZERO PUSH2 0xF04 JUMPI DUP2 PUSH1 0x20 ADD PUSH1 0x20 DUP3 MUL DUP1 CALLDATASIZE DUP4 CALLDATACOPY DUP1 DUP3 ADD SWAP2 POP POP SWAP1 POP JUMPDEST POP SWAP1 POP PUSH0 JUMPDEST DUP2 MLOAD DUP2 LT ISZERO PUSH2 0xF3F JUMPI DUP1 DUP3 DUP3 DUP2 MLOAD DUP2 LT PUSH2 0xF26 JUMPI PUSH2 0xF25 PUSH2 0x1C3F JUMP JUMPDEST JUMPDEST PUSH1 0x20 MUL PUSH1 0x20 ADD ADD DUP2 DUP2 MSTORE POP POP DUP1 DUP1 PUSH1 0x1 ADD SWAP2 POP POP PUSH2 0xF09 JUMP JUMPDEST POP PUSH0 JUMPDEST PUSH1 0x1 DUP5 MLOAD PUSH2 0xF50 SWAP2 SWAP1 PUSH2 0x203D JUMP JUMPDEST DUP2 LT ISZERO PUSH2 0x1071 JUMPI PUSH0 PUSH1 0x1 DUP3 PUSH2 0xF65 SWAP2 SWAP1 PUSH2 0x2070 JUMP JUMPDEST SWAP1 POP JUMPDEST DUP5 MLOAD DUP2 LT ISZERO PUSH2 0x1063 JUMPI DUP5 DUP4 DUP3 DUP2 MLOAD DUP2 LT PUSH2 0xF85 JUMPI PUSH2 0xF84 PUSH2 0x1C3F JUMP JUMPDEST JUMPDEST PUSH1 0x20 MUL PUSH1 0x20 ADD ADD MLOAD DUP2 MLOAD DUP2 LT PUSH2 0xF9E JUMPI PUSH2 0xF9D PUSH2 0x1C3F JUMP JUMPDEST JUMPDEST PUSH1 0x20 MUL PUSH1 0x20 ADD ADD MLOAD DUP6 DUP5 DUP5 DUP2 MLOAD DUP2 LT PUSH2 0xFBA JUMPI PUSH2 0xFB9 PUSH2 0x1C3F JUMP JUMPDEST JUMPDEST PUSH1 0x20 MUL PUSH1 0x20 ADD ADD MLOAD DUP2 MLOAD DUP2 LT PUSH2 0xFD3 JUMPI PUSH2 0xFD2 PUSH2 0x1C3F JUMP JUMPDEST JUMPDEST PUSH1 0x20 MUL PUSH1 0x20 ADD ADD MLOAD LT ISZERO PUSH2 0x1056 JUMPI DUP3 DUP2 DUP2 MLOAD DUP2 LT PUSH2 0xFF4 JUMPI PUSH2 0xFF3 PUSH2 0x1C3F JUMP JUMPDEST JUMPDEST PUSH1 0x20 MUL PUSH1 0x20 ADD ADD MLOAD DUP4 DUP4 DUP2 MLOAD DUP2 LT PUSH2 0x100F JUMPI PUSH2 0x100E PUSH2 0x1C3F JUMP JUMPDEST JUMPDEST PUSH1 0x20 MUL PUSH1 0x20 ADD ADD MLOAD DUP5 DUP5 DUP2 MLOAD DUP2 LT PUSH2 0x102A JUMPI PUSH2 0x1029 PUSH2 0x1C3F JUMP JUMPDEST JUMPDEST PUSH1 0x20 MUL PUSH1 0x20 ADD ADD DUP6 DUP5 DUP2 MLOAD DUP2 LT PUSH2 0x1044 JUMPI PUSH2 0x1043 PUSH2 0x1C3F JUMP JUMPDEST JUMPDEST PUSH1 0x20 MUL PUSH1 0x20 ADD ADD DUP3 DUP2 MSTORE POP DUP3 DUP2 MSTORE POP POP POP JUMPDEST DUP1 DUP1 PUSH1 0x1 ADD SWAP2 POP POP PUSH2 0xF68 JUMP JUMPDEST POP DUP1 DUP1 PUSH1 0x1 ADD SWAP2 POP POP PUSH2 0xF42 JUMP JUMPDEST POP PUSH0 DUP4 MLOAD PUSH8 0xFFFFFFFFFFFFFFFF DUP2 GT ISZERO PUSH2 0x108E JUMPI PUSH2 0x108D PUSH2 0x171A JUMP JUMPDEST JUMPDEST PUSH1 0x40 MLOAD SWAP1 DUP1 DUP3 MSTORE DUP1 PUSH1 0x20 MUL PUSH1 0x20 ADD DUP3 ADD PUSH1 0x40 MSTORE DUP1 ISZERO PUSH2 0x10BC JUMPI DUP2 PUSH1 0x20 ADD PUSH1 0x20 DUP3 MUL DUP1 CALLDATASIZE DUP4 CALLDATACOPY DUP1 DUP3 ADD SWAP2 POP POP SWAP1 POP JUMPDEST POP SWAP1 POP PUSH0 JUMPDEST DUP2 MLOAD DUP2 LT ISZERO PUSH2 0x111D JUMPI DUP1 DUP6 MLOAD PUSH2 0x10D7 SWAP2 SWAP1 PUSH2 0x203D JUMP JUMPDEST DUP3 DUP5 DUP4 DUP2 MLOAD DUP2 LT PUSH2 0x10EB JUMPI PUSH2 0x10EA PUSH2 0x1C3F JUMP JUMPDEST JUMPDEST PUSH1 0x20 MUL PUSH1 0x20 ADD ADD MLOAD DUP2 MLOAD DUP2 LT PUSH2 0x1104 JUMPI PUSH2 0x1103 PUSH2 0x1C3F JUMP JUMPDEST JUMPDEST PUSH1 0x20 MUL PUSH1 0x20 ADD ADD DUP2 DUP2 MSTORE POP POP DUP1 DUP1 PUSH1 0x1 ADD SWAP2 POP POP PUSH2 0x10C1 JUMP JUMPDEST POP DUP1 SWAP3 POP POP POP SWAP2 SWAP1 POP JUMP JUMPDEST PUSH0 DUP1 PUSH0 SWAP1 POP JUMPDEST DUP4 PUSH0 ADD MLOAD MLOAD DUP2 LT ISZERO PUSH2 0x11A1 JUMPI DUP3 PUSH20 0xFFFFFFFFFFFFFFFFFFFFFFFFFFFFFFFFFFFFFFFF AND DUP5 PUSH0 ADD MLOAD DUP3 DUP2 MLOAD DUP2 LT PUSH2 0x1167 JUMPI PUSH2 0x1166 PUSH2 0x1C3F JUMP JUMPDEST JUMPDEST PUSH1 0x20 MUL PUSH1 0x20 ADD ADD MLOAD PUSH20 0xFFFFFFFFFFFFFFFFFFFFFFFFFFFFFFFFFFFFFFFF AND SUB PUSH2 0x1194 JUMPI PUSH1 0x1 SWAP2 POP POP PUSH2 0x11A6 JUMP JUMPDEST DUP1 DUP1 PUSH1 0x1 ADD SWAP2 POP POP PUSH2 0x112E JUMP JUMPDEST POP PUSH0 SWAP1 POP JUMPDEST SWAP3 SWAP2 POP POP JUMP JUMPDEST PUSH0 DUP1 PUSH0 SWAP1 POP PUSH0 JUMPDEST DUP4 MLOAD DUP2 LT ISZERO PUSH2 0x11F1 JUMPI DUP4 DUP2 DUP2 MLOAD DUP2 LT PUSH2 0x11CF JUMPI PUSH2 0x11CE PUSH2 0x1C3F JUMP JUMPDEST JUMPDEST PUSH1 0x20 MUL PUSH1 0x20 ADD ADD MLOAD DUP3 PUSH2 0x11E2 SWAP2 SWAP1 PUSH2 0x2070 JUMP JUMPDEST SWAP2 POP DUP1 DUP1 PUSH1 0x1 ADD SWAP2 POP POP PUSH2 0x11B3 JUMP JUMPDEST POP DUP3 MLOAD PUSH8 0xDE0B6B3A7640000 DUP3 PUSH2 0x1208 SWAP2 SWAP1 PUSH2 0x1F9F JUMP JUMPDEST PUSH2 0x1212 SWAP2 SWAP1 PUSH2 0x200D JUMP JUMPDEST SWAP2 POP POP SWAP2 SWAP1 POP JUMP JUMPDEST PUSH0 DUP1 PUSH2 0x1225 DUP4 PUSH2 0x11AC JUMP JUMPDEST SWAP1 POP PUSH0 DUP1 JUMPDEST DUP5 MLOAD DUP2 LT ISZERO PUSH2 0x12A9 JUMPI PUSH0 DUP4 PUSH8 0xDE0B6B3A7640000 DUP8 DUP5 DUP2 MLOAD DUP2 LT PUSH2 0x1251 JUMPI PUSH2 0x1250 PUSH2 0x1C3F JUMP JUMPDEST JUMPDEST PUSH1 0x20 MUL PUSH1 0x20 ADD ADD MLOAD PUSH2 0x1263 SWAP2 SWAP1 PUSH2 0x1F9F JUMP JUMPDEST PUSH2 0x126D SWAP2 SWAP1 PUSH2 0x20AC JUMP JUMPDEST SWAP1 POP PUSH8 0xDE0B6B3A7640000 DUP2 DUP3 PUSH2 0x1284 SWAP2 SWAP1 PUSH2 0x20EC JUMP JUMPDEST PUSH2 0x128E SWAP2 SWAP1 PUSH2 0x200D JUMP JUMPDEST DUP4 PUSH2 0x1299 SWAP2 SWAP1 PUSH2 0x2070 JUMP JUMPDEST SWAP3 POP POP DUP1 DUP1 PUSH1 0x1 ADD SWAP2 POP POP PUSH2 0x122A JUMP JUMPDEST POP DUP4 MLOAD DUP2 PUSH2 0x12B7 SWAP2 SWAP1 PUSH2 0x200D JUMP JUMPDEST SWAP3 POP POP POP SWAP2 SWAP1 POP JUMP JUMPDEST PUSH0 DUP1 PUSH0 SWAP1 POP PUSH0 PUSH1 0x1 SWAP1 POP JUMPDEST DUP4 DUP2 LT ISZERO PUSH2 0x130D JUMPI PUSH1 0x2 PUSH8 0xDE0B6B3A7640000 DUP3 PUSH2 0x12E9 SWAP2 SWAP1 PUSH2 0x1F9F JUMP JUMPDEST PUSH2 0x12F3 SWAP2 SWAP1 PUSH2 0x200D JUMP JUMPDEST DUP3 PUSH2 0x12FE SWAP2 SWAP1 PUSH2 0x2070 JUMP JUMPDEST SWAP2 POP DUP1 DUP1 PUSH1 0x1 ADD SWAP2 POP POP PUSH2 0x12CB JUMP JUMPDEST POP PUSH1 0x1 DUP4 PUSH2 0x131B SWAP2 SWAP1 PUSH2 0x203D JUMP JUMPDEST DUP2 DUP5 PUSH2 0x1327 SWAP2 SWAP1 PUSH2 0x1F9F JUMP JUMPDEST PUSH2 0x1331 SWAP2 SWAP1 PUSH2 0x200D JUMP JUMPDEST SWAP2 POP POP SWAP2 SWAP1 POP JUMP JUMPDEST DUP3 DUP1 SLOAD DUP3 DUP3 SSTORE SWAP1 PUSH0 MSTORE PUSH1 0x20 PUSH0 KECCAK256 SWAP1 DUP2 ADD SWAP3 DUP3 ISZERO PUSH2 0x1373 JUMPI SWAP2 PUSH1 0x20 MUL DUP3 ADD JUMPDEST DUP3 DUP2 GT ISZERO PUSH2 0x1372 JUMPI DUP3 MLOAD DUP3 SSTORE SWAP2 PUSH1 0x20 ADD SWAP2 SWAP1 PUSH1 0x1 ADD SWAP1 PUSH2 0x1357 JUMP JUMPDEST JUMPDEST POP SWAP1 POP PUSH2 0x1380 SWAP2 SWAP1 PUSH2 0x1384 JUMP JUMPDEST POP SWAP1 JUMP JUMPDEST JUMPDEST DUP1 DUP3 GT ISZERO PUSH2 0x139B JUMPI PUSH0 DUP2 PUSH0 SWAP1 SSTORE POP PUSH1 0x1 ADD PUSH2 0x1385 JUMP JUMPDEST POP SWAP1 JUMP JUMPDEST PUSH0 PUSH1 0x40 MLOAD SWAP1 POP SWAP1 JUMP JUMPDEST PUSH0 DUP1 REVERT JUMPDEST PUSH0 DUP1 REVERT JUMPDEST PUSH0 DUP2 SWAP1 POP SWAP2 SWAP1 POP JUMP JUMPDEST PUSH2 0x13C2 DUP2 PUSH2 0x13B0 JUMP JUMPDEST DUP2 EQ PUSH2 0x13CC JUMPI PUSH0 DUP1 REVERT JUMPDEST POP JUMP JUMPDEST PUSH0 DUP2 CALLDATALOAD SWAP1 POP PUSH2 0x13DD DUP2 PUSH2 0x13B9 JUMP JUMPDEST SWAP3 SWAP2 POP POP JUMP JUMPDEST PUSH0 DUP1 PUSH0 PUSH1 0x60 DUP5 DUP7 SUB SLT ISZERO PUSH2 0x13FA JUMPI PUSH2 0x13F9 PUSH2 0x13A8 JUMP JUMPDEST JUMPDEST PUSH0 PUSH2 0x1407 DUP7 DUP3 DUP8 ADD PUSH2 0x13CF JUMP JUMPDEST SWAP4 POP POP PUSH1 0x20 PUSH2 0x1418 DUP7 DUP3 DUP8 ADD PUSH2 0x13CF JUMP JUMPDEST SWAP3 POP POP PUSH1 0x40 PUSH2 0x1429 DUP7 DUP3 DUP8 ADD PUSH2 0x13CF JUMP JUMPDEST SWAP2 POP POP SWAP3 POP SWAP3 POP SWAP3 JUMP JUMPDEST PUSH0 PUSH20 0xFFFFFFFFFFFFFFFFFFFFFFFFFFFFFFFFFFFFFFFF DUP3 AND SWAP1 POP SWAP2 SWAP1 POP JUMP JUMPDEST PUSH0 PUSH2 0x145C DUP3 PUSH2 0x1433 JUMP JUMPDEST SWAP1 POP SWAP2 SWAP1 POP JUMP JUMPDEST PUSH2 0x146C DUP2 PUSH2 0x1452 JUMP JUMPDEST DUP2 EQ PUSH2 0x1476 JUMPI PUSH0 DUP1 REVERT JUMPDEST POP JUMP JUMPDEST PUSH0 DUP2 CALLDATALOAD SWAP1 POP PUSH2 0x1487 DUP2 PUSH2 0x1463 JUMP JUMPDEST SWAP3 SWAP2 POP POP JUMP JUMPDEST PUSH0 DUP1 PUSH0 DUP1 PUSH1 0x80 DUP6 DUP8 SUB SLT ISZERO PUSH2 0x14A5 JUMPI PUSH2 0x14A4 PUSH2 0x13A8 JUMP JUMPDEST JUMPDEST PUSH0 PUSH2 0x14B2 DUP8 DUP3 DUP9 ADD PUSH2 0x13CF JUMP JUMPDEST SWAP5 POP POP PUSH1 0x20 PUSH2 0x14C3 DUP8 DUP3 DUP9 ADD PUSH2 0x13CF JUMP JUMPDEST SWAP4 POP POP PUSH1 0x40 PUSH2 0x14D4 DUP8 DUP3 DUP9 ADD PUSH2 0x13CF JUMP JUMPDEST SWAP3 POP POP PUSH1 0x60 PUSH2 0x14E5 DUP8 DUP3 DUP9 ADD PUSH2 0x1479 JUMP JUMPDEST SWAP2 POP POP SWAP3 SWAP6 SWAP2 SWAP5 POP SWAP3 POP JUMP JUMPDEST PUSH0 DUP2 MLOAD SWAP1 POP SWAP2 SWAP1 POP JUMP JUMPDEST PUSH0 DUP3 DUP3 MSTORE PUSH1 0x20 DUP3 ADD SWAP1 POP SWAP3 SWAP2 POP POP JUMP JUMPDEST PUSH0 DUP2 SWAP1 POP PUSH1 0x20 DUP3 ADD SWAP1 POP SWAP2 SWAP1 POP JUMP JUMPDEST PUSH2 0x1523 DUP2 PUSH2 0x13B0 JUMP JUMPDEST DUP3 MSTORE POP POP JUMP JUMPDEST PUSH0 PUSH2 0x1534 DUP4 DUP4 PUSH2 0x151A JUMP JUMPDEST PUSH1 0x20 DUP4 ADD SWAP1 POP SWAP3 SWAP2 POP POP JUMP JUMPDEST PUSH0 PUSH1 0x20 DUP3 ADD SWAP1 POP SWAP2 SWAP1 POP JUMP JUMPDEST PUSH0 PUSH2 0x1556 DUP3 PUSH2 0x14F1 JUMP JUMPDEST PUSH2 0x1560 DUP2 DUP6 PUSH2 0x14FB JUMP JUMPDEST SWAP4 POP PUSH2 0x156B DUP4 PUSH2 0x150B JUMP JUMPDEST DUP1 PUSH0 JUMPDEST DUP4 DUP2 LT ISZERO PUSH2 0x159B JUMPI DUP2 MLOAD PUSH2 0x1582 DUP9 DUP3 PUSH2 0x1529 JUMP JUMPDEST SWAP8 POP PUSH2 0x158D DUP4 PUSH2 0x1540 JUMP JUMPDEST SWAP3 POP POP PUSH1 0x1 DUP2 ADD SWAP1 POP PUSH2 0x156E JUMP JUMPDEST POP DUP6 SWAP4 POP POP POP POP SWAP3 SWAP2 POP POP JUMP JUMPDEST PUSH0 PUSH1 0x20 DUP3 ADD SWAP1 POP DUP2 DUP2 SUB PUSH0 DUP4 ADD MSTORE PUSH2 0x15C0 DUP2 DUP5 PUSH2 0x154C JUMP JUMPDEST SWAP1 POP SWAP3 SWAP2 POP POP JUMP JUMPDEST PUSH0 DUP2 MLOAD SWAP1 POP SWAP2 SWAP1 POP JUMP JUMPDEST PUSH0 DUP3 DUP3 MSTORE PUSH1 0x20 DUP3 ADD SWAP1 POP SWAP3 SWAP2 POP POP JUMP JUMPDEST PUSH0 DUP2 SWAP1 POP PUSH1 0x20 DUP3 ADD SWAP1 POP SWAP2 SWAP1 POP JUMP JUMPDEST PUSH2 0x15FA DUP2 PUSH2 0x1452 JUMP JUMPDEST DUP3 MSTORE POP POP JUMP JUMPDEST PUSH0 PUSH2 0x160B DUP4 DUP4 PUSH2 0x15F1 JUMP JUMPDEST PUSH1 0x20 DUP4 ADD SWAP1 POP SWAP3 SWAP2 POP POP JUMP JUMPDEST PUSH0 PUSH1 0x20 DUP3 ADD SWAP1 POP SWAP2 SWAP1 POP JUMP JUMPDEST PUSH0 PUSH2 0x162D DUP3 PUSH2 0x15C8 JUMP JUMPDEST PUSH2 0x1637 DUP2 DUP6 PUSH2 0x15D2 JUMP JUMPDEST SWAP4 POP PUSH2 0x1642 DUP4 PUSH2 0x15E2 JUMP JUMPDEST DUP1 PUSH0 JUMPDEST DUP4 DUP2 LT ISZERO PUSH2 0x1672 JUMPI DUP2 MLOAD PUSH2 0x1659 DUP9 DUP3 PUSH2 0x1600 JUMP JUMPDEST SWAP8 POP PUSH2 0x1664 DUP4 PUSH2 0x1617 JUMP JUMPDEST SWAP3 POP POP PUSH1 0x1 DUP2 ADD SWAP1 POP PUSH2 0x1645 JUMP JUMPDEST POP DUP6 SWAP4 POP POP POP POP SWAP3 SWAP2 POP POP JUMP JUMPDEST PUSH0 PUSH1 0x40 DUP3 ADD SWAP1 POP DUP2 DUP2 SUB PUSH0 DUP4 ADD MSTORE PUSH2 0x1697 DUP2 DUP6 PUSH2 0x1623 JUMP JUMPDEST SWAP1 POP DUP2 DUP2 SUB PUSH1 0x20 DUP4 ADD MSTORE PUSH2 0x16AB DUP2 DUP5 PUSH2 0x154C JUMP JUMPDEST SWAP1 POP SWAP4 SWAP3 POP POP POP JUMP JUMPDEST PUSH2 0x16BD DUP2 PUSH2 0x13B0 JUMP JUMPDEST DUP3 MSTORE POP POP JUMP JUMPDEST PUSH0 PUSH1 0x60 DUP3 ADD SWAP1 POP DUP2 DUP2 SUB PUSH0 DUP4 ADD MSTORE PUSH2 0x16DB DUP2 DUP7 PUSH2 0x154C JUMP JUMPDEST SWAP1 POP DUP2 DUP2 SUB PUSH1 0x20 DUP4 ADD MSTORE PUSH2 0x16EF DUP2 DUP6 PUSH2 0x154C JUMP JUMPDEST SWAP1 POP PUSH2 0x16FE PUSH1 0x40 DUP4 ADD DUP5 PUSH2 0x16B4 JUMP JUMPDEST SWAP5 SWAP4 POP POP POP POP JUMP JUMPDEST PUSH0 DUP1 REVERT JUMPDEST PUSH0 PUSH1 0x1F NOT PUSH1 0x1F DUP4 ADD AND SWAP1 POP SWAP2 SWAP1 POP JUMP JUMPDEST PUSH32 0x4E487B7100000000000000000000000000000000000000000000000000000000 PUSH0 MSTORE PUSH1 0x41 PUSH1 0x4 MSTORE PUSH1 0x24 PUSH0 REVERT JUMPDEST PUSH2 0x1750 DUP3 PUSH2 0x170A JUMP JUMPDEST DUP2 ADD DUP2 DUP2 LT PUSH8 0xFFFFFFFFFFFFFFFF DUP3 GT OR ISZERO PUSH2 0x176F JUMPI PUSH2 0x176E PUSH2 0x171A JUMP JUMPDEST JUMPDEST DUP1 PUSH1 0x40 MSTORE POP POP POP JUMP JUMPDEST PUSH0 PUSH2 0x1781 PUSH2 0x139F JUMP JUMPDEST SWAP1 POP PUSH2 0x178D DUP3 DUP3 PUSH2 0x1747 JUMP JUMPDEST SWAP2 SWAP1 POP JUMP JUMPDEST PUSH0 PUSH8 0xFFFFFFFFFFFFFFFF DUP3 GT ISZERO PUSH2 0x17AC JUMPI PUSH2 0x17AB PUSH2 0x171A JUMP JUMPDEST JUMPDEST PUSH1 0x20 DUP3 MUL SWAP1 POP PUSH1 0x20 DUP2 ADD SWAP1 POP SWAP2 SWAP1 POP JUMP JUMPDEST PUSH0 DUP1 REVERT JUMPDEST PUSH0 PUSH2 0x17D3 PUSH2 0x17CE DUP5 PUSH2 0x1792 JUMP JUMPDEST PUSH2 0x1778 JUMP JUMPDEST SWAP1 POP DUP1 DUP4 DUP3 MSTORE PUSH1 0x20 DUP3 ADD SWAP1 POP PUSH1 0x20 DUP5 MUL DUP4 ADD DUP6 DUP2 GT ISZERO PUSH2 0x17F6 JUMPI PUSH2 0x17F5 PUSH2 0x17BD JUMP JUMPDEST JUMPDEST DUP4 JUMPDEST DUP2 DUP2 LT ISZERO PUSH2 0x181F JUMPI DUP1 PUSH2 0x180B DUP9 DUP3 PUSH2 0x13CF JUMP JUMPDEST DUP5 MSTORE PUSH1 0x20 DUP5 ADD SWAP4 POP POP PUSH1 0x20 DUP2 ADD SWAP1 POP PUSH2 0x17F8 JUMP JUMPDEST POP POP POP SWAP4 SWAP3 POP POP POP JUMP JUMPDEST PUSH0 DUP3 PUSH1 0x1F DUP4 ADD SLT PUSH2 0x183D JUMPI PUSH2 0x183C PUSH2 0x1706 JUMP JUMPDEST JUMPDEST DUP2 CALLDATALOAD PUSH2 0x184D DUP5 DUP3 PUSH1 0x20 DUP7 ADD PUSH2 0x17C1 JUMP JUMPDEST SWAP2 POP POP SWAP3 SWAP2 POP POP JUMP JUMPDEST PUSH0 DUP1 PUSH0 DUP1 PUSH1 0x80 DUP6 DUP8 SUB SLT ISZERO PUSH2 0x186E JUMPI PUSH2 0x186D PUSH2 0x13A8 JUMP JUMPDEST JUMPDEST PUSH0 PUSH2 0x187B DUP8 DUP3 DUP9 ADD PUSH2 0x13CF JUMP JUMPDEST SWAP5 POP POP PUSH1 0x20 PUSH2 0x188C DUP8 DUP3 DUP9 ADD PUSH2 0x13CF JUMP JUMPDEST SWAP4 POP POP PUSH1 0x40 PUSH2 0x189D DUP8 DUP3 DUP9 ADD PUSH2 0x13CF JUMP JUMPDEST SWAP3 POP POP PUSH1 0x60 DUP6 ADD CALLDATALOAD PUSH8 0xFFFFFFFFFFFFFFFF DUP2 GT ISZERO PUSH2 0x18BE JUMPI PUSH2 0x18BD PUSH2 0x13AC JUMP JUMPDEST JUMPDEST PUSH2 0x18CA DUP8 DUP3 DUP9 ADD PUSH2 0x1829 JUMP JUMPDEST SWAP2 POP POP SWAP3 SWAP6 SWAP2 SWAP5 POP SWAP3 POP JUMP JUMPDEST PUSH0 DUP2 SWAP1 POP SWAP2 SWAP1 POP JUMP JUMPDEST PUSH0 PUSH2 0x18F9 PUSH2 0x18F4 PUSH2 0x18EF DUP5 PUSH2 0x1433 JUMP JUMPDEST PUSH2 0x18D6 JUMP JUMPDEST PUSH2 0x1433 JUMP JUMPDEST SWAP1 POP SWAP2 SWAP1 POP JUMP JUMPDEST PUSH0 PUSH2 0x190A DUP3 PUSH2 0x18DF JUMP JUMPDEST SWAP1 POP SWAP2 SWAP1 POP JUMP JUMPDEST PUSH0 PUSH2 0x191B DUP3 PUSH2 0x1900 JUMP JUMPDEST SWAP1 POP SWAP2 SWAP1 POP JUMP JUMPDEST PUSH2 0x192B DUP2 PUSH2 0x1911 JUMP JUMPDEST DUP3 MSTORE POP POP JUMP JUMPDEST PUSH0 PUSH1 0x20 DUP3 ADD SWAP1 POP PUSH2 0x1944 PUSH0 DUP4 ADD DUP5 PUSH2 0x1922 JUMP JUMPDEST SWAP3 SWAP2 POP POP JUMP JUMPDEST PUSH0 PUSH1 0x40 DUP3 ADD SWAP1 POP PUSH2 0x195D PUSH0 DUP4 ADD DUP6 PUSH2 0x16B4 JUMP JUMPDEST PUSH2 0x196A PUSH1 0x20 DUP4 ADD DUP5 PUSH2 0x16B4 JUMP JUMPDEST SWAP4 SWAP3 POP POP POP JUMP JUMPDEST PUSH0 PUSH8 0xFFFFFFFFFFFFFFFF DUP3 GT ISZERO PUSH2 0x198B JUMPI PUSH2 0x198A PUSH2 0x171A JUMP JUMPDEST JUMPDEST PUSH1 0x20 DUP3 MUL SWAP1 POP PUSH1 0x20 DUP2 ADD SWAP1 POP SWAP2 SWAP1 POP JUMP JUMPDEST PUSH0 DUP1 REVERT JUMPDEST PUSH0 DUP1 REVERT JUMPDEST PUSH0 PUSH8 0xFFFFFFFFFFFFFFFF DUP3 GT ISZERO PUSH2 0x19BE JUMPI PUSH2 0x19BD PUSH2 0x171A JUMP JUMPDEST JUMPDEST PUSH1 0x20 DUP3 MUL SWAP1 POP PUSH1 0x20 DUP2 ADD SWAP1 POP SWAP2 SWAP1 POP JUMP JUMPDEST PUSH0 DUP2 MLOAD SWAP1 POP PUSH2 0x19DD DUP2 PUSH2 0x1463 JUMP JUMPDEST SWAP3 SWAP2 POP POP JUMP JUMPDEST PUSH0 PUSH2 0x19F5 PUSH2 0x19F0 DUP5 PUSH2 0x19A4 JUMP JUMPDEST PUSH2 0x1778 JUMP JUMPDEST SWAP1 POP DUP1 DUP4 DUP3 MSTORE PUSH1 0x20 DUP3 ADD SWAP1 POP PUSH1 0x20 DUP5 MUL DUP4 ADD DUP6 DUP2 GT ISZERO PUSH2 0x1A18 JUMPI PUSH2 0x1A17 PUSH2 0x17BD JUMP JUMPDEST JUMPDEST DUP4 JUMPDEST DUP2 DUP2 LT ISZERO PUSH2 0x1A41 JUMPI DUP1 PUSH2 0x1A2D DUP9 DUP3 PUSH2 0x19CF JUMP JUMPDEST DUP5 MSTORE PUSH1 0x20 DUP5 ADD SWAP4 POP POP PUSH1 0x20 DUP2 ADD SWAP1 POP PUSH2 0x1A1A JUMP JUMPDEST POP POP POP SWAP4 SWAP3 POP POP POP JUMP JUMPDEST PUSH0 DUP3 PUSH1 0x1F DUP4 ADD SLT PUSH2 0x1A5F JUMPI PUSH2 0x1A5E PUSH2 0x1706 JUMP JUMPDEST JUMPDEST DUP2 MLOAD PUSH2 0x1A6F DUP5 DUP3 PUSH1 0x20 DUP7 ADD PUSH2 0x19E3 JUMP JUMPDEST SWAP2 POP POP SWAP3 SWAP2 POP POP JUMP JUMPDEST PUSH0 PUSH1 0x20 DUP3 DUP5 SUB SLT ISZERO PUSH2 0x1A8D JUMPI PUSH2 0x1A8C PUSH2 0x199C JUMP JUMPDEST JUMPDEST PUSH2 0x1A97 PUSH1 0x20 PUSH2 0x1778 JUMP JUMPDEST SWAP1 POP PUSH0 DUP3 ADD MLOAD PUSH8 0xFFFFFFFFFFFFFFFF DUP2 GT ISZERO PUSH2 0x1AB6 JUMPI PUSH2 0x1AB5 PUSH2 0x19A0 JUMP JUMPDEST JUMPDEST PUSH2 0x1AC2 DUP5 DUP3 DUP6 ADD PUSH2 0x1A4B JUMP JUMPDEST PUSH0 DUP4 ADD MSTORE POP SWAP3 SWAP2 POP POP JUMP JUMPDEST PUSH0 PUSH2 0x1ADF PUSH2 0x1ADA DUP5 PUSH2 0x1971 JUMP JUMPDEST PUSH2 0x1778 JUMP JUMPDEST SWAP1 POP DUP1 DUP4 DUP3 MSTORE PUSH1 0x20 DUP3 ADD SWAP1 POP PUSH1 0x20 DUP5 MUL DUP4 ADD DUP6 DUP2 GT ISZERO PUSH2 0x1B02 JUMPI PUSH2 0x1B01 PUSH2 0x17BD JUMP JUMPDEST JUMPDEST DUP4 JUMPDEST DUP2 DUP2 LT ISZERO PUSH2 0x1B49 JUMPI DUP1 MLOAD PUSH8 0xFFFFFFFFFFFFFFFF DUP2 GT ISZERO PUSH2 0x1B27 JUMPI PUSH2 0x1B26 PUSH2 0x1706 JUMP JUMPDEST JUMPDEST DUP1 DUP7 ADD PUSH2 0x1B34 DUP10 DUP3 PUSH2 0x1A78 JUMP JUMPDEST DUP6 MSTORE PUSH1 0x20 DUP6 ADD SWAP5 POP POP POP PUSH1 0x20 DUP2 ADD SWAP1 POP PUSH2 0x1B04 JUMP JUMPDEST POP POP POP SWAP4 SWAP3 POP POP POP JUMP JUMPDEST PUSH0 DUP3 PUSH1 0x1F DUP4 ADD SLT PUSH2 0x1B67 JUMPI PUSH2 0x1B66 PUSH2 0x1706 JUMP JUMPDEST JUMPDEST DUP2 MLOAD PUSH2 0x1B77 DUP5 DUP3 PUSH1 0x20 DUP7 ADD PUSH2 0x1ACD JUMP JUMPDEST SWAP2 POP POP SWAP3 SWAP2 POP POP JUMP JUMPDEST PUSH0 PUSH1 0x20 DUP3 DUP5 SUB SLT ISZERO PUSH2 0x1B95 JUMPI PUSH2 0x1B94 PUSH2 0x13A8 JUMP JUMPDEST JUMPDEST PUSH0 DUP3 ADD MLOAD PUSH8 0xFFFFFFFFFFFFFFFF DUP2 GT ISZERO PUSH2 0x1BB2 JUMPI PUSH2 0x1BB1 PUSH2 0x13AC JUMP JUMPDEST JUMPDEST PUSH2 0x1BBE DUP5 DUP3 DUP6 ADD PUSH2 0x1B53 JUMP JUMPDEST SWAP2 POP POP SWAP3 SWAP2 POP POP JUMP JUMPDEST PUSH0 DUP3 DUP3 MSTORE PUSH1 0x20 DUP3 ADD SWAP1 POP SWAP3 SWAP2 POP POP JUMP JUMPDEST PUSH32 0x496E76616C69642067726F757020494400000000000000000000000000000000 PUSH0 DUP3 ADD MSTORE POP JUMP JUMPDEST PUSH0 PUSH2 0x1C0B PUSH1 0x10 DUP4 PUSH2 0x1BC7 JUMP JUMPDEST SWAP2 POP PUSH2 0x1C16 DUP3 PUSH2 0x1BD7 JUMP JUMPDEST PUSH1 0x20 DUP3 ADD SWAP1 POP SWAP2 SWAP1 POP JUMP JUMPDEST PUSH0 PUSH1 0x20 DUP3 ADD SWAP1 POP DUP2 DUP2 SUB PUSH0 DUP4 ADD MSTORE PUSH2 0x1C38 DUP2 PUSH2 0x1BFF JUMP JUMPDEST SWAP1 POP SWAP2 SWAP1 POP JUMP JUMPDEST PUSH32 0x4E487B7100000000000000000000000000000000000000000000000000000000 PUSH0 MSTORE PUSH1 0x32 PUSH1 0x4 MSTORE PUSH1 0x24 PUSH0 REVERT JUMPDEST PUSH32 0x47726F757020646F6573206E6F74206578697374000000000000000000000000 PUSH0 DUP3 ADD MSTORE POP JUMP JUMPDEST PUSH0 PUSH2 0x1CA0 PUSH1 0x14 DUP4 PUSH2 0x1BC7 JUMP JUMPDEST SWAP2 POP PUSH2 0x1CAB DUP3 PUSH2 0x1C6C JUMP JUMPDEST PUSH1 0x20 DUP3 ADD SWAP1 POP SWAP2 SWAP1 POP JUMP JUMPDEST PUSH0 PUSH1 0x20 DUP3 ADD SWAP1 POP DUP2 DUP2 SUB PUSH0 DUP4 ADD MSTORE PUSH2 0x1CCD DUP2 PUSH2 0x1C94 JUMP JUMPDEST SWAP1 POP SWAP2 SWAP1 POP JUMP JUMPDEST PUSH32 0x4E6F7420616C6C206D656D626572732068617665207375626D69747465642072 PUSH0 DUP3 ADD MSTORE PUSH32 0x616E6B696E677300000000000000000000000000000000000000000000000000 PUSH1 0x20 DUP3 ADD MSTORE POP JUMP JUMPDEST PUSH0 PUSH2 0x1D2E PUSH1 0x27 DUP4 PUSH2 0x1BC7 JUMP JUMPDEST SWAP2 POP PUSH2 0x1D39 DUP3 PUSH2 0x1CD4 JUMP JUMPDEST PUSH1 0x40 DUP3 ADD SWAP1 POP SWAP2 SWAP1 POP JUMP JUMPDEST PUSH0 PUSH1 0x20 DUP3 ADD SWAP1 POP DUP2 DUP2 SUB PUSH0 DUP4 ADD MSTORE PUSH2 0x1D5B DUP2 PUSH2 0x1D22 JUMP JUMPDEST SWAP1 POP SWAP2 SWAP1 POP JUMP JUMPDEST PUSH32 0x5472616E7369656E742073636F726520666F72206D656D626572000000000000 PUSH0 DUP3 ADD MSTORE POP JUMP JUMPDEST PUSH0 PUSH2 0x1D96 PUSH1 0x1A DUP4 PUSH2 0x1BC7 JUMP JUMPDEST SWAP2 POP PUSH2 0x1DA1 DUP3 PUSH2 0x1D62 JUMP JUMPDEST PUSH1 0x20 DUP3 ADD SWAP1 POP SWAP2 SWAP1 POP JUMP JUMPDEST PUSH0 PUSH1 0x40 DUP3 ADD SWAP1 POP DUP2 DUP2 SUB PUSH0 DUP4 ADD MSTORE PUSH2 0x1DC3 DUP2 PUSH2 0x1D8A JUMP JUMPDEST SWAP1 POP PUSH2 0x1DD2 PUSH1 0x20 DUP4 ADD DUP5 PUSH2 0x16B4 JUMP JUMPDEST SWAP3 SWAP2 POP POP JUMP JUMPDEST PUSH0 PUSH1 0x60 DUP3 ADD SWAP1 POP PUSH2 0x1DEB PUSH0 DUP4 ADD DUP7 PUSH2 0x16B4 JUMP JUMPDEST PUSH2 0x1DF8 PUSH1 0x20 DUP4 ADD DUP6 PUSH2 0x16B4 JUMP JUMPDEST DUP2 DUP2 SUB PUSH1 0x40 DUP4 ADD MSTORE PUSH2 0x1E0A DUP2 DUP5 PUSH2 0x154C JUMP JUMPDEST SWAP1 POP SWAP5 SWAP4 POP POP POP POP JUMP JUMPDEST PUSH32 0x52616E6B696E67206D75737420696E636C75646520616C6C2067726F7570206D PUSH0 DUP3 ADD MSTORE PUSH32 0x656D626572730000000000000000000000000000000000000000000000000000 PUSH1 0x20 DUP3 ADD MSTORE POP JUMP JUMPDEST PUSH0 PUSH2 0x1E6E PUSH1 0x26 DUP4 PUSH2 0x1BC7 JUMP JUMPDEST SWAP2 POP PUSH2 0x1E79 DUP3 PUSH2 0x1E14 JUMP JUMPDEST PUSH1 0x40 DUP3 ADD SWAP1 POP SWAP2 SWAP1 POP JUMP JUMPDEST PUSH0 PUSH1 0x20 DUP3 ADD SWAP1 POP DUP2 DUP2 SUB PUSH0 DUP4 ADD MSTORE PUSH2 0x1E9B DUP2 PUSH2 0x1E62 JUMP JUMPDEST SWAP1 POP SWAP2 SWAP1 POP JUMP JUMPDEST PUSH32 0x53656E646572206E6F742070617274206F66207468652067726F757000000000 PUSH0 DUP3 ADD MSTORE POP JUMP JUMPDEST PUSH0 PUSH2 0x1ED6 PUSH1 0x1C DUP4 PUSH2 0x1BC7 JUMP JUMPDEST SWAP2 POP PUSH2 0x1EE1 DUP3 PUSH2 0x1EA2 JUMP JUMPDEST PUSH1 0x20 DUP3 ADD SWAP1 POP SWAP2 SWAP1 POP JUMP JUMPDEST PUSH0 PUSH1 0x20 DUP3 ADD SWAP1 POP DUP2 DUP2 SUB PUSH0 DUP4 ADD MSTORE PUSH2 0x1F03 DUP2 PUSH2 0x1ECA JUMP JUMPDEST SWAP1 POP SWAP2 SWAP1 POP JUMP JUMPDEST PUSH32 0x52616E6B696E6720616C7265616479207375626D697474656400000000000000 PUSH0 DUP3 ADD MSTORE POP JUMP JUMPDEST PUSH0 PUSH2 0x1F3E PUSH1 0x19 DUP4 PUSH2 0x1BC7 JUMP JUMPDEST SWAP2 POP PUSH2 0x1F49 DUP3 PUSH2 0x1F0A JUMP JUMPDEST PUSH1 0x20 DUP3 ADD SWAP1 POP SWAP2 SWAP1 POP JUMP JUMPDEST PUSH0 PUSH1 0x20 DUP3 ADD SWAP1 POP DUP2 DUP2 SUB PUSH0 DUP4 ADD MSTORE PUSH2 0x1F6B DUP2 PUSH2 0x1F32 JUMP JUMPDEST SWAP1 POP SWAP2 SWAP1 POP JUMP JUMPDEST PUSH32 0x4E487B7100000000000000000000000000000000000000000000000000000000 PUSH0 MSTORE PUSH1 0x11 PUSH1 0x4 MSTORE PUSH1 0x24 PUSH0 REVERT JUMPDEST PUSH0 PUSH2 0x1FA9 DUP3 PUSH2 0x13B0 JUMP JUMPDEST SWAP2 POP PUSH2 0x1FB4 DUP4 PUSH2 0x13B0 JUMP JUMPDEST SWAP3 POP DUP3 DUP3 MUL PUSH2 0x1FC2 DUP2 PUSH2 0x13B0 JUMP JUMPDEST SWAP2 POP DUP3 DUP3 DIV DUP5 EQ DUP4 ISZERO OR PUSH2 0x1FD9 JUMPI PUSH2 0x1FD8 PUSH2 0x1F72 JUMP JUMPDEST JUMPDEST POP SWAP3 SWAP2 POP POP JUMP JUMPDEST PUSH32 0x4E487B7100000000000000000000000000000000000000000000000000000000 PUSH0 MSTORE PUSH1 0x12 PUSH1 0x4 MSTORE PUSH1 0x24 PUSH0 REVERT JUMPDEST PUSH0 PUSH2 0x2017 DUP3 PUSH2 0x13B0 JUMP JUMPDEST SWAP2 POP PUSH2 0x2022 DUP4 PUSH2 0x13B0 JUMP JUMPDEST SWAP3 POP DUP3 PUSH2 0x2032 JUMPI PUSH2 0x2031 PUSH2 0x1FE0 JUMP JUMPDEST JUMPDEST DUP3 DUP3 DIV SWAP1 POP SWAP3 SWAP2 POP POP JUMP JUMPDEST PUSH0 PUSH2 0x2047 DUP3 PUSH2 0x13B0 JUMP JUMPDEST SWAP2 POP PUSH2 0x2052 DUP4 PUSH2 0x13B0 JUMP JUMPDEST SWAP3 POP DUP3 DUP3 SUB SWAP1 POP DUP2 DUP2 GT ISZERO PUSH2 0x206A JUMPI PUSH2 0x2069 PUSH2 0x1F72 JUMP JUMPDEST JUMPDEST SWAP3 SWAP2 POP POP JUMP JUMPDEST PUSH0 PUSH2 0x207A DUP3 PUSH2 0x13B0 JUMP JUMPDEST SWAP2 POP PUSH2 0x2085 DUP4 PUSH2 0x13B0 JUMP JUMPDEST SWAP3 POP DUP3 DUP3 ADD SWAP1 POP DUP1 DUP3 GT ISZERO PUSH2 0x209D JUMPI PUSH2 0x209C PUSH2 0x1F72 JUMP JUMPDEST JUMPDEST SWAP3 SWAP2 POP POP JUMP JUMPDEST PUSH0 DUP2 SWAP1 POP SWAP2 SWAP1 POP JUMP JUMPDEST PUSH0 PUSH2 0x20B6 DUP3 PUSH2 0x20A3 JUMP JUMPDEST SWAP2 POP PUSH2 0x20C1 DUP4 PUSH2 0x20A3 JUMP JUMPDEST SWAP3 POP DUP3 DUP3 SUB SWAP1 POP DUP2 DUP2 SLT PUSH0 DUP5 SLT AND DUP3 DUP3 SGT PUSH0 DUP6 SLT ISZERO AND OR ISZERO PUSH2 0x20E6 JUMPI PUSH2 0x20E5 PUSH2 0x1F72 JUMP JUMPDEST JUMPDEST SWAP3 SWAP2 POP POP JUMP JUMPDEST PUSH0 PUSH2 0x20F6 DUP3 PUSH2 0x20A3 JUMP JUMPDEST SWAP2 POP PUSH2 0x2101 DUP4 PUSH2 0x20A3 JUMP JUMPDEST SWAP3 POP DUP3 DUP3 MUL PUSH2 0x210F DUP2 PUSH2 0x20A3 JUMP JUMPDEST SWAP2 POP PUSH32 0x8000000000000000000000000000000000000000000000000000000000000000 DUP5 EQ PUSH0 DUP5 SLT AND ISZERO PUSH2 0x2146 JUMPI PUSH2 0x2145 PUSH2 0x1F72 JUMP JUMPDEST JUMPDEST DUP3 DUP3 SDIV DUP5 EQ DUP4 ISZERO OR PUSH2 0x215B JUMPI PUSH2 0x215A PUSH2 0x1F72 JUMP JUMPDEST JUMPDEST POP SWAP3 SWAP2 POP POP JUMP INVALID LOG2 PUSH5 0x6970667358 0x22 SLT KECCAK256 PUSH11 0xCD25059808BF559A0B2D7F SWAP1 SELFBALANCE GAS PUSH26 0x3E89A396FF6BF39AA3395104F46D7A1764736F6C634300081A00 CALLER "
				},
				"gasEstimates": {
					"creation": {
						"codeDepositCost": "1720000",
						"executionCost": "infinite",
						"totalCost": "infinite"
					},
					"external": {
						"contributionsContract()": "infinite",
						"determineConsensus(uint256,uint256,uint256)": "infinite",
						"getConsensusRanking(uint256,uint256,uint256)": "infinite",
						"getRanking(uint256,uint256,uint256,address)": "infinite",
						"getTransientScores(uint256,uint256,uint256)": "infinite",
						"submitRanking(uint256,uint256,uint256,uint256[])": "infinite"
					},
					"internal": {
						"allMembersSubmitted(uint256,uint256,uint256,struct ICommunityGovernanceContributions.Group memory)": "infinite",
						"calculateMaxVariance(uint256)": "infinite",
						"calculateMean(uint256[] memory)": "infinite",
						"calculateTransientScore(uint256,uint256,uint256,uint256,struct ICommunityGovernanceContributions.Group memory)": "infinite",
						"calculateVariance(uint256[] memory)": "infinite",
						"isPartOfGroup(struct ICommunityGovernanceContributions.Group memory,address)": "infinite",
						"sortByScore(uint256[] memory)": "infinite"
					}
				},
				"methodIdentifiers": {
					"contributionsContract()": "de04bbd2",
					"determineConsensus(uint256,uint256,uint256)": "17dd9e73",
					"getConsensusRanking(uint256,uint256,uint256)": "415b5d7d",
					"getRanking(uint256,uint256,uint256,address)": "2b3dffeb",
					"getTransientScores(uint256,uint256,uint256)": "32a7adb0",
					"submitRanking(uint256,uint256,uint256,uint256[])": "b74ca713"
				}
			},
			"storageLayout": {
				"storage": [
					{
						"astId": 21,
						"contract": "contracts/rankandconsensus.sol:CommunityGovernanceRankings",
						"label": "contributionsContract",
						"offset": 0,
						"slot": "0",
						"type": "t_contract(ICommunityGovernanceContributions)17"
					},
					{
						"astId": 48,
						"contract": "contracts/rankandconsensus.sol:CommunityGovernanceRankings",
						"label": "rankings",
						"offset": 0,
						"slot": "1",
						"type": "t_mapping(t_uint256,t_mapping(t_uint256,t_mapping(t_uint256,t_mapping(t_address,t_struct(Ranking)28_storage))))"
					},
					{
						"astId": 57,
						"contract": "contracts/rankandconsensus.sol:CommunityGovernanceRankings",
						"label": "consensusRankings",
						"offset": 0,
						"slot": "2",
						"type": "t_mapping(t_uint256,t_mapping(t_uint256,t_mapping(t_uint256,t_struct(ConsensusRanking)37_storage)))"
					}
				],
				"types": {
					"t_address": {
						"encoding": "inplace",
						"label": "address",
						"numberOfBytes": "20"
					},
					"t_array(t_uint256)dyn_storage": {
						"base": "t_uint256",
						"encoding": "dynamic_array",
						"label": "uint256[]",
						"numberOfBytes": "32"
					},
					"t_contract(ICommunityGovernanceContributions)17": {
						"encoding": "inplace",
						"label": "contract ICommunityGovernanceContributions",
						"numberOfBytes": "20"
					},
					"t_mapping(t_address,t_struct(Ranking)28_storage)": {
						"encoding": "mapping",
						"key": "t_address",
						"label": "mapping(address => struct CommunityGovernanceRankings.Ranking)",
						"numberOfBytes": "32",
						"value": "t_struct(Ranking)28_storage"
					},
					"t_mapping(t_uint256,t_mapping(t_address,t_struct(Ranking)28_storage))": {
						"encoding": "mapping",
						"key": "t_uint256",
						"label": "mapping(uint256 => mapping(address => struct CommunityGovernanceRankings.Ranking))",
						"numberOfBytes": "32",
						"value": "t_mapping(t_address,t_struct(Ranking)28_storage)"
					},
					"t_mapping(t_uint256,t_mapping(t_uint256,t_mapping(t_address,t_struct(Ranking)28_storage)))": {
						"encoding": "mapping",
						"key": "t_uint256",
						"label": "mapping(uint256 => mapping(uint256 => mapping(address => struct CommunityGovernanceRankings.Ranking)))",
						"numberOfBytes": "32",
						"value": "t_mapping(t_uint256,t_mapping(t_address,t_struct(Ranking)28_storage))"
					},
					"t_mapping(t_uint256,t_mapping(t_uint256,t_mapping(t_uint256,t_mapping(t_address,t_struct(Ranking)28_storage))))": {
						"encoding": "mapping",
						"key": "t_uint256",
						"label": "mapping(uint256 => mapping(uint256 => mapping(uint256 => mapping(address => struct CommunityGovernanceRankings.Ranking))))",
						"numberOfBytes": "32",
						"value": "t_mapping(t_uint256,t_mapping(t_uint256,t_mapping(t_address,t_struct(Ranking)28_storage)))"
					},
					"t_mapping(t_uint256,t_mapping(t_uint256,t_mapping(t_uint256,t_struct(ConsensusRanking)37_storage)))": {
						"encoding": "mapping",
						"key": "t_uint256",
						"label": "mapping(uint256 => mapping(uint256 => mapping(uint256 => struct CommunityGovernanceRankings.ConsensusRanking)))",
						"numberOfBytes": "32",
						"value": "t_mapping(t_uint256,t_mapping(t_uint256,t_struct(ConsensusRanking)37_storage))"
					},
					"t_mapping(t_uint256,t_mapping(t_uint256,t_struct(ConsensusRanking)37_storage))": {
						"encoding": "mapping",
						"key": "t_uint256",
						"label": "mapping(uint256 => mapping(uint256 => struct CommunityGovernanceRankings.ConsensusRanking))",
						"numberOfBytes": "32",
						"value": "t_mapping(t_uint256,t_struct(ConsensusRanking)37_storage)"
					},
					"t_mapping(t_uint256,t_struct(ConsensusRanking)37_storage)": {
						"encoding": "mapping",
						"key": "t_uint256",
						"label": "mapping(uint256 => struct CommunityGovernanceRankings.ConsensusRanking)",
						"numberOfBytes": "32",
						"value": "t_struct(ConsensusRanking)37_storage"
					},
					"t_struct(ConsensusRanking)37_storage": {
						"encoding": "inplace",
						"label": "struct CommunityGovernanceRankings.ConsensusRanking",
						"members": [
							{
								"astId": 31,
								"contract": "contracts/rankandconsensus.sol:CommunityGovernanceRankings",
								"label": "rankedScores",
								"offset": 0,
								"slot": "0",
								"type": "t_array(t_uint256)dyn_storage"
							},
							{
								"astId": 34,
								"contract": "contracts/rankandconsensus.sol:CommunityGovernanceRankings",
								"label": "transientScores",
								"offset": 0,
								"slot": "1",
								"type": "t_array(t_uint256)dyn_storage"
							},
							{
								"astId": 36,
								"contract": "contracts/rankandconsensus.sol:CommunityGovernanceRankings",
								"label": "timestamp",
								"offset": 0,
								"slot": "2",
								"type": "t_uint256"
							}
						],
						"numberOfBytes": "96"
					},
					"t_struct(Ranking)28_storage": {
						"encoding": "inplace",
						"label": "struct CommunityGovernanceRankings.Ranking",
						"members": [
							{
								"astId": 27,
								"contract": "contracts/rankandconsensus.sol:CommunityGovernanceRankings",
								"label": "rankedScores",
								"offset": 0,
								"slot": "0",
								"type": "t_array(t_uint256)dyn_storage"
							}
						],
						"numberOfBytes": "32"
					},
					"t_uint256": {
						"encoding": "inplace",
						"label": "uint256",
						"numberOfBytes": "32"
					}
				}
			},
			"userdoc": {
				"kind": "user",
				"methods": {},
				"version": 1
			}
		}
	}
}