{
	"contracts/consensusranking.sol": {
		"SimpleConsensus": {
			"abi": [
				{
					"inputs": [
						{
							"internalType": "address[]",
							"name": "_members",
							"type": "address[]"
						}
					],
					"stateMutability": "nonpayable",
					"type": "constructor"
				},
				{
					"anonymous": false,
					"inputs": [
						{
							"indexed": false,
							"internalType": "uint256[]",
							"name": "consensusRanking",
							"type": "uint256[]"
						}
					],
					"name": "ConsensusReached",
					"type": "event"
				},
				{
					"anonymous": false,
					"inputs": [
						{
							"indexed": false,
							"internalType": "string",
							"name": "message",
							"type": "string"
						},
						{
							"indexed": false,
							"internalType": "uint256",
							"name": "value",
							"type": "uint256"
						}
					],
					"name": "DebugLog",
					"type": "event"
				},
				{
					"anonymous": false,
					"inputs": [
						{
							"indexed": false,
							"internalType": "address[]",
							"name": "members",
							"type": "address[]"
						}
					],
					"name": "GroupInitialized",
					"type": "event"
				},
				{
					"anonymous": false,
					"inputs": [
						{
							"indexed": true,
							"internalType": "address",
							"name": "submitter",
							"type": "address"
						},
						{
							"indexed": false,
							"internalType": "uint256[]",
							"name": "ranking",
							"type": "uint256[]"
						}
					],
					"name": "RankingSubmitted",
					"type": "event"
				},
				{
					"inputs": [
						{
							"internalType": "uint256",
							"name": "",
							"type": "uint256"
						}
					],
					"name": "consensusRanking",
					"outputs": [
						{
							"internalType": "uint256",
							"name": "",
							"type": "uint256"
						}
					],
					"stateMutability": "view",
					"type": "function"
				},
				{
					"inputs": [],
					"name": "determineConsensus",
					"outputs": [],
					"stateMutability": "nonpayable",
					"type": "function"
				},
				{
					"inputs": [],
					"name": "getConsensusRanking",
					"outputs": [
						{
							"internalType": "uint256[]",
							"name": "",
							"type": "uint256[]"
						}
					],
					"stateMutability": "view",
					"type": "function"
				},
				{
					"inputs": [],
					"name": "getGroupMembers",
					"outputs": [
						{
							"internalType": "address[]",
							"name": "",
							"type": "address[]"
						}
					],
					"stateMutability": "view",
					"type": "function"
				},
				{
					"inputs": [
						{
							"internalType": "address",
							"name": "_member",
							"type": "address"
						}
					],
					"name": "getRanking",
					"outputs": [
						{
							"internalType": "uint256[]",
							"name": "",
							"type": "uint256[]"
						}
					],
					"stateMutability": "view",
					"type": "function"
				},
				{
					"inputs": [
						{
							"internalType": "uint256[]",
							"name": "_ranking",
							"type": "uint256[]"
						}
					],
					"name": "submitRanking",
					"outputs": [],
					"stateMutability": "nonpayable",
					"type": "function"
				}
			],
			"devdoc": {
				"custom:dev-run-script": "/script/consensusranking.js",
				"details": "Manages community creation, membership, and contributions",
				"kind": "dev",
				"methods": {},
				"title": "CommunityGovernance",
				"version": 1
			},
			"evm": {
				"assembly": "    /* \"contracts/consensusranking.sol\":213:5613  contract SimpleConsensus {... */\n  mstore(0x40, 0x80)\n    /* \"contracts/consensusranking.sol\":701:898  constructor(address[] memory _members) {... */\n  callvalue\n  dup1\n  iszero\n  tag_1\n  jumpi\n  0x00\n  dup1\n  revert\ntag_1:\n  pop\n  mload(0x40)\n  sub(codesize, bytecodeSize)\n  dup1\n  bytecodeSize\n  dup4\n  codecopy\n  dup2\n  dup2\n  add\n  0x40\n  mstore\n  dup2\n  add\n  swap1\n  tag_2\n  swap2\n  swap1\n  tag_3\n  jump\t// in\ntag_2:\n    /* \"contracts/consensusranking.sol\":776:777  1 */\n  0x01\n    /* \"contracts/consensusranking.sol\":758:766  _members */\n  dup2\n    /* \"contracts/consensusranking.sol\":758:773  _members.length */\n  mload\n    /* \"contracts/consensusranking.sol\":758:777  _members.length > 1 */\n  gt\n    /* \"contracts/consensusranking.sol\":750:816  require(_members.length > 1, \"Group must have at least 2 members\") */\n  tag_6\n  jumpi\n  mload(0x40)\n  0x08c379a000000000000000000000000000000000000000000000000000000000\n  dup2\n  mstore\n  0x04\n  add\n  tag_7\n  swap1\n  tag_8\n  jump\t// in\ntag_7:\n  mload(0x40)\n  dup1\n  swap2\n  sub\n  swap1\n  revert\ntag_6:\n    /* \"contracts/consensusranking.sol\":842:850  _members */\n  dup1\n    /* \"contracts/consensusranking.sol\":826:831  group */\n  0x00\n    /* \"contracts/consensusranking.sol\":826:839  group.members */\n  dup1\n  add\n    /* \"contracts/consensusranking.sol\":826:850  group.members = _members */\n  swap1\n  dup1\n  mload\n  swap1\n  0x20\n  add\n  swap1\n  tag_9\n  swap3\n  swap2\n  swap1\n  tag_10\n  jump\t// in\ntag_9:\n  pop\n    /* \"contracts/consensusranking.sol\":865:891  GroupInitialized(_members) */\n  0x21db91fd583c9a8ebabc5a33349a7418a4b26017af415598b4112f3af8cb6333\n    /* \"contracts/consensusranking.sol\":882:890  _members */\n  dup2\n    /* \"contracts/consensusranking.sol\":865:891  GroupInitialized(_members) */\n  mload(0x40)\n  tag_11\n  swap2\n  swap1\n  tag_12\n  jump\t// in\ntag_11:\n  mload(0x40)\n  dup1\n  swap2\n  sub\n  swap1\n  log1\n    /* \"contracts/consensusranking.sol\":701:898  constructor(address[] memory _members) {... */\n  pop\n    /* \"contracts/consensusranking.sol\":213:5613  contract SimpleConsensus {... */\n  jump(tag_13)\ntag_10:\n  dup3\n  dup1\n  sload\n  dup3\n  dup3\n  sstore\n  swap1\n  0x00\n  mstore\n  keccak256(0x00, 0x20)\n  swap1\n  dup2\n  add\n  swap3\n  dup3\n  iszero\n  tag_14\n  jumpi\n  swap2\n  0x20\n  mul\n  dup3\n  add\ntag_15:\n  dup3\n  dup2\n  gt\n  iszero\n  tag_16\n  jumpi\n  dup3\n  mload\n  dup3\n  exp(0x0100, 0x00)\n  dup2\n  sload\n  dup2\n  0xffffffffffffffffffffffffffffffffffffffff\n  mul\n  not\n  and\n  swap1\n  dup4\n  0xffffffffffffffffffffffffffffffffffffffff\n  and\n  mul\n  or\n  swap1\n  sstore\n  pop\n  swap2\n  0x20\n  add\n  swap2\n  swap1\n  0x01\n  add\n  swap1\n  jump(tag_15)\ntag_16:\ntag_14:\n  pop\n  swap1\n  pop\n  tag_17\n  swap2\n  swap1\n  tag_18\n  jump\t// in\ntag_17:\n  pop\n  swap1\n  jump\t// out\ntag_18:\ntag_19:\n  dup1\n  dup3\n  gt\n  iszero\n  tag_20\n  jumpi\n  0x00\n  dup2\n  0x00\n  swap1\n  sstore\n  pop\n  0x01\n  add\n  jump(tag_19)\ntag_20:\n  pop\n  swap1\n  jump\t// out\n    /* \"#utility.yul\":7:82   */\ntag_21:\n    /* \"#utility.yul\":40:46   */\n  0x00\n    /* \"#utility.yul\":73:75   */\n  0x40\n    /* \"#utility.yul\":67:76   */\n  mload\n    /* \"#utility.yul\":57:76   */\n  swap1\n  pop\n    /* \"#utility.yul\":7:82   */\n  swap1\n  jump\t// out\n    /* \"#utility.yul\":88:205   */\ntag_22:\n    /* \"#utility.yul\":197:198   */\n  0x00\n    /* \"#utility.yul\":194:195   */\n  dup1\n    /* \"#utility.yul\":187:199   */\n  revert\n    /* \"#utility.yul\":211:328   */\ntag_23:\n    /* \"#utility.yul\":320:321   */\n  0x00\n    /* \"#utility.yul\":317:318   */\n  dup1\n    /* \"#utility.yul\":310:322   */\n  revert\n    /* \"#utility.yul\":334:451   */\ntag_24:\n    /* \"#utility.yul\":443:444   */\n  0x00\n    /* \"#utility.yul\":440:441   */\n  dup1\n    /* \"#utility.yul\":433:445   */\n  revert\n    /* \"#utility.yul\":457:559   */\ntag_25:\n    /* \"#utility.yul\":498:504   */\n  0x00\n    /* \"#utility.yul\":549:551   */\n  0x1f\n    /* \"#utility.yul\":545:552   */\n  not\n    /* \"#utility.yul\":540:542   */\n  0x1f\n    /* \"#utility.yul\":533:538   */\n  dup4\n    /* \"#utility.yul\":529:543   */\n  add\n    /* \"#utility.yul\":525:553   */\n  and\n    /* \"#utility.yul\":515:553   */\n  swap1\n  pop\n    /* \"#utility.yul\":457:559   */\n  swap2\n  swap1\n  pop\n  jump\t// out\n    /* \"#utility.yul\":565:745   */\ntag_26:\n    /* \"#utility.yul\":613:690   */\n  0x4e487b7100000000000000000000000000000000000000000000000000000000\n    /* \"#utility.yul\":610:611   */\n  0x00\n    /* \"#utility.yul\":603:691   */\n  mstore\n    /* \"#utility.yul\":710:714   */\n  0x41\n    /* \"#utility.yul\":707:708   */\n  0x04\n    /* \"#utility.yul\":700:715   */\n  mstore\n    /* \"#utility.yul\":734:738   */\n  0x24\n    /* \"#utility.yul\":731:732   */\n  0x00\n    /* \"#utility.yul\":724:739   */\n  revert\n    /* \"#utility.yul\":751:1032   */\ntag_27:\n    /* \"#utility.yul\":834:861   */\n  tag_55\n    /* \"#utility.yul\":856:860   */\n  dup3\n    /* \"#utility.yul\":834:861   */\n  tag_25\n  jump\t// in\ntag_55:\n    /* \"#utility.yul\":826:832   */\n  dup2\n    /* \"#utility.yul\":822:862   */\n  add\n    /* \"#utility.yul\":964:970   */\n  dup2\n    /* \"#utility.yul\":952:962   */\n  dup2\n    /* \"#utility.yul\":949:971   */\n  lt\n    /* \"#utility.yul\":928:946   */\n  0xffffffffffffffff\n    /* \"#utility.yul\":916:926   */\n  dup3\n    /* \"#utility.yul\":913:947   */\n  gt\n    /* \"#utility.yul\":910:972   */\n  or\n    /* \"#utility.yul\":907:995   */\n  iszero\n  tag_56\n  jumpi\n    /* \"#utility.yul\":975:993   */\n  tag_57\n  tag_26\n  jump\t// in\ntag_57:\n    /* \"#utility.yul\":907:995   */\ntag_56:\n    /* \"#utility.yul\":1015:1025   */\n  dup1\n    /* \"#utility.yul\":1011:1013   */\n  0x40\n    /* \"#utility.yul\":1004:1026   */\n  mstore\n    /* \"#utility.yul\":794:1032   */\n  pop\n    /* \"#utility.yul\":751:1032   */\n  pop\n  pop\n  jump\t// out\n    /* \"#utility.yul\":1038:1167   */\ntag_28:\n    /* \"#utility.yul\":1072:1078   */\n  0x00\n    /* \"#utility.yul\":1099:1119   */\n  tag_59\n  tag_21\n  jump\t// in\ntag_59:\n    /* \"#utility.yul\":1089:1119   */\n  swap1\n  pop\n    /* \"#utility.yul\":1128:1161   */\n  tag_60\n    /* \"#utility.yul\":1156:1160   */\n  dup3\n    /* \"#utility.yul\":1148:1154   */\n  dup3\n    /* \"#utility.yul\":1128:1161   */\n  tag_27\n  jump\t// in\ntag_60:\n    /* \"#utility.yul\":1038:1167   */\n  swap2\n  swap1\n  pop\n  jump\t// out\n    /* \"#utility.yul\":1173:1484   */\ntag_29:\n    /* \"#utility.yul\":1250:1254   */\n  0x00\n    /* \"#utility.yul\":1340:1358   */\n  0xffffffffffffffff\n    /* \"#utility.yul\":1332:1338   */\n  dup3\n    /* \"#utility.yul\":1329:1359   */\n  gt\n    /* \"#utility.yul\":1326:1382   */\n  iszero\n  tag_62\n  jumpi\n    /* \"#utility.yul\":1362:1380   */\n  tag_63\n  tag_26\n  jump\t// in\ntag_63:\n    /* \"#utility.yul\":1326:1382   */\ntag_62:\n    /* \"#utility.yul\":1412:1416   */\n  0x20\n    /* \"#utility.yul\":1404:1410   */\n  dup3\n    /* \"#utility.yul\":1400:1417   */\n  mul\n    /* \"#utility.yul\":1392:1417   */\n  swap1\n  pop\n    /* \"#utility.yul\":1472:1476   */\n  0x20\n    /* \"#utility.yul\":1466:1470   */\n  dup2\n    /* \"#utility.yul\":1462:1477   */\n  add\n    /* \"#utility.yul\":1454:1477   */\n  swap1\n  pop\n    /* \"#utility.yul\":1173:1484   */\n  swap2\n  swap1\n  pop\n  jump\t// out\n    /* \"#utility.yul\":1490:1607   */\ntag_30:\n    /* \"#utility.yul\":1599:1600   */\n  0x00\n    /* \"#utility.yul\":1596:1597   */\n  dup1\n    /* \"#utility.yul\":1589:1601   */\n  revert\n    /* \"#utility.yul\":1613:1739   */\ntag_31:\n    /* \"#utility.yul\":1650:1657   */\n  0x00\n    /* \"#utility.yul\":1690:1732   */\n  0xffffffffffffffffffffffffffffffffffffffff\n    /* \"#utility.yul\":1683:1688   */\n  dup3\n    /* \"#utility.yul\":1679:1733   */\n  and\n    /* \"#utility.yul\":1668:1733   */\n  swap1\n  pop\n    /* \"#utility.yul\":1613:1739   */\n  swap2\n  swap1\n  pop\n  jump\t// out\n    /* \"#utility.yul\":1745:1841   */\ntag_32:\n    /* \"#utility.yul\":1782:1789   */\n  0x00\n    /* \"#utility.yul\":1811:1835   */\n  tag_67\n    /* \"#utility.yul\":1829:1834   */\n  dup3\n    /* \"#utility.yul\":1811:1835   */\n  tag_31\n  jump\t// in\ntag_67:\n    /* \"#utility.yul\":1800:1835   */\n  swap1\n  pop\n    /* \"#utility.yul\":1745:1841   */\n  swap2\n  swap1\n  pop\n  jump\t// out\n    /* \"#utility.yul\":1847:1969   */\ntag_33:\n    /* \"#utility.yul\":1920:1944   */\n  tag_69\n    /* \"#utility.yul\":1938:1943   */\n  dup2\n    /* \"#utility.yul\":1920:1944   */\n  tag_32\n  jump\t// in\ntag_69:\n    /* \"#utility.yul\":1913:1918   */\n  dup2\n    /* \"#utility.yul\":1910:1945   */\n  eq\n    /* \"#utility.yul\":1900:1963   */\n  tag_70\n  jumpi\n    /* \"#utility.yul\":1959:1960   */\n  0x00\n    /* \"#utility.yul\":1956:1957   */\n  dup1\n    /* \"#utility.yul\":1949:1961   */\n  revert\n    /* \"#utility.yul\":1900:1963   */\ntag_70:\n    /* \"#utility.yul\":1847:1969   */\n  pop\n  jump\t// out\n    /* \"#utility.yul\":1975:2118   */\ntag_34:\n    /* \"#utility.yul\":2032:2037   */\n  0x00\n    /* \"#utility.yul\":2063:2069   */\n  dup2\n    /* \"#utility.yul\":2057:2070   */\n  mload\n    /* \"#utility.yul\":2048:2070   */\n  swap1\n  pop\n    /* \"#utility.yul\":2079:2112   */\n  tag_72\n    /* \"#utility.yul\":2106:2111   */\n  dup2\n    /* \"#utility.yul\":2079:2112   */\n  tag_33\n  jump\t// in\ntag_72:\n    /* \"#utility.yul\":1975:2118   */\n  swap3\n  swap2\n  pop\n  pop\n  jump\t// out\n    /* \"#utility.yul\":2141:2873   */\ntag_35:\n    /* \"#utility.yul\":2248:2253   */\n  0x00\n    /* \"#utility.yul\":2273:2354   */\n  tag_74\n    /* \"#utility.yul\":2289:2353   */\n  tag_75\n    /* \"#utility.yul\":2346:2352   */\n  dup5\n    /* \"#utility.yul\":2289:2353   */\n  tag_29\n  jump\t// in\ntag_75:\n    /* \"#utility.yul\":2273:2354   */\n  tag_28\n  jump\t// in\ntag_74:\n    /* \"#utility.yul\":2264:2354   */\n  swap1\n  pop\n    /* \"#utility.yul\":2374:2379   */\n  dup1\n    /* \"#utility.yul\":2403:2409   */\n  dup4\n    /* \"#utility.yul\":2396:2401   */\n  dup3\n    /* \"#utility.yul\":2389:2410   */\n  mstore\n    /* \"#utility.yul\":2437:2441   */\n  0x20\n    /* \"#utility.yul\":2430:2435   */\n  dup3\n    /* \"#utility.yul\":2426:2442   */\n  add\n    /* \"#utility.yul\":2419:2442   */\n  swap1\n  pop\n    /* \"#utility.yul\":2490:2494   */\n  0x20\n    /* \"#utility.yul\":2482:2488   */\n  dup5\n    /* \"#utility.yul\":2478:2495   */\n  mul\n    /* \"#utility.yul\":2470:2476   */\n  dup4\n    /* \"#utility.yul\":2466:2496   */\n  add\n    /* \"#utility.yul\":2519:2522   */\n  dup6\n    /* \"#utility.yul\":2511:2517   */\n  dup2\n    /* \"#utility.yul\":2508:2523   */\n  gt\n    /* \"#utility.yul\":2505:2627   */\n  iszero\n  tag_76\n  jumpi\n    /* \"#utility.yul\":2538:2617   */\n  tag_77\n  tag_30\n  jump\t// in\ntag_77:\n    /* \"#utility.yul\":2505:2627   */\ntag_76:\n    /* \"#utility.yul\":2653:2659   */\n  dup4\n    /* \"#utility.yul\":2636:2867   */\ntag_78:\n    /* \"#utility.yul\":2670:2676   */\n  dup2\n    /* \"#utility.yul\":2665:2668   */\n  dup2\n    /* \"#utility.yul\":2662:2677   */\n  lt\n    /* \"#utility.yul\":2636:2867   */\n  iszero\n  tag_80\n  jumpi\n    /* \"#utility.yul\":2745:2748   */\n  dup1\n    /* \"#utility.yul\":2774:2822   */\n  tag_81\n    /* \"#utility.yul\":2818:2821   */\n  dup9\n    /* \"#utility.yul\":2806:2816   */\n  dup3\n    /* \"#utility.yul\":2774:2822   */\n  tag_34\n  jump\t// in\ntag_81:\n    /* \"#utility.yul\":2769:2772   */\n  dup5\n    /* \"#utility.yul\":2762:2823   */\n  mstore\n    /* \"#utility.yul\":2852:2856   */\n  0x20\n    /* \"#utility.yul\":2847:2850   */\n  dup5\n    /* \"#utility.yul\":2843:2857   */\n  add\n    /* \"#utility.yul\":2836:2857   */\n  swap4\n  pop\n    /* \"#utility.yul\":2712:2867   */\n  pop\n    /* \"#utility.yul\":2696:2700   */\n  0x20\n    /* \"#utility.yul\":2691:2694   */\n  dup2\n    /* \"#utility.yul\":2687:2701   */\n  add\n    /* \"#utility.yul\":2680:2701   */\n  swap1\n  pop\n    /* \"#utility.yul\":2636:2867   */\n  jump(tag_78)\ntag_80:\n    /* \"#utility.yul\":2640:2661   */\n  pop\n    /* \"#utility.yul\":2254:2873   */\n  pop\n  pop\n    /* \"#utility.yul\":2141:2873   */\n  swap4\n  swap3\n  pop\n  pop\n  pop\n  jump\t// out\n    /* \"#utility.yul\":2896:3281   */\ntag_36:\n    /* \"#utility.yul\":2978:2983   */\n  0x00\n    /* \"#utility.yul\":3027:3030   */\n  dup3\n    /* \"#utility.yul\":3020:3024   */\n  0x1f\n    /* \"#utility.yul\":3012:3018   */\n  dup4\n    /* \"#utility.yul\":3008:3025   */\n  add\n    /* \"#utility.yul\":3004:3031   */\n  slt\n    /* \"#utility.yul\":2994:3116   */\n  tag_83\n  jumpi\n    /* \"#utility.yul\":3035:3114   */\n  tag_84\n  tag_24\n  jump\t// in\ntag_84:\n    /* \"#utility.yul\":2994:3116   */\ntag_83:\n    /* \"#utility.yul\":3145:3151   */\n  dup2\n    /* \"#utility.yul\":3139:3152   */\n  mload\n    /* \"#utility.yul\":3170:3275   */\n  tag_85\n    /* \"#utility.yul\":3271:3274   */\n  dup5\n    /* \"#utility.yul\":3263:3269   */\n  dup3\n    /* \"#utility.yul\":3256:3260   */\n  0x20\n    /* \"#utility.yul\":3248:3254   */\n  dup7\n    /* \"#utility.yul\":3244:3261   */\n  add\n    /* \"#utility.yul\":3170:3275   */\n  tag_35\n  jump\t// in\ntag_85:\n    /* \"#utility.yul\":3161:3275   */\n  swap2\n  pop\n    /* \"#utility.yul\":2984:3281   */\n  pop\n    /* \"#utility.yul\":2896:3281   */\n  swap3\n  swap2\n  pop\n  pop\n  jump\t// out\n    /* \"#utility.yul\":3287:3841   */\ntag_3:\n    /* \"#utility.yul\":3382:3388   */\n  0x00\n    /* \"#utility.yul\":3431:3433   */\n  0x20\n    /* \"#utility.yul\":3419:3428   */\n  dup3\n    /* \"#utility.yul\":3410:3417   */\n  dup5\n    /* \"#utility.yul\":3406:3429   */\n  sub\n    /* \"#utility.yul\":3402:3434   */\n  slt\n    /* \"#utility.yul\":3399:3518   */\n  iszero\n  tag_87\n  jumpi\n    /* \"#utility.yul\":3437:3516   */\n  tag_88\n  tag_22\n  jump\t// in\ntag_88:\n    /* \"#utility.yul\":3399:3518   */\ntag_87:\n    /* \"#utility.yul\":3578:3579   */\n  0x00\n    /* \"#utility.yul\":3567:3576   */\n  dup3\n    /* \"#utility.yul\":3563:3580   */\n  add\n    /* \"#utility.yul\":3557:3581   */\n  mload\n    /* \"#utility.yul\":3608:3626   */\n  0xffffffffffffffff\n    /* \"#utility.yul\":3600:3606   */\n  dup2\n    /* \"#utility.yul\":3597:3627   */\n  gt\n    /* \"#utility.yul\":3594:3711   */\n  iszero\n  tag_89\n  jumpi\n    /* \"#utility.yul\":3630:3709   */\n  tag_90\n  tag_23\n  jump\t// in\ntag_90:\n    /* \"#utility.yul\":3594:3711   */\ntag_89:\n    /* \"#utility.yul\":3735:3824   */\n  tag_91\n    /* \"#utility.yul\":3816:3823   */\n  dup5\n    /* \"#utility.yul\":3807:3813   */\n  dup3\n    /* \"#utility.yul\":3796:3805   */\n  dup6\n    /* \"#utility.yul\":3792:3814   */\n  add\n    /* \"#utility.yul\":3735:3824   */\n  tag_36\n  jump\t// in\ntag_91:\n    /* \"#utility.yul\":3725:3824   */\n  swap2\n  pop\n    /* \"#utility.yul\":3528:3834   */\n  pop\n    /* \"#utility.yul\":3287:3841   */\n  swap3\n  swap2\n  pop\n  pop\n  jump\t// out\n    /* \"#utility.yul\":3847:4016   */\ntag_37:\n    /* \"#utility.yul\":3931:3942   */\n  0x00\n    /* \"#utility.yul\":3965:3971   */\n  dup3\n    /* \"#utility.yul\":3960:3963   */\n  dup3\n    /* \"#utility.yul\":3953:3972   */\n  mstore\n    /* \"#utility.yul\":4005:4009   */\n  0x20\n    /* \"#utility.yul\":4000:4003   */\n  dup3\n    /* \"#utility.yul\":3996:4010   */\n  add\n    /* \"#utility.yul\":3981:4010   */\n  swap1\n  pop\n    /* \"#utility.yul\":3847:4016   */\n  swap3\n  swap2\n  pop\n  pop\n  jump\t// out\n    /* \"#utility.yul\":4022:4243   */\ntag_38:\n    /* \"#utility.yul\":4162:4196   */\n  0x47726f7570206d7573742068617665206174206c656173742032206d656d6265\n    /* \"#utility.yul\":4158:4159   */\n  0x00\n    /* \"#utility.yul\":4150:4156   */\n  dup3\n    /* \"#utility.yul\":4146:4160   */\n  add\n    /* \"#utility.yul\":4139:4197   */\n  mstore\n    /* \"#utility.yul\":4231:4235   */\n  0x7273000000000000000000000000000000000000000000000000000000000000\n    /* \"#utility.yul\":4226:4228   */\n  0x20\n    /* \"#utility.yul\":4218:4224   */\n  dup3\n    /* \"#utility.yul\":4214:4229   */\n  add\n    /* \"#utility.yul\":4207:4236   */\n  mstore\n    /* \"#utility.yul\":4022:4243   */\n  pop\n  jump\t// out\n    /* \"#utility.yul\":4249:4615   */\ntag_39:\n    /* \"#utility.yul\":4391:4394   */\n  0x00\n    /* \"#utility.yul\":4412:4479   */\n  tag_95\n    /* \"#utility.yul\":4476:4478   */\n  0x22\n    /* \"#utility.yul\":4471:4474   */\n  dup4\n    /* \"#utility.yul\":4412:4479   */\n  tag_37\n  jump\t// in\ntag_95:\n    /* \"#utility.yul\":4405:4479   */\n  swap2\n  pop\n    /* \"#utility.yul\":4488:4581   */\n  tag_96\n    /* \"#utility.yul\":4577:4580   */\n  dup3\n    /* \"#utility.yul\":4488:4581   */\n  tag_38\n  jump\t// in\ntag_96:\n    /* \"#utility.yul\":4606:4608   */\n  0x40\n    /* \"#utility.yul\":4601:4604   */\n  dup3\n    /* \"#utility.yul\":4597:4609   */\n  add\n    /* \"#utility.yul\":4590:4609   */\n  swap1\n  pop\n    /* \"#utility.yul\":4249:4615   */\n  swap2\n  swap1\n  pop\n  jump\t// out\n    /* \"#utility.yul\":4621:5040   */\ntag_8:\n    /* \"#utility.yul\":4787:4791   */\n  0x00\n    /* \"#utility.yul\":4825:4827   */\n  0x20\n    /* \"#utility.yul\":4814:4823   */\n  dup3\n    /* \"#utility.yul\":4810:4828   */\n  add\n    /* \"#utility.yul\":4802:4828   */\n  swap1\n  pop\n    /* \"#utility.yul\":4874:4883   */\n  dup2\n    /* \"#utility.yul\":4868:4872   */\n  dup2\n    /* \"#utility.yul\":4864:4884   */\n  sub\n    /* \"#utility.yul\":4860:4861   */\n  0x00\n    /* \"#utility.yul\":4849:4858   */\n  dup4\n    /* \"#utility.yul\":4845:4862   */\n  add\n    /* \"#utility.yul\":4838:4885   */\n  mstore\n    /* \"#utility.yul\":4902:5033   */\n  tag_98\n    /* \"#utility.yul\":5028:5032   */\n  dup2\n    /* \"#utility.yul\":4902:5033   */\n  tag_39\n  jump\t// in\ntag_98:\n    /* \"#utility.yul\":4894:5033   */\n  swap1\n  pop\n    /* \"#utility.yul\":4621:5040   */\n  swap2\n  swap1\n  pop\n  jump\t// out\n    /* \"#utility.yul\":5046:5160   */\ntag_40:\n    /* \"#utility.yul\":5113:5119   */\n  0x00\n    /* \"#utility.yul\":5147:5152   */\n  dup2\n    /* \"#utility.yul\":5141:5153   */\n  mload\n    /* \"#utility.yul\":5131:5153   */\n  swap1\n  pop\n    /* \"#utility.yul\":5046:5160   */\n  swap2\n  swap1\n  pop\n  jump\t// out\n    /* \"#utility.yul\":5166:5350   */\ntag_41:\n    /* \"#utility.yul\":5265:5276   */\n  0x00\n    /* \"#utility.yul\":5299:5305   */\n  dup3\n    /* \"#utility.yul\":5294:5297   */\n  dup3\n    /* \"#utility.yul\":5287:5306   */\n  mstore\n    /* \"#utility.yul\":5339:5343   */\n  0x20\n    /* \"#utility.yul\":5334:5337   */\n  dup3\n    /* \"#utility.yul\":5330:5344   */\n  add\n    /* \"#utility.yul\":5315:5344   */\n  swap1\n  pop\n    /* \"#utility.yul\":5166:5350   */\n  swap3\n  swap2\n  pop\n  pop\n  jump\t// out\n    /* \"#utility.yul\":5356:5488   */\ntag_42:\n    /* \"#utility.yul\":5423:5427   */\n  0x00\n    /* \"#utility.yul\":5446:5449   */\n  dup2\n    /* \"#utility.yul\":5438:5449   */\n  swap1\n  pop\n    /* \"#utility.yul\":5476:5480   */\n  0x20\n    /* \"#utility.yul\":5471:5474   */\n  dup3\n    /* \"#utility.yul\":5467:5481   */\n  add\n    /* \"#utility.yul\":5459:5481   */\n  swap1\n  pop\n    /* \"#utility.yul\":5356:5488   */\n  swap2\n  swap1\n  pop\n  jump\t// out\n    /* \"#utility.yul\":5494:5602   */\ntag_43:\n    /* \"#utility.yul\":5571:5595   */\n  tag_103\n    /* \"#utility.yul\":5589:5594   */\n  dup2\n    /* \"#utility.yul\":5571:5595   */\n  tag_32\n  jump\t// in\ntag_103:\n    /* \"#utility.yul\":5566:5569   */\n  dup3\n    /* \"#utility.yul\":5559:5596   */\n  mstore\n    /* \"#utility.yul\":5494:5602   */\n  pop\n  pop\n  jump\t// out\n    /* \"#utility.yul\":5608:5787   */\ntag_44:\n    /* \"#utility.yul\":5677:5687   */\n  0x00\n    /* \"#utility.yul\":5698:5744   */\n  tag_105\n    /* \"#utility.yul\":5740:5743   */\n  dup4\n    /* \"#utility.yul\":5732:5738   */\n  dup4\n    /* \"#utility.yul\":5698:5744   */\n  tag_43\n  jump\t// in\ntag_105:\n    /* \"#utility.yul\":5776:5780   */\n  0x20\n    /* \"#utility.yul\":5771:5774   */\n  dup4\n    /* \"#utility.yul\":5767:5781   */\n  add\n    /* \"#utility.yul\":5753:5781   */\n  swap1\n  pop\n    /* \"#utility.yul\":5608:5787   */\n  swap3\n  swap2\n  pop\n  pop\n  jump\t// out\n    /* \"#utility.yul\":5793:5906   */\ntag_45:\n    /* \"#utility.yul\":5863:5867   */\n  0x00\n    /* \"#utility.yul\":5895:5899   */\n  0x20\n    /* \"#utility.yul\":5890:5893   */\n  dup3\n    /* \"#utility.yul\":5886:5900   */\n  add\n    /* \"#utility.yul\":5878:5900   */\n  swap1\n  pop\n    /* \"#utility.yul\":5793:5906   */\n  swap2\n  swap1\n  pop\n  jump\t// out\n    /* \"#utility.yul\":5942:6674   */\ntag_46:\n    /* \"#utility.yul\":6061:6064   */\n  0x00\n    /* \"#utility.yul\":6090:6144   */\n  tag_108\n    /* \"#utility.yul\":6138:6143   */\n  dup3\n    /* \"#utility.yul\":6090:6144   */\n  tag_40\n  jump\t// in\ntag_108:\n    /* \"#utility.yul\":6160:6246   */\n  tag_109\n    /* \"#utility.yul\":6239:6245   */\n  dup2\n    /* \"#utility.yul\":6234:6237   */\n  dup6\n    /* \"#utility.yul\":6160:6246   */\n  tag_41\n  jump\t// in\ntag_109:\n    /* \"#utility.yul\":6153:6246   */\n  swap4\n  pop\n    /* \"#utility.yul\":6270:6326   */\n  tag_110\n    /* \"#utility.yul\":6320:6325   */\n  dup4\n    /* \"#utility.yul\":6270:6326   */\n  tag_42\n  jump\t// in\ntag_110:\n    /* \"#utility.yul\":6349:6356   */\n  dup1\n    /* \"#utility.yul\":6380:6381   */\n  0x00\n    /* \"#utility.yul\":6365:6649   */\ntag_111:\n    /* \"#utility.yul\":6390:6396   */\n  dup4\n    /* \"#utility.yul\":6387:6388   */\n  dup2\n    /* \"#utility.yul\":6384:6397   */\n  lt\n    /* \"#utility.yul\":6365:6649   */\n  iszero\n  tag_113\n  jumpi\n    /* \"#utility.yul\":6466:6472   */\n  dup2\n    /* \"#utility.yul\":6460:6473   */\n  mload\n    /* \"#utility.yul\":6493:6556   */\n  tag_114\n    /* \"#utility.yul\":6552:6555   */\n  dup9\n    /* \"#utility.yul\":6537:6550   */\n  dup3\n    /* \"#utility.yul\":6493:6556   */\n  tag_44\n  jump\t// in\ntag_114:\n    /* \"#utility.yul\":6486:6556   */\n  swap8\n  pop\n    /* \"#utility.yul\":6579:6639   */\n  tag_115\n    /* \"#utility.yul\":6632:6638   */\n  dup4\n    /* \"#utility.yul\":6579:6639   */\n  tag_45\n  jump\t// in\ntag_115:\n    /* \"#utility.yul\":6569:6639   */\n  swap3\n  pop\n    /* \"#utility.yul\":6425:6649   */\n  pop\n    /* \"#utility.yul\":6412:6413   */\n  0x01\n    /* \"#utility.yul\":6409:6410   */\n  dup2\n    /* \"#utility.yul\":6405:6414   */\n  add\n    /* \"#utility.yul\":6400:6414   */\n  swap1\n  pop\n    /* \"#utility.yul\":6365:6649   */\n  jump(tag_111)\ntag_113:\n    /* \"#utility.yul\":6369:6383   */\n  pop\n    /* \"#utility.yul\":6665:6668   */\n  dup6\n    /* \"#utility.yul\":6658:6668   */\n  swap4\n  pop\n    /* \"#utility.yul\":6066:6674   */\n  pop\n  pop\n  pop\n    /* \"#utility.yul\":5942:6674   */\n  swap3\n  swap2\n  pop\n  pop\n  jump\t// out\n    /* \"#utility.yul\":6680:7053   */\ntag_12:\n    /* \"#utility.yul\":6823:6827   */\n  0x00\n    /* \"#utility.yul\":6861:6863   */\n  0x20\n    /* \"#utility.yul\":6850:6859   */\n  dup3\n    /* \"#utility.yul\":6846:6864   */\n  add\n    /* \"#utility.yul\":6838:6864   */\n  swap1\n  pop\n    /* \"#utility.yul\":6910:6919   */\n  dup2\n    /* \"#utility.yul\":6904:6908   */\n  dup2\n    /* \"#utility.yul\":6900:6920   */\n  sub\n    /* \"#utility.yul\":6896:6897   */\n  0x00\n    /* \"#utility.yul\":6885:6894   */\n  dup4\n    /* \"#utility.yul\":6881:6898   */\n  add\n    /* \"#utility.yul\":6874:6921   */\n  mstore\n    /* \"#utility.yul\":6938:7046   */\n  tag_117\n    /* \"#utility.yul\":7041:7045   */\n  dup2\n    /* \"#utility.yul\":7032:7038   */\n  dup5\n    /* \"#utility.yul\":6938:7046   */\n  tag_46\n  jump\t// in\ntag_117:\n    /* \"#utility.yul\":6930:7046   */\n  swap1\n  pop\n    /* \"#utility.yul\":6680:7053   */\n  swap3\n  swap2\n  pop\n  pop\n  jump\t// out\n    /* \"contracts/consensusranking.sol\":213:5613  contract SimpleConsensus {... */\ntag_13:\n  dataSize(sub_0)\n  dup1\n  dataOffset(sub_0)\n  0x00\n  codecopy\n  0x00\n  return\nstop\n\nsub_0: assembly {\n        /* \"contracts/consensusranking.sol\":213:5613  contract SimpleConsensus {... */\n      mstore(0x40, 0x80)\n      callvalue\n      dup1\n      iszero\n      tag_1\n      jumpi\n      0x00\n      dup1\n      revert\n    tag_1:\n      pop\n      jumpi(tag_2, lt(calldatasize, 0x04))\n      shr(0xe0, calldataload(0x00))\n      dup1\n      0x3693564b\n      eq\n      tag_3\n      jumpi\n      dup1\n      0x91e34038\n      eq\n      tag_4\n      jumpi\n      dup1\n      0xb6c38518\n      eq\n      tag_5\n      jumpi\n      dup1\n      0xd8a46ced\n      eq\n      tag_6\n      jumpi\n      dup1\n      0xe2aa1ef3\n      eq\n      tag_7\n      jumpi\n      dup1\n      0xea4c00b2\n      eq\n      tag_8\n      jumpi\n    tag_2:\n      0x00\n      dup1\n      revert\n        /* \"contracts/consensusranking.sol\":5256:5359  function getGroupMembers() public view returns (address[] memory) {... */\n    tag_3:\n      tag_9\n      tag_10\n      jump\t// in\n    tag_9:\n      mload(0x40)\n      tag_11\n      swap2\n      swap1\n      tag_12\n      jump\t// in\n    tag_11:\n      mload(0x40)\n      dup1\n      swap2\n      sub\n      swap1\n      return\n        /* \"contracts/consensusranking.sol\":910:1276  function submitRanking(uint256[] memory _ranking) public {... */\n    tag_4:\n      tag_13\n      0x04\n      dup1\n      calldatasize\n      sub\n      dup2\n      add\n      swap1\n      tag_14\n      swap2\n      swap1\n      tag_15\n      jump\t// in\n    tag_14:\n      tag_16\n      jump\t// in\n    tag_13:\n      stop\n        /* \"contracts/consensusranking.sol\":5501:5611  function getConsensusRanking() public view returns (uint256[] memory) {... */\n    tag_5:\n      tag_17\n      tag_18\n      jump\t// in\n    tag_17:\n      mload(0x40)\n      tag_19\n      swap2\n      swap1\n      tag_20\n      jump\t// in\n    tag_19:\n      mload(0x40)\n      dup1\n      swap2\n      sub\n      swap1\n      return\n        /* \"contracts/consensusranking.sol\":1282:1845  function determineConsensus() public {... */\n    tag_6:\n      tag_21\n      tag_22\n      jump\t// in\n    tag_21:\n      stop\n        /* \"contracts/consensusranking.sol\":5365:5495  function getRanking(address _member) public view returns (uint256[] memory) {... */\n    tag_7:\n      tag_23\n      0x04\n      dup1\n      calldatasize\n      sub\n      dup2\n      add\n      swap1\n      tag_24\n      swap2\n      swap1\n      tag_25\n      jump\t// in\n    tag_24:\n      tag_26\n      jump\t// in\n    tag_23:\n      mload(0x40)\n      tag_27\n      swap2\n      swap1\n      tag_20\n      jump\t// in\n    tag_27:\n      mload(0x40)\n      dup1\n      swap2\n      sub\n      swap1\n      return\n        /* \"contracts/consensusranking.sol\":432:465  uint256[] public consensusRanking */\n    tag_8:\n      tag_28\n      0x04\n      dup1\n      calldatasize\n      sub\n      dup2\n      add\n      swap1\n      tag_29\n      swap2\n      swap1\n      tag_30\n      jump\t// in\n    tag_29:\n      tag_31\n      jump\t// in\n    tag_28:\n      mload(0x40)\n      tag_32\n      swap2\n      swap1\n      tag_33\n      jump\t// in\n    tag_32:\n      mload(0x40)\n      dup1\n      swap2\n      sub\n      swap1\n      return\n        /* \"contracts/consensusranking.sol\":5256:5359  function getGroupMembers() public view returns (address[] memory) {... */\n    tag_10:\n        /* \"contracts/consensusranking.sol\":5304:5320  address[] memory */\n      0x60\n        /* \"contracts/consensusranking.sol\":5339:5344  group */\n      0x00\n        /* \"contracts/consensusranking.sol\":5339:5352  group.members */\n      dup1\n      add\n        /* \"contracts/consensusranking.sol\":5332:5352  return group.members */\n      dup1\n      sload\n      dup1\n      0x20\n      mul\n      0x20\n      add\n      mload(0x40)\n      swap1\n      dup2\n      add\n      0x40\n      mstore\n      dup1\n      swap3\n      swap2\n      swap1\n      dup2\n      dup2\n      mstore\n      0x20\n      add\n      dup3\n      dup1\n      sload\n      dup1\n      iszero\n      tag_35\n      jumpi\n      0x20\n      mul\n      dup3\n      add\n      swap2\n      swap1\n      0x00\n      mstore\n      keccak256(0x00, 0x20)\n      swap1\n    tag_36:\n      dup2\n      0x00\n      swap1\n      sload\n      swap1\n      0x0100\n      exp\n      swap1\n      div\n      0xffffffffffffffffffffffffffffffffffffffff\n      and\n      0xffffffffffffffffffffffffffffffffffffffff\n      and\n      dup2\n      mstore\n      0x20\n      add\n      swap1\n      0x01\n      add\n      swap1\n      dup1\n      dup4\n      gt\n      tag_36\n      jumpi\n    tag_35:\n      pop\n      pop\n      pop\n      pop\n      pop\n      swap1\n      pop\n        /* \"contracts/consensusranking.sol\":5256:5359  function getGroupMembers() public view returns (address[] memory) {... */\n      swap1\n      jump\t// out\n        /* \"contracts/consensusranking.sol\":910:1276  function submitRanking(uint256[] memory _ranking) public {... */\n    tag_16:\n        /* \"contracts/consensusranking.sol\":985:1010  isGroupMember(msg.sender) */\n      tag_38\n        /* \"contracts/consensusranking.sol\":999:1009  msg.sender */\n      caller\n        /* \"contracts/consensusranking.sol\":985:998  isGroupMember */\n      tag_39\n        /* \"contracts/consensusranking.sol\":985:1010  isGroupMember(msg.sender) */\n      jump\t// in\n    tag_38:\n        /* \"contracts/consensusranking.sol\":977:1053  require(isGroupMember(msg.sender), \"Only group members can submit rankings\") */\n      tag_40\n      jumpi\n      mload(0x40)\n      0x08c379a000000000000000000000000000000000000000000000000000000000\n      dup2\n      mstore\n      0x04\n      add\n      tag_41\n      swap1\n      tag_42\n      jump\t// in\n    tag_41:\n      mload(0x40)\n      dup1\n      swap2\n      sub\n      swap1\n      revert\n    tag_40:\n        /* \"contracts/consensusranking.sol\":1090:1095  group */\n      0x00\n        /* \"contracts/consensusranking.sol\":1090:1103  group.members */\n      dup1\n      add\n        /* \"contracts/consensusranking.sol\":1090:1110  group.members.length */\n      dup1\n      sload\n      swap1\n      pop\n        /* \"contracts/consensusranking.sol\":1071:1079  _ranking */\n      dup2\n        /* \"contracts/consensusranking.sol\":1071:1086  _ranking.length */\n      mload\n        /* \"contracts/consensusranking.sol\":1071:1110  _ranking.length == group.members.length */\n      eq\n        /* \"contracts/consensusranking.sol\":1063:1153  require(_ranking.length == group.members.length, \"Ranking must include all group members\") */\n      tag_43\n      jumpi\n      mload(0x40)\n      0x08c379a000000000000000000000000000000000000000000000000000000000\n      dup2\n      mstore\n      0x04\n      add\n      tag_44\n      swap1\n      tag_45\n      jump\t// in\n    tag_44:\n      mload(0x40)\n      dup1\n      swap2\n      sub\n      swap1\n      revert\n    tag_43:\n        /* \"contracts/consensusranking.sol\":1208:1216  _ranking */\n      dup1\n        /* \"contracts/consensusranking.sol\":1172:1180  rankings */\n      0x01\n        /* \"contracts/consensusranking.sol\":1172:1192  rankings[msg.sender] */\n      0x00\n        /* \"contracts/consensusranking.sol\":1181:1191  msg.sender */\n      caller\n        /* \"contracts/consensusranking.sol\":1172:1192  rankings[msg.sender] */\n      0xffffffffffffffffffffffffffffffffffffffff\n      and\n      0xffffffffffffffffffffffffffffffffffffffff\n      and\n      dup2\n      mstore\n      0x20\n      add\n      swap1\n      dup2\n      mstore\n      0x20\n      add\n      0x00\n      keccak256\n        /* \"contracts/consensusranking.sol\":1172:1205  rankings[msg.sender].rankedScores */\n      0x00\n      add\n        /* \"contracts/consensusranking.sol\":1172:1216  rankings[msg.sender].rankedScores = _ranking */\n      swap1\n      dup1\n      mload\n      swap1\n      0x20\n      add\n      swap1\n      tag_46\n      swap3\n      swap2\n      swap1\n      tag_47\n      jump\t// in\n    tag_46:\n      pop\n        /* \"contracts/consensusranking.sol\":1248:1258  msg.sender */\n      caller\n        /* \"contracts/consensusranking.sol\":1231:1269  RankingSubmitted(msg.sender, _ranking) */\n      0xffffffffffffffffffffffffffffffffffffffff\n      and\n      0x94ed272ce919af459ea4c388df2936a844303575a8cd4fd4ee54bc5e8432625c\n        /* \"contracts/consensusranking.sol\":1260:1268  _ranking */\n      dup3\n        /* \"contracts/consensusranking.sol\":1231:1269  RankingSubmitted(msg.sender, _ranking) */\n      mload(0x40)\n      tag_48\n      swap2\n      swap1\n      tag_20\n      jump\t// in\n    tag_48:\n      mload(0x40)\n      dup1\n      swap2\n      sub\n      swap1\n      log2\n        /* \"contracts/consensusranking.sol\":910:1276  function submitRanking(uint256[] memory _ranking) public {... */\n      pop\n      jump\t// out\n        /* \"contracts/consensusranking.sol\":5501:5611  function getConsensusRanking() public view returns (uint256[] memory) {... */\n    tag_18:\n        /* \"contracts/consensusranking.sol\":5553:5569  uint256[] memory */\n      0x60\n        /* \"contracts/consensusranking.sol\":5588:5604  consensusRanking */\n      0x02\n        /* \"contracts/consensusranking.sol\":5581:5604  return consensusRanking */\n      dup1\n      sload\n      dup1\n      0x20\n      mul\n      0x20\n      add\n      mload(0x40)\n      swap1\n      dup2\n      add\n      0x40\n      mstore\n      dup1\n      swap3\n      swap2\n      swap1\n      dup2\n      dup2\n      mstore\n      0x20\n      add\n      dup3\n      dup1\n      sload\n      dup1\n      iszero\n      tag_50\n      jumpi\n      0x20\n      mul\n      dup3\n      add\n      swap2\n      swap1\n      0x00\n      mstore\n      keccak256(0x00, 0x20)\n      swap1\n    tag_51:\n      dup2\n      sload\n      dup2\n      mstore\n      0x20\n      add\n      swap1\n      0x01\n      add\n      swap1\n      dup1\n      dup4\n      gt\n      tag_51\n      jumpi\n    tag_50:\n      pop\n      pop\n      pop\n      pop\n      pop\n      swap1\n      pop\n        /* \"contracts/consensusranking.sol\":5501:5611  function getConsensusRanking() public view returns (uint256[] memory) {... */\n      swap1\n      jump\t// out\n        /* \"contracts/consensusranking.sol\":1282:1845  function determineConsensus() public {... */\n    tag_22:\n        /* \"contracts/consensusranking.sol\":1337:1358  allMembersSubmitted() */\n      tag_53\n        /* \"contracts/consensusranking.sol\":1337:1356  allMembersSubmitted */\n      tag_54\n        /* \"contracts/consensusranking.sol\":1337:1358  allMembersSubmitted() */\n      jump\t// in\n    tag_53:\n        /* \"contracts/consensusranking.sol\":1329:1402  require(allMembersSubmitted(), \"Not all members have submitted rankings\") */\n      tag_55\n      jumpi\n      mload(0x40)\n      0x08c379a000000000000000000000000000000000000000000000000000000000\n      dup2\n      mstore\n      0x04\n      add\n      tag_56\n      swap1\n      tag_57\n      jump\t// in\n    tag_56:\n      mload(0x40)\n      dup1\n      swap2\n      sub\n      swap1\n      revert\n    tag_55:\n        /* \"contracts/consensusranking.sol\":1413:1437  address[] memory members */\n      0x00\n        /* \"contracts/consensusranking.sol\":1440:1445  group */\n      dup1\n        /* \"contracts/consensusranking.sol\":1440:1453  group.members */\n      0x00\n      add\n        /* \"contracts/consensusranking.sol\":1413:1453  address[] memory members = group.members */\n      dup1\n      sload\n      dup1\n      0x20\n      mul\n      0x20\n      add\n      mload(0x40)\n      swap1\n      dup2\n      add\n      0x40\n      mstore\n      dup1\n      swap3\n      swap2\n      swap1\n      dup2\n      dup2\n      mstore\n      0x20\n      add\n      dup3\n      dup1\n      sload\n      dup1\n      iszero\n      tag_58\n      jumpi\n      0x20\n      mul\n      dup3\n      add\n      swap2\n      swap1\n      0x00\n      mstore\n      keccak256(0x00, 0x20)\n      swap1\n    tag_59:\n      dup2\n      0x00\n      swap1\n      sload\n      swap1\n      0x0100\n      exp\n      swap1\n      div\n      0xffffffffffffffffffffffffffffffffffffffff\n      and\n      0xffffffffffffffffffffffffffffffffffffffff\n      and\n      dup2\n      mstore\n      0x20\n      add\n      swap1\n      0x01\n      add\n      swap1\n      dup1\n      dup4\n      gt\n      tag_59\n      jumpi\n    tag_58:\n      pop\n      pop\n      pop\n      pop\n      pop\n      swap1\n      pop\n        /* \"contracts/consensusranking.sol\":1463:1495  uint256[] memory transientScores */\n      0x00\n        /* \"contracts/consensusranking.sol\":1512:1519  members */\n      dup2\n        /* \"contracts/consensusranking.sol\":1512:1526  members.length */\n      mload\n        /* \"contracts/consensusranking.sol\":1498:1527  new uint256[](members.length) */\n      0xffffffffffffffff\n      dup2\n      gt\n      iszero\n      tag_60\n      jumpi\n      tag_61\n      tag_62\n      jump\t// in\n    tag_61:\n    tag_60:\n      mload(0x40)\n      swap1\n      dup1\n      dup3\n      mstore\n      dup1\n      0x20\n      mul\n      0x20\n      add\n      dup3\n      add\n      0x40\n      mstore\n      dup1\n      iszero\n      tag_63\n      jumpi\n      dup2\n      0x20\n      add\n      0x20\n      dup3\n      mul\n      dup1\n      calldatasize\n      dup4\n      calldatacopy\n      dup1\n      dup3\n      add\n      swap2\n      pop\n      pop\n      swap1\n      pop\n    tag_63:\n      pop\n        /* \"contracts/consensusranking.sol\":1463:1527  uint256[] memory transientScores = new uint256[](members.length) */\n      swap1\n      pop\n        /* \"contracts/consensusranking.sol\":1543:1552  uint256 i */\n      0x00\n        /* \"contracts/consensusranking.sol\":1538:1732  for (uint256 i = 0; i < members.length; i++) {... */\n    tag_64:\n        /* \"contracts/consensusranking.sol\":1562:1569  members */\n      dup3\n        /* \"contracts/consensusranking.sol\":1562:1576  members.length */\n      mload\n        /* \"contracts/consensusranking.sol\":1558:1559  i */\n      dup2\n        /* \"contracts/consensusranking.sol\":1558:1576  i < members.length */\n      lt\n        /* \"contracts/consensusranking.sol\":1538:1732  for (uint256 i = 0; i < members.length; i++) {... */\n      iszero\n      tag_65\n      jumpi\n        /* \"contracts/consensusranking.sol\":1618:1644  calculateTransientScore(i) */\n      tag_67\n        /* \"contracts/consensusranking.sol\":1642:1643  i */\n      dup2\n        /* \"contracts/consensusranking.sol\":1618:1641  calculateTransientScore */\n      tag_68\n        /* \"contracts/consensusranking.sol\":1618:1644  calculateTransientScore(i) */\n      jump\t// in\n    tag_67:\n        /* \"contracts/consensusranking.sol\":1597:1612  transientScores */\n      dup3\n        /* \"contracts/consensusranking.sol\":1613:1614  i */\n      dup3\n        /* \"contracts/consensusranking.sol\":1597:1615  transientScores[i] */\n      dup2\n      mload\n      dup2\n      lt\n      tag_69\n      jumpi\n      tag_70\n      tag_71\n      jump\t// in\n    tag_70:\n    tag_69:\n      0x20\n      mul\n      0x20\n      add\n      add\n        /* \"contracts/consensusranking.sol\":1597:1644  transientScores[i] = calculateTransientScore(i) */\n      dup2\n      dup2\n      mstore\n      pop\n      pop\n        /* \"contracts/consensusranking.sol\":1663:1721  DebugLog(\"Transient score for member\", transientScores[i]) */\n      0xf6ff2ad7fc16bda2a7d32462729431bce3ebe9b75cc7c9b35a0adfbf7e7bb9e6\n        /* \"contracts/consensusranking.sol\":1702:1717  transientScores */\n      dup3\n        /* \"contracts/consensusranking.sol\":1718:1719  i */\n      dup3\n        /* \"contracts/consensusranking.sol\":1702:1720  transientScores[i] */\n      dup2\n      mload\n      dup2\n      lt\n      tag_72\n      jumpi\n      tag_73\n      tag_71\n      jump\t// in\n    tag_73:\n    tag_72:\n      0x20\n      mul\n      0x20\n      add\n      add\n      mload\n        /* \"contracts/consensusranking.sol\":1663:1721  DebugLog(\"Transient score for member\", transientScores[i]) */\n      mload(0x40)\n      tag_74\n      swap2\n      swap1\n      tag_75\n      jump\t// in\n    tag_74:\n      mload(0x40)\n      dup1\n      swap2\n      sub\n      swap1\n      log1\n        /* \"contracts/consensusranking.sol\":1578:1581  i++ */\n      dup1\n      dup1\n      0x01\n      add\n      swap2\n      pop\n      pop\n        /* \"contracts/consensusranking.sol\":1538:1732  for (uint256 i = 0; i < members.length; i++) {... */\n      jump(tag_64)\n    tag_65:\n      pop\n        /* \"contracts/consensusranking.sol\":1761:1789  sortByScore(transientScores) */\n      tag_76\n        /* \"contracts/consensusranking.sol\":1773:1788  transientScores */\n      dup2\n        /* \"contracts/consensusranking.sol\":1761:1772  sortByScore */\n      tag_77\n        /* \"contracts/consensusranking.sol\":1761:1789  sortByScore(transientScores) */\n      jump\t// in\n    tag_76:\n        /* \"contracts/consensusranking.sol\":1742:1758  consensusRanking */\n      0x02\n        /* \"contracts/consensusranking.sol\":1742:1789  consensusRanking = sortByScore(transientScores) */\n      swap1\n      dup1\n      mload\n      swap1\n      0x20\n      add\n      swap1\n      tag_78\n      swap3\n      swap2\n      swap1\n      tag_47\n      jump\t// in\n    tag_78:\n      pop\n        /* \"contracts/consensusranking.sol\":1804:1838  ConsensusReached(consensusRanking) */\n      0xe567c2f4881511549d9f71fa6730ba0eff22f033ac43ff2187bad551dcea87e2\n        /* \"contracts/consensusranking.sol\":1821:1837  consensusRanking */\n      0x02\n        /* \"contracts/consensusranking.sol\":1804:1838  ConsensusReached(consensusRanking) */\n      mload(0x40)\n      tag_79\n      swap2\n      swap1\n      tag_80\n      jump\t// in\n    tag_79:\n      mload(0x40)\n      dup1\n      swap2\n      sub\n      swap1\n      log1\n        /* \"contracts/consensusranking.sol\":1319:1845  {... */\n      pop\n      pop\n        /* \"contracts/consensusranking.sol\":1282:1845  function determineConsensus() public {... */\n      jump\t// out\n        /* \"contracts/consensusranking.sol\":5365:5495  function getRanking(address _member) public view returns (uint256[] memory) {... */\n    tag_26:\n        /* \"contracts/consensusranking.sol\":5423:5439  uint256[] memory */\n      0x60\n        /* \"contracts/consensusranking.sol\":5458:5466  rankings */\n      0x01\n        /* \"contracts/consensusranking.sol\":5458:5475  rankings[_member] */\n      0x00\n        /* \"contracts/consensusranking.sol\":5467:5474  _member */\n      dup4\n        /* \"contracts/consensusranking.sol\":5458:5475  rankings[_member] */\n      0xffffffffffffffffffffffffffffffffffffffff\n      and\n      0xffffffffffffffffffffffffffffffffffffffff\n      and\n      dup2\n      mstore\n      0x20\n      add\n      swap1\n      dup2\n      mstore\n      0x20\n      add\n      0x00\n      keccak256\n        /* \"contracts/consensusranking.sol\":5458:5488  rankings[_member].rankedScores */\n      0x00\n      add\n        /* \"contracts/consensusranking.sol\":5451:5488  return rankings[_member].rankedScores */\n      dup1\n      sload\n      dup1\n      0x20\n      mul\n      0x20\n      add\n      mload(0x40)\n      swap1\n      dup2\n      add\n      0x40\n      mstore\n      dup1\n      swap3\n      swap2\n      swap1\n      dup2\n      dup2\n      mstore\n      0x20\n      add\n      dup3\n      dup1\n      sload\n      dup1\n      iszero\n      tag_82\n      jumpi\n      0x20\n      mul\n      dup3\n      add\n      swap2\n      swap1\n      0x00\n      mstore\n      keccak256(0x00, 0x20)\n      swap1\n    tag_83:\n      dup2\n      sload\n      dup2\n      mstore\n      0x20\n      add\n      swap1\n      0x01\n      add\n      swap1\n      dup1\n      dup4\n      gt\n      tag_83\n      jumpi\n    tag_82:\n      pop\n      pop\n      pop\n      pop\n      pop\n      swap1\n      pop\n        /* \"contracts/consensusranking.sol\":5365:5495  function getRanking(address _member) public view returns (uint256[] memory) {... */\n      swap2\n      swap1\n      pop\n      jump\t// out\n        /* \"contracts/consensusranking.sol\":432:465  uint256[] public consensusRanking */\n    tag_31:\n      0x02\n      dup2\n      dup2\n      sload\n      dup2\n      lt\n      tag_84\n      jumpi\n      0x00\n      dup1\n      revert\n    tag_84:\n      swap1\n      0x00\n      mstore\n      keccak256(0x00, 0x20)\n      add\n      0x00\n      swap2\n      pop\n      swap1\n      pop\n      sload\n      dup2\n      jump\t// out\n        /* \"contracts/consensusranking.sol\":4709:4935  function isGroupMember(address _member) private view returns (bool) {... */\n    tag_39:\n        /* \"contracts/consensusranking.sol\":4771:4775  bool */\n      0x00\n        /* \"contracts/consensusranking.sol\":4792:4801  uint256 i */\n      dup1\n        /* \"contracts/consensusranking.sol\":4804:4805  0 */\n      0x00\n        /* \"contracts/consensusranking.sol\":4792:4805  uint256 i = 0 */\n      swap1\n      pop\n        /* \"contracts/consensusranking.sol\":4787:4907  for (uint256 i = 0; i < group.members.length; i++) {... */\n    tag_87:\n        /* \"contracts/consensusranking.sol\":4811:4816  group */\n      0x00\n        /* \"contracts/consensusranking.sol\":4811:4824  group.members */\n      dup1\n      add\n        /* \"contracts/consensusranking.sol\":4811:4831  group.members.length */\n      dup1\n      sload\n      swap1\n      pop\n        /* \"contracts/consensusranking.sol\":4807:4808  i */\n      dup2\n        /* \"contracts/consensusranking.sol\":4807:4831  i < group.members.length */\n      lt\n        /* \"contracts/consensusranking.sol\":4787:4907  for (uint256 i = 0; i < group.members.length; i++) {... */\n      iszero\n      tag_88\n      jumpi\n        /* \"contracts/consensusranking.sol\":4876:4883  _member */\n      dup3\n        /* \"contracts/consensusranking.sol\":4856:4883  group.members[i] == _member */\n      0xffffffffffffffffffffffffffffffffffffffff\n      and\n        /* \"contracts/consensusranking.sol\":4856:4861  group */\n      0x00\n        /* \"contracts/consensusranking.sol\":4856:4869  group.members */\n      dup1\n      add\n        /* \"contracts/consensusranking.sol\":4870:4871  i */\n      dup3\n        /* \"contracts/consensusranking.sol\":4856:4872  group.members[i] */\n      dup2\n      sload\n      dup2\n      lt\n      tag_90\n      jumpi\n      tag_91\n      tag_71\n      jump\t// in\n    tag_91:\n    tag_90:\n      swap1\n      0x00\n      mstore\n      keccak256(0x00, 0x20)\n      add\n      0x00\n      swap1\n      sload\n      swap1\n      0x0100\n      exp\n      swap1\n      div\n      0xffffffffffffffffffffffffffffffffffffffff\n      and\n        /* \"contracts/consensusranking.sol\":4856:4883  group.members[i] == _member */\n      0xffffffffffffffffffffffffffffffffffffffff\n      and\n      sub\n        /* \"contracts/consensusranking.sol\":4852:4896  if (group.members[i] == _member) return true */\n      tag_93\n      jumpi\n        /* \"contracts/consensusranking.sol\":4892:4896  true */\n      0x01\n        /* \"contracts/consensusranking.sol\":4885:4896  return true */\n      swap2\n      pop\n      pop\n      jump(tag_86)\n        /* \"contracts/consensusranking.sol\":4852:4896  if (group.members[i] == _member) return true */\n    tag_93:\n        /* \"contracts/consensusranking.sol\":4833:4836  i++ */\n      dup1\n      dup1\n      0x01\n      add\n      swap2\n      pop\n      pop\n        /* \"contracts/consensusranking.sol\":4787:4907  for (uint256 i = 0; i < group.members.length; i++) {... */\n      jump(tag_87)\n    tag_88:\n      pop\n        /* \"contracts/consensusranking.sol\":4923:4928  false */\n      0x00\n        /* \"contracts/consensusranking.sol\":4916:4928  return false */\n      swap1\n      pop\n        /* \"contracts/consensusranking.sol\":4709:4935  function isGroupMember(address _member) private view returns (bool) {... */\n    tag_86:\n      swap2\n      swap1\n      pop\n      jump\t// out\n        /* \"contracts/consensusranking.sol\":4941:5214  function allMembersSubmitted() private view returns (bool) {... */\n    tag_54:\n        /* \"contracts/consensusranking.sol\":4994:4998  bool */\n      0x00\n        /* \"contracts/consensusranking.sol\":5015:5024  uint256 i */\n      dup1\n        /* \"contracts/consensusranking.sol\":5027:5028  0 */\n      0x00\n        /* \"contracts/consensusranking.sol\":5015:5028  uint256 i = 0 */\n      swap1\n      pop\n        /* \"contracts/consensusranking.sol\":5010:5187  for (uint256 i = 0; i < group.members.length; i++) {... */\n    tag_95:\n        /* \"contracts/consensusranking.sol\":5034:5039  group */\n      0x00\n        /* \"contracts/consensusranking.sol\":5034:5047  group.members */\n      dup1\n      add\n        /* \"contracts/consensusranking.sol\":5034:5054  group.members.length */\n      dup1\n      sload\n      swap1\n      pop\n        /* \"contracts/consensusranking.sol\":5030:5031  i */\n      dup2\n        /* \"contracts/consensusranking.sol\":5030:5054  i < group.members.length */\n      lt\n        /* \"contracts/consensusranking.sol\":5010:5187  for (uint256 i = 0; i < group.members.length; i++) {... */\n      iszero\n      tag_96\n      jumpi\n        /* \"contracts/consensusranking.sol\":5129:5130  0 */\n      0x00\n        /* \"contracts/consensusranking.sol\":5079:5087  rankings */\n      0x01\n        /* \"contracts/consensusranking.sol\":5079:5105  rankings[group.members[i]] */\n      0x00\n        /* \"contracts/consensusranking.sol\":5088:5093  group */\n      dup1\n        /* \"contracts/consensusranking.sol\":5088:5101  group.members */\n      0x00\n      add\n        /* \"contracts/consensusranking.sol\":5102:5103  i */\n      dup5\n        /* \"contracts/consensusranking.sol\":5088:5104  group.members[i] */\n      dup2\n      sload\n      dup2\n      lt\n      tag_98\n      jumpi\n      tag_99\n      tag_71\n      jump\t// in\n    tag_99:\n    tag_98:\n      swap1\n      0x00\n      mstore\n      keccak256(0x00, 0x20)\n      add\n      0x00\n      swap1\n      sload\n      swap1\n      0x0100\n      exp\n      swap1\n      div\n      0xffffffffffffffffffffffffffffffffffffffff\n      and\n        /* \"contracts/consensusranking.sol\":5079:5105  rankings[group.members[i]] */\n      0xffffffffffffffffffffffffffffffffffffffff\n      and\n      0xffffffffffffffffffffffffffffffffffffffff\n      and\n      dup2\n      mstore\n      0x20\n      add\n      swap1\n      dup2\n      mstore\n      0x20\n      add\n      0x00\n      keccak256\n        /* \"contracts/consensusranking.sol\":5079:5118  rankings[group.members[i]].rankedScores */\n      0x00\n      add\n        /* \"contracts/consensusranking.sol\":5079:5125  rankings[group.members[i]].rankedScores.length */\n      dup1\n      sload\n      swap1\n      pop\n        /* \"contracts/consensusranking.sol\":5079:5130  rankings[group.members[i]].rankedScores.length == 0 */\n      sub\n        /* \"contracts/consensusranking.sol\":5075:5177  if (rankings[group.members[i]].rankedScores.length == 0) {... */\n      tag_101\n      jumpi\n        /* \"contracts/consensusranking.sol\":5157:5162  false */\n      0x00\n        /* \"contracts/consensusranking.sol\":5150:5162  return false */\n      swap2\n      pop\n      pop\n      jump(tag_94)\n        /* \"contracts/consensusranking.sol\":5075:5177  if (rankings[group.members[i]].rankedScores.length == 0) {... */\n    tag_101:\n        /* \"contracts/consensusranking.sol\":5056:5059  i++ */\n      dup1\n      dup1\n      0x01\n      add\n      swap2\n      pop\n      pop\n        /* \"contracts/consensusranking.sol\":5010:5187  for (uint256 i = 0; i < group.members.length; i++) {... */\n      jump(tag_95)\n    tag_96:\n      pop\n        /* \"contracts/consensusranking.sol\":5203:5207  true */\n      0x01\n        /* \"contracts/consensusranking.sol\":5196:5207  return true */\n      swap1\n      pop\n        /* \"contracts/consensusranking.sol\":4941:5214  function allMembersSubmitted() private view returns (bool) {... */\n    tag_94:\n      swap1\n      jump\t// out\n        /* \"contracts/consensusranking.sol\":1848:2634  function calculateTransientScore(uint256 memberIndex) private view returns (uint256) {... */\n    tag_68:\n        /* \"contracts/consensusranking.sol\":1924:1931  uint256 */\n      0x00\n        /* \"contracts/consensusranking.sol\":1939:1970  uint256[] memory memberRankings */\n      dup1\n        /* \"contracts/consensusranking.sol\":1987:1992  group */\n      0x00\n        /* \"contracts/consensusranking.sol\":1987:2000  group.members */\n      dup1\n      add\n        /* \"contracts/consensusranking.sol\":1987:2007  group.members.length */\n      dup1\n      sload\n      swap1\n      pop\n        /* \"contracts/consensusranking.sol\":1973:2008  new uint256[](group.members.length) */\n      0xffffffffffffffff\n      dup2\n      gt\n      iszero\n      tag_103\n      jumpi\n      tag_104\n      tag_62\n      jump\t// in\n    tag_104:\n    tag_103:\n      mload(0x40)\n      swap1\n      dup1\n      dup3\n      mstore\n      dup1\n      0x20\n      mul\n      0x20\n      add\n      dup3\n      add\n      0x40\n      mstore\n      dup1\n      iszero\n      tag_105\n      jumpi\n      dup2\n      0x20\n      add\n      0x20\n      dup3\n      mul\n      dup1\n      calldatasize\n      dup4\n      calldatacopy\n      dup1\n      dup3\n      add\n      swap2\n      pop\n      pop\n      swap1\n      pop\n    tag_105:\n      pop\n        /* \"contracts/consensusranking.sol\":1939:2008  uint256[] memory memberRankings = new uint256[](group.members.length) */\n      swap1\n      pop\n        /* \"contracts/consensusranking.sol\":2019:2028  uint256 i */\n      0x00\n        /* \"contracts/consensusranking.sol\":2014:2154  for (uint256 i = 0; i < group.members.length; i++) {... */\n    tag_106:\n        /* \"contracts/consensusranking.sol\":2038:2043  group */\n      0x00\n        /* \"contracts/consensusranking.sol\":2038:2051  group.members */\n      dup1\n      add\n        /* \"contracts/consensusranking.sol\":2038:2058  group.members.length */\n      dup1\n      sload\n      swap1\n      pop\n        /* \"contracts/consensusranking.sol\":2034:2035  i */\n      dup2\n        /* \"contracts/consensusranking.sol\":2034:2058  i < group.members.length */\n      lt\n        /* \"contracts/consensusranking.sol\":2014:2154  for (uint256 i = 0; i < group.members.length; i++) {... */\n      iszero\n      tag_107\n      jumpi\n        /* \"contracts/consensusranking.sol\":2095:2103  rankings */\n      0x01\n        /* \"contracts/consensusranking.sol\":2095:2121  rankings[group.members[i]] */\n      0x00\n        /* \"contracts/consensusranking.sol\":2104:2109  group */\n      dup1\n        /* \"contracts/consensusranking.sol\":2104:2117  group.members */\n      0x00\n      add\n        /* \"contracts/consensusranking.sol\":2118:2119  i */\n      dup4\n        /* \"contracts/consensusranking.sol\":2104:2120  group.members[i] */\n      dup2\n      sload\n      dup2\n      lt\n      tag_109\n      jumpi\n      tag_110\n      tag_71\n      jump\t// in\n    tag_110:\n    tag_109:\n      swap1\n      0x00\n      mstore\n      keccak256(0x00, 0x20)\n      add\n      0x00\n      swap1\n      sload\n      swap1\n      0x0100\n      exp\n      swap1\n      div\n      0xffffffffffffffffffffffffffffffffffffffff\n      and\n        /* \"contracts/consensusranking.sol\":2095:2121  rankings[group.members[i]] */\n      0xffffffffffffffffffffffffffffffffffffffff\n      and\n      0xffffffffffffffffffffffffffffffffffffffff\n      and\n      dup2\n      mstore\n      0x20\n      add\n      swap1\n      dup2\n      mstore\n      0x20\n      add\n      0x00\n      keccak256\n        /* \"contracts/consensusranking.sol\":2095:2134  rankings[group.members[i]].rankedScores */\n      0x00\n      add\n        /* \"contracts/consensusranking.sol\":2135:2146  memberIndex */\n      dup5\n        /* \"contracts/consensusranking.sol\":2095:2147  rankings[group.members[i]].rankedScores[memberIndex] */\n      dup2\n      sload\n      dup2\n      lt\n      tag_112\n      jumpi\n      tag_113\n      tag_71\n      jump\t// in\n    tag_113:\n    tag_112:\n      swap1\n      0x00\n      mstore\n      keccak256(0x00, 0x20)\n      add\n      sload\n        /* \"contracts/consensusranking.sol\":2075:2089  memberRankings */\n      dup3\n        /* \"contracts/consensusranking.sol\":2090:2091  i */\n      dup3\n        /* \"contracts/consensusranking.sol\":2075:2092  memberRankings[i] */\n      dup2\n      mload\n      dup2\n      lt\n      tag_115\n      jumpi\n      tag_116\n      tag_71\n      jump\t// in\n    tag_116:\n    tag_115:\n      0x20\n      mul\n      0x20\n      add\n      add\n        /* \"contracts/consensusranking.sol\":2075:2147  memberRankings[i] = rankings[group.members[i]].rankedScores[memberIndex] */\n      dup2\n      dup2\n      mstore\n      pop\n      pop\n        /* \"contracts/consensusranking.sol\":2060:2063  i++ */\n      dup1\n      dup1\n      0x01\n      add\n      swap2\n      pop\n      pop\n        /* \"contracts/consensusranking.sol\":2014:2154  for (uint256 i = 0; i < group.members.length; i++) {... */\n      jump(tag_106)\n    tag_107:\n      pop\n        /* \"contracts/consensusranking.sol\":2160:2179  uint256 meanRanking */\n      0x00\n        /* \"contracts/consensusranking.sol\":2182:2211  calculateMean(memberRankings) */\n      tag_117\n        /* \"contracts/consensusranking.sol\":2196:2210  memberRankings */\n      dup3\n        /* \"contracts/consensusranking.sol\":2182:2195  calculateMean */\n      tag_118\n        /* \"contracts/consensusranking.sol\":2182:2211  calculateMean(memberRankings) */\n      jump\t// in\n    tag_117:\n        /* \"contracts/consensusranking.sol\":2160:2211  uint256 meanRanking = calculateMean(memberRankings) */\n      swap1\n      pop\n        /* \"contracts/consensusranking.sol\":2217:2233  uint256 variance */\n      0x00\n        /* \"contracts/consensusranking.sol\":2236:2269  calculateVariance(memberRankings) */\n      tag_119\n        /* \"contracts/consensusranking.sol\":2254:2268  memberRankings */\n      dup4\n        /* \"contracts/consensusranking.sol\":2236:2253  calculateVariance */\n      tag_120\n        /* \"contracts/consensusranking.sol\":2236:2269  calculateVariance(memberRankings) */\n      jump\t// in\n    tag_119:\n        /* \"contracts/consensusranking.sol\":2217:2269  uint256 variance = calculateVariance(memberRankings) */\n      swap1\n      pop\n        /* \"contracts/consensusranking.sol\":2275:2294  uint256 maxVariance */\n      0x00\n        /* \"contracts/consensusranking.sol\":2297:2339  calculateMaxVariance(group.members.length) */\n      tag_121\n        /* \"contracts/consensusranking.sol\":2318:2323  group */\n      0x00\n        /* \"contracts/consensusranking.sol\":2318:2331  group.members */\n      dup1\n      add\n        /* \"contracts/consensusranking.sol\":2318:2338  group.members.length */\n      dup1\n      sload\n      swap1\n      pop\n        /* \"contracts/consensusranking.sol\":2297:2317  calculateMaxVariance */\n      tag_122\n        /* \"contracts/consensusranking.sol\":2297:2339  calculateMaxVariance(group.members.length) */\n      jump\t// in\n    tag_121:\n        /* \"contracts/consensusranking.sol\":2275:2339  uint256 maxVariance = calculateMaxVariance(group.members.length) */\n      swap1\n      pop\n        /* \"contracts/consensusranking.sol\":2350:2371  uint256 consensusTerm */\n      0x00\n        /* \"contracts/consensusranking.sol\":2396:2397  0 */\n      dup1\n        /* \"contracts/consensusranking.sol\":2381:2392  maxVariance */\n      dup3\n        /* \"contracts/consensusranking.sol\":2381:2397  maxVariance == 0 */\n      sub\n        /* \"contracts/consensusranking.sol\":2377:2515  if (maxVariance == 0) {... */\n      tag_123\n      jumpi\n        /* \"contracts/consensusranking.sol\":2425:2429  1e18 */\n      0x0de0b6b3a7640000\n        /* \"contracts/consensusranking.sol\":2409:2429  consensusTerm = 1e18 */\n      swap1\n      pop\n        /* \"contracts/consensusranking.sol\":2377:2515  if (maxVariance == 0) {... */\n      jump(tag_124)\n    tag_123:\n        /* \"contracts/consensusranking.sol\":2496:2507  maxVariance */\n      dup2\n        /* \"contracts/consensusranking.sol\":2488:2492  1e18 */\n      0x0de0b6b3a7640000\n        /* \"contracts/consensusranking.sol\":2477:2485  variance */\n      dup5\n        /* \"contracts/consensusranking.sol\":2477:2492  variance * 1e18 */\n      tag_125\n      swap2\n      swap1\n      tag_126\n      jump\t// in\n    tag_125:\n        /* \"contracts/consensusranking.sol\":2476:2507  (variance * 1e18) / maxVariance */\n      tag_127\n      swap2\n      swap1\n      tag_128\n      jump\t// in\n    tag_127:\n        /* \"contracts/consensusranking.sol\":2468:2472  1e18 */\n      0x0de0b6b3a7640000\n        /* \"contracts/consensusranking.sol\":2468:2508  1e18 - ((variance * 1e18) / maxVariance) */\n      tag_129\n      swap2\n      swap1\n      tag_130\n      jump\t// in\n    tag_129:\n        /* \"contracts/consensusranking.sol\":2452:2508  consensusTerm = 1e18 - ((variance * 1e18) / maxVariance) */\n      swap1\n      pop\n        /* \"contracts/consensusranking.sol\":2377:2515  if (maxVariance == 0) {... */\n    tag_124:\n        /* \"contracts/consensusranking.sol\":2627:2631  1e18 */\n      0x0de0b6b3a7640000\n        /* \"contracts/consensusranking.sol\":2610:2623  consensusTerm */\n      dup2\n        /* \"contracts/consensusranking.sol\":2596:2607  meanRanking */\n      dup6\n        /* \"contracts/consensusranking.sol\":2596:2623  meanRanking * consensusTerm */\n      tag_131\n      swap2\n      swap1\n      tag_126\n      jump\t// in\n    tag_131:\n        /* \"contracts/consensusranking.sol\":2595:2631  (meanRanking * consensusTerm) / 1e18 */\n      tag_132\n      swap2\n      swap1\n      tag_128\n      jump\t// in\n    tag_132:\n        /* \"contracts/consensusranking.sol\":2588:2631  return (meanRanking * consensusTerm) / 1e18 */\n      swap6\n      pop\n      pop\n      pop\n      pop\n      pop\n      pop\n        /* \"contracts/consensusranking.sol\":1848:2634  function calculateTransientScore(uint256 memberIndex) private view returns (uint256) {... */\n      swap2\n      swap1\n      pop\n      jump\t// out\n        /* \"contracts/consensusranking.sol\":3933:4703  function sortByScore(uint256[] memory _scores) private pure returns (uint256[] memory) {... */\n    tag_77:\n        /* \"contracts/consensusranking.sol\":4002:4018  uint256[] memory */\n      0x60\n        /* \"contracts/consensusranking.sol\":4026:4050  uint256[] memory indices */\n      0x00\n        /* \"contracts/consensusranking.sol\":4067:4074  _scores */\n      dup3\n        /* \"contracts/consensusranking.sol\":4067:4081  _scores.length */\n      mload\n        /* \"contracts/consensusranking.sol\":4053:4082  new uint256[](_scores.length) */\n      0xffffffffffffffff\n      dup2\n      gt\n      iszero\n      tag_134\n      jumpi\n      tag_135\n      tag_62\n      jump\t// in\n    tag_135:\n    tag_134:\n      mload(0x40)\n      swap1\n      dup1\n      dup3\n      mstore\n      dup1\n      0x20\n      mul\n      0x20\n      add\n      dup3\n      add\n      0x40\n      mstore\n      dup1\n      iszero\n      tag_136\n      jumpi\n      dup2\n      0x20\n      add\n      0x20\n      dup3\n      mul\n      dup1\n      calldatasize\n      dup4\n      calldatacopy\n      dup1\n      dup3\n      add\n      swap2\n      pop\n      pop\n      swap1\n      pop\n    tag_136:\n      pop\n        /* \"contracts/consensusranking.sol\":4026:4082  uint256[] memory indices = new uint256[](_scores.length) */\n      swap1\n      pop\n        /* \"contracts/consensusranking.sol\":4093:4102  uint256 i */\n      0x00\n        /* \"contracts/consensusranking.sol\":4088:4164  for (uint256 i = 0; i < indices.length; i++) {... */\n    tag_137:\n        /* \"contracts/consensusranking.sol\":4112:4119  indices */\n      dup2\n        /* \"contracts/consensusranking.sol\":4112:4126  indices.length */\n      mload\n        /* \"contracts/consensusranking.sol\":4108:4109  i */\n      dup2\n        /* \"contracts/consensusranking.sol\":4108:4126  i < indices.length */\n      lt\n        /* \"contracts/consensusranking.sol\":4088:4164  for (uint256 i = 0; i < indices.length; i++) {... */\n      iszero\n      tag_138\n      jumpi\n        /* \"contracts/consensusranking.sol\":4156:4157  i */\n      dup1\n        /* \"contracts/consensusranking.sol\":4143:4150  indices */\n      dup3\n        /* \"contracts/consensusranking.sol\":4151:4152  i */\n      dup3\n        /* \"contracts/consensusranking.sol\":4143:4153  indices[i] */\n      dup2\n      mload\n      dup2\n      lt\n      tag_140\n      jumpi\n      tag_141\n      tag_71\n      jump\t// in\n    tag_141:\n    tag_140:\n      0x20\n      mul\n      0x20\n      add\n      add\n        /* \"contracts/consensusranking.sol\":4143:4157  indices[i] = i */\n      dup2\n      dup2\n      mstore\n      pop\n      pop\n        /* \"contracts/consensusranking.sol\":4128:4131  i++ */\n      dup1\n      dup1\n      0x01\n      add\n      swap2\n      pop\n      pop\n        /* \"contracts/consensusranking.sol\":4088:4164  for (uint256 i = 0; i < indices.length; i++) {... */\n      jump(tag_137)\n    tag_138:\n      pop\n        /* \"contracts/consensusranking.sol\":4175:4184  uint256 i */\n      0x00\n        /* \"contracts/consensusranking.sol\":4170:4490  for (uint256 i = 0; i < _scores.length - 1; i++) {... */\n    tag_142:\n        /* \"contracts/consensusranking.sol\":4211:4212  1 */\n      0x01\n        /* \"contracts/consensusranking.sol\":4194:4201  _scores */\n      dup5\n        /* \"contracts/consensusranking.sol\":4194:4208  _scores.length */\n      mload\n        /* \"contracts/consensusranking.sol\":4194:4212  _scores.length - 1 */\n      tag_145\n      swap2\n      swap1\n      tag_130\n      jump\t// in\n    tag_145:\n        /* \"contracts/consensusranking.sol\":4190:4191  i */\n      dup2\n        /* \"contracts/consensusranking.sol\":4190:4212  i < _scores.length - 1 */\n      lt\n        /* \"contracts/consensusranking.sol\":4170:4490  for (uint256 i = 0; i < _scores.length - 1; i++) {... */\n      iszero\n      tag_143\n      jumpi\n        /* \"contracts/consensusranking.sol\":4234:4243  uint256 j */\n      0x00\n        /* \"contracts/consensusranking.sol\":4250:4251  1 */\n      0x01\n        /* \"contracts/consensusranking.sol\":4246:4247  i */\n      dup3\n        /* \"contracts/consensusranking.sol\":4246:4251  i + 1 */\n      tag_149\n      swap2\n      swap1\n      tag_150\n      jump\t// in\n    tag_149:\n        /* \"contracts/consensusranking.sol\":4234:4251  uint256 j = i + 1 */\n      swap1\n      pop\n        /* \"contracts/consensusranking.sol\":4229:4484  for (uint256 j = i + 1; j < _scores.length; j++) {... */\n    tag_146:\n        /* \"contracts/consensusranking.sol\":4257:4264  _scores */\n      dup5\n        /* \"contracts/consensusranking.sol\":4257:4271  _scores.length */\n      mload\n        /* \"contracts/consensusranking.sol\":4253:4254  j */\n      dup2\n        /* \"contracts/consensusranking.sol\":4253:4271  j < _scores.length */\n      lt\n        /* \"contracts/consensusranking.sol\":4229:4484  for (uint256 j = i + 1; j < _scores.length; j++) {... */\n      iszero\n      tag_147\n      jumpi\n        /* \"contracts/consensusranking.sol\":4309:4316  _scores */\n      dup5\n        /* \"contracts/consensusranking.sol\":4317:4318  j */\n      dup2\n        /* \"contracts/consensusranking.sol\":4309:4319  _scores[j] */\n      dup2\n      mload\n      dup2\n      lt\n      tag_151\n      jumpi\n      tag_152\n      tag_71\n      jump\t// in\n    tag_152:\n    tag_151:\n      0x20\n      mul\n      0x20\n      add\n      add\n      mload\n        /* \"contracts/consensusranking.sol\":4296:4303  _scores */\n      dup6\n        /* \"contracts/consensusranking.sol\":4304:4305  i */\n      dup4\n        /* \"contracts/consensusranking.sol\":4296:4306  _scores[i] */\n      dup2\n      mload\n      dup2\n      lt\n      tag_153\n      jumpi\n      tag_154\n      tag_71\n      jump\t// in\n    tag_154:\n    tag_153:\n      0x20\n      mul\n      0x20\n      add\n      add\n      mload\n        /* \"contracts/consensusranking.sol\":4296:4319  _scores[i] < _scores[j] */\n      lt\n        /* \"contracts/consensusranking.sol\":4292:4474  if (_scores[i] < _scores[j]) {... */\n      iszero\n      tag_155\n      jumpi\n        /* \"contracts/consensusranking.sol\":4367:4374  _scores */\n      dup5\n        /* \"contracts/consensusranking.sol\":4375:4376  j */\n      dup2\n        /* \"contracts/consensusranking.sol\":4367:4377  _scores[j] */\n      dup2\n      mload\n      dup2\n      lt\n      tag_156\n      jumpi\n      tag_157\n      tag_71\n      jump\t// in\n    tag_157:\n    tag_156:\n      0x20\n      mul\n      0x20\n      add\n      add\n      mload\n        /* \"contracts/consensusranking.sol\":4379:4386  _scores */\n      dup6\n        /* \"contracts/consensusranking.sol\":4387:4388  i */\n      dup4\n        /* \"contracts/consensusranking.sol\":4379:4389  _scores[i] */\n      dup2\n      mload\n      dup2\n      lt\n      tag_158\n      jumpi\n      tag_159\n      tag_71\n      jump\t// in\n    tag_159:\n    tag_158:\n      0x20\n      mul\n      0x20\n      add\n      add\n      mload\n        /* \"contracts/consensusranking.sol\":4340:4347  _scores */\n      dup7\n        /* \"contracts/consensusranking.sol\":4348:4349  i */\n      dup5\n        /* \"contracts/consensusranking.sol\":4340:4350  _scores[i] */\n      dup2\n      mload\n      dup2\n      lt\n      tag_160\n      jumpi\n      tag_161\n      tag_71\n      jump\t// in\n    tag_161:\n    tag_160:\n      0x20\n      mul\n      0x20\n      add\n      add\n        /* \"contracts/consensusranking.sol\":4352:4359  _scores */\n      dup8\n        /* \"contracts/consensusranking.sol\":4360:4361  j */\n      dup5\n        /* \"contracts/consensusranking.sol\":4352:4362  _scores[j] */\n      dup2\n      mload\n      dup2\n      lt\n      tag_162\n      jumpi\n      tag_163\n      tag_71\n      jump\t// in\n    tag_163:\n    tag_162:\n      0x20\n      mul\n      0x20\n      add\n      add\n        /* \"contracts/consensusranking.sol\":4339:4390  (_scores[i], _scores[j]) = (_scores[j], _scores[i]) */\n      dup3\n      dup2\n      mstore\n      pop\n      dup3\n      dup2\n      mstore\n      pop\n      pop\n      pop\n        /* \"contracts/consensusranking.sol\":4436:4443  indices */\n      dup3\n        /* \"contracts/consensusranking.sol\":4444:4445  j */\n      dup2\n        /* \"contracts/consensusranking.sol\":4436:4446  indices[j] */\n      dup2\n      mload\n      dup2\n      lt\n      tag_164\n      jumpi\n      tag_165\n      tag_71\n      jump\t// in\n    tag_165:\n    tag_164:\n      0x20\n      mul\n      0x20\n      add\n      add\n      mload\n        /* \"contracts/consensusranking.sol\":4448:4455  indices */\n      dup4\n        /* \"contracts/consensusranking.sol\":4456:4457  i */\n      dup4\n        /* \"contracts/consensusranking.sol\":4448:4458  indices[i] */\n      dup2\n      mload\n      dup2\n      lt\n      tag_166\n      jumpi\n      tag_167\n      tag_71\n      jump\t// in\n    tag_167:\n    tag_166:\n      0x20\n      mul\n      0x20\n      add\n      add\n      mload\n        /* \"contracts/consensusranking.sol\":4409:4416  indices */\n      dup5\n        /* \"contracts/consensusranking.sol\":4417:4418  i */\n      dup5\n        /* \"contracts/consensusranking.sol\":4409:4419  indices[i] */\n      dup2\n      mload\n      dup2\n      lt\n      tag_168\n      jumpi\n      tag_169\n      tag_71\n      jump\t// in\n    tag_169:\n    tag_168:\n      0x20\n      mul\n      0x20\n      add\n      add\n        /* \"contracts/consensusranking.sol\":4421:4428  indices */\n      dup6\n        /* \"contracts/consensusranking.sol\":4429:4430  j */\n      dup5\n        /* \"contracts/consensusranking.sol\":4421:4431  indices[j] */\n      dup2\n      mload\n      dup2\n      lt\n      tag_170\n      jumpi\n      tag_171\n      tag_71\n      jump\t// in\n    tag_171:\n    tag_170:\n      0x20\n      mul\n      0x20\n      add\n      add\n        /* \"contracts/consensusranking.sol\":4408:4459  (indices[i], indices[j]) = (indices[j], indices[i]) */\n      dup3\n      dup2\n      mstore\n      pop\n      dup3\n      dup2\n      mstore\n      pop\n      pop\n      pop\n        /* \"contracts/consensusranking.sol\":4292:4474  if (_scores[i] < _scores[j]) {... */\n    tag_155:\n        /* \"contracts/consensusranking.sol\":4273:4276  j++ */\n      dup1\n      dup1\n      0x01\n      add\n      swap2\n      pop\n      pop\n        /* \"contracts/consensusranking.sol\":4229:4484  for (uint256 j = i + 1; j < _scores.length; j++) {... */\n      jump(tag_146)\n    tag_147:\n      pop\n        /* \"contracts/consensusranking.sol\":4214:4217  i++ */\n      dup1\n      dup1\n      0x01\n      add\n      swap2\n      pop\n      pop\n        /* \"contracts/consensusranking.sol\":4170:4490  for (uint256 i = 0; i < _scores.length - 1; i++) {... */\n      jump(tag_142)\n    tag_143:\n      pop\n        /* \"contracts/consensusranking.sol\":4496:4525  uint256[] memory finalRanking */\n      0x00\n        /* \"contracts/consensusranking.sol\":4542:4549  _scores */\n      dup4\n        /* \"contracts/consensusranking.sol\":4542:4556  _scores.length */\n      mload\n        /* \"contracts/consensusranking.sol\":4528:4557  new uint256[](_scores.length) */\n      0xffffffffffffffff\n      dup2\n      gt\n      iszero\n      tag_172\n      jumpi\n      tag_173\n      tag_62\n      jump\t// in\n    tag_173:\n    tag_172:\n      mload(0x40)\n      swap1\n      dup1\n      dup3\n      mstore\n      dup1\n      0x20\n      mul\n      0x20\n      add\n      dup3\n      add\n      0x40\n      mstore\n      dup1\n      iszero\n      tag_174\n      jumpi\n      dup2\n      0x20\n      add\n      0x20\n      dup3\n      mul\n      dup1\n      calldatasize\n      dup4\n      calldatacopy\n      dup1\n      dup3\n      add\n      swap2\n      pop\n      pop\n      swap1\n      pop\n    tag_174:\n      pop\n        /* \"contracts/consensusranking.sol\":4496:4557  uint256[] memory finalRanking = new uint256[](_scores.length) */\n      swap1\n      pop\n        /* \"contracts/consensusranking.sol\":4568:4577  uint256 i */\n      0x00\n        /* \"contracts/consensusranking.sol\":4563:4675  for (uint256 i = 0; i < finalRanking.length; i++) {... */\n    tag_175:\n        /* \"contracts/consensusranking.sol\":4587:4599  finalRanking */\n      dup2\n        /* \"contracts/consensusranking.sol\":4587:4606  finalRanking.length */\n      mload\n        /* \"contracts/consensusranking.sol\":4583:4584  i */\n      dup2\n        /* \"contracts/consensusranking.sol\":4583:4606  i < finalRanking.length */\n      lt\n        /* \"contracts/consensusranking.sol\":4563:4675  for (uint256 i = 0; i < finalRanking.length; i++) {... */\n      iszero\n      tag_176\n      jumpi\n        /* \"contracts/consensusranking.sol\":4667:4668  i */\n      dup1\n        /* \"contracts/consensusranking.sol\":4650:4657  _scores */\n      dup6\n        /* \"contracts/consensusranking.sol\":4650:4664  _scores.length */\n      mload\n        /* \"contracts/consensusranking.sol\":4650:4668  _scores.length - i */\n      tag_178\n      swap2\n      swap1\n      tag_130\n      jump\t// in\n    tag_178:\n        /* \"contracts/consensusranking.sol\":4623:4635  finalRanking */\n      dup3\n        /* \"contracts/consensusranking.sol\":4636:4643  indices */\n      dup5\n        /* \"contracts/consensusranking.sol\":4644:4645  i */\n      dup4\n        /* \"contracts/consensusranking.sol\":4636:4646  indices[i] */\n      dup2\n      mload\n      dup2\n      lt\n      tag_179\n      jumpi\n      tag_180\n      tag_71\n      jump\t// in\n    tag_180:\n    tag_179:\n      0x20\n      mul\n      0x20\n      add\n      add\n      mload\n        /* \"contracts/consensusranking.sol\":4623:4647  finalRanking[indices[i]] */\n      dup2\n      mload\n      dup2\n      lt\n      tag_181\n      jumpi\n      tag_182\n      tag_71\n      jump\t// in\n    tag_182:\n    tag_181:\n      0x20\n      mul\n      0x20\n      add\n      add\n        /* \"contracts/consensusranking.sol\":4623:4668  finalRanking[indices[i]] = _scores.length - i */\n      dup2\n      dup2\n      mstore\n      pop\n      pop\n        /* \"contracts/consensusranking.sol\":4608:4611  i++ */\n      dup1\n      dup1\n      0x01\n      add\n      swap2\n      pop\n      pop\n        /* \"contracts/consensusranking.sol\":4563:4675  for (uint256 i = 0; i < finalRanking.length; i++) {... */\n      jump(tag_175)\n    tag_176:\n      pop\n        /* \"contracts/consensusranking.sol\":4688:4700  finalRanking */\n      dup1\n        /* \"contracts/consensusranking.sol\":4681:4700  return finalRanking */\n      swap3\n      pop\n      pop\n      pop\n        /* \"contracts/consensusranking.sol\":3933:4703  function sortByScore(uint256[] memory _scores) private pure returns (uint256[] memory) {... */\n      swap2\n      swap1\n      pop\n      jump\t// out\n        /* \"contracts/consensusranking.sol\":2635:2861  function calculateMean(uint256[] memory values) private pure returns (uint256) {... */\n    tag_118:\n        /* \"contracts/consensusranking.sol\":2705:2712  uint256 */\n      0x00\n        /* \"contracts/consensusranking.sol\":2720:2731  uint256 sum */\n      dup1\n        /* \"contracts/consensusranking.sol\":2734:2735  0 */\n      0x00\n        /* \"contracts/consensusranking.sol\":2720:2735  uint256 sum = 0 */\n      swap1\n      pop\n        /* \"contracts/consensusranking.sol\":2746:2755  uint256 i */\n      0x00\n        /* \"contracts/consensusranking.sol\":2741:2818  for (uint256 i = 0; i < values.length; i++) {... */\n    tag_184:\n        /* \"contracts/consensusranking.sol\":2765:2771  values */\n      dup4\n        /* \"contracts/consensusranking.sol\":2765:2778  values.length */\n      mload\n        /* \"contracts/consensusranking.sol\":2761:2762  i */\n      dup2\n        /* \"contracts/consensusranking.sol\":2761:2778  i < values.length */\n      lt\n        /* \"contracts/consensusranking.sol\":2741:2818  for (uint256 i = 0; i < values.length; i++) {... */\n      iszero\n      tag_185\n      jumpi\n        /* \"contracts/consensusranking.sol\":2802:2808  values */\n      dup4\n        /* \"contracts/consensusranking.sol\":2809:2810  i */\n      dup2\n        /* \"contracts/consensusranking.sol\":2802:2811  values[i] */\n      dup2\n      mload\n      dup2\n      lt\n      tag_187\n      jumpi\n      tag_188\n      tag_71\n      jump\t// in\n    tag_188:\n    tag_187:\n      0x20\n      mul\n      0x20\n      add\n      add\n      mload\n        /* \"contracts/consensusranking.sol\":2795:2811  sum += values[i] */\n      dup3\n      tag_189\n      swap2\n      swap1\n      tag_150\n      jump\t// in\n    tag_189:\n      swap2\n      pop\n        /* \"contracts/consensusranking.sol\":2780:2783  i++ */\n      dup1\n      dup1\n      0x01\n      add\n      swap2\n      pop\n      pop\n        /* \"contracts/consensusranking.sol\":2741:2818  for (uint256 i = 0; i < values.length; i++) {... */\n      jump(tag_184)\n    tag_185:\n      pop\n        /* \"contracts/consensusranking.sol\":2845:2851  values */\n      dup3\n        /* \"contracts/consensusranking.sol\":2845:2858  values.length */\n      mload\n        /* \"contracts/consensusranking.sol\":2837:2841  1e18 */\n      0x0de0b6b3a7640000\n        /* \"contracts/consensusranking.sol\":2831:2834  sum */\n      dup3\n        /* \"contracts/consensusranking.sol\":2831:2841  sum * 1e18 */\n      tag_190\n      swap2\n      swap1\n      tag_126\n      jump\t// in\n    tag_190:\n        /* \"contracts/consensusranking.sol\":2830:2858  (sum * 1e18) / values.length */\n      tag_191\n      swap2\n      swap1\n      tag_128\n      jump\t// in\n    tag_191:\n        /* \"contracts/consensusranking.sol\":2823:2858  return (sum * 1e18) / values.length */\n      swap2\n      pop\n      pop\n        /* \"contracts/consensusranking.sol\":2635:2861  function calculateMean(uint256[] memory values) private pure returns (uint256) {... */\n      swap2\n      swap1\n      pop\n      jump\t// out\n        /* \"contracts/consensusranking.sol\":3320:3697  function calculateVariance(uint256[] memory values) private pure returns (uint256) {... */\n    tag_120:\n        /* \"contracts/consensusranking.sol\":3394:3401  uint256 */\n      0x00\n        /* \"contracts/consensusranking.sol\":3409:3421  uint256 mean */\n      dup1\n        /* \"contracts/consensusranking.sol\":3424:3445  calculateMean(values) */\n      tag_193\n        /* \"contracts/consensusranking.sol\":3438:3444  values */\n      dup4\n        /* \"contracts/consensusranking.sol\":3424:3437  calculateMean */\n      tag_118\n        /* \"contracts/consensusranking.sol\":3424:3445  calculateMean(values) */\n      jump\t// in\n    tag_193:\n        /* \"contracts/consensusranking.sol\":3409:3445  uint256 mean = calculateMean(values) */\n      swap1\n      pop\n        /* \"contracts/consensusranking.sol\":3451:3473  uint256 sumSquaredDiff */\n      0x00\n        /* \"contracts/consensusranking.sol\":3488:3497  uint256 i */\n      dup1\n        /* \"contracts/consensusranking.sol\":3483:3652  for (uint256 i = 0; i < values.length; i++) {... */\n    tag_194:\n        /* \"contracts/consensusranking.sol\":3507:3513  values */\n      dup5\n        /* \"contracts/consensusranking.sol\":3507:3520  values.length */\n      mload\n        /* \"contracts/consensusranking.sol\":3503:3504  i */\n      dup2\n        /* \"contracts/consensusranking.sol\":3503:3520  i < values.length */\n      lt\n        /* \"contracts/consensusranking.sol\":3483:3652  for (uint256 i = 0; i < values.length; i++) {... */\n      iszero\n      tag_195\n      jumpi\n        /* \"contracts/consensusranking.sol\":3537:3548  int256 diff */\n      0x00\n        /* \"contracts/consensusranking.sol\":3585:3589  mean */\n      dup4\n        /* \"contracts/consensusranking.sol\":3570:3574  1e18 */\n      0x0de0b6b3a7640000\n        /* \"contracts/consensusranking.sol\":3558:3564  values */\n      dup8\n        /* \"contracts/consensusranking.sol\":3565:3566  i */\n      dup5\n        /* \"contracts/consensusranking.sol\":3558:3567  values[i] */\n      dup2\n      mload\n      dup2\n      lt\n      tag_197\n      jumpi\n      tag_198\n      tag_71\n      jump\t// in\n    tag_198:\n    tag_197:\n      0x20\n      mul\n      0x20\n      add\n      add\n      mload\n        /* \"contracts/consensusranking.sol\":3558:3574  values[i] * 1e18 */\n      tag_199\n      swap2\n      swap1\n      tag_126\n      jump\t// in\n    tag_199:\n        /* \"contracts/consensusranking.sol\":3551:3590  int256(values[i] * 1e18) - int256(mean) */\n      tag_200\n      swap2\n      swap1\n      tag_201\n      jump\t// in\n    tag_200:\n        /* \"contracts/consensusranking.sol\":3537:3590  int256 diff = int256(values[i] * 1e18) - int256(mean) */\n      swap1\n      pop\n        /* \"contracts/consensusranking.sol\":3641:3645  1e18 */\n      0x0de0b6b3a7640000\n        /* \"contracts/consensusranking.sol\":3633:3637  diff */\n      dup2\n        /* \"contracts/consensusranking.sol\":3626:3630  diff */\n      dup3\n        /* \"contracts/consensusranking.sol\":3626:3637  diff * diff */\n      tag_202\n      swap2\n      swap1\n      tag_203\n      jump\t// in\n    tag_202:\n        /* \"contracts/consensusranking.sol\":3618:3645  uint256(diff * diff) / 1e18 */\n      tag_204\n      swap2\n      swap1\n      tag_128\n      jump\t// in\n    tag_204:\n        /* \"contracts/consensusranking.sol\":3600:3645  sumSquaredDiff += uint256(diff * diff) / 1e18 */\n      dup4\n      tag_205\n      swap2\n      swap1\n      tag_150\n      jump\t// in\n    tag_205:\n      swap3\n      pop\n        /* \"contracts/consensusranking.sol\":3527:3652  {... */\n      pop\n        /* \"contracts/consensusranking.sol\":3522:3525  i++ */\n      dup1\n      dup1\n      0x01\n      add\n      swap2\n      pop\n      pop\n        /* \"contracts/consensusranking.sol\":3483:3652  for (uint256 i = 0; i < values.length; i++) {... */\n      jump(tag_194)\n    tag_195:\n      pop\n        /* \"contracts/consensusranking.sol\":3681:3687  values */\n      dup4\n        /* \"contracts/consensusranking.sol\":3681:3694  values.length */\n      mload\n        /* \"contracts/consensusranking.sol\":3664:3678  sumSquaredDiff */\n      dup2\n        /* \"contracts/consensusranking.sol\":3664:3694  sumSquaredDiff / values.length */\n      tag_206\n      swap2\n      swap1\n      tag_128\n      jump\t// in\n    tag_206:\n        /* \"contracts/consensusranking.sol\":3657:3694  return sumSquaredDiff / values.length */\n      swap3\n      pop\n      pop\n      pop\n        /* \"contracts/consensusranking.sol\":3320:3697  function calculateVariance(uint256[] memory values) private pure returns (uint256) {... */\n      swap2\n      swap1\n      pop\n      jump\t// out\n        /* \"contracts/consensusranking.sol\":3699:3932  function calculateMaxVariance(uint256 groupSize) private pure returns (uint256) {... */\n    tag_122:\n        /* \"contracts/consensusranking.sol\":3770:3777  uint256 */\n      0x00\n        /* \"contracts/consensusranking.sol\":3785:3796  uint256 sum */\n      dup1\n        /* \"contracts/consensusranking.sol\":3799:3800  0 */\n      0x00\n        /* \"contracts/consensusranking.sol\":3785:3800  uint256 sum = 0 */\n      swap1\n      pop\n        /* \"contracts/consensusranking.sol\":3811:3820  uint256 x */\n      0x00\n        /* \"contracts/consensusranking.sol\":3823:3824  1 */\n      0x01\n        /* \"contracts/consensusranking.sol\":3811:3824  uint256 x = 1 */\n      swap1\n      pop\n        /* \"contracts/consensusranking.sol\":3806:3882  for (uint256 x = 1; x < groupSize; x++) {... */\n    tag_208:\n        /* \"contracts/consensusranking.sol\":3830:3839  groupSize */\n      dup4\n        /* \"contracts/consensusranking.sol\":3826:3827  x */\n      dup2\n        /* \"contracts/consensusranking.sol\":3826:3839  x < groupSize */\n      lt\n        /* \"contracts/consensusranking.sol\":3806:3882  for (uint256 x = 1; x < groupSize; x++) {... */\n      iszero\n      tag_209\n      jumpi\n        /* \"contracts/consensusranking.sol\":3874:3875  2 */\n      0x02\n        /* \"contracts/consensusranking.sol\":3867:3871  1e18 */\n      0x0de0b6b3a7640000\n        /* \"contracts/consensusranking.sol\":3863:3864  x */\n      dup3\n        /* \"contracts/consensusranking.sol\":3863:3871  x * 1e18 */\n      tag_211\n      swap2\n      swap1\n      tag_126\n      jump\t// in\n    tag_211:\n        /* \"contracts/consensusranking.sol\":3863:3875  x * 1e18 / 2 */\n      tag_212\n      swap2\n      swap1\n      tag_128\n      jump\t// in\n    tag_212:\n        /* \"contracts/consensusranking.sol\":3856:3875  sum += x * 1e18 / 2 */\n      dup3\n      tag_213\n      swap2\n      swap1\n      tag_150\n      jump\t// in\n    tag_213:\n      swap2\n      pop\n        /* \"contracts/consensusranking.sol\":3841:3844  x++ */\n      dup1\n      dup1\n      0x01\n      add\n      swap2\n      pop\n      pop\n        /* \"contracts/consensusranking.sol\":3806:3882  for (uint256 x = 1; x < groupSize; x++) {... */\n      jump(tag_208)\n    tag_209:\n      pop\n        /* \"contracts/consensusranking.sol\":3927:3928  1 */\n      0x01\n        /* \"contracts/consensusranking.sol\":3915:3924  groupSize */\n      dup4\n        /* \"contracts/consensusranking.sol\":3915:3928  groupSize - 1 */\n      tag_214\n      swap2\n      swap1\n      tag_130\n      jump\t// in\n    tag_214:\n        /* \"contracts/consensusranking.sol\":3907:3910  sum */\n      dup2\n        /* \"contracts/consensusranking.sol\":3895:3904  groupSize */\n      dup5\n        /* \"contracts/consensusranking.sol\":3895:3910  groupSize * sum */\n      tag_215\n      swap2\n      swap1\n      tag_126\n      jump\t// in\n    tag_215:\n        /* \"contracts/consensusranking.sol\":3894:3929  (groupSize * sum) / (groupSize - 1) */\n      tag_216\n      swap2\n      swap1\n      tag_128\n      jump\t// in\n    tag_216:\n        /* \"contracts/consensusranking.sol\":3887:3929  return (groupSize * sum) / (groupSize - 1) */\n      swap2\n      pop\n      pop\n        /* \"contracts/consensusranking.sol\":3699:3932  function calculateMaxVariance(uint256 groupSize) private pure returns (uint256) {... */\n      swap2\n      swap1\n      pop\n      jump\t// out\n    tag_47:\n      dup3\n      dup1\n      sload\n      dup3\n      dup3\n      sstore\n      swap1\n      0x00\n      mstore\n      keccak256(0x00, 0x20)\n      swap1\n      dup2\n      add\n      swap3\n      dup3\n      iszero\n      tag_217\n      jumpi\n      swap2\n      0x20\n      mul\n      dup3\n      add\n    tag_218:\n      dup3\n      dup2\n      gt\n      iszero\n      tag_219\n      jumpi\n      dup3\n      mload\n      dup3\n      sstore\n      swap2\n      0x20\n      add\n      swap2\n      swap1\n      0x01\n      add\n      swap1\n      jump(tag_218)\n    tag_219:\n    tag_217:\n      pop\n      swap1\n      pop\n      tag_220\n      swap2\n      swap1\n      tag_221\n      jump\t// in\n    tag_220:\n      pop\n      swap1\n      jump\t// out\n    tag_221:\n    tag_222:\n      dup1\n      dup3\n      gt\n      iszero\n      tag_223\n      jumpi\n      0x00\n      dup2\n      0x00\n      swap1\n      sstore\n      pop\n      0x01\n      add\n      jump(tag_222)\n    tag_223:\n      pop\n      swap1\n      jump\t// out\n        /* \"#utility.yul\":7:121   */\n    tag_224:\n        /* \"#utility.yul\":74:80   */\n      0x00\n        /* \"#utility.yul\":108:113   */\n      dup2\n        /* \"#utility.yul\":102:114   */\n      mload\n        /* \"#utility.yul\":92:114   */\n      swap1\n      pop\n        /* \"#utility.yul\":7:121   */\n      swap2\n      swap1\n      pop\n      jump\t// out\n        /* \"#utility.yul\":127:311   */\n    tag_225:\n        /* \"#utility.yul\":226:237   */\n      0x00\n        /* \"#utility.yul\":260:266   */\n      dup3\n        /* \"#utility.yul\":255:258   */\n      dup3\n        /* \"#utility.yul\":248:267   */\n      mstore\n        /* \"#utility.yul\":300:304   */\n      0x20\n        /* \"#utility.yul\":295:298   */\n      dup3\n        /* \"#utility.yul\":291:305   */\n      add\n        /* \"#utility.yul\":276:305   */\n      swap1\n      pop\n        /* \"#utility.yul\":127:311   */\n      swap3\n      swap2\n      pop\n      pop\n      jump\t// out\n        /* \"#utility.yul\":317:449   */\n    tag_226:\n        /* \"#utility.yul\":384:388   */\n      0x00\n        /* \"#utility.yul\":407:410   */\n      dup2\n        /* \"#utility.yul\":399:410   */\n      swap1\n      pop\n        /* \"#utility.yul\":437:441   */\n      0x20\n        /* \"#utility.yul\":432:435   */\n      dup3\n        /* \"#utility.yul\":428:442   */\n      add\n        /* \"#utility.yul\":420:442   */\n      swap1\n      pop\n        /* \"#utility.yul\":317:449   */\n      swap2\n      swap1\n      pop\n      jump\t// out\n        /* \"#utility.yul\":455:581   */\n    tag_227:\n        /* \"#utility.yul\":492:499   */\n      0x00\n        /* \"#utility.yul\":532:574   */\n      0xffffffffffffffffffffffffffffffffffffffff\n        /* \"#utility.yul\":525:530   */\n      dup3\n        /* \"#utility.yul\":521:575   */\n      and\n        /* \"#utility.yul\":510:575   */\n      swap1\n      pop\n        /* \"#utility.yul\":455:581   */\n      swap2\n      swap1\n      pop\n      jump\t// out\n        /* \"#utility.yul\":587:683   */\n    tag_228:\n        /* \"#utility.yul\":624:631   */\n      0x00\n        /* \"#utility.yul\":653:677   */\n      tag_283\n        /* \"#utility.yul\":671:676   */\n      dup3\n        /* \"#utility.yul\":653:677   */\n      tag_227\n      jump\t// in\n    tag_283:\n        /* \"#utility.yul\":642:677   */\n      swap1\n      pop\n        /* \"#utility.yul\":587:683   */\n      swap2\n      swap1\n      pop\n      jump\t// out\n        /* \"#utility.yul\":689:797   */\n    tag_229:\n        /* \"#utility.yul\":766:790   */\n      tag_285\n        /* \"#utility.yul\":784:789   */\n      dup2\n        /* \"#utility.yul\":766:790   */\n      tag_228\n      jump\t// in\n    tag_285:\n        /* \"#utility.yul\":761:764   */\n      dup3\n        /* \"#utility.yul\":754:791   */\n      mstore\n        /* \"#utility.yul\":689:797   */\n      pop\n      pop\n      jump\t// out\n        /* \"#utility.yul\":803:982   */\n    tag_230:\n        /* \"#utility.yul\":872:882   */\n      0x00\n        /* \"#utility.yul\":893:939   */\n      tag_287\n        /* \"#utility.yul\":935:938   */\n      dup4\n        /* \"#utility.yul\":927:933   */\n      dup4\n        /* \"#utility.yul\":893:939   */\n      tag_229\n      jump\t// in\n    tag_287:\n        /* \"#utility.yul\":971:975   */\n      0x20\n        /* \"#utility.yul\":966:969   */\n      dup4\n        /* \"#utility.yul\":962:976   */\n      add\n        /* \"#utility.yul\":948:976   */\n      swap1\n      pop\n        /* \"#utility.yul\":803:982   */\n      swap3\n      swap2\n      pop\n      pop\n      jump\t// out\n        /* \"#utility.yul\":988:1101   */\n    tag_231:\n        /* \"#utility.yul\":1058:1062   */\n      0x00\n        /* \"#utility.yul\":1090:1094   */\n      0x20\n        /* \"#utility.yul\":1085:1088   */\n      dup3\n        /* \"#utility.yul\":1081:1095   */\n      add\n        /* \"#utility.yul\":1073:1095   */\n      swap1\n      pop\n        /* \"#utility.yul\":988:1101   */\n      swap2\n      swap1\n      pop\n      jump\t// out\n        /* \"#utility.yul\":1137:1869   */\n    tag_232:\n        /* \"#utility.yul\":1256:1259   */\n      0x00\n        /* \"#utility.yul\":1285:1339   */\n      tag_290\n        /* \"#utility.yul\":1333:1338   */\n      dup3\n        /* \"#utility.yul\":1285:1339   */\n      tag_224\n      jump\t// in\n    tag_290:\n        /* \"#utility.yul\":1355:1441   */\n      tag_291\n        /* \"#utility.yul\":1434:1440   */\n      dup2\n        /* \"#utility.yul\":1429:1432   */\n      dup6\n        /* \"#utility.yul\":1355:1441   */\n      tag_225\n      jump\t// in\n    tag_291:\n        /* \"#utility.yul\":1348:1441   */\n      swap4\n      pop\n        /* \"#utility.yul\":1465:1521   */\n      tag_292\n        /* \"#utility.yul\":1515:1520   */\n      dup4\n        /* \"#utility.yul\":1465:1521   */\n      tag_226\n      jump\t// in\n    tag_292:\n        /* \"#utility.yul\":1544:1551   */\n      dup1\n        /* \"#utility.yul\":1575:1576   */\n      0x00\n        /* \"#utility.yul\":1560:1844   */\n    tag_293:\n        /* \"#utility.yul\":1585:1591   */\n      dup4\n        /* \"#utility.yul\":1582:1583   */\n      dup2\n        /* \"#utility.yul\":1579:1592   */\n      lt\n        /* \"#utility.yul\":1560:1844   */\n      iszero\n      tag_295\n      jumpi\n        /* \"#utility.yul\":1661:1667   */\n      dup2\n        /* \"#utility.yul\":1655:1668   */\n      mload\n        /* \"#utility.yul\":1688:1751   */\n      tag_296\n        /* \"#utility.yul\":1747:1750   */\n      dup9\n        /* \"#utility.yul\":1732:1745   */\n      dup3\n        /* \"#utility.yul\":1688:1751   */\n      tag_230\n      jump\t// in\n    tag_296:\n        /* \"#utility.yul\":1681:1751   */\n      swap8\n      pop\n        /* \"#utility.yul\":1774:1834   */\n      tag_297\n        /* \"#utility.yul\":1827:1833   */\n      dup4\n        /* \"#utility.yul\":1774:1834   */\n      tag_231\n      jump\t// in\n    tag_297:\n        /* \"#utility.yul\":1764:1834   */\n      swap3\n      pop\n        /* \"#utility.yul\":1620:1844   */\n      pop\n        /* \"#utility.yul\":1607:1608   */\n      0x01\n        /* \"#utility.yul\":1604:1605   */\n      dup2\n        /* \"#utility.yul\":1600:1609   */\n      add\n        /* \"#utility.yul\":1595:1609   */\n      swap1\n      pop\n        /* \"#utility.yul\":1560:1844   */\n      jump(tag_293)\n    tag_295:\n        /* \"#utility.yul\":1564:1578   */\n      pop\n        /* \"#utility.yul\":1860:1863   */\n      dup6\n        /* \"#utility.yul\":1853:1863   */\n      swap4\n      pop\n        /* \"#utility.yul\":1261:1869   */\n      pop\n      pop\n      pop\n        /* \"#utility.yul\":1137:1869   */\n      swap3\n      swap2\n      pop\n      pop\n      jump\t// out\n        /* \"#utility.yul\":1875:2248   */\n    tag_12:\n        /* \"#utility.yul\":2018:2022   */\n      0x00\n        /* \"#utility.yul\":2056:2058   */\n      0x20\n        /* \"#utility.yul\":2045:2054   */\n      dup3\n        /* \"#utility.yul\":2041:2059   */\n      add\n        /* \"#utility.yul\":2033:2059   */\n      swap1\n      pop\n        /* \"#utility.yul\":2105:2114   */\n      dup2\n        /* \"#utility.yul\":2099:2103   */\n      dup2\n        /* \"#utility.yul\":2095:2115   */\n      sub\n        /* \"#utility.yul\":2091:2092   */\n      0x00\n        /* \"#utility.yul\":2080:2089   */\n      dup4\n        /* \"#utility.yul\":2076:2093   */\n      add\n        /* \"#utility.yul\":2069:2116   */\n      mstore\n        /* \"#utility.yul\":2133:2241   */\n      tag_299\n        /* \"#utility.yul\":2236:2240   */\n      dup2\n        /* \"#utility.yul\":2227:2233   */\n      dup5\n        /* \"#utility.yul\":2133:2241   */\n      tag_232\n      jump\t// in\n    tag_299:\n        /* \"#utility.yul\":2125:2241   */\n      swap1\n      pop\n        /* \"#utility.yul\":1875:2248   */\n      swap3\n      swap2\n      pop\n      pop\n      jump\t// out\n        /* \"#utility.yul\":2254:2329   */\n    tag_233:\n        /* \"#utility.yul\":2287:2293   */\n      0x00\n        /* \"#utility.yul\":2320:2322   */\n      0x40\n        /* \"#utility.yul\":2314:2323   */\n      mload\n        /* \"#utility.yul\":2304:2323   */\n      swap1\n      pop\n        /* \"#utility.yul\":2254:2329   */\n      swap1\n      jump\t// out\n        /* \"#utility.yul\":2335:2452   */\n    tag_234:\n        /* \"#utility.yul\":2444:2445   */\n      0x00\n        /* \"#utility.yul\":2441:2442   */\n      dup1\n        /* \"#utility.yul\":2434:2446   */\n      revert\n        /* \"#utility.yul\":2458:2575   */\n    tag_235:\n        /* \"#utility.yul\":2567:2568   */\n      0x00\n        /* \"#utility.yul\":2564:2565   */\n      dup1\n        /* \"#utility.yul\":2557:2569   */\n      revert\n        /* \"#utility.yul\":2581:2698   */\n    tag_236:\n        /* \"#utility.yul\":2690:2691   */\n      0x00\n        /* \"#utility.yul\":2687:2688   */\n      dup1\n        /* \"#utility.yul\":2680:2692   */\n      revert\n        /* \"#utility.yul\":2704:2806   */\n    tag_237:\n        /* \"#utility.yul\":2745:2751   */\n      0x00\n        /* \"#utility.yul\":2796:2798   */\n      0x1f\n        /* \"#utility.yul\":2792:2799   */\n      not\n        /* \"#utility.yul\":2787:2789   */\n      0x1f\n        /* \"#utility.yul\":2780:2785   */\n      dup4\n        /* \"#utility.yul\":2776:2790   */\n      add\n        /* \"#utility.yul\":2772:2800   */\n      and\n        /* \"#utility.yul\":2762:2800   */\n      swap1\n      pop\n        /* \"#utility.yul\":2704:2806   */\n      swap2\n      swap1\n      pop\n      jump\t// out\n        /* \"#utility.yul\":2812:2992   */\n    tag_62:\n        /* \"#utility.yul\":2860:2937   */\n      0x4e487b7100000000000000000000000000000000000000000000000000000000\n        /* \"#utility.yul\":2857:2858   */\n      0x00\n        /* \"#utility.yul\":2850:2938   */\n      mstore\n        /* \"#utility.yul\":2957:2961   */\n      0x41\n        /* \"#utility.yul\":2954:2955   */\n      0x04\n        /* \"#utility.yul\":2947:2962   */\n      mstore\n        /* \"#utility.yul\":2981:2985   */\n      0x24\n        /* \"#utility.yul\":2978:2979   */\n      0x00\n        /* \"#utility.yul\":2971:2986   */\n      revert\n        /* \"#utility.yul\":2998:3279   */\n    tag_238:\n        /* \"#utility.yul\":3081:3108   */\n      tag_307\n        /* \"#utility.yul\":3103:3107   */\n      dup3\n        /* \"#utility.yul\":3081:3108   */\n      tag_237\n      jump\t// in\n    tag_307:\n        /* \"#utility.yul\":3073:3079   */\n      dup2\n        /* \"#utility.yul\":3069:3109   */\n      add\n        /* \"#utility.yul\":3211:3217   */\n      dup2\n        /* \"#utility.yul\":3199:3209   */\n      dup2\n        /* \"#utility.yul\":3196:3218   */\n      lt\n        /* \"#utility.yul\":3175:3193   */\n      0xffffffffffffffff\n        /* \"#utility.yul\":3163:3173   */\n      dup3\n        /* \"#utility.yul\":3160:3194   */\n      gt\n        /* \"#utility.yul\":3157:3219   */\n      or\n        /* \"#utility.yul\":3154:3242   */\n      iszero\n      tag_308\n      jumpi\n        /* \"#utility.yul\":3222:3240   */\n      tag_309\n      tag_62\n      jump\t// in\n    tag_309:\n        /* \"#utility.yul\":3154:3242   */\n    tag_308:\n        /* \"#utility.yul\":3262:3272   */\n      dup1\n        /* \"#utility.yul\":3258:3260   */\n      0x40\n        /* \"#utility.yul\":3251:3273   */\n      mstore\n        /* \"#utility.yul\":3041:3279   */\n      pop\n        /* \"#utility.yul\":2998:3279   */\n      pop\n      pop\n      jump\t// out\n        /* \"#utility.yul\":3285:3414   */\n    tag_239:\n        /* \"#utility.yul\":3319:3325   */\n      0x00\n        /* \"#utility.yul\":3346:3366   */\n      tag_311\n      tag_233\n      jump\t// in\n    tag_311:\n        /* \"#utility.yul\":3336:3366   */\n      swap1\n      pop\n        /* \"#utility.yul\":3375:3408   */\n      tag_312\n        /* \"#utility.yul\":3403:3407   */\n      dup3\n        /* \"#utility.yul\":3395:3401   */\n      dup3\n        /* \"#utility.yul\":3375:3408   */\n      tag_238\n      jump\t// in\n    tag_312:\n        /* \"#utility.yul\":3285:3414   */\n      swap2\n      swap1\n      pop\n      jump\t// out\n        /* \"#utility.yul\":3420:3731   */\n    tag_240:\n        /* \"#utility.yul\":3497:3501   */\n      0x00\n        /* \"#utility.yul\":3587:3605   */\n      0xffffffffffffffff\n        /* \"#utility.yul\":3579:3585   */\n      dup3\n        /* \"#utility.yul\":3576:3606   */\n      gt\n        /* \"#utility.yul\":3573:3629   */\n      iszero\n      tag_314\n      jumpi\n        /* \"#utility.yul\":3609:3627   */\n      tag_315\n      tag_62\n      jump\t// in\n    tag_315:\n        /* \"#utility.yul\":3573:3629   */\n    tag_314:\n        /* \"#utility.yul\":3659:3663   */\n      0x20\n        /* \"#utility.yul\":3651:3657   */\n      dup3\n        /* \"#utility.yul\":3647:3664   */\n      mul\n        /* \"#utility.yul\":3639:3664   */\n      swap1\n      pop\n        /* \"#utility.yul\":3719:3723   */\n      0x20\n        /* \"#utility.yul\":3713:3717   */\n      dup2\n        /* \"#utility.yul\":3709:3724   */\n      add\n        /* \"#utility.yul\":3701:3724   */\n      swap1\n      pop\n        /* \"#utility.yul\":3420:3731   */\n      swap2\n      swap1\n      pop\n      jump\t// out\n        /* \"#utility.yul\":3737:3854   */\n    tag_241:\n        /* \"#utility.yul\":3846:3847   */\n      0x00\n        /* \"#utility.yul\":3843:3844   */\n      dup1\n        /* \"#utility.yul\":3836:3848   */\n      revert\n        /* \"#utility.yul\":3860:3937   */\n    tag_242:\n        /* \"#utility.yul\":3897:3904   */\n      0x00\n        /* \"#utility.yul\":3926:3931   */\n      dup2\n        /* \"#utility.yul\":3915:3931   */\n      swap1\n      pop\n        /* \"#utility.yul\":3860:3937   */\n      swap2\n      swap1\n      pop\n      jump\t// out\n        /* \"#utility.yul\":3943:4065   */\n    tag_243:\n        /* \"#utility.yul\":4016:4040   */\n      tag_319\n        /* \"#utility.yul\":4034:4039   */\n      dup2\n        /* \"#utility.yul\":4016:4040   */\n      tag_242\n      jump\t// in\n    tag_319:\n        /* \"#utility.yul\":4009:4014   */\n      dup2\n        /* \"#utility.yul\":4006:4041   */\n      eq\n        /* \"#utility.yul\":3996:4059   */\n      tag_320\n      jumpi\n        /* \"#utility.yul\":4055:4056   */\n      0x00\n        /* \"#utility.yul\":4052:4053   */\n      dup1\n        /* \"#utility.yul\":4045:4057   */\n      revert\n        /* \"#utility.yul\":3996:4059   */\n    tag_320:\n        /* \"#utility.yul\":3943:4065   */\n      pop\n      jump\t// out\n        /* \"#utility.yul\":4071:4210   */\n    tag_244:\n        /* \"#utility.yul\":4117:4122   */\n      0x00\n        /* \"#utility.yul\":4155:4161   */\n      dup2\n        /* \"#utility.yul\":4142:4162   */\n      calldataload\n        /* \"#utility.yul\":4133:4162   */\n      swap1\n      pop\n        /* \"#utility.yul\":4171:4204   */\n      tag_322\n        /* \"#utility.yul\":4198:4203   */\n      dup2\n        /* \"#utility.yul\":4171:4204   */\n      tag_243\n      jump\t// in\n    tag_322:\n        /* \"#utility.yul\":4071:4210   */\n      swap3\n      swap2\n      pop\n      pop\n      jump\t// out\n        /* \"#utility.yul\":4233:4943   */\n    tag_245:\n        /* \"#utility.yul\":4329:4334   */\n      0x00\n        /* \"#utility.yul\":4354:4435   */\n      tag_324\n        /* \"#utility.yul\":4370:4434   */\n      tag_325\n        /* \"#utility.yul\":4427:4433   */\n      dup5\n        /* \"#utility.yul\":4370:4434   */\n      tag_240\n      jump\t// in\n    tag_325:\n        /* \"#utility.yul\":4354:4435   */\n      tag_239\n      jump\t// in\n    tag_324:\n        /* \"#utility.yul\":4345:4435   */\n      swap1\n      pop\n        /* \"#utility.yul\":4455:4460   */\n      dup1\n        /* \"#utility.yul\":4484:4490   */\n      dup4\n        /* \"#utility.yul\":4477:4482   */\n      dup3\n        /* \"#utility.yul\":4470:4491   */\n      mstore\n        /* \"#utility.yul\":4518:4522   */\n      0x20\n        /* \"#utility.yul\":4511:4516   */\n      dup3\n        /* \"#utility.yul\":4507:4523   */\n      add\n        /* \"#utility.yul\":4500:4523   */\n      swap1\n      pop\n        /* \"#utility.yul\":4571:4575   */\n      0x20\n        /* \"#utility.yul\":4563:4569   */\n      dup5\n        /* \"#utility.yul\":4559:4576   */\n      mul\n        /* \"#utility.yul\":4551:4557   */\n      dup4\n        /* \"#utility.yul\":4547:4577   */\n      add\n        /* \"#utility.yul\":4600:4603   */\n      dup6\n        /* \"#utility.yul\":4592:4598   */\n      dup2\n        /* \"#utility.yul\":4589:4604   */\n      gt\n        /* \"#utility.yul\":4586:4708   */\n      iszero\n      tag_326\n      jumpi\n        /* \"#utility.yul\":4619:4698   */\n      tag_327\n      tag_241\n      jump\t// in\n    tag_327:\n        /* \"#utility.yul\":4586:4708   */\n    tag_326:\n        /* \"#utility.yul\":4734:4740   */\n      dup4\n        /* \"#utility.yul\":4717:4937   */\n    tag_328:\n        /* \"#utility.yul\":4751:4757   */\n      dup2\n        /* \"#utility.yul\":4746:4749   */\n      dup2\n        /* \"#utility.yul\":4743:4758   */\n      lt\n        /* \"#utility.yul\":4717:4937   */\n      iszero\n      tag_330\n      jumpi\n        /* \"#utility.yul\":4826:4829   */\n      dup1\n        /* \"#utility.yul\":4855:4892   */\n      tag_331\n        /* \"#utility.yul\":4888:4891   */\n      dup9\n        /* \"#utility.yul\":4876:4886   */\n      dup3\n        /* \"#utility.yul\":4855:4892   */\n      tag_244\n      jump\t// in\n    tag_331:\n        /* \"#utility.yul\":4850:4853   */\n      dup5\n        /* \"#utility.yul\":4843:4893   */\n      mstore\n        /* \"#utility.yul\":4922:4926   */\n      0x20\n        /* \"#utility.yul\":4917:4920   */\n      dup5\n        /* \"#utility.yul\":4913:4927   */\n      add\n        /* \"#utility.yul\":4906:4927   */\n      swap4\n      pop\n        /* \"#utility.yul\":4793:4937   */\n      pop\n        /* \"#utility.yul\":4777:4781   */\n      0x20\n        /* \"#utility.yul\":4772:4775   */\n      dup2\n        /* \"#utility.yul\":4768:4782   */\n      add\n        /* \"#utility.yul\":4761:4782   */\n      swap1\n      pop\n        /* \"#utility.yul\":4717:4937   */\n      jump(tag_328)\n    tag_330:\n        /* \"#utility.yul\":4721:4742   */\n      pop\n        /* \"#utility.yul\":4335:4943   */\n      pop\n      pop\n        /* \"#utility.yul\":4233:4943   */\n      swap4\n      swap3\n      pop\n      pop\n      pop\n      jump\t// out\n        /* \"#utility.yul\":4966:5336   */\n    tag_246:\n        /* \"#utility.yul\":5037:5042   */\n      0x00\n        /* \"#utility.yul\":5086:5089   */\n      dup3\n        /* \"#utility.yul\":5079:5083   */\n      0x1f\n        /* \"#utility.yul\":5071:5077   */\n      dup4\n        /* \"#utility.yul\":5067:5084   */\n      add\n        /* \"#utility.yul\":5063:5090   */\n      slt\n        /* \"#utility.yul\":5053:5175   */\n      tag_333\n      jumpi\n        /* \"#utility.yul\":5094:5173   */\n      tag_334\n      tag_236\n      jump\t// in\n    tag_334:\n        /* \"#utility.yul\":5053:5175   */\n    tag_333:\n        /* \"#utility.yul\":5211:5217   */\n      dup2\n        /* \"#utility.yul\":5198:5218   */\n      calldataload\n        /* \"#utility.yul\":5236:5330   */\n      tag_335\n        /* \"#utility.yul\":5326:5329   */\n      dup5\n        /* \"#utility.yul\":5318:5324   */\n      dup3\n        /* \"#utility.yul\":5311:5315   */\n      0x20\n        /* \"#utility.yul\":5303:5309   */\n      dup7\n        /* \"#utility.yul\":5299:5316   */\n      add\n        /* \"#utility.yul\":5236:5330   */\n      tag_245\n      jump\t// in\n    tag_335:\n        /* \"#utility.yul\":5227:5330   */\n      swap2\n      pop\n        /* \"#utility.yul\":5043:5336   */\n      pop\n        /* \"#utility.yul\":4966:5336   */\n      swap3\n      swap2\n      pop\n      pop\n      jump\t// out\n        /* \"#utility.yul\":5342:5881   */\n    tag_15:\n        /* \"#utility.yul\":5426:5432   */\n      0x00\n        /* \"#utility.yul\":5475:5477   */\n      0x20\n        /* \"#utility.yul\":5463:5472   */\n      dup3\n        /* \"#utility.yul\":5454:5461   */\n      dup5\n        /* \"#utility.yul\":5450:5473   */\n      sub\n        /* \"#utility.yul\":5446:5478   */\n      slt\n        /* \"#utility.yul\":5443:5562   */\n      iszero\n      tag_337\n      jumpi\n        /* \"#utility.yul\":5481:5560   */\n      tag_338\n      tag_234\n      jump\t// in\n    tag_338:\n        /* \"#utility.yul\":5443:5562   */\n    tag_337:\n        /* \"#utility.yul\":5629:5630   */\n      0x00\n        /* \"#utility.yul\":5618:5627   */\n      dup3\n        /* \"#utility.yul\":5614:5631   */\n      add\n        /* \"#utility.yul\":5601:5632   */\n      calldataload\n        /* \"#utility.yul\":5659:5677   */\n      0xffffffffffffffff\n        /* \"#utility.yul\":5651:5657   */\n      dup2\n        /* \"#utility.yul\":5648:5678   */\n      gt\n        /* \"#utility.yul\":5645:5762   */\n      iszero\n      tag_339\n      jumpi\n        /* \"#utility.yul\":5681:5760   */\n      tag_340\n      tag_235\n      jump\t// in\n    tag_340:\n        /* \"#utility.yul\":5645:5762   */\n    tag_339:\n        /* \"#utility.yul\":5786:5864   */\n      tag_341\n        /* \"#utility.yul\":5856:5863   */\n      dup5\n        /* \"#utility.yul\":5847:5853   */\n      dup3\n        /* \"#utility.yul\":5836:5845   */\n      dup6\n        /* \"#utility.yul\":5832:5854   */\n      add\n        /* \"#utility.yul\":5786:5864   */\n      tag_246\n      jump\t// in\n    tag_341:\n        /* \"#utility.yul\":5776:5864   */\n      swap2\n      pop\n        /* \"#utility.yul\":5572:5874   */\n      pop\n        /* \"#utility.yul\":5342:5881   */\n      swap3\n      swap2\n      pop\n      pop\n      jump\t// out\n        /* \"#utility.yul\":5887:6001   */\n    tag_247:\n        /* \"#utility.yul\":5954:5960   */\n      0x00\n        /* \"#utility.yul\":5988:5993   */\n      dup2\n        /* \"#utility.yul\":5982:5994   */\n      mload\n        /* \"#utility.yul\":5972:5994   */\n      swap1\n      pop\n        /* \"#utility.yul\":5887:6001   */\n      swap2\n      swap1\n      pop\n      jump\t// out\n        /* \"#utility.yul\":6007:6191   */\n    tag_248:\n        /* \"#utility.yul\":6106:6117   */\n      0x00\n        /* \"#utility.yul\":6140:6146   */\n      dup3\n        /* \"#utility.yul\":6135:6138   */\n      dup3\n        /* \"#utility.yul\":6128:6147   */\n      mstore\n        /* \"#utility.yul\":6180:6184   */\n      0x20\n        /* \"#utility.yul\":6175:6178   */\n      dup3\n        /* \"#utility.yul\":6171:6185   */\n      add\n        /* \"#utility.yul\":6156:6185   */\n      swap1\n      pop\n        /* \"#utility.yul\":6007:6191   */\n      swap3\n      swap2\n      pop\n      pop\n      jump\t// out\n        /* \"#utility.yul\":6197:6329   */\n    tag_249:\n        /* \"#utility.yul\":6264:6268   */\n      0x00\n        /* \"#utility.yul\":6287:6290   */\n      dup2\n        /* \"#utility.yul\":6279:6290   */\n      swap1\n      pop\n        /* \"#utility.yul\":6317:6321   */\n      0x20\n        /* \"#utility.yul\":6312:6315   */\n      dup3\n        /* \"#utility.yul\":6308:6322   */\n      add\n        /* \"#utility.yul\":6300:6322   */\n      swap1\n      pop\n        /* \"#utility.yul\":6197:6329   */\n      swap2\n      swap1\n      pop\n      jump\t// out\n        /* \"#utility.yul\":6335:6443   */\n    tag_250:\n        /* \"#utility.yul\":6412:6436   */\n      tag_346\n        /* \"#utility.yul\":6430:6435   */\n      dup2\n        /* \"#utility.yul\":6412:6436   */\n      tag_242\n      jump\t// in\n    tag_346:\n        /* \"#utility.yul\":6407:6410   */\n      dup3\n        /* \"#utility.yul\":6400:6437   */\n      mstore\n        /* \"#utility.yul\":6335:6443   */\n      pop\n      pop\n      jump\t// out\n        /* \"#utility.yul\":6449:6628   */\n    tag_251:\n        /* \"#utility.yul\":6518:6528   */\n      0x00\n        /* \"#utility.yul\":6539:6585   */\n      tag_348\n        /* \"#utility.yul\":6581:6584   */\n      dup4\n        /* \"#utility.yul\":6573:6579   */\n      dup4\n        /* \"#utility.yul\":6539:6585   */\n      tag_250\n      jump\t// in\n    tag_348:\n        /* \"#utility.yul\":6617:6621   */\n      0x20\n        /* \"#utility.yul\":6612:6615   */\n      dup4\n        /* \"#utility.yul\":6608:6622   */\n      add\n        /* \"#utility.yul\":6594:6622   */\n      swap1\n      pop\n        /* \"#utility.yul\":6449:6628   */\n      swap3\n      swap2\n      pop\n      pop\n      jump\t// out\n        /* \"#utility.yul\":6634:6747   */\n    tag_252:\n        /* \"#utility.yul\":6704:6708   */\n      0x00\n        /* \"#utility.yul\":6736:6740   */\n      0x20\n        /* \"#utility.yul\":6731:6734   */\n      dup3\n        /* \"#utility.yul\":6727:6741   */\n      add\n        /* \"#utility.yul\":6719:6741   */\n      swap1\n      pop\n        /* \"#utility.yul\":6634:6747   */\n      swap2\n      swap1\n      pop\n      jump\t// out\n        /* \"#utility.yul\":6783:7515   */\n    tag_253:\n        /* \"#utility.yul\":6902:6905   */\n      0x00\n        /* \"#utility.yul\":6931:6985   */\n      tag_351\n        /* \"#utility.yul\":6979:6984   */\n      dup3\n        /* \"#utility.yul\":6931:6985   */\n      tag_247\n      jump\t// in\n    tag_351:\n        /* \"#utility.yul\":7001:7087   */\n      tag_352\n        /* \"#utility.yul\":7080:7086   */\n      dup2\n        /* \"#utility.yul\":7075:7078   */\n      dup6\n        /* \"#utility.yul\":7001:7087   */\n      tag_248\n      jump\t// in\n    tag_352:\n        /* \"#utility.yul\":6994:7087   */\n      swap4\n      pop\n        /* \"#utility.yul\":7111:7167   */\n      tag_353\n        /* \"#utility.yul\":7161:7166   */\n      dup4\n        /* \"#utility.yul\":7111:7167   */\n      tag_249\n      jump\t// in\n    tag_353:\n        /* \"#utility.yul\":7190:7197   */\n      dup1\n        /* \"#utility.yul\":7221:7222   */\n      0x00\n        /* \"#utility.yul\":7206:7490   */\n    tag_354:\n        /* \"#utility.yul\":7231:7237   */\n      dup4\n        /* \"#utility.yul\":7228:7229   */\n      dup2\n        /* \"#utility.yul\":7225:7238   */\n      lt\n        /* \"#utility.yul\":7206:7490   */\n      iszero\n      tag_356\n      jumpi\n        /* \"#utility.yul\":7307:7313   */\n      dup2\n        /* \"#utility.yul\":7301:7314   */\n      mload\n        /* \"#utility.yul\":7334:7397   */\n      tag_357\n        /* \"#utility.yul\":7393:7396   */\n      dup9\n        /* \"#utility.yul\":7378:7391   */\n      dup3\n        /* \"#utility.yul\":7334:7397   */\n      tag_251\n      jump\t// in\n    tag_357:\n        /* \"#utility.yul\":7327:7397   */\n      swap8\n      pop\n        /* \"#utility.yul\":7420:7480   */\n      tag_358\n        /* \"#utility.yul\":7473:7479   */\n      dup4\n        /* \"#utility.yul\":7420:7480   */\n      tag_252\n      jump\t// in\n    tag_358:\n        /* \"#utility.yul\":7410:7480   */\n      swap3\n      pop\n        /* \"#utility.yul\":7266:7490   */\n      pop\n        /* \"#utility.yul\":7253:7254   */\n      0x01\n        /* \"#utility.yul\":7250:7251   */\n      dup2\n        /* \"#utility.yul\":7246:7255   */\n      add\n        /* \"#utility.yul\":7241:7255   */\n      swap1\n      pop\n        /* \"#utility.yul\":7206:7490   */\n      jump(tag_354)\n    tag_356:\n        /* \"#utility.yul\":7210:7224   */\n      pop\n        /* \"#utility.yul\":7506:7509   */\n      dup6\n        /* \"#utility.yul\":7499:7509   */\n      swap4\n      pop\n        /* \"#utility.yul\":6907:7515   */\n      pop\n      pop\n      pop\n        /* \"#utility.yul\":6783:7515   */\n      swap3\n      swap2\n      pop\n      pop\n      jump\t// out\n        /* \"#utility.yul\":7521:7894   */\n    tag_20:\n        /* \"#utility.yul\":7664:7668   */\n      0x00\n        /* \"#utility.yul\":7702:7704   */\n      0x20\n        /* \"#utility.yul\":7691:7700   */\n      dup3\n        /* \"#utility.yul\":7687:7705   */\n      add\n        /* \"#utility.yul\":7679:7705   */\n      swap1\n      pop\n        /* \"#utility.yul\":7751:7760   */\n      dup2\n        /* \"#utility.yul\":7745:7749   */\n      dup2\n        /* \"#utility.yul\":7741:7761   */\n      sub\n        /* \"#utility.yul\":7737:7738   */\n      0x00\n        /* \"#utility.yul\":7726:7735   */\n      dup4\n        /* \"#utility.yul\":7722:7739   */\n      add\n        /* \"#utility.yul\":7715:7762   */\n      mstore\n        /* \"#utility.yul\":7779:7887   */\n      tag_360\n        /* \"#utility.yul\":7882:7886   */\n      dup2\n        /* \"#utility.yul\":7873:7879   */\n      dup5\n        /* \"#utility.yul\":7779:7887   */\n      tag_253\n      jump\t// in\n    tag_360:\n        /* \"#utility.yul\":7771:7887   */\n      swap1\n      pop\n        /* \"#utility.yul\":7521:7894   */\n      swap3\n      swap2\n      pop\n      pop\n      jump\t// out\n        /* \"#utility.yul\":7900:8022   */\n    tag_254:\n        /* \"#utility.yul\":7973:7997   */\n      tag_362\n        /* \"#utility.yul\":7991:7996   */\n      dup2\n        /* \"#utility.yul\":7973:7997   */\n      tag_228\n      jump\t// in\n    tag_362:\n        /* \"#utility.yul\":7966:7971   */\n      dup2\n        /* \"#utility.yul\":7963:7998   */\n      eq\n        /* \"#utility.yul\":7953:8016   */\n      tag_363\n      jumpi\n        /* \"#utility.yul\":8012:8013   */\n      0x00\n        /* \"#utility.yul\":8009:8010   */\n      dup1\n        /* \"#utility.yul\":8002:8014   */\n      revert\n        /* \"#utility.yul\":7953:8016   */\n    tag_363:\n        /* \"#utility.yul\":7900:8022   */\n      pop\n      jump\t// out\n        /* \"#utility.yul\":8028:8167   */\n    tag_255:\n        /* \"#utility.yul\":8074:8079   */\n      0x00\n        /* \"#utility.yul\":8112:8118   */\n      dup2\n        /* \"#utility.yul\":8099:8119   */\n      calldataload\n        /* \"#utility.yul\":8090:8119   */\n      swap1\n      pop\n        /* \"#utility.yul\":8128:8161   */\n      tag_365\n        /* \"#utility.yul\":8155:8160   */\n      dup2\n        /* \"#utility.yul\":8128:8161   */\n      tag_254\n      jump\t// in\n    tag_365:\n        /* \"#utility.yul\":8028:8167   */\n      swap3\n      swap2\n      pop\n      pop\n      jump\t// out\n        /* \"#utility.yul\":8173:8502   */\n    tag_25:\n        /* \"#utility.yul\":8232:8238   */\n      0x00\n        /* \"#utility.yul\":8281:8283   */\n      0x20\n        /* \"#utility.yul\":8269:8278   */\n      dup3\n        /* \"#utility.yul\":8260:8267   */\n      dup5\n        /* \"#utility.yul\":8256:8279   */\n      sub\n        /* \"#utility.yul\":8252:8284   */\n      slt\n        /* \"#utility.yul\":8249:8368   */\n      iszero\n      tag_367\n      jumpi\n        /* \"#utility.yul\":8287:8366   */\n      tag_368\n      tag_234\n      jump\t// in\n    tag_368:\n        /* \"#utility.yul\":8249:8368   */\n    tag_367:\n        /* \"#utility.yul\":8407:8408   */\n      0x00\n        /* \"#utility.yul\":8432:8485   */\n      tag_369\n        /* \"#utility.yul\":8477:8484   */\n      dup5\n        /* \"#utility.yul\":8468:8474   */\n      dup3\n        /* \"#utility.yul\":8457:8466   */\n      dup6\n        /* \"#utility.yul\":8453:8475   */\n      add\n        /* \"#utility.yul\":8432:8485   */\n      tag_255\n      jump\t// in\n    tag_369:\n        /* \"#utility.yul\":8422:8485   */\n      swap2\n      pop\n        /* \"#utility.yul\":8378:8495   */\n      pop\n        /* \"#utility.yul\":8173:8502   */\n      swap3\n      swap2\n      pop\n      pop\n      jump\t// out\n        /* \"#utility.yul\":8508:8837   */\n    tag_30:\n        /* \"#utility.yul\":8567:8573   */\n      0x00\n        /* \"#utility.yul\":8616:8618   */\n      0x20\n        /* \"#utility.yul\":8604:8613   */\n      dup3\n        /* \"#utility.yul\":8595:8602   */\n      dup5\n        /* \"#utility.yul\":8591:8614   */\n      sub\n        /* \"#utility.yul\":8587:8619   */\n      slt\n        /* \"#utility.yul\":8584:8703   */\n      iszero\n      tag_371\n      jumpi\n        /* \"#utility.yul\":8622:8701   */\n      tag_372\n      tag_234\n      jump\t// in\n    tag_372:\n        /* \"#utility.yul\":8584:8703   */\n    tag_371:\n        /* \"#utility.yul\":8742:8743   */\n      0x00\n        /* \"#utility.yul\":8767:8820   */\n      tag_373\n        /* \"#utility.yul\":8812:8819   */\n      dup5\n        /* \"#utility.yul\":8803:8809   */\n      dup3\n        /* \"#utility.yul\":8792:8801   */\n      dup6\n        /* \"#utility.yul\":8788:8810   */\n      add\n        /* \"#utility.yul\":8767:8820   */\n      tag_244\n      jump\t// in\n    tag_373:\n        /* \"#utility.yul\":8757:8820   */\n      swap2\n      pop\n        /* \"#utility.yul\":8713:8830   */\n      pop\n        /* \"#utility.yul\":8508:8837   */\n      swap3\n      swap2\n      pop\n      pop\n      jump\t// out\n        /* \"#utility.yul\":8843:8961   */\n    tag_256:\n        /* \"#utility.yul\":8930:8954   */\n      tag_375\n        /* \"#utility.yul\":8948:8953   */\n      dup2\n        /* \"#utility.yul\":8930:8954   */\n      tag_242\n      jump\t// in\n    tag_375:\n        /* \"#utility.yul\":8925:8928   */\n      dup3\n        /* \"#utility.yul\":8918:8955   */\n      mstore\n        /* \"#utility.yul\":8843:8961   */\n      pop\n      pop\n      jump\t// out\n        /* \"#utility.yul\":8967:9189   */\n    tag_33:\n        /* \"#utility.yul\":9060:9064   */\n      0x00\n        /* \"#utility.yul\":9098:9100   */\n      0x20\n        /* \"#utility.yul\":9087:9096   */\n      dup3\n        /* \"#utility.yul\":9083:9101   */\n      add\n        /* \"#utility.yul\":9075:9101   */\n      swap1\n      pop\n        /* \"#utility.yul\":9111:9182   */\n      tag_377\n        /* \"#utility.yul\":9179:9180   */\n      0x00\n        /* \"#utility.yul\":9168:9177   */\n      dup4\n        /* \"#utility.yul\":9164:9181   */\n      add\n        /* \"#utility.yul\":9155:9161   */\n      dup5\n        /* \"#utility.yul\":9111:9182   */\n      tag_256\n      jump\t// in\n    tag_377:\n        /* \"#utility.yul\":8967:9189   */\n      swap3\n      swap2\n      pop\n      pop\n      jump\t// out\n        /* \"#utility.yul\":9195:9364   */\n    tag_257:\n        /* \"#utility.yul\":9279:9290   */\n      0x00\n        /* \"#utility.yul\":9313:9319   */\n      dup3\n        /* \"#utility.yul\":9308:9311   */\n      dup3\n        /* \"#utility.yul\":9301:9320   */\n      mstore\n        /* \"#utility.yul\":9353:9357   */\n      0x20\n        /* \"#utility.yul\":9348:9351   */\n      dup3\n        /* \"#utility.yul\":9344:9358   */\n      add\n        /* \"#utility.yul\":9329:9358   */\n      swap1\n      pop\n        /* \"#utility.yul\":9195:9364   */\n      swap3\n      swap2\n      pop\n      pop\n      jump\t// out\n        /* \"#utility.yul\":9370:9595   */\n    tag_258:\n        /* \"#utility.yul\":9510:9544   */\n      0x4f6e6c792067726f7570206d656d626572732063616e207375626d6974207261\n        /* \"#utility.yul\":9506:9507   */\n      0x00\n        /* \"#utility.yul\":9498:9504   */\n      dup3\n        /* \"#utility.yul\":9494:9508   */\n      add\n        /* \"#utility.yul\":9487:9545   */\n      mstore\n        /* \"#utility.yul\":9579:9587   */\n      0x6e6b696e67730000000000000000000000000000000000000000000000000000\n        /* \"#utility.yul\":9574:9576   */\n      0x20\n        /* \"#utility.yul\":9566:9572   */\n      dup3\n        /* \"#utility.yul\":9562:9577   */\n      add\n        /* \"#utility.yul\":9555:9588   */\n      mstore\n        /* \"#utility.yul\":9370:9595   */\n      pop\n      jump\t// out\n        /* \"#utility.yul\":9601:9967   */\n    tag_259:\n        /* \"#utility.yul\":9743:9746   */\n      0x00\n        /* \"#utility.yul\":9764:9831   */\n      tag_381\n        /* \"#utility.yul\":9828:9830   */\n      0x26\n        /* \"#utility.yul\":9823:9826   */\n      dup4\n        /* \"#utility.yul\":9764:9831   */\n      tag_257\n      jump\t// in\n    tag_381:\n        /* \"#utility.yul\":9757:9831   */\n      swap2\n      pop\n        /* \"#utility.yul\":9840:9933   */\n      tag_382\n        /* \"#utility.yul\":9929:9932   */\n      dup3\n        /* \"#utility.yul\":9840:9933   */\n      tag_258\n      jump\t// in\n    tag_382:\n        /* \"#utility.yul\":9958:9960   */\n      0x40\n        /* \"#utility.yul\":9953:9956   */\n      dup3\n        /* \"#utility.yul\":9949:9961   */\n      add\n        /* \"#utility.yul\":9942:9961   */\n      swap1\n      pop\n        /* \"#utility.yul\":9601:9967   */\n      swap2\n      swap1\n      pop\n      jump\t// out\n        /* \"#utility.yul\":9973:10392   */\n    tag_42:\n        /* \"#utility.yul\":10139:10143   */\n      0x00\n        /* \"#utility.yul\":10177:10179   */\n      0x20\n        /* \"#utility.yul\":10166:10175   */\n      dup3\n        /* \"#utility.yul\":10162:10180   */\n      add\n        /* \"#utility.yul\":10154:10180   */\n      swap1\n      pop\n        /* \"#utility.yul\":10226:10235   */\n      dup2\n        /* \"#utility.yul\":10220:10224   */\n      dup2\n        /* \"#utility.yul\":10216:10236   */\n      sub\n        /* \"#utility.yul\":10212:10213   */\n      0x00\n        /* \"#utility.yul\":10201:10210   */\n      dup4\n        /* \"#utility.yul\":10197:10214   */\n      add\n        /* \"#utility.yul\":10190:10237   */\n      mstore\n        /* \"#utility.yul\":10254:10385   */\n      tag_384\n        /* \"#utility.yul\":10380:10384   */\n      dup2\n        /* \"#utility.yul\":10254:10385   */\n      tag_259\n      jump\t// in\n    tag_384:\n        /* \"#utility.yul\":10246:10385   */\n      swap1\n      pop\n        /* \"#utility.yul\":9973:10392   */\n      swap2\n      swap1\n      pop\n      jump\t// out\n        /* \"#utility.yul\":10398:10623   */\n    tag_260:\n        /* \"#utility.yul\":10538:10572   */\n      0x52616e6b696e67206d75737420696e636c75646520616c6c2067726f7570206d\n        /* \"#utility.yul\":10534:10535   */\n      0x00\n        /* \"#utility.yul\":10526:10532   */\n      dup3\n        /* \"#utility.yul\":10522:10536   */\n      add\n        /* \"#utility.yul\":10515:10573   */\n      mstore\n        /* \"#utility.yul\":10607:10615   */\n      0x656d626572730000000000000000000000000000000000000000000000000000\n        /* \"#utility.yul\":10602:10604   */\n      0x20\n        /* \"#utility.yul\":10594:10600   */\n      dup3\n        /* \"#utility.yul\":10590:10605   */\n      add\n        /* \"#utility.yul\":10583:10616   */\n      mstore\n        /* \"#utility.yul\":10398:10623   */\n      pop\n      jump\t// out\n        /* \"#utility.yul\":10629:10995   */\n    tag_261:\n        /* \"#utility.yul\":10771:10774   */\n      0x00\n        /* \"#utility.yul\":10792:10859   */\n      tag_387\n        /* \"#utility.yul\":10856:10858   */\n      0x26\n        /* \"#utility.yul\":10851:10854   */\n      dup4\n        /* \"#utility.yul\":10792:10859   */\n      tag_257\n      jump\t// in\n    tag_387:\n        /* \"#utility.yul\":10785:10859   */\n      swap2\n      pop\n        /* \"#utility.yul\":10868:10961   */\n      tag_388\n        /* \"#utility.yul\":10957:10960   */\n      dup3\n        /* \"#utility.yul\":10868:10961   */\n      tag_260\n      jump\t// in\n    tag_388:\n        /* \"#utility.yul\":10986:10988   */\n      0x40\n        /* \"#utility.yul\":10981:10984   */\n      dup3\n        /* \"#utility.yul\":10977:10989   */\n      add\n        /* \"#utility.yul\":10970:10989   */\n      swap1\n      pop\n        /* \"#utility.yul\":10629:10995   */\n      swap2\n      swap1\n      pop\n      jump\t// out\n        /* \"#utility.yul\":11001:11420   */\n    tag_45:\n        /* \"#utility.yul\":11167:11171   */\n      0x00\n        /* \"#utility.yul\":11205:11207   */\n      0x20\n        /* \"#utility.yul\":11194:11203   */\n      dup3\n        /* \"#utility.yul\":11190:11208   */\n      add\n        /* \"#utility.yul\":11182:11208   */\n      swap1\n      pop\n        /* \"#utility.yul\":11254:11263   */\n      dup2\n        /* \"#utility.yul\":11248:11252   */\n      dup2\n        /* \"#utility.yul\":11244:11264   */\n      sub\n        /* \"#utility.yul\":11240:11241   */\n      0x00\n        /* \"#utility.yul\":11229:11238   */\n      dup4\n        /* \"#utility.yul\":11225:11242   */\n      add\n        /* \"#utility.yul\":11218:11265   */\n      mstore\n        /* \"#utility.yul\":11282:11413   */\n      tag_390\n        /* \"#utility.yul\":11408:11412   */\n      dup2\n        /* \"#utility.yul\":11282:11413   */\n      tag_261\n      jump\t// in\n    tag_390:\n        /* \"#utility.yul\":11274:11413   */\n      swap1\n      pop\n        /* \"#utility.yul\":11001:11420   */\n      swap2\n      swap1\n      pop\n      jump\t// out\n        /* \"#utility.yul\":11426:11652   */\n    tag_262:\n        /* \"#utility.yul\":11566:11600   */\n      0x4e6f7420616c6c206d656d626572732068617665207375626d69747465642072\n        /* \"#utility.yul\":11562:11563   */\n      0x00\n        /* \"#utility.yul\":11554:11560   */\n      dup3\n        /* \"#utility.yul\":11550:11564   */\n      add\n        /* \"#utility.yul\":11543:11601   */\n      mstore\n        /* \"#utility.yul\":11635:11644   */\n      0x616e6b696e677300000000000000000000000000000000000000000000000000\n        /* \"#utility.yul\":11630:11632   */\n      0x20\n        /* \"#utility.yul\":11622:11628   */\n      dup3\n        /* \"#utility.yul\":11618:11633   */\n      add\n        /* \"#utility.yul\":11611:11645   */\n      mstore\n        /* \"#utility.yul\":11426:11652   */\n      pop\n      jump\t// out\n        /* \"#utility.yul\":11658:12024   */\n    tag_263:\n        /* \"#utility.yul\":11800:11803   */\n      0x00\n        /* \"#utility.yul\":11821:11888   */\n      tag_393\n        /* \"#utility.yul\":11885:11887   */\n      0x27\n        /* \"#utility.yul\":11880:11883   */\n      dup4\n        /* \"#utility.yul\":11821:11888   */\n      tag_257\n      jump\t// in\n    tag_393:\n        /* \"#utility.yul\":11814:11888   */\n      swap2\n      pop\n        /* \"#utility.yul\":11897:11990   */\n      tag_394\n        /* \"#utility.yul\":11986:11989   */\n      dup3\n        /* \"#utility.yul\":11897:11990   */\n      tag_262\n      jump\t// in\n    tag_394:\n        /* \"#utility.yul\":12015:12017   */\n      0x40\n        /* \"#utility.yul\":12010:12013   */\n      dup3\n        /* \"#utility.yul\":12006:12018   */\n      add\n        /* \"#utility.yul\":11999:12018   */\n      swap1\n      pop\n        /* \"#utility.yul\":11658:12024   */\n      swap2\n      swap1\n      pop\n      jump\t// out\n        /* \"#utility.yul\":12030:12449   */\n    tag_57:\n        /* \"#utility.yul\":12196:12200   */\n      0x00\n        /* \"#utility.yul\":12234:12236   */\n      0x20\n        /* \"#utility.yul\":12223:12232   */\n      dup3\n        /* \"#utility.yul\":12219:12237   */\n      add\n        /* \"#utility.yul\":12211:12237   */\n      swap1\n      pop\n        /* \"#utility.yul\":12283:12292   */\n      dup2\n        /* \"#utility.yul\":12277:12281   */\n      dup2\n        /* \"#utility.yul\":12273:12293   */\n      sub\n        /* \"#utility.yul\":12269:12270   */\n      0x00\n        /* \"#utility.yul\":12258:12267   */\n      dup4\n        /* \"#utility.yul\":12254:12271   */\n      add\n        /* \"#utility.yul\":12247:12294   */\n      mstore\n        /* \"#utility.yul\":12311:12442   */\n      tag_396\n        /* \"#utility.yul\":12437:12441   */\n      dup2\n        /* \"#utility.yul\":12311:12442   */\n      tag_263\n      jump\t// in\n    tag_396:\n        /* \"#utility.yul\":12303:12442   */\n      swap1\n      pop\n        /* \"#utility.yul\":12030:12449   */\n      swap2\n      swap1\n      pop\n      jump\t// out\n        /* \"#utility.yul\":12455:12635   */\n    tag_71:\n        /* \"#utility.yul\":12503:12580   */\n      0x4e487b7100000000000000000000000000000000000000000000000000000000\n        /* \"#utility.yul\":12500:12501   */\n      0x00\n        /* \"#utility.yul\":12493:12581   */\n      mstore\n        /* \"#utility.yul\":12600:12604   */\n      0x32\n        /* \"#utility.yul\":12597:12598   */\n      0x04\n        /* \"#utility.yul\":12590:12605   */\n      mstore\n        /* \"#utility.yul\":12624:12628   */\n      0x24\n        /* \"#utility.yul\":12621:12622   */\n      0x00\n        /* \"#utility.yul\":12614:12629   */\n      revert\n        /* \"#utility.yul\":12641:12817   */\n    tag_264:\n        /* \"#utility.yul\":12781:12809   */\n      0x5472616e7369656e742073636f726520666f72206d656d626572000000000000\n        /* \"#utility.yul\":12777:12778   */\n      0x00\n        /* \"#utility.yul\":12769:12775   */\n      dup3\n        /* \"#utility.yul\":12765:12779   */\n      add\n        /* \"#utility.yul\":12758:12810   */\n      mstore\n        /* \"#utility.yul\":12641:12817   */\n      pop\n      jump\t// out\n        /* \"#utility.yul\":12823:13189   */\n    tag_265:\n        /* \"#utility.yul\":12965:12968   */\n      0x00\n        /* \"#utility.yul\":12986:13053   */\n      tag_400\n        /* \"#utility.yul\":13050:13052   */\n      0x1a\n        /* \"#utility.yul\":13045:13048   */\n      dup4\n        /* \"#utility.yul\":12986:13053   */\n      tag_257\n      jump\t// in\n    tag_400:\n        /* \"#utility.yul\":12979:13053   */\n      swap2\n      pop\n        /* \"#utility.yul\":13062:13155   */\n      tag_401\n        /* \"#utility.yul\":13151:13154   */\n      dup3\n        /* \"#utility.yul\":13062:13155   */\n      tag_264\n      jump\t// in\n    tag_401:\n        /* \"#utility.yul\":13180:13182   */\n      0x20\n        /* \"#utility.yul\":13175:13178   */\n      dup3\n        /* \"#utility.yul\":13171:13183   */\n      add\n        /* \"#utility.yul\":13164:13183   */\n      swap1\n      pop\n        /* \"#utility.yul\":12823:13189   */\n      swap2\n      swap1\n      pop\n      jump\t// out\n        /* \"#utility.yul\":13195:13724   */\n    tag_75:\n        /* \"#utility.yul\":13389:13393   */\n      0x00\n        /* \"#utility.yul\":13427:13429   */\n      0x40\n        /* \"#utility.yul\":13416:13425   */\n      dup3\n        /* \"#utility.yul\":13412:13430   */\n      add\n        /* \"#utility.yul\":13404:13430   */\n      swap1\n      pop\n        /* \"#utility.yul\":13476:13485   */\n      dup2\n        /* \"#utility.yul\":13470:13474   */\n      dup2\n        /* \"#utility.yul\":13466:13486   */\n      sub\n        /* \"#utility.yul\":13462:13463   */\n      0x00\n        /* \"#utility.yul\":13451:13460   */\n      dup4\n        /* \"#utility.yul\":13447:13464   */\n      add\n        /* \"#utility.yul\":13440:13487   */\n      mstore\n        /* \"#utility.yul\":13504:13635   */\n      tag_403\n        /* \"#utility.yul\":13630:13634   */\n      dup2\n        /* \"#utility.yul\":13504:13635   */\n      tag_265\n      jump\t// in\n    tag_403:\n        /* \"#utility.yul\":13496:13635   */\n      swap1\n      pop\n        /* \"#utility.yul\":13645:13717   */\n      tag_404\n        /* \"#utility.yul\":13713:13715   */\n      0x20\n        /* \"#utility.yul\":13702:13711   */\n      dup4\n        /* \"#utility.yul\":13698:13716   */\n      add\n        /* \"#utility.yul\":13689:13695   */\n      dup5\n        /* \"#utility.yul\":13645:13717   */\n      tag_256\n      jump\t// in\n    tag_404:\n        /* \"#utility.yul\":13195:13724   */\n      swap3\n      swap2\n      pop\n      pop\n      jump\t// out\n        /* \"#utility.yul\":13730:13841   */\n    tag_266:\n        /* \"#utility.yul\":13794:13800   */\n      0x00\n        /* \"#utility.yul\":13828:13833   */\n      dup2\n        /* \"#utility.yul\":13822:13834   */\n      sload\n        /* \"#utility.yul\":13812:13834   */\n      swap1\n      pop\n        /* \"#utility.yul\":13730:13841   */\n      swap2\n      swap1\n      pop\n      jump\t// out\n        /* \"#utility.yul\":13847:14003   */\n    tag_267:\n        /* \"#utility.yul\":13911:13915   */\n      0x00\n        /* \"#utility.yul\":13934:13937   */\n      dup2\n        /* \"#utility.yul\":13926:13937   */\n      swap1\n      pop\n        /* \"#utility.yul\":13957:13960   */\n      dup2\n        /* \"#utility.yul\":13954:13955   */\n      0x00\n        /* \"#utility.yul\":13947:13961   */\n      mstore\n        /* \"#utility.yul\":13991:13995   */\n      0x20\n        /* \"#utility.yul\":13988:13989   */\n      0x00\n        /* \"#utility.yul\":13978:13996   */\n      keccak256\n        /* \"#utility.yul\":13970:13996   */\n      swap1\n      pop\n        /* \"#utility.yul\":13847:14003   */\n      swap2\n      swap1\n      pop\n      jump\t// out\n        /* \"#utility.yul\":14009:14111   */\n    tag_268:\n        /* \"#utility.yul\":14051:14059   */\n      0x00\n        /* \"#utility.yul\":14098:14103   */\n      dup2\n        /* \"#utility.yul\":14095:14096   */\n      0x00\n        /* \"#utility.yul\":14091:14104   */\n      shr\n        /* \"#utility.yul\":14070:14104   */\n      swap1\n      pop\n        /* \"#utility.yul\":14009:14111   */\n      swap2\n      swap1\n      pop\n      jump\t// out\n        /* \"#utility.yul\":14117:14207   */\n    tag_269:\n        /* \"#utility.yul\":14167:14174   */\n      0x00\n        /* \"#utility.yul\":14196:14201   */\n      dup2\n        /* \"#utility.yul\":14185:14201   */\n      swap1\n      pop\n        /* \"#utility.yul\":14117:14207   */\n      swap2\n      swap1\n      pop\n      jump\t// out\n        /* \"#utility.yul\":14213:14379   */\n    tag_270:\n        /* \"#utility.yul\":14282:14287   */\n      0x00\n        /* \"#utility.yul\":14307:14373   */\n      tag_410\n        /* \"#utility.yul\":14338:14372   */\n      tag_411\n        /* \"#utility.yul\":14361:14371   */\n      dup4\n        /* \"#utility.yul\":14338:14372   */\n      tag_268\n      jump\t// in\n    tag_411:\n        /* \"#utility.yul\":14307:14373   */\n      tag_269\n      jump\t// in\n    tag_410:\n        /* \"#utility.yul\":14298:14373   */\n      swap1\n      pop\n        /* \"#utility.yul\":14213:14379   */\n      swap2\n      swap1\n      pop\n      jump\t// out\n        /* \"#utility.yul\":14385:14529   */\n    tag_271:\n        /* \"#utility.yul\":14440:14445   */\n      0x00\n        /* \"#utility.yul\":14465:14522   */\n      tag_413\n        /* \"#utility.yul\":14516:14520   */\n      dup3\n        /* \"#utility.yul\":14510:14521   */\n      sload\n        /* \"#utility.yul\":14465:14522   */\n      tag_270\n      jump\t// in\n    tag_413:\n        /* \"#utility.yul\":14456:14522   */\n      swap1\n      pop\n        /* \"#utility.yul\":14385:14529   */\n      swap2\n      swap1\n      pop\n      jump\t// out\n        /* \"#utility.yul\":14535:14645   */\n    tag_272:\n        /* \"#utility.yul\":14602:14606   */\n      0x00\n        /* \"#utility.yul\":14634:14638   */\n      0x01\n        /* \"#utility.yul\":14629:14632   */\n      dup3\n        /* \"#utility.yul\":14625:14639   */\n      add\n        /* \"#utility.yul\":14617:14639   */\n      swap1\n      pop\n        /* \"#utility.yul\":14535:14645   */\n      swap2\n      swap1\n      pop\n      jump\t// out\n        /* \"#utility.yul\":14681:15432   */\n    tag_273:\n        /* \"#utility.yul\":14797:14800   */\n      0x00\n        /* \"#utility.yul\":14826:14877   */\n      tag_416\n        /* \"#utility.yul\":14871:14876   */\n      dup3\n        /* \"#utility.yul\":14826:14877   */\n      tag_266\n      jump\t// in\n    tag_416:\n        /* \"#utility.yul\":14893:14979   */\n      tag_417\n        /* \"#utility.yul\":14972:14978   */\n      dup2\n        /* \"#utility.yul\":14967:14970   */\n      dup6\n        /* \"#utility.yul\":14893:14979   */\n      tag_248\n      jump\t// in\n    tag_417:\n        /* \"#utility.yul\":14886:14979   */\n      swap4\n      pop\n        /* \"#utility.yul\":15003:15056   */\n      tag_418\n        /* \"#utility.yul\":15050:15055   */\n      dup4\n        /* \"#utility.yul\":15003:15056   */\n      tag_267\n      jump\t// in\n    tag_418:\n        /* \"#utility.yul\":15079:15086   */\n      dup1\n        /* \"#utility.yul\":15110:15111   */\n      0x00\n        /* \"#utility.yul\":15095:15407   */\n    tag_419:\n        /* \"#utility.yul\":15120:15126   */\n      dup4\n        /* \"#utility.yul\":15117:15118   */\n      dup2\n        /* \"#utility.yul\":15114:15127   */\n      lt\n        /* \"#utility.yul\":15095:15407   */\n      iszero\n      tag_421\n      jumpi\n        /* \"#utility.yul\":15190:15234   */\n      tag_422\n        /* \"#utility.yul\":15227:15233   */\n      dup3\n        /* \"#utility.yul\":15190:15234   */\n      tag_271\n      jump\t// in\n    tag_422:\n        /* \"#utility.yul\":15254:15317   */\n      tag_423\n        /* \"#utility.yul\":15313:15316   */\n      dup9\n        /* \"#utility.yul\":15298:15311   */\n      dup3\n        /* \"#utility.yul\":15254:15317   */\n      tag_251\n      jump\t// in\n    tag_423:\n        /* \"#utility.yul\":15247:15317   */\n      swap8\n      pop\n        /* \"#utility.yul\":15340:15397   */\n      tag_424\n        /* \"#utility.yul\":15390:15396   */\n      dup4\n        /* \"#utility.yul\":15340:15397   */\n      tag_272\n      jump\t// in\n    tag_424:\n        /* \"#utility.yul\":15330:15397   */\n      swap3\n      pop\n        /* \"#utility.yul\":15155:15407   */\n      pop\n        /* \"#utility.yul\":15142:15143   */\n      0x01\n        /* \"#utility.yul\":15139:15140   */\n      dup2\n        /* \"#utility.yul\":15135:15144   */\n      add\n        /* \"#utility.yul\":15130:15144   */\n      swap1\n      pop\n        /* \"#utility.yul\":15095:15407   */\n      jump(tag_419)\n    tag_421:\n        /* \"#utility.yul\":15099:15113   */\n      pop\n        /* \"#utility.yul\":15423:15426   */\n      dup6\n        /* \"#utility.yul\":15416:15426   */\n      swap4\n      pop\n        /* \"#utility.yul\":14802:15432   */\n      pop\n      pop\n      pop\n        /* \"#utility.yul\":14681:15432   */\n      swap3\n      swap2\n      pop\n      pop\n      jump\t// out\n        /* \"#utility.yul\":15438:15805   */\n    tag_80:\n        /* \"#utility.yul\":15578:15582   */\n      0x00\n        /* \"#utility.yul\":15616:15618   */\n      0x20\n        /* \"#utility.yul\":15605:15614   */\n      dup3\n        /* \"#utility.yul\":15601:15619   */\n      add\n        /* \"#utility.yul\":15593:15619   */\n      swap1\n      pop\n        /* \"#utility.yul\":15665:15674   */\n      dup2\n        /* \"#utility.yul\":15659:15663   */\n      dup2\n        /* \"#utility.yul\":15655:15675   */\n      sub\n        /* \"#utility.yul\":15651:15652   */\n      0x00\n        /* \"#utility.yul\":15640:15649   */\n      dup4\n        /* \"#utility.yul\":15636:15653   */\n      add\n        /* \"#utility.yul\":15629:15676   */\n      mstore\n        /* \"#utility.yul\":15693:15798   */\n      tag_426\n        /* \"#utility.yul\":15793:15797   */\n      dup2\n        /* \"#utility.yul\":15784:15790   */\n      dup5\n        /* \"#utility.yul\":15693:15798   */\n      tag_273\n      jump\t// in\n    tag_426:\n        /* \"#utility.yul\":15685:15798   */\n      swap1\n      pop\n        /* \"#utility.yul\":15438:15805   */\n      swap3\n      swap2\n      pop\n      pop\n      jump\t// out\n        /* \"#utility.yul\":15811:15991   */\n    tag_274:\n        /* \"#utility.yul\":15859:15936   */\n      0x4e487b7100000000000000000000000000000000000000000000000000000000\n        /* \"#utility.yul\":15856:15857   */\n      0x00\n        /* \"#utility.yul\":15849:15937   */\n      mstore\n        /* \"#utility.yul\":15956:15960   */\n      0x11\n        /* \"#utility.yul\":15953:15954   */\n      0x04\n        /* \"#utility.yul\":15946:15961   */\n      mstore\n        /* \"#utility.yul\":15980:15984   */\n      0x24\n        /* \"#utility.yul\":15977:15978   */\n      0x00\n        /* \"#utility.yul\":15970:15985   */\n      revert\n        /* \"#utility.yul\":15997:16407   */\n    tag_126:\n        /* \"#utility.yul\":16037:16044   */\n      0x00\n        /* \"#utility.yul\":16060:16080   */\n      tag_429\n        /* \"#utility.yul\":16078:16079   */\n      dup3\n        /* \"#utility.yul\":16060:16080   */\n      tag_242\n      jump\t// in\n    tag_429:\n        /* \"#utility.yul\":16055:16080   */\n      swap2\n      pop\n        /* \"#utility.yul\":16094:16114   */\n      tag_430\n        /* \"#utility.yul\":16112:16113   */\n      dup4\n        /* \"#utility.yul\":16094:16114   */\n      tag_242\n      jump\t// in\n    tag_430:\n        /* \"#utility.yul\":16089:16114   */\n      swap3\n      pop\n        /* \"#utility.yul\":16149:16150   */\n      dup3\n        /* \"#utility.yul\":16146:16147   */\n      dup3\n        /* \"#utility.yul\":16142:16151   */\n      mul\n        /* \"#utility.yul\":16171:16201   */\n      tag_431\n        /* \"#utility.yul\":16189:16200   */\n      dup2\n        /* \"#utility.yul\":16171:16201   */\n      tag_242\n      jump\t// in\n    tag_431:\n        /* \"#utility.yul\":16160:16201   */\n      swap2\n      pop\n        /* \"#utility.yul\":16350:16351   */\n      dup3\n        /* \"#utility.yul\":16341:16348   */\n      dup3\n        /* \"#utility.yul\":16337:16352   */\n      div\n        /* \"#utility.yul\":16334:16335   */\n      dup5\n        /* \"#utility.yul\":16331:16353   */\n      eq\n        /* \"#utility.yul\":16311:16312   */\n      dup4\n        /* \"#utility.yul\":16304:16313   */\n      iszero\n        /* \"#utility.yul\":16284:16367   */\n      or\n        /* \"#utility.yul\":16261:16400   */\n      tag_432\n      jumpi\n        /* \"#utility.yul\":16380:16398   */\n      tag_433\n      tag_274\n      jump\t// in\n    tag_433:\n        /* \"#utility.yul\":16261:16400   */\n    tag_432:\n        /* \"#utility.yul\":16045:16407   */\n      pop\n        /* \"#utility.yul\":15997:16407   */\n      swap3\n      swap2\n      pop\n      pop\n      jump\t// out\n        /* \"#utility.yul\":16413:16593   */\n    tag_275:\n        /* \"#utility.yul\":16461:16538   */\n      0x4e487b7100000000000000000000000000000000000000000000000000000000\n        /* \"#utility.yul\":16458:16459   */\n      0x00\n        /* \"#utility.yul\":16451:16539   */\n      mstore\n        /* \"#utility.yul\":16558:16562   */\n      0x12\n        /* \"#utility.yul\":16555:16556   */\n      0x04\n        /* \"#utility.yul\":16548:16563   */\n      mstore\n        /* \"#utility.yul\":16582:16586   */\n      0x24\n        /* \"#utility.yul\":16579:16580   */\n      0x00\n        /* \"#utility.yul\":16572:16587   */\n      revert\n        /* \"#utility.yul\":16599:16784   */\n    tag_128:\n        /* \"#utility.yul\":16639:16640   */\n      0x00\n        /* \"#utility.yul\":16656:16676   */\n      tag_436\n        /* \"#utility.yul\":16674:16675   */\n      dup3\n        /* \"#utility.yul\":16656:16676   */\n      tag_242\n      jump\t// in\n    tag_436:\n        /* \"#utility.yul\":16651:16676   */\n      swap2\n      pop\n        /* \"#utility.yul\":16690:16710   */\n      tag_437\n        /* \"#utility.yul\":16708:16709   */\n      dup4\n        /* \"#utility.yul\":16690:16710   */\n      tag_242\n      jump\t// in\n    tag_437:\n        /* \"#utility.yul\":16685:16710   */\n      swap3\n      pop\n        /* \"#utility.yul\":16729:16730   */\n      dup3\n        /* \"#utility.yul\":16719:16754   */\n      tag_438\n      jumpi\n        /* \"#utility.yul\":16734:16752   */\n      tag_439\n      tag_275\n      jump\t// in\n    tag_439:\n        /* \"#utility.yul\":16719:16754   */\n    tag_438:\n        /* \"#utility.yul\":16776:16777   */\n      dup3\n        /* \"#utility.yul\":16773:16774   */\n      dup3\n        /* \"#utility.yul\":16769:16778   */\n      div\n        /* \"#utility.yul\":16764:16778   */\n      swap1\n      pop\n        /* \"#utility.yul\":16599:16784   */\n      swap3\n      swap2\n      pop\n      pop\n      jump\t// out\n        /* \"#utility.yul\":16790:16984   */\n    tag_130:\n        /* \"#utility.yul\":16830:16834   */\n      0x00\n        /* \"#utility.yul\":16850:16870   */\n      tag_441\n        /* \"#utility.yul\":16868:16869   */\n      dup3\n        /* \"#utility.yul\":16850:16870   */\n      tag_242\n      jump\t// in\n    tag_441:\n        /* \"#utility.yul\":16845:16870   */\n      swap2\n      pop\n        /* \"#utility.yul\":16884:16904   */\n      tag_442\n        /* \"#utility.yul\":16902:16903   */\n      dup4\n        /* \"#utility.yul\":16884:16904   */\n      tag_242\n      jump\t// in\n    tag_442:\n        /* \"#utility.yul\":16879:16904   */\n      swap3\n      pop\n        /* \"#utility.yul\":16928:16929   */\n      dup3\n        /* \"#utility.yul\":16925:16926   */\n      dup3\n        /* \"#utility.yul\":16921:16930   */\n      sub\n        /* \"#utility.yul\":16913:16930   */\n      swap1\n      pop\n        /* \"#utility.yul\":16952:16953   */\n      dup2\n        /* \"#utility.yul\":16946:16950   */\n      dup2\n        /* \"#utility.yul\":16943:16954   */\n      gt\n        /* \"#utility.yul\":16940:16977   */\n      iszero\n      tag_443\n      jumpi\n        /* \"#utility.yul\":16957:16975   */\n      tag_444\n      tag_274\n      jump\t// in\n    tag_444:\n        /* \"#utility.yul\":16940:16977   */\n    tag_443:\n        /* \"#utility.yul\":16790:16984   */\n      swap3\n      swap2\n      pop\n      pop\n      jump\t// out\n        /* \"#utility.yul\":16990:17181   */\n    tag_150:\n        /* \"#utility.yul\":17030:17033   */\n      0x00\n        /* \"#utility.yul\":17049:17069   */\n      tag_446\n        /* \"#utility.yul\":17067:17068   */\n      dup3\n        /* \"#utility.yul\":17049:17069   */\n      tag_242\n      jump\t// in\n    tag_446:\n        /* \"#utility.yul\":17044:17069   */\n      swap2\n      pop\n        /* \"#utility.yul\":17083:17103   */\n      tag_447\n        /* \"#utility.yul\":17101:17102   */\n      dup4\n        /* \"#utility.yul\":17083:17103   */\n      tag_242\n      jump\t// in\n    tag_447:\n        /* \"#utility.yul\":17078:17103   */\n      swap3\n      pop\n        /* \"#utility.yul\":17126:17127   */\n      dup3\n        /* \"#utility.yul\":17123:17124   */\n      dup3\n        /* \"#utility.yul\":17119:17128   */\n      add\n        /* \"#utility.yul\":17112:17128   */\n      swap1\n      pop\n        /* \"#utility.yul\":17147:17150   */\n      dup1\n        /* \"#utility.yul\":17144:17145   */\n      dup3\n        /* \"#utility.yul\":17141:17151   */\n      gt\n        /* \"#utility.yul\":17138:17174   */\n      iszero\n      tag_448\n      jumpi\n        /* \"#utility.yul\":17154:17172   */\n      tag_449\n      tag_274\n      jump\t// in\n    tag_449:\n        /* \"#utility.yul\":17138:17174   */\n    tag_448:\n        /* \"#utility.yul\":16990:17181   */\n      swap3\n      swap2\n      pop\n      pop\n      jump\t// out\n        /* \"#utility.yul\":17187:17263   */\n    tag_276:\n        /* \"#utility.yul\":17223:17230   */\n      0x00\n        /* \"#utility.yul\":17252:17257   */\n      dup2\n        /* \"#utility.yul\":17241:17257   */\n      swap1\n      pop\n        /* \"#utility.yul\":17187:17263   */\n      swap2\n      swap1\n      pop\n      jump\t// out\n        /* \"#utility.yul\":17269:17641   */\n    tag_201:\n        /* \"#utility.yul\":17308:17312   */\n      0x00\n        /* \"#utility.yul\":17328:17347   */\n      tag_452\n        /* \"#utility.yul\":17345:17346   */\n      dup3\n        /* \"#utility.yul\":17328:17347   */\n      tag_276\n      jump\t// in\n    tag_452:\n        /* \"#utility.yul\":17323:17347   */\n      swap2\n      pop\n        /* \"#utility.yul\":17361:17380   */\n      tag_453\n        /* \"#utility.yul\":17378:17379   */\n      dup4\n        /* \"#utility.yul\":17361:17380   */\n      tag_276\n      jump\t// in\n    tag_453:\n        /* \"#utility.yul\":17356:17380   */\n      swap3\n      pop\n        /* \"#utility.yul\":17404:17405   */\n      dup3\n        /* \"#utility.yul\":17401:17402   */\n      dup3\n        /* \"#utility.yul\":17397:17406   */\n      sub\n        /* \"#utility.yul\":17389:17406   */\n      swap1\n      pop\n        /* \"#utility.yul\":17598:17599   */\n      dup2\n        /* \"#utility.yul\":17592:17596   */\n      dup2\n        /* \"#utility.yul\":17588:17600   */\n      slt\n        /* \"#utility.yul\":17584:17585   */\n      0x00\n        /* \"#utility.yul\":17581:17582   */\n      dup5\n        /* \"#utility.yul\":17577:17586   */\n      slt\n        /* \"#utility.yul\":17573:17601   */\n      and\n        /* \"#utility.yul\":17556:17557   */\n      dup3\n        /* \"#utility.yul\":17550:17554   */\n      dup3\n        /* \"#utility.yul\":17546:17558   */\n      sgt\n        /* \"#utility.yul\":17541:17542   */\n      0x00\n        /* \"#utility.yul\":17538:17539   */\n      dup6\n        /* \"#utility.yul\":17534:17543   */\n      slt\n        /* \"#utility.yul\":17527:17544   */\n      iszero\n        /* \"#utility.yul\":17523:17559   */\n      and\n        /* \"#utility.yul\":17507:17611   */\n      or\n        /* \"#utility.yul\":17504:17634   */\n      iszero\n      tag_454\n      jumpi\n        /* \"#utility.yul\":17614:17632   */\n      tag_455\n      tag_274\n      jump\t// in\n    tag_455:\n        /* \"#utility.yul\":17504:17634   */\n    tag_454:\n        /* \"#utility.yul\":17269:17641   */\n      swap3\n      swap2\n      pop\n      pop\n      jump\t// out\n        /* \"#utility.yul\":17647:18203   */\n    tag_203:\n        /* \"#utility.yul\":17686:17693   */\n      0x00\n        /* \"#utility.yul\":17709:17728   */\n      tag_457\n        /* \"#utility.yul\":17726:17727   */\n      dup3\n        /* \"#utility.yul\":17709:17728   */\n      tag_276\n      jump\t// in\n    tag_457:\n        /* \"#utility.yul\":17704:17728   */\n      swap2\n      pop\n        /* \"#utility.yul\":17742:17761   */\n      tag_458\n        /* \"#utility.yul\":17759:17760   */\n      dup4\n        /* \"#utility.yul\":17742:17761   */\n      tag_276\n      jump\t// in\n    tag_458:\n        /* \"#utility.yul\":17737:17761   */\n      swap3\n      pop\n        /* \"#utility.yul\":17796:17797   */\n      dup3\n        /* \"#utility.yul\":17793:17794   */\n      dup3\n        /* \"#utility.yul\":17789:17798   */\n      mul\n        /* \"#utility.yul\":17818:17847   */\n      tag_459\n        /* \"#utility.yul\":17835:17846   */\n      dup2\n        /* \"#utility.yul\":17818:17847   */\n      tag_276\n      jump\t// in\n    tag_459:\n        /* \"#utility.yul\":17807:17847   */\n      swap2\n      pop\n        /* \"#utility.yul\":17905:17971   */\n      0x8000000000000000000000000000000000000000000000000000000000000000\n        /* \"#utility.yul\":17902:17903   */\n      dup5\n        /* \"#utility.yul\":17899:17972   */\n      eq\n        /* \"#utility.yul\":17895:17896   */\n      0x00\n        /* \"#utility.yul\":17892:17893   */\n      dup5\n        /* \"#utility.yul\":17888:17897   */\n      slt\n        /* \"#utility.yul\":17884:17973   */\n      and\n        /* \"#utility.yul\":17881:17996   */\n      iszero\n      tag_460\n      jumpi\n        /* \"#utility.yul\":17976:17994   */\n      tag_461\n      tag_274\n      jump\t// in\n    tag_461:\n        /* \"#utility.yul\":17881:17996   */\n    tag_460:\n        /* \"#utility.yul\":18146:18147   */\n      dup3\n        /* \"#utility.yul\":18137:18144   */\n      dup3\n        /* \"#utility.yul\":18132:18148   */\n      sdiv\n        /* \"#utility.yul\":18129:18130   */\n      dup5\n        /* \"#utility.yul\":18126:18149   */\n      eq\n        /* \"#utility.yul\":18106:18107   */\n      dup4\n        /* \"#utility.yul\":18099:18108   */\n      iszero\n        /* \"#utility.yul\":18079:18163   */\n      or\n        /* \"#utility.yul\":18056:18196   */\n      tag_462\n      jumpi\n        /* \"#utility.yul\":18176:18194   */\n      tag_463\n      tag_274\n      jump\t// in\n    tag_463:\n        /* \"#utility.yul\":18056:18196   */\n    tag_462:\n        /* \"#utility.yul\":17694:18203   */\n      pop\n        /* \"#utility.yul\":17647:18203   */\n      swap3\n      swap2\n      pop\n      pop\n      jump\t// out\n\n    auxdata: 0xa2646970667358221220376fc2f92ac72377112f79dcb978854270705431b43ce25fb9bdee5a61a4254164736f6c634300081a0033\n}\n",
				"bytecode": {
					"linkReferences": {},
					"object": "608060405234801561000f575f80fd5b50604051611c81380380611c8183398181016040528101906100319190610327565b6001815111610075576040517f08c379a000000000000000000000000000000000000000000000000000000000815260040161006c906103ee565b60405180910390fd5b805f8001908051906020019061008c9291906100ca565b507f21db91fd583c9a8ebabc5a33349a7418a4b26017af415598b4112f3af8cb6333816040516100bc91906104c3565b60405180910390a1506104e3565b828054828255905f5260205f20908101928215610140579160200282015b8281111561013f578251825f6101000a81548173ffffffffffffffffffffffffffffffffffffffff021916908373ffffffffffffffffffffffffffffffffffffffff160217905550916020019190600101906100e8565b5b50905061014d9190610151565b5090565b5b80821115610168575f815f905550600101610152565b5090565b5f604051905090565b5f80fd5b5f80fd5b5f80fd5b5f601f19601f8301169050919050565b7f4e487b71000000000000000000000000000000000000000000000000000000005f52604160045260245ffd5b6101c782610181565b810181811067ffffffffffffffff821117156101e6576101e5610191565b5b80604052505050565b5f6101f861016c565b905061020482826101be565b919050565b5f67ffffffffffffffff82111561022357610222610191565b5b602082029050602081019050919050565b5f80fd5b5f73ffffffffffffffffffffffffffffffffffffffff82169050919050565b5f61026182610238565b9050919050565b61027181610257565b811461027b575f80fd5b50565b5f8151905061028c81610268565b92915050565b5f6102a461029f84610209565b6101ef565b905080838252602082019050602084028301858111156102c7576102c6610234565b5b835b818110156102f057806102dc888261027e565b8452602084019350506020810190506102c9565b5050509392505050565b5f82601f83011261030e5761030d61017d565b5b815161031e848260208601610292565b91505092915050565b5f6020828403121561033c5761033b610175565b5b5f82015167ffffffffffffffff81111561035957610358610179565b5b610365848285016102fa565b91505092915050565b5f82825260208201905092915050565b7f47726f7570206d7573742068617665206174206c656173742032206d656d62655f8201527f7273000000000000000000000000000000000000000000000000000000000000602082015250565b5f6103d860228361036e565b91506103e38261037e565b604082019050919050565b5f6020820190508181035f830152610405816103cc565b9050919050565b5f81519050919050565b5f82825260208201905092915050565b5f819050602082019050919050565b61043e81610257565b82525050565b5f61044f8383610435565b60208301905092915050565b5f602082019050919050565b5f6104718261040c565b61047b8185610416565b935061048683610426565b805f5b838110156104b657815161049d8882610444565b97506104a88361045b565b925050600181019050610489565b5085935050505092915050565b5f6020820190508181035f8301526104db8184610467565b905092915050565b611791806104f05f395ff3fe608060405234801561000f575f80fd5b5060043610610060575f3560e01c80633693564b1461006457806391e3403814610082578063b6c385181461009e578063d8a46ced146100bc578063e2aa1ef3146100c6578063ea4c00b2146100f6575b5f80fd5b61006c610126565b6040516100799190610eaa565b60405180910390f35b61009c6004803603810190610097919061105e565b6101b2565b005b6100a66102e8565b6040516100b3919061115c565b60405180910390f35b6100c461033e565b005b6100e060048036038101906100db91906111a6565b610547565b6040516100ed919061115c565b60405180910390f35b610110600480360381019061010b91906111d1565b6105dc565b60405161011d919061120b565b60405180910390f35b60605f80018054806020026020016040519081016040528092919081815260200182805480156101a857602002820191905f5260205f20905b815f9054906101000a900473ffffffffffffffffffffffffffffffffffffffff1673ffffffffffffffffffffffffffffffffffffffff168152602001906001019080831161015f575b5050505050905090565b6101bb336105fc565b6101fa576040517f08c379a00000000000000000000000000000000000000000000000000000000081526004016101f1906112a4565b60405180910390fd5b5f800180549050815114610243576040517f08c379a000000000000000000000000000000000000000000000000000000000815260040161023a90611332565b60405180910390fd5b8060015f3373ffffffffffffffffffffffffffffffffffffffff1673ffffffffffffffffffffffffffffffffffffffff1681526020019081526020015f205f019080519060200190610296929190610d5d565b503373ffffffffffffffffffffffffffffffffffffffff167f94ed272ce919af459ea4c388df2936a844303575a8cd4fd4ee54bc5e8432625c826040516102dd919061115c565b60405180910390a250565b6060600280548060200260200160405190810160405280929190818152602001828054801561033457602002820191905f5260205f20905b815481526020019060010190808311610320575b5050505050905090565b6103466106a0565b610385576040517f08c379a000000000000000000000000000000000000000000000000000000000815260040161037c906113c0565b60405180910390fd5b5f805f0180548060200260200160405190810160405280929190818152602001828054801561040657602002820191905f5260205f20905b815f9054906101000a900473ffffffffffffffffffffffffffffffffffffffff1673ffffffffffffffffffffffffffffffffffffffff16815260200190600101908083116103bd575b505050505090505f815167ffffffffffffffff81111561042957610428610eef565b5b6040519080825280602002602001820160405280156104575781602001602082028036833780820191505090505b5090505f5b82518110156104eb5761046e81610758565b828281518110610481576104806113de565b5b6020026020010181815250507ff6ff2ad7fc16bda2a7d32462729431bce3ebe9b75cc7c9b35a0adfbf7e7bb9e68282815181106104c1576104c06113de565b5b60200260200101516040516104d69190611455565b60405180910390a1808060010191505061045c565b506104f581610920565b6002908051906020019061050a929190610d5d565b507fe567c2f4881511549d9f71fa6730ba0eff22f033ac43ff2187bad551dcea87e2600260405161053b919061154b565b60405180910390a15050565b606060015f8373ffffffffffffffffffffffffffffffffffffffff1673ffffffffffffffffffffffffffffffffffffffff1681526020019081526020015f205f018054806020026020016040519081016040528092919081815260200182805480156105d057602002820191905f5260205f20905b8154815260200190600101908083116105bc575b50505050509050919050565b600281815481106105eb575f80fd5b905f5260205f20015f915090505481565b5f805f90505b5f800180549050811015610696578273ffffffffffffffffffffffffffffffffffffffff165f8001828154811061063c5761063b6113de565b5b905f5260205f20015f9054906101000a900473ffffffffffffffffffffffffffffffffffffffff1673ffffffffffffffffffffffffffffffffffffffff160361068957600191505061069b565b8080600101915050610602565b505f90505b919050565b5f805f90505b5f80018054905081101561074f575f60015f805f0184815481106106cd576106cc6113de565b5b905f5260205f20015f9054906101000a900473ffffffffffffffffffffffffffffffffffffffff1673ffffffffffffffffffffffffffffffffffffffff1673ffffffffffffffffffffffffffffffffffffffff1681526020019081526020015f205f018054905003610742575f915050610755565b80806001019150506106a6565b50600190505b90565b5f805f80018054905067ffffffffffffffff81111561077a57610779610eef565b5b6040519080825280602002602001820160405280156107a85781602001602082028036833780820191505090505b5090505f5b5f80018054905081101561087d5760015f805f0183815481106107d3576107d26113de565b5b905f5260205f20015f9054906101000a900473ffffffffffffffffffffffffffffffffffffffff1673ffffffffffffffffffffffffffffffffffffffff1673ffffffffffffffffffffffffffffffffffffffff1681526020019081526020015f205f018481548110610848576108476113de565b5b905f5260205f200154828281518110610864576108636113de565b5b60200260200101818152505080806001019150506107ad565b505f61088882610bd0565b90505f61089483610c3e565b90505f6108a65f800180549050610ce4565b90505f8082036108c057670de0b6b3a764000090506108f5565b81670de0b6b3a7640000846108d59190611598565b6108df9190611606565b670de0b6b3a76400006108f29190611636565b90505b670de0b6b3a7640000818561090a9190611598565b6109149190611606565b95505050505050919050565b60605f825167ffffffffffffffff81111561093e5761093d610eef565b5b60405190808252806020026020018201604052801561096c5781602001602082028036833780820191505090505b5090505f5b81518110156109a7578082828151811061098e5761098d6113de565b5b6020026020010181815250508080600101915050610971565b505f5b600184516109b89190611636565b811015610b19575f6001826109cd9190611669565b90505b8451811015610b0b578481815181106109ec576109eb6113de565b5b6020026020010151858381518110610a0757610a066113de565b5b60200260200101511015610afe57848181518110610a2857610a276113de565b5b6020026020010151858381518110610a4357610a426113de565b5b6020026020010151868481518110610a5e57610a5d6113de565b5b60200260200101878481518110610a7857610a776113de565b5b6020026020010182815250828152505050828181518110610a9c57610a9b6113de565b5b6020026020010151838381518110610ab757610ab66113de565b5b6020026020010151848481518110610ad257610ad16113de565b5b60200260200101858481518110610aec57610aeb6113de565b5b60200260200101828152508281525050505b80806001019150506109d0565b5080806001019150506109aa565b505f835167ffffffffffffffff811115610b3657610b35610eef565b5b604051908082528060200260200182016040528015610b645781602001602082028036833780820191505090505b5090505f5b8151811015610bc557808551610b7f9190611636565b82848381518110610b9357610b926113de565b5b602002602001015181518110610bac57610bab6113de565b5b6020026020010181815250508080600101915050610b69565b508092505050919050565b5f805f90505f5b8351811015610c1557838181518110610bf357610bf26113de565b5b602002602001015182610c069190611669565b91508080600101915050610bd7565b508251670de0b6b3a764000082610c2c9190611598565b610c369190611606565b915050919050565b5f80610c4983610bd0565b90505f805b8451811015610ccd575f83670de0b6b3a7640000878481518110610c7557610c746113de565b5b6020026020010151610c879190611598565b610c9191906116a5565b9050670de0b6b3a76400008182610ca891906116e5565b610cb29190611606565b83610cbd9190611669565b9250508080600101915050610c4e565b50835181610cdb9190611606565b92505050919050565b5f805f90505f600190505b83811015610d31576002670de0b6b3a764000082610d0d9190611598565b610d179190611606565b82610d229190611669565b91508080600101915050610cef565b50600183610d3f9190611636565b8184610d4b9190611598565b610d559190611606565b915050919050565b828054828255905f5260205f20908101928215610d97579160200282015b82811115610d96578251825591602001919060010190610d7b565b5b509050610da49190610da8565b5090565b5b80821115610dbf575f815f905550600101610da9565b5090565b5f81519050919050565b5f82825260208201905092915050565b5f819050602082019050919050565b5f73ffffffffffffffffffffffffffffffffffffffff82169050919050565b5f610e1582610dec565b9050919050565b610e2581610e0b565b82525050565b5f610e368383610e1c565b60208301905092915050565b5f602082019050919050565b5f610e5882610dc3565b610e628185610dcd565b9350610e6d83610ddd565b805f5b83811015610e9d578151610e848882610e2b565b9750610e8f83610e42565b925050600181019050610e70565b5085935050505092915050565b5f6020820190508181035f830152610ec28184610e4e565b905092915050565b5f604051905090565b5f80fd5b5f80fd5b5f80fd5b5f601f19601f8301169050919050565b7f4e487b71000000000000000000000000000000000000000000000000000000005f52604160045260245ffd5b610f2582610edf565b810181811067ffffffffffffffff82111715610f4457610f43610eef565b5b80604052505050565b5f610f56610eca565b9050610f628282610f1c565b919050565b5f67ffffffffffffffff821115610f8157610f80610eef565b5b602082029050602081019050919050565b5f80fd5b5f819050919050565b610fa881610f96565b8114610fb2575f80fd5b50565b5f81359050610fc381610f9f565b92915050565b5f610fdb610fd684610f67565b610f4d565b90508083825260208201905060208402830185811115610ffe57610ffd610f92565b5b835b8181101561102757806110138882610fb5565b845260208401935050602081019050611000565b5050509392505050565b5f82601f83011261104557611044610edb565b5b8135611055848260208601610fc9565b91505092915050565b5f6020828403121561107357611072610ed3565b5b5f82013567ffffffffffffffff8111156110905761108f610ed7565b5b61109c84828501611031565b91505092915050565b5f81519050919050565b5f82825260208201905092915050565b5f819050602082019050919050565b6110d781610f96565b82525050565b5f6110e883836110ce565b60208301905092915050565b5f602082019050919050565b5f61110a826110a5565b61111481856110af565b935061111f836110bf565b805f5b8381101561114f57815161113688826110dd565b9750611141836110f4565b925050600181019050611122565b5085935050505092915050565b5f6020820190508181035f8301526111748184611100565b905092915050565b61118581610e0b565b811461118f575f80fd5b50565b5f813590506111a08161117c565b92915050565b5f602082840312156111bb576111ba610ed3565b5b5f6111c884828501611192565b91505092915050565b5f602082840312156111e6576111e5610ed3565b5b5f6111f384828501610fb5565b91505092915050565b61120581610f96565b82525050565b5f60208201905061121e5f8301846111fc565b92915050565b5f82825260208201905092915050565b7f4f6e6c792067726f7570206d656d626572732063616e207375626d69742072615f8201527f6e6b696e67730000000000000000000000000000000000000000000000000000602082015250565b5f61128e602683611224565b915061129982611234565b604082019050919050565b5f6020820190508181035f8301526112bb81611282565b9050919050565b7f52616e6b696e67206d75737420696e636c75646520616c6c2067726f7570206d5f8201527f656d626572730000000000000000000000000000000000000000000000000000602082015250565b5f61131c602683611224565b9150611327826112c2565b604082019050919050565b5f6020820190508181035f83015261134981611310565b9050919050565b7f4e6f7420616c6c206d656d626572732068617665207375626d697474656420725f8201527f616e6b696e677300000000000000000000000000000000000000000000000000602082015250565b5f6113aa602783611224565b91506113b582611350565b604082019050919050565b5f6020820190508181035f8301526113d78161139e565b9050919050565b7f4e487b71000000000000000000000000000000000000000000000000000000005f52603260045260245ffd5b7f5472616e7369656e742073636f726520666f72206d656d6265720000000000005f82015250565b5f61143f601a83611224565b915061144a8261140b565b602082019050919050565b5f6040820190508181035f83015261146c81611433565b905061147b60208301846111fc565b92915050565b5f81549050919050565b5f819050815f5260205f209050919050565b5f815f1c9050919050565b5f819050919050565b5f6114c36114be8361149d565b6114a8565b9050919050565b5f6114d582546114b1565b9050919050565b5f600182019050919050565b5f6114f282611481565b6114fc81856110af565b93506115078361148b565b805f5b8381101561153e5761151b826114ca565b61152588826110dd565b9750611530836114dc565b92505060018101905061150a565b5085935050505092915050565b5f6020820190508181035f83015261156381846114e8565b905092915050565b7f4e487b71000000000000000000000000000000000000000000000000000000005f52601160045260245ffd5b5f6115a282610f96565b91506115ad83610f96565b92508282026115bb81610f96565b915082820484148315176115d2576115d161156b565b5b5092915050565b7f4e487b71000000000000000000000000000000000000000000000000000000005f52601260045260245ffd5b5f61161082610f96565b915061161b83610f96565b92508261162b5761162a6115d9565b5b828204905092915050565b5f61164082610f96565b915061164b83610f96565b92508282039050818111156116635761166261156b565b5b92915050565b5f61167382610f96565b915061167e83610f96565b92508282019050808211156116965761169561156b565b5b92915050565b5f819050919050565b5f6116af8261169c565b91506116ba8361169c565b925082820390508181125f8412168282135f8512151617156116df576116de61156b565b5b92915050565b5f6116ef8261169c565b91506116fa8361169c565b92508282026117088161169c565b91507f800000000000000000000000000000000000000000000000000000000000000084145f8412161561173f5761173e61156b565b5b82820584148315176117545761175361156b565b5b509291505056fea2646970667358221220376fc2f92ac72377112f79dcb978854270705431b43ce25fb9bdee5a61a4254164736f6c634300081a0033",
					"opcodes": "PUSH1 0x80 PUSH1 0x40 MSTORE CALLVALUE DUP1 ISZERO PUSH2 0xF JUMPI PUSH0 DUP1 REVERT JUMPDEST POP PUSH1 0x40 MLOAD PUSH2 0x1C81 CODESIZE SUB DUP1 PUSH2 0x1C81 DUP4 CODECOPY DUP2 DUP2 ADD PUSH1 0x40 MSTORE DUP2 ADD SWAP1 PUSH2 0x31 SWAP2 SWAP1 PUSH2 0x327 JUMP JUMPDEST PUSH1 0x1 DUP2 MLOAD GT PUSH2 0x75 JUMPI PUSH1 0x40 MLOAD PUSH32 0x8C379A000000000000000000000000000000000000000000000000000000000 DUP2 MSTORE PUSH1 0x4 ADD PUSH2 0x6C SWAP1 PUSH2 0x3EE JUMP JUMPDEST PUSH1 0x40 MLOAD DUP1 SWAP2 SUB SWAP1 REVERT JUMPDEST DUP1 PUSH0 DUP1 ADD SWAP1 DUP1 MLOAD SWAP1 PUSH1 0x20 ADD SWAP1 PUSH2 0x8C SWAP3 SWAP2 SWAP1 PUSH2 0xCA JUMP JUMPDEST POP PUSH32 0x21DB91FD583C9A8EBABC5A33349A7418A4B26017AF415598B4112F3AF8CB6333 DUP2 PUSH1 0x40 MLOAD PUSH2 0xBC SWAP2 SWAP1 PUSH2 0x4C3 JUMP JUMPDEST PUSH1 0x40 MLOAD DUP1 SWAP2 SUB SWAP1 LOG1 POP PUSH2 0x4E3 JUMP JUMPDEST DUP3 DUP1 SLOAD DUP3 DUP3 SSTORE SWAP1 PUSH0 MSTORE PUSH1 0x20 PUSH0 KECCAK256 SWAP1 DUP2 ADD SWAP3 DUP3 ISZERO PUSH2 0x140 JUMPI SWAP2 PUSH1 0x20 MUL DUP3 ADD JUMPDEST DUP3 DUP2 GT ISZERO PUSH2 0x13F JUMPI DUP3 MLOAD DUP3 PUSH0 PUSH2 0x100 EXP DUP2 SLOAD DUP2 PUSH20 0xFFFFFFFFFFFFFFFFFFFFFFFFFFFFFFFFFFFFFFFF MUL NOT AND SWAP1 DUP4 PUSH20 0xFFFFFFFFFFFFFFFFFFFFFFFFFFFFFFFFFFFFFFFF AND MUL OR SWAP1 SSTORE POP SWAP2 PUSH1 0x20 ADD SWAP2 SWAP1 PUSH1 0x1 ADD SWAP1 PUSH2 0xE8 JUMP JUMPDEST JUMPDEST POP SWAP1 POP PUSH2 0x14D SWAP2 SWAP1 PUSH2 0x151 JUMP JUMPDEST POP SWAP1 JUMP JUMPDEST JUMPDEST DUP1 DUP3 GT ISZERO PUSH2 0x168 JUMPI PUSH0 DUP2 PUSH0 SWAP1 SSTORE POP PUSH1 0x1 ADD PUSH2 0x152 JUMP JUMPDEST POP SWAP1 JUMP JUMPDEST PUSH0 PUSH1 0x40 MLOAD SWAP1 POP SWAP1 JUMP JUMPDEST PUSH0 DUP1 REVERT JUMPDEST PUSH0 DUP1 REVERT JUMPDEST PUSH0 DUP1 REVERT JUMPDEST PUSH0 PUSH1 0x1F NOT PUSH1 0x1F DUP4 ADD AND SWAP1 POP SWAP2 SWAP1 POP JUMP JUMPDEST PUSH32 0x4E487B7100000000000000000000000000000000000000000000000000000000 PUSH0 MSTORE PUSH1 0x41 PUSH1 0x4 MSTORE PUSH1 0x24 PUSH0 REVERT JUMPDEST PUSH2 0x1C7 DUP3 PUSH2 0x181 JUMP JUMPDEST DUP2 ADD DUP2 DUP2 LT PUSH8 0xFFFFFFFFFFFFFFFF DUP3 GT OR ISZERO PUSH2 0x1E6 JUMPI PUSH2 0x1E5 PUSH2 0x191 JUMP JUMPDEST JUMPDEST DUP1 PUSH1 0x40 MSTORE POP POP POP JUMP JUMPDEST PUSH0 PUSH2 0x1F8 PUSH2 0x16C JUMP JUMPDEST SWAP1 POP PUSH2 0x204 DUP3 DUP3 PUSH2 0x1BE JUMP JUMPDEST SWAP2 SWAP1 POP JUMP JUMPDEST PUSH0 PUSH8 0xFFFFFFFFFFFFFFFF DUP3 GT ISZERO PUSH2 0x223 JUMPI PUSH2 0x222 PUSH2 0x191 JUMP JUMPDEST JUMPDEST PUSH1 0x20 DUP3 MUL SWAP1 POP PUSH1 0x20 DUP2 ADD SWAP1 POP SWAP2 SWAP1 POP JUMP JUMPDEST PUSH0 DUP1 REVERT JUMPDEST PUSH0 PUSH20 0xFFFFFFFFFFFFFFFFFFFFFFFFFFFFFFFFFFFFFFFF DUP3 AND SWAP1 POP SWAP2 SWAP1 POP JUMP JUMPDEST PUSH0 PUSH2 0x261 DUP3 PUSH2 0x238 JUMP JUMPDEST SWAP1 POP SWAP2 SWAP1 POP JUMP JUMPDEST PUSH2 0x271 DUP2 PUSH2 0x257 JUMP JUMPDEST DUP2 EQ PUSH2 0x27B JUMPI PUSH0 DUP1 REVERT JUMPDEST POP JUMP JUMPDEST PUSH0 DUP2 MLOAD SWAP1 POP PUSH2 0x28C DUP2 PUSH2 0x268 JUMP JUMPDEST SWAP3 SWAP2 POP POP JUMP JUMPDEST PUSH0 PUSH2 0x2A4 PUSH2 0x29F DUP5 PUSH2 0x209 JUMP JUMPDEST PUSH2 0x1EF JUMP JUMPDEST SWAP1 POP DUP1 DUP4 DUP3 MSTORE PUSH1 0x20 DUP3 ADD SWAP1 POP PUSH1 0x20 DUP5 MUL DUP4 ADD DUP6 DUP2 GT ISZERO PUSH2 0x2C7 JUMPI PUSH2 0x2C6 PUSH2 0x234 JUMP JUMPDEST JUMPDEST DUP4 JUMPDEST DUP2 DUP2 LT ISZERO PUSH2 0x2F0 JUMPI DUP1 PUSH2 0x2DC DUP9 DUP3 PUSH2 0x27E JUMP JUMPDEST DUP5 MSTORE PUSH1 0x20 DUP5 ADD SWAP4 POP POP PUSH1 0x20 DUP2 ADD SWAP1 POP PUSH2 0x2C9 JUMP JUMPDEST POP POP POP SWAP4 SWAP3 POP POP POP JUMP JUMPDEST PUSH0 DUP3 PUSH1 0x1F DUP4 ADD SLT PUSH2 0x30E JUMPI PUSH2 0x30D PUSH2 0x17D JUMP JUMPDEST JUMPDEST DUP2 MLOAD PUSH2 0x31E DUP5 DUP3 PUSH1 0x20 DUP7 ADD PUSH2 0x292 JUMP JUMPDEST SWAP2 POP POP SWAP3 SWAP2 POP POP JUMP JUMPDEST PUSH0 PUSH1 0x20 DUP3 DUP5 SUB SLT ISZERO PUSH2 0x33C JUMPI PUSH2 0x33B PUSH2 0x175 JUMP JUMPDEST JUMPDEST PUSH0 DUP3 ADD MLOAD PUSH8 0xFFFFFFFFFFFFFFFF DUP2 GT ISZERO PUSH2 0x359 JUMPI PUSH2 0x358 PUSH2 0x179 JUMP JUMPDEST JUMPDEST PUSH2 0x365 DUP5 DUP3 DUP6 ADD PUSH2 0x2FA JUMP JUMPDEST SWAP2 POP POP SWAP3 SWAP2 POP POP JUMP JUMPDEST PUSH0 DUP3 DUP3 MSTORE PUSH1 0x20 DUP3 ADD SWAP1 POP SWAP3 SWAP2 POP POP JUMP JUMPDEST PUSH32 0x47726F7570206D7573742068617665206174206C656173742032206D656D6265 PUSH0 DUP3 ADD MSTORE PUSH32 0x7273000000000000000000000000000000000000000000000000000000000000 PUSH1 0x20 DUP3 ADD MSTORE POP JUMP JUMPDEST PUSH0 PUSH2 0x3D8 PUSH1 0x22 DUP4 PUSH2 0x36E JUMP JUMPDEST SWAP2 POP PUSH2 0x3E3 DUP3 PUSH2 0x37E JUMP JUMPDEST PUSH1 0x40 DUP3 ADD SWAP1 POP SWAP2 SWAP1 POP JUMP JUMPDEST PUSH0 PUSH1 0x20 DUP3 ADD SWAP1 POP DUP2 DUP2 SUB PUSH0 DUP4 ADD MSTORE PUSH2 0x405 DUP2 PUSH2 0x3CC JUMP JUMPDEST SWAP1 POP SWAP2 SWAP1 POP JUMP JUMPDEST PUSH0 DUP2 MLOAD SWAP1 POP SWAP2 SWAP1 POP JUMP JUMPDEST PUSH0 DUP3 DUP3 MSTORE PUSH1 0x20 DUP3 ADD SWAP1 POP SWAP3 SWAP2 POP POP JUMP JUMPDEST PUSH0 DUP2 SWAP1 POP PUSH1 0x20 DUP3 ADD SWAP1 POP SWAP2 SWAP1 POP JUMP JUMPDEST PUSH2 0x43E DUP2 PUSH2 0x257 JUMP JUMPDEST DUP3 MSTORE POP POP JUMP JUMPDEST PUSH0 PUSH2 0x44F DUP4 DUP4 PUSH2 0x435 JUMP JUMPDEST PUSH1 0x20 DUP4 ADD SWAP1 POP SWAP3 SWAP2 POP POP JUMP JUMPDEST PUSH0 PUSH1 0x20 DUP3 ADD SWAP1 POP SWAP2 SWAP1 POP JUMP JUMPDEST PUSH0 PUSH2 0x471 DUP3 PUSH2 0x40C JUMP JUMPDEST PUSH2 0x47B DUP2 DUP6 PUSH2 0x416 JUMP JUMPDEST SWAP4 POP PUSH2 0x486 DUP4 PUSH2 0x426 JUMP JUMPDEST DUP1 PUSH0 JUMPDEST DUP4 DUP2 LT ISZERO PUSH2 0x4B6 JUMPI DUP2 MLOAD PUSH2 0x49D DUP9 DUP3 PUSH2 0x444 JUMP JUMPDEST SWAP8 POP PUSH2 0x4A8 DUP4 PUSH2 0x45B JUMP JUMPDEST SWAP3 POP POP PUSH1 0x1 DUP2 ADD SWAP1 POP PUSH2 0x489 JUMP JUMPDEST POP DUP6 SWAP4 POP POP POP POP SWAP3 SWAP2 POP POP JUMP JUMPDEST PUSH0 PUSH1 0x20 DUP3 ADD SWAP1 POP DUP2 DUP2 SUB PUSH0 DUP4 ADD MSTORE PUSH2 0x4DB DUP2 DUP5 PUSH2 0x467 JUMP JUMPDEST SWAP1 POP SWAP3 SWAP2 POP POP JUMP JUMPDEST PUSH2 0x1791 DUP1 PUSH2 0x4F0 PUSH0 CODECOPY PUSH0 RETURN INVALID PUSH1 0x80 PUSH1 0x40 MSTORE CALLVALUE DUP1 ISZERO PUSH2 0xF JUMPI PUSH0 DUP1 REVERT JUMPDEST POP PUSH1 0x4 CALLDATASIZE LT PUSH2 0x60 JUMPI PUSH0 CALLDATALOAD PUSH1 0xE0 SHR DUP1 PUSH4 0x3693564B EQ PUSH2 0x64 JUMPI DUP1 PUSH4 0x91E34038 EQ PUSH2 0x82 JUMPI DUP1 PUSH4 0xB6C38518 EQ PUSH2 0x9E JUMPI DUP1 PUSH4 0xD8A46CED EQ PUSH2 0xBC JUMPI DUP1 PUSH4 0xE2AA1EF3 EQ PUSH2 0xC6 JUMPI DUP1 PUSH4 0xEA4C00B2 EQ PUSH2 0xF6 JUMPI JUMPDEST PUSH0 DUP1 REVERT JUMPDEST PUSH2 0x6C PUSH2 0x126 JUMP JUMPDEST PUSH1 0x40 MLOAD PUSH2 0x79 SWAP2 SWAP1 PUSH2 0xEAA JUMP JUMPDEST PUSH1 0x40 MLOAD DUP1 SWAP2 SUB SWAP1 RETURN JUMPDEST PUSH2 0x9C PUSH1 0x4 DUP1 CALLDATASIZE SUB DUP2 ADD SWAP1 PUSH2 0x97 SWAP2 SWAP1 PUSH2 0x105E JUMP JUMPDEST PUSH2 0x1B2 JUMP JUMPDEST STOP JUMPDEST PUSH2 0xA6 PUSH2 0x2E8 JUMP JUMPDEST PUSH1 0x40 MLOAD PUSH2 0xB3 SWAP2 SWAP1 PUSH2 0x115C JUMP JUMPDEST PUSH1 0x40 MLOAD DUP1 SWAP2 SUB SWAP1 RETURN JUMPDEST PUSH2 0xC4 PUSH2 0x33E JUMP JUMPDEST STOP JUMPDEST PUSH2 0xE0 PUSH1 0x4 DUP1 CALLDATASIZE SUB DUP2 ADD SWAP1 PUSH2 0xDB SWAP2 SWAP1 PUSH2 0x11A6 JUMP JUMPDEST PUSH2 0x547 JUMP JUMPDEST PUSH1 0x40 MLOAD PUSH2 0xED SWAP2 SWAP1 PUSH2 0x115C JUMP JUMPDEST PUSH1 0x40 MLOAD DUP1 SWAP2 SUB SWAP1 RETURN JUMPDEST PUSH2 0x110 PUSH1 0x4 DUP1 CALLDATASIZE SUB DUP2 ADD SWAP1 PUSH2 0x10B SWAP2 SWAP1 PUSH2 0x11D1 JUMP JUMPDEST PUSH2 0x5DC JUMP JUMPDEST PUSH1 0x40 MLOAD PUSH2 0x11D SWAP2 SWAP1 PUSH2 0x120B JUMP JUMPDEST PUSH1 0x40 MLOAD DUP1 SWAP2 SUB SWAP1 RETURN JUMPDEST PUSH1 0x60 PUSH0 DUP1 ADD DUP1 SLOAD DUP1 PUSH1 0x20 MUL PUSH1 0x20 ADD PUSH1 0x40 MLOAD SWAP1 DUP2 ADD PUSH1 0x40 MSTORE DUP1 SWAP3 SWAP2 SWAP1 DUP2 DUP2 MSTORE PUSH1 0x20 ADD DUP3 DUP1 SLOAD DUP1 ISZERO PUSH2 0x1A8 JUMPI PUSH1 0x20 MUL DUP3 ADD SWAP2 SWAP1 PUSH0 MSTORE PUSH1 0x20 PUSH0 KECCAK256 SWAP1 JUMPDEST DUP2 PUSH0 SWAP1 SLOAD SWAP1 PUSH2 0x100 EXP SWAP1 DIV PUSH20 0xFFFFFFFFFFFFFFFFFFFFFFFFFFFFFFFFFFFFFFFF AND PUSH20 0xFFFFFFFFFFFFFFFFFFFFFFFFFFFFFFFFFFFFFFFF AND DUP2 MSTORE PUSH1 0x20 ADD SWAP1 PUSH1 0x1 ADD SWAP1 DUP1 DUP4 GT PUSH2 0x15F JUMPI JUMPDEST POP POP POP POP POP SWAP1 POP SWAP1 JUMP JUMPDEST PUSH2 0x1BB CALLER PUSH2 0x5FC JUMP JUMPDEST PUSH2 0x1FA JUMPI PUSH1 0x40 MLOAD PUSH32 0x8C379A000000000000000000000000000000000000000000000000000000000 DUP2 MSTORE PUSH1 0x4 ADD PUSH2 0x1F1 SWAP1 PUSH2 0x12A4 JUMP JUMPDEST PUSH1 0x40 MLOAD DUP1 SWAP2 SUB SWAP1 REVERT JUMPDEST PUSH0 DUP1 ADD DUP1 SLOAD SWAP1 POP DUP2 MLOAD EQ PUSH2 0x243 JUMPI PUSH1 0x40 MLOAD PUSH32 0x8C379A000000000000000000000000000000000000000000000000000000000 DUP2 MSTORE PUSH1 0x4 ADD PUSH2 0x23A SWAP1 PUSH2 0x1332 JUMP JUMPDEST PUSH1 0x40 MLOAD DUP1 SWAP2 SUB SWAP1 REVERT JUMPDEST DUP1 PUSH1 0x1 PUSH0 CALLER PUSH20 0xFFFFFFFFFFFFFFFFFFFFFFFFFFFFFFFFFFFFFFFF AND PUSH20 0xFFFFFFFFFFFFFFFFFFFFFFFFFFFFFFFFFFFFFFFF AND DUP2 MSTORE PUSH1 0x20 ADD SWAP1 DUP2 MSTORE PUSH1 0x20 ADD PUSH0 KECCAK256 PUSH0 ADD SWAP1 DUP1 MLOAD SWAP1 PUSH1 0x20 ADD SWAP1 PUSH2 0x296 SWAP3 SWAP2 SWAP1 PUSH2 0xD5D JUMP JUMPDEST POP CALLER PUSH20 0xFFFFFFFFFFFFFFFFFFFFFFFFFFFFFFFFFFFFFFFF AND PUSH32 0x94ED272CE919AF459EA4C388DF2936A844303575A8CD4FD4EE54BC5E8432625C DUP3 PUSH1 0x40 MLOAD PUSH2 0x2DD SWAP2 SWAP1 PUSH2 0x115C JUMP JUMPDEST PUSH1 0x40 MLOAD DUP1 SWAP2 SUB SWAP1 LOG2 POP JUMP JUMPDEST PUSH1 0x60 PUSH1 0x2 DUP1 SLOAD DUP1 PUSH1 0x20 MUL PUSH1 0x20 ADD PUSH1 0x40 MLOAD SWAP1 DUP2 ADD PUSH1 0x40 MSTORE DUP1 SWAP3 SWAP2 SWAP1 DUP2 DUP2 MSTORE PUSH1 0x20 ADD DUP3 DUP1 SLOAD DUP1 ISZERO PUSH2 0x334 JUMPI PUSH1 0x20 MUL DUP3 ADD SWAP2 SWAP1 PUSH0 MSTORE PUSH1 0x20 PUSH0 KECCAK256 SWAP1 JUMPDEST DUP2 SLOAD DUP2 MSTORE PUSH1 0x20 ADD SWAP1 PUSH1 0x1 ADD SWAP1 DUP1 DUP4 GT PUSH2 0x320 JUMPI JUMPDEST POP POP POP POP POP SWAP1 POP SWAP1 JUMP JUMPDEST PUSH2 0x346 PUSH2 0x6A0 JUMP JUMPDEST PUSH2 0x385 JUMPI PUSH1 0x40 MLOAD PUSH32 0x8C379A000000000000000000000000000000000000000000000000000000000 DUP2 MSTORE PUSH1 0x4 ADD PUSH2 0x37C SWAP1 PUSH2 0x13C0 JUMP JUMPDEST PUSH1 0x40 MLOAD DUP1 SWAP2 SUB SWAP1 REVERT JUMPDEST PUSH0 DUP1 PUSH0 ADD DUP1 SLOAD DUP1 PUSH1 0x20 MUL PUSH1 0x20 ADD PUSH1 0x40 MLOAD SWAP1 DUP2 ADD PUSH1 0x40 MSTORE DUP1 SWAP3 SWAP2 SWAP1 DUP2 DUP2 MSTORE PUSH1 0x20 ADD DUP3 DUP1 SLOAD DUP1 ISZERO PUSH2 0x406 JUMPI PUSH1 0x20 MUL DUP3 ADD SWAP2 SWAP1 PUSH0 MSTORE PUSH1 0x20 PUSH0 KECCAK256 SWAP1 JUMPDEST DUP2 PUSH0 SWAP1 SLOAD SWAP1 PUSH2 0x100 EXP SWAP1 DIV PUSH20 0xFFFFFFFFFFFFFFFFFFFFFFFFFFFFFFFFFFFFFFFF AND PUSH20 0xFFFFFFFFFFFFFFFFFFFFFFFFFFFFFFFFFFFFFFFF AND DUP2 MSTORE PUSH1 0x20 ADD SWAP1 PUSH1 0x1 ADD SWAP1 DUP1 DUP4 GT PUSH2 0x3BD JUMPI JUMPDEST POP POP POP POP POP SWAP1 POP PUSH0 DUP2 MLOAD PUSH8 0xFFFFFFFFFFFFFFFF DUP2 GT ISZERO PUSH2 0x429 JUMPI PUSH2 0x428 PUSH2 0xEEF JUMP JUMPDEST JUMPDEST PUSH1 0x40 MLOAD SWAP1 DUP1 DUP3 MSTORE DUP1 PUSH1 0x20 MUL PUSH1 0x20 ADD DUP3 ADD PUSH1 0x40 MSTORE DUP1 ISZERO PUSH2 0x457 JUMPI DUP2 PUSH1 0x20 ADD PUSH1 0x20 DUP3 MUL DUP1 CALLDATASIZE DUP4 CALLDATACOPY DUP1 DUP3 ADD SWAP2 POP POP SWAP1 POP JUMPDEST POP SWAP1 POP PUSH0 JUMPDEST DUP3 MLOAD DUP2 LT ISZERO PUSH2 0x4EB JUMPI PUSH2 0x46E DUP2 PUSH2 0x758 JUMP JUMPDEST DUP3 DUP3 DUP2 MLOAD DUP2 LT PUSH2 0x481 JUMPI PUSH2 0x480 PUSH2 0x13DE JUMP JUMPDEST JUMPDEST PUSH1 0x20 MUL PUSH1 0x20 ADD ADD DUP2 DUP2 MSTORE POP POP PUSH32 0xF6FF2AD7FC16BDA2A7D32462729431BCE3EBE9B75CC7C9B35A0ADFBF7E7BB9E6 DUP3 DUP3 DUP2 MLOAD DUP2 LT PUSH2 0x4C1 JUMPI PUSH2 0x4C0 PUSH2 0x13DE JUMP JUMPDEST JUMPDEST PUSH1 0x20 MUL PUSH1 0x20 ADD ADD MLOAD PUSH1 0x40 MLOAD PUSH2 0x4D6 SWAP2 SWAP1 PUSH2 0x1455 JUMP JUMPDEST PUSH1 0x40 MLOAD DUP1 SWAP2 SUB SWAP1 LOG1 DUP1 DUP1 PUSH1 0x1 ADD SWAP2 POP POP PUSH2 0x45C JUMP JUMPDEST POP PUSH2 0x4F5 DUP2 PUSH2 0x920 JUMP JUMPDEST PUSH1 0x2 SWAP1 DUP1 MLOAD SWAP1 PUSH1 0x20 ADD SWAP1 PUSH2 0x50A SWAP3 SWAP2 SWAP1 PUSH2 0xD5D JUMP JUMPDEST POP PUSH32 0xE567C2F4881511549D9F71FA6730BA0EFF22F033AC43FF2187BAD551DCEA87E2 PUSH1 0x2 PUSH1 0x40 MLOAD PUSH2 0x53B SWAP2 SWAP1 PUSH2 0x154B JUMP JUMPDEST PUSH1 0x40 MLOAD DUP1 SWAP2 SUB SWAP1 LOG1 POP POP JUMP JUMPDEST PUSH1 0x60 PUSH1 0x1 PUSH0 DUP4 PUSH20 0xFFFFFFFFFFFFFFFFFFFFFFFFFFFFFFFFFFFFFFFF AND PUSH20 0xFFFFFFFFFFFFFFFFFFFFFFFFFFFFFFFFFFFFFFFF AND DUP2 MSTORE PUSH1 0x20 ADD SWAP1 DUP2 MSTORE PUSH1 0x20 ADD PUSH0 KECCAK256 PUSH0 ADD DUP1 SLOAD DUP1 PUSH1 0x20 MUL PUSH1 0x20 ADD PUSH1 0x40 MLOAD SWAP1 DUP2 ADD PUSH1 0x40 MSTORE DUP1 SWAP3 SWAP2 SWAP1 DUP2 DUP2 MSTORE PUSH1 0x20 ADD DUP3 DUP1 SLOAD DUP1 ISZERO PUSH2 0x5D0 JUMPI PUSH1 0x20 MUL DUP3 ADD SWAP2 SWAP1 PUSH0 MSTORE PUSH1 0x20 PUSH0 KECCAK256 SWAP1 JUMPDEST DUP2 SLOAD DUP2 MSTORE PUSH1 0x20 ADD SWAP1 PUSH1 0x1 ADD SWAP1 DUP1 DUP4 GT PUSH2 0x5BC JUMPI JUMPDEST POP POP POP POP POP SWAP1 POP SWAP2 SWAP1 POP JUMP JUMPDEST PUSH1 0x2 DUP2 DUP2 SLOAD DUP2 LT PUSH2 0x5EB JUMPI PUSH0 DUP1 REVERT JUMPDEST SWAP1 PUSH0 MSTORE PUSH1 0x20 PUSH0 KECCAK256 ADD PUSH0 SWAP2 POP SWAP1 POP SLOAD DUP2 JUMP JUMPDEST PUSH0 DUP1 PUSH0 SWAP1 POP JUMPDEST PUSH0 DUP1 ADD DUP1 SLOAD SWAP1 POP DUP2 LT ISZERO PUSH2 0x696 JUMPI DUP3 PUSH20 0xFFFFFFFFFFFFFFFFFFFFFFFFFFFFFFFFFFFFFFFF AND PUSH0 DUP1 ADD DUP3 DUP2 SLOAD DUP2 LT PUSH2 0x63C JUMPI PUSH2 0x63B PUSH2 0x13DE JUMP JUMPDEST JUMPDEST SWAP1 PUSH0 MSTORE PUSH1 0x20 PUSH0 KECCAK256 ADD PUSH0 SWAP1 SLOAD SWAP1 PUSH2 0x100 EXP SWAP1 DIV PUSH20 0xFFFFFFFFFFFFFFFFFFFFFFFFFFFFFFFFFFFFFFFF AND PUSH20 0xFFFFFFFFFFFFFFFFFFFFFFFFFFFFFFFFFFFFFFFF AND SUB PUSH2 0x689 JUMPI PUSH1 0x1 SWAP2 POP POP PUSH2 0x69B JUMP JUMPDEST DUP1 DUP1 PUSH1 0x1 ADD SWAP2 POP POP PUSH2 0x602 JUMP JUMPDEST POP PUSH0 SWAP1 POP JUMPDEST SWAP2 SWAP1 POP JUMP JUMPDEST PUSH0 DUP1 PUSH0 SWAP1 POP JUMPDEST PUSH0 DUP1 ADD DUP1 SLOAD SWAP1 POP DUP2 LT ISZERO PUSH2 0x74F JUMPI PUSH0 PUSH1 0x1 PUSH0 DUP1 PUSH0 ADD DUP5 DUP2 SLOAD DUP2 LT PUSH2 0x6CD JUMPI PUSH2 0x6CC PUSH2 0x13DE JUMP JUMPDEST JUMPDEST SWAP1 PUSH0 MSTORE PUSH1 0x20 PUSH0 KECCAK256 ADD PUSH0 SWAP1 SLOAD SWAP1 PUSH2 0x100 EXP SWAP1 DIV PUSH20 0xFFFFFFFFFFFFFFFFFFFFFFFFFFFFFFFFFFFFFFFF AND PUSH20 0xFFFFFFFFFFFFFFFFFFFFFFFFFFFFFFFFFFFFFFFF AND PUSH20 0xFFFFFFFFFFFFFFFFFFFFFFFFFFFFFFFFFFFFFFFF AND DUP2 MSTORE PUSH1 0x20 ADD SWAP1 DUP2 MSTORE PUSH1 0x20 ADD PUSH0 KECCAK256 PUSH0 ADD DUP1 SLOAD SWAP1 POP SUB PUSH2 0x742 JUMPI PUSH0 SWAP2 POP POP PUSH2 0x755 JUMP JUMPDEST DUP1 DUP1 PUSH1 0x1 ADD SWAP2 POP POP PUSH2 0x6A6 JUMP JUMPDEST POP PUSH1 0x1 SWAP1 POP JUMPDEST SWAP1 JUMP JUMPDEST PUSH0 DUP1 PUSH0 DUP1 ADD DUP1 SLOAD SWAP1 POP PUSH8 0xFFFFFFFFFFFFFFFF DUP2 GT ISZERO PUSH2 0x77A JUMPI PUSH2 0x779 PUSH2 0xEEF JUMP JUMPDEST JUMPDEST PUSH1 0x40 MLOAD SWAP1 DUP1 DUP3 MSTORE DUP1 PUSH1 0x20 MUL PUSH1 0x20 ADD DUP3 ADD PUSH1 0x40 MSTORE DUP1 ISZERO PUSH2 0x7A8 JUMPI DUP2 PUSH1 0x20 ADD PUSH1 0x20 DUP3 MUL DUP1 CALLDATASIZE DUP4 CALLDATACOPY DUP1 DUP3 ADD SWAP2 POP POP SWAP1 POP JUMPDEST POP SWAP1 POP PUSH0 JUMPDEST PUSH0 DUP1 ADD DUP1 SLOAD SWAP1 POP DUP2 LT ISZERO PUSH2 0x87D JUMPI PUSH1 0x1 PUSH0 DUP1 PUSH0 ADD DUP4 DUP2 SLOAD DUP2 LT PUSH2 0x7D3 JUMPI PUSH2 0x7D2 PUSH2 0x13DE JUMP JUMPDEST JUMPDEST SWAP1 PUSH0 MSTORE PUSH1 0x20 PUSH0 KECCAK256 ADD PUSH0 SWAP1 SLOAD SWAP1 PUSH2 0x100 EXP SWAP1 DIV PUSH20 0xFFFFFFFFFFFFFFFFFFFFFFFFFFFFFFFFFFFFFFFF AND PUSH20 0xFFFFFFFFFFFFFFFFFFFFFFFFFFFFFFFFFFFFFFFF AND PUSH20 0xFFFFFFFFFFFFFFFFFFFFFFFFFFFFFFFFFFFFFFFF AND DUP2 MSTORE PUSH1 0x20 ADD SWAP1 DUP2 MSTORE PUSH1 0x20 ADD PUSH0 KECCAK256 PUSH0 ADD DUP5 DUP2 SLOAD DUP2 LT PUSH2 0x848 JUMPI PUSH2 0x847 PUSH2 0x13DE JUMP JUMPDEST JUMPDEST SWAP1 PUSH0 MSTORE PUSH1 0x20 PUSH0 KECCAK256 ADD SLOAD DUP3 DUP3 DUP2 MLOAD DUP2 LT PUSH2 0x864 JUMPI PUSH2 0x863 PUSH2 0x13DE JUMP JUMPDEST JUMPDEST PUSH1 0x20 MUL PUSH1 0x20 ADD ADD DUP2 DUP2 MSTORE POP POP DUP1 DUP1 PUSH1 0x1 ADD SWAP2 POP POP PUSH2 0x7AD JUMP JUMPDEST POP PUSH0 PUSH2 0x888 DUP3 PUSH2 0xBD0 JUMP JUMPDEST SWAP1 POP PUSH0 PUSH2 0x894 DUP4 PUSH2 0xC3E JUMP JUMPDEST SWAP1 POP PUSH0 PUSH2 0x8A6 PUSH0 DUP1 ADD DUP1 SLOAD SWAP1 POP PUSH2 0xCE4 JUMP JUMPDEST SWAP1 POP PUSH0 DUP1 DUP3 SUB PUSH2 0x8C0 JUMPI PUSH8 0xDE0B6B3A7640000 SWAP1 POP PUSH2 0x8F5 JUMP JUMPDEST DUP2 PUSH8 0xDE0B6B3A7640000 DUP5 PUSH2 0x8D5 SWAP2 SWAP1 PUSH2 0x1598 JUMP JUMPDEST PUSH2 0x8DF SWAP2 SWAP1 PUSH2 0x1606 JUMP JUMPDEST PUSH8 0xDE0B6B3A7640000 PUSH2 0x8F2 SWAP2 SWAP1 PUSH2 0x1636 JUMP JUMPDEST SWAP1 POP JUMPDEST PUSH8 0xDE0B6B3A7640000 DUP2 DUP6 PUSH2 0x90A SWAP2 SWAP1 PUSH2 0x1598 JUMP JUMPDEST PUSH2 0x914 SWAP2 SWAP1 PUSH2 0x1606 JUMP JUMPDEST SWAP6 POP POP POP POP POP POP SWAP2 SWAP1 POP JUMP JUMPDEST PUSH1 0x60 PUSH0 DUP3 MLOAD PUSH8 0xFFFFFFFFFFFFFFFF DUP2 GT ISZERO PUSH2 0x93E JUMPI PUSH2 0x93D PUSH2 0xEEF JUMP JUMPDEST JUMPDEST PUSH1 0x40 MLOAD SWAP1 DUP1 DUP3 MSTORE DUP1 PUSH1 0x20 MUL PUSH1 0x20 ADD DUP3 ADD PUSH1 0x40 MSTORE DUP1 ISZERO PUSH2 0x96C JUMPI DUP2 PUSH1 0x20 ADD PUSH1 0x20 DUP3 MUL DUP1 CALLDATASIZE DUP4 CALLDATACOPY DUP1 DUP3 ADD SWAP2 POP POP SWAP1 POP JUMPDEST POP SWAP1 POP PUSH0 JUMPDEST DUP2 MLOAD DUP2 LT ISZERO PUSH2 0x9A7 JUMPI DUP1 DUP3 DUP3 DUP2 MLOAD DUP2 LT PUSH2 0x98E JUMPI PUSH2 0x98D PUSH2 0x13DE JUMP JUMPDEST JUMPDEST PUSH1 0x20 MUL PUSH1 0x20 ADD ADD DUP2 DUP2 MSTORE POP POP DUP1 DUP1 PUSH1 0x1 ADD SWAP2 POP POP PUSH2 0x971 JUMP JUMPDEST POP PUSH0 JUMPDEST PUSH1 0x1 DUP5 MLOAD PUSH2 0x9B8 SWAP2 SWAP1 PUSH2 0x1636 JUMP JUMPDEST DUP2 LT ISZERO PUSH2 0xB19 JUMPI PUSH0 PUSH1 0x1 DUP3 PUSH2 0x9CD SWAP2 SWAP1 PUSH2 0x1669 JUMP JUMPDEST SWAP1 POP JUMPDEST DUP5 MLOAD DUP2 LT ISZERO PUSH2 0xB0B JUMPI DUP5 DUP2 DUP2 MLOAD DUP2 LT PUSH2 0x9EC JUMPI PUSH2 0x9EB PUSH2 0x13DE JUMP JUMPDEST JUMPDEST PUSH1 0x20 MUL PUSH1 0x20 ADD ADD MLOAD DUP6 DUP4 DUP2 MLOAD DUP2 LT PUSH2 0xA07 JUMPI PUSH2 0xA06 PUSH2 0x13DE JUMP JUMPDEST JUMPDEST PUSH1 0x20 MUL PUSH1 0x20 ADD ADD MLOAD LT ISZERO PUSH2 0xAFE JUMPI DUP5 DUP2 DUP2 MLOAD DUP2 LT PUSH2 0xA28 JUMPI PUSH2 0xA27 PUSH2 0x13DE JUMP JUMPDEST JUMPDEST PUSH1 0x20 MUL PUSH1 0x20 ADD ADD MLOAD DUP6 DUP4 DUP2 MLOAD DUP2 LT PUSH2 0xA43 JUMPI PUSH2 0xA42 PUSH2 0x13DE JUMP JUMPDEST JUMPDEST PUSH1 0x20 MUL PUSH1 0x20 ADD ADD MLOAD DUP7 DUP5 DUP2 MLOAD DUP2 LT PUSH2 0xA5E JUMPI PUSH2 0xA5D PUSH2 0x13DE JUMP JUMPDEST JUMPDEST PUSH1 0x20 MUL PUSH1 0x20 ADD ADD DUP8 DUP5 DUP2 MLOAD DUP2 LT PUSH2 0xA78 JUMPI PUSH2 0xA77 PUSH2 0x13DE JUMP JUMPDEST JUMPDEST PUSH1 0x20 MUL PUSH1 0x20 ADD ADD DUP3 DUP2 MSTORE POP DUP3 DUP2 MSTORE POP POP POP DUP3 DUP2 DUP2 MLOAD DUP2 LT PUSH2 0xA9C JUMPI PUSH2 0xA9B PUSH2 0x13DE JUMP JUMPDEST JUMPDEST PUSH1 0x20 MUL PUSH1 0x20 ADD ADD MLOAD DUP4 DUP4 DUP2 MLOAD DUP2 LT PUSH2 0xAB7 JUMPI PUSH2 0xAB6 PUSH2 0x13DE JUMP JUMPDEST JUMPDEST PUSH1 0x20 MUL PUSH1 0x20 ADD ADD MLOAD DUP5 DUP5 DUP2 MLOAD DUP2 LT PUSH2 0xAD2 JUMPI PUSH2 0xAD1 PUSH2 0x13DE JUMP JUMPDEST JUMPDEST PUSH1 0x20 MUL PUSH1 0x20 ADD ADD DUP6 DUP5 DUP2 MLOAD DUP2 LT PUSH2 0xAEC JUMPI PUSH2 0xAEB PUSH2 0x13DE JUMP JUMPDEST JUMPDEST PUSH1 0x20 MUL PUSH1 0x20 ADD ADD DUP3 DUP2 MSTORE POP DUP3 DUP2 MSTORE POP POP POP JUMPDEST DUP1 DUP1 PUSH1 0x1 ADD SWAP2 POP POP PUSH2 0x9D0 JUMP JUMPDEST POP DUP1 DUP1 PUSH1 0x1 ADD SWAP2 POP POP PUSH2 0x9AA JUMP JUMPDEST POP PUSH0 DUP4 MLOAD PUSH8 0xFFFFFFFFFFFFFFFF DUP2 GT ISZERO PUSH2 0xB36 JUMPI PUSH2 0xB35 PUSH2 0xEEF JUMP JUMPDEST JUMPDEST PUSH1 0x40 MLOAD SWAP1 DUP1 DUP3 MSTORE DUP1 PUSH1 0x20 MUL PUSH1 0x20 ADD DUP3 ADD PUSH1 0x40 MSTORE DUP1 ISZERO PUSH2 0xB64 JUMPI DUP2 PUSH1 0x20 ADD PUSH1 0x20 DUP3 MUL DUP1 CALLDATASIZE DUP4 CALLDATACOPY DUP1 DUP3 ADD SWAP2 POP POP SWAP1 POP JUMPDEST POP SWAP1 POP PUSH0 JUMPDEST DUP2 MLOAD DUP2 LT ISZERO PUSH2 0xBC5 JUMPI DUP1 DUP6 MLOAD PUSH2 0xB7F SWAP2 SWAP1 PUSH2 0x1636 JUMP JUMPDEST DUP3 DUP5 DUP4 DUP2 MLOAD DUP2 LT PUSH2 0xB93 JUMPI PUSH2 0xB92 PUSH2 0x13DE JUMP JUMPDEST JUMPDEST PUSH1 0x20 MUL PUSH1 0x20 ADD ADD MLOAD DUP2 MLOAD DUP2 LT PUSH2 0xBAC JUMPI PUSH2 0xBAB PUSH2 0x13DE JUMP JUMPDEST JUMPDEST PUSH1 0x20 MUL PUSH1 0x20 ADD ADD DUP2 DUP2 MSTORE POP POP DUP1 DUP1 PUSH1 0x1 ADD SWAP2 POP POP PUSH2 0xB69 JUMP JUMPDEST POP DUP1 SWAP3 POP POP POP SWAP2 SWAP1 POP JUMP JUMPDEST PUSH0 DUP1 PUSH0 SWAP1 POP PUSH0 JUMPDEST DUP4 MLOAD DUP2 LT ISZERO PUSH2 0xC15 JUMPI DUP4 DUP2 DUP2 MLOAD DUP2 LT PUSH2 0xBF3 JUMPI PUSH2 0xBF2 PUSH2 0x13DE JUMP JUMPDEST JUMPDEST PUSH1 0x20 MUL PUSH1 0x20 ADD ADD MLOAD DUP3 PUSH2 0xC06 SWAP2 SWAP1 PUSH2 0x1669 JUMP JUMPDEST SWAP2 POP DUP1 DUP1 PUSH1 0x1 ADD SWAP2 POP POP PUSH2 0xBD7 JUMP JUMPDEST POP DUP3 MLOAD PUSH8 0xDE0B6B3A7640000 DUP3 PUSH2 0xC2C SWAP2 SWAP1 PUSH2 0x1598 JUMP JUMPDEST PUSH2 0xC36 SWAP2 SWAP1 PUSH2 0x1606 JUMP JUMPDEST SWAP2 POP POP SWAP2 SWAP1 POP JUMP JUMPDEST PUSH0 DUP1 PUSH2 0xC49 DUP4 PUSH2 0xBD0 JUMP JUMPDEST SWAP1 POP PUSH0 DUP1 JUMPDEST DUP5 MLOAD DUP2 LT ISZERO PUSH2 0xCCD JUMPI PUSH0 DUP4 PUSH8 0xDE0B6B3A7640000 DUP8 DUP5 DUP2 MLOAD DUP2 LT PUSH2 0xC75 JUMPI PUSH2 0xC74 PUSH2 0x13DE JUMP JUMPDEST JUMPDEST PUSH1 0x20 MUL PUSH1 0x20 ADD ADD MLOAD PUSH2 0xC87 SWAP2 SWAP1 PUSH2 0x1598 JUMP JUMPDEST PUSH2 0xC91 SWAP2 SWAP1 PUSH2 0x16A5 JUMP JUMPDEST SWAP1 POP PUSH8 0xDE0B6B3A7640000 DUP2 DUP3 PUSH2 0xCA8 SWAP2 SWAP1 PUSH2 0x16E5 JUMP JUMPDEST PUSH2 0xCB2 SWAP2 SWAP1 PUSH2 0x1606 JUMP JUMPDEST DUP4 PUSH2 0xCBD SWAP2 SWAP1 PUSH2 0x1669 JUMP JUMPDEST SWAP3 POP POP DUP1 DUP1 PUSH1 0x1 ADD SWAP2 POP POP PUSH2 0xC4E JUMP JUMPDEST POP DUP4 MLOAD DUP2 PUSH2 0xCDB SWAP2 SWAP1 PUSH2 0x1606 JUMP JUMPDEST SWAP3 POP POP POP SWAP2 SWAP1 POP JUMP JUMPDEST PUSH0 DUP1 PUSH0 SWAP1 POP PUSH0 PUSH1 0x1 SWAP1 POP JUMPDEST DUP4 DUP2 LT ISZERO PUSH2 0xD31 JUMPI PUSH1 0x2 PUSH8 0xDE0B6B3A7640000 DUP3 PUSH2 0xD0D SWAP2 SWAP1 PUSH2 0x1598 JUMP JUMPDEST PUSH2 0xD17 SWAP2 SWAP1 PUSH2 0x1606 JUMP JUMPDEST DUP3 PUSH2 0xD22 SWAP2 SWAP1 PUSH2 0x1669 JUMP JUMPDEST SWAP2 POP DUP1 DUP1 PUSH1 0x1 ADD SWAP2 POP POP PUSH2 0xCEF JUMP JUMPDEST POP PUSH1 0x1 DUP4 PUSH2 0xD3F SWAP2 SWAP1 PUSH2 0x1636 JUMP JUMPDEST DUP2 DUP5 PUSH2 0xD4B SWAP2 SWAP1 PUSH2 0x1598 JUMP JUMPDEST PUSH2 0xD55 SWAP2 SWAP1 PUSH2 0x1606 JUMP JUMPDEST SWAP2 POP POP SWAP2 SWAP1 POP JUMP JUMPDEST DUP3 DUP1 SLOAD DUP3 DUP3 SSTORE SWAP1 PUSH0 MSTORE PUSH1 0x20 PUSH0 KECCAK256 SWAP1 DUP2 ADD SWAP3 DUP3 ISZERO PUSH2 0xD97 JUMPI SWAP2 PUSH1 0x20 MUL DUP3 ADD JUMPDEST DUP3 DUP2 GT ISZERO PUSH2 0xD96 JUMPI DUP3 MLOAD DUP3 SSTORE SWAP2 PUSH1 0x20 ADD SWAP2 SWAP1 PUSH1 0x1 ADD SWAP1 PUSH2 0xD7B JUMP JUMPDEST JUMPDEST POP SWAP1 POP PUSH2 0xDA4 SWAP2 SWAP1 PUSH2 0xDA8 JUMP JUMPDEST POP SWAP1 JUMP JUMPDEST JUMPDEST DUP1 DUP3 GT ISZERO PUSH2 0xDBF JUMPI PUSH0 DUP2 PUSH0 SWAP1 SSTORE POP PUSH1 0x1 ADD PUSH2 0xDA9 JUMP JUMPDEST POP SWAP1 JUMP JUMPDEST PUSH0 DUP2 MLOAD SWAP1 POP SWAP2 SWAP1 POP JUMP JUMPDEST PUSH0 DUP3 DUP3 MSTORE PUSH1 0x20 DUP3 ADD SWAP1 POP SWAP3 SWAP2 POP POP JUMP JUMPDEST PUSH0 DUP2 SWAP1 POP PUSH1 0x20 DUP3 ADD SWAP1 POP SWAP2 SWAP1 POP JUMP JUMPDEST PUSH0 PUSH20 0xFFFFFFFFFFFFFFFFFFFFFFFFFFFFFFFFFFFFFFFF DUP3 AND SWAP1 POP SWAP2 SWAP1 POP JUMP JUMPDEST PUSH0 PUSH2 0xE15 DUP3 PUSH2 0xDEC JUMP JUMPDEST SWAP1 POP SWAP2 SWAP1 POP JUMP JUMPDEST PUSH2 0xE25 DUP2 PUSH2 0xE0B JUMP JUMPDEST DUP3 MSTORE POP POP JUMP JUMPDEST PUSH0 PUSH2 0xE36 DUP4 DUP4 PUSH2 0xE1C JUMP JUMPDEST PUSH1 0x20 DUP4 ADD SWAP1 POP SWAP3 SWAP2 POP POP JUMP JUMPDEST PUSH0 PUSH1 0x20 DUP3 ADD SWAP1 POP SWAP2 SWAP1 POP JUMP JUMPDEST PUSH0 PUSH2 0xE58 DUP3 PUSH2 0xDC3 JUMP JUMPDEST PUSH2 0xE62 DUP2 DUP6 PUSH2 0xDCD JUMP JUMPDEST SWAP4 POP PUSH2 0xE6D DUP4 PUSH2 0xDDD JUMP JUMPDEST DUP1 PUSH0 JUMPDEST DUP4 DUP2 LT ISZERO PUSH2 0xE9D JUMPI DUP2 MLOAD PUSH2 0xE84 DUP9 DUP3 PUSH2 0xE2B JUMP JUMPDEST SWAP8 POP PUSH2 0xE8F DUP4 PUSH2 0xE42 JUMP JUMPDEST SWAP3 POP POP PUSH1 0x1 DUP2 ADD SWAP1 POP PUSH2 0xE70 JUMP JUMPDEST POP DUP6 SWAP4 POP POP POP POP SWAP3 SWAP2 POP POP JUMP JUMPDEST PUSH0 PUSH1 0x20 DUP3 ADD SWAP1 POP DUP2 DUP2 SUB PUSH0 DUP4 ADD MSTORE PUSH2 0xEC2 DUP2 DUP5 PUSH2 0xE4E JUMP JUMPDEST SWAP1 POP SWAP3 SWAP2 POP POP JUMP JUMPDEST PUSH0 PUSH1 0x40 MLOAD SWAP1 POP SWAP1 JUMP JUMPDEST PUSH0 DUP1 REVERT JUMPDEST PUSH0 DUP1 REVERT JUMPDEST PUSH0 DUP1 REVERT JUMPDEST PUSH0 PUSH1 0x1F NOT PUSH1 0x1F DUP4 ADD AND SWAP1 POP SWAP2 SWAP1 POP JUMP JUMPDEST PUSH32 0x4E487B7100000000000000000000000000000000000000000000000000000000 PUSH0 MSTORE PUSH1 0x41 PUSH1 0x4 MSTORE PUSH1 0x24 PUSH0 REVERT JUMPDEST PUSH2 0xF25 DUP3 PUSH2 0xEDF JUMP JUMPDEST DUP2 ADD DUP2 DUP2 LT PUSH8 0xFFFFFFFFFFFFFFFF DUP3 GT OR ISZERO PUSH2 0xF44 JUMPI PUSH2 0xF43 PUSH2 0xEEF JUMP JUMPDEST JUMPDEST DUP1 PUSH1 0x40 MSTORE POP POP POP JUMP JUMPDEST PUSH0 PUSH2 0xF56 PUSH2 0xECA JUMP JUMPDEST SWAP1 POP PUSH2 0xF62 DUP3 DUP3 PUSH2 0xF1C JUMP JUMPDEST SWAP2 SWAP1 POP JUMP JUMPDEST PUSH0 PUSH8 0xFFFFFFFFFFFFFFFF DUP3 GT ISZERO PUSH2 0xF81 JUMPI PUSH2 0xF80 PUSH2 0xEEF JUMP JUMPDEST JUMPDEST PUSH1 0x20 DUP3 MUL SWAP1 POP PUSH1 0x20 DUP2 ADD SWAP1 POP SWAP2 SWAP1 POP JUMP JUMPDEST PUSH0 DUP1 REVERT JUMPDEST PUSH0 DUP2 SWAP1 POP SWAP2 SWAP1 POP JUMP JUMPDEST PUSH2 0xFA8 DUP2 PUSH2 0xF96 JUMP JUMPDEST DUP2 EQ PUSH2 0xFB2 JUMPI PUSH0 DUP1 REVERT JUMPDEST POP JUMP JUMPDEST PUSH0 DUP2 CALLDATALOAD SWAP1 POP PUSH2 0xFC3 DUP2 PUSH2 0xF9F JUMP JUMPDEST SWAP3 SWAP2 POP POP JUMP JUMPDEST PUSH0 PUSH2 0xFDB PUSH2 0xFD6 DUP5 PUSH2 0xF67 JUMP JUMPDEST PUSH2 0xF4D JUMP JUMPDEST SWAP1 POP DUP1 DUP4 DUP3 MSTORE PUSH1 0x20 DUP3 ADD SWAP1 POP PUSH1 0x20 DUP5 MUL DUP4 ADD DUP6 DUP2 GT ISZERO PUSH2 0xFFE JUMPI PUSH2 0xFFD PUSH2 0xF92 JUMP JUMPDEST JUMPDEST DUP4 JUMPDEST DUP2 DUP2 LT ISZERO PUSH2 0x1027 JUMPI DUP1 PUSH2 0x1013 DUP9 DUP3 PUSH2 0xFB5 JUMP JUMPDEST DUP5 MSTORE PUSH1 0x20 DUP5 ADD SWAP4 POP POP PUSH1 0x20 DUP2 ADD SWAP1 POP PUSH2 0x1000 JUMP JUMPDEST POP POP POP SWAP4 SWAP3 POP POP POP JUMP JUMPDEST PUSH0 DUP3 PUSH1 0x1F DUP4 ADD SLT PUSH2 0x1045 JUMPI PUSH2 0x1044 PUSH2 0xEDB JUMP JUMPDEST JUMPDEST DUP2 CALLDATALOAD PUSH2 0x1055 DUP5 DUP3 PUSH1 0x20 DUP7 ADD PUSH2 0xFC9 JUMP JUMPDEST SWAP2 POP POP SWAP3 SWAP2 POP POP JUMP JUMPDEST PUSH0 PUSH1 0x20 DUP3 DUP5 SUB SLT ISZERO PUSH2 0x1073 JUMPI PUSH2 0x1072 PUSH2 0xED3 JUMP JUMPDEST JUMPDEST PUSH0 DUP3 ADD CALLDATALOAD PUSH8 0xFFFFFFFFFFFFFFFF DUP2 GT ISZERO PUSH2 0x1090 JUMPI PUSH2 0x108F PUSH2 0xED7 JUMP JUMPDEST JUMPDEST PUSH2 0x109C DUP5 DUP3 DUP6 ADD PUSH2 0x1031 JUMP JUMPDEST SWAP2 POP POP SWAP3 SWAP2 POP POP JUMP JUMPDEST PUSH0 DUP2 MLOAD SWAP1 POP SWAP2 SWAP1 POP JUMP JUMPDEST PUSH0 DUP3 DUP3 MSTORE PUSH1 0x20 DUP3 ADD SWAP1 POP SWAP3 SWAP2 POP POP JUMP JUMPDEST PUSH0 DUP2 SWAP1 POP PUSH1 0x20 DUP3 ADD SWAP1 POP SWAP2 SWAP1 POP JUMP JUMPDEST PUSH2 0x10D7 DUP2 PUSH2 0xF96 JUMP JUMPDEST DUP3 MSTORE POP POP JUMP JUMPDEST PUSH0 PUSH2 0x10E8 DUP4 DUP4 PUSH2 0x10CE JUMP JUMPDEST PUSH1 0x20 DUP4 ADD SWAP1 POP SWAP3 SWAP2 POP POP JUMP JUMPDEST PUSH0 PUSH1 0x20 DUP3 ADD SWAP1 POP SWAP2 SWAP1 POP JUMP JUMPDEST PUSH0 PUSH2 0x110A DUP3 PUSH2 0x10A5 JUMP JUMPDEST PUSH2 0x1114 DUP2 DUP6 PUSH2 0x10AF JUMP JUMPDEST SWAP4 POP PUSH2 0x111F DUP4 PUSH2 0x10BF JUMP JUMPDEST DUP1 PUSH0 JUMPDEST DUP4 DUP2 LT ISZERO PUSH2 0x114F JUMPI DUP2 MLOAD PUSH2 0x1136 DUP9 DUP3 PUSH2 0x10DD JUMP JUMPDEST SWAP8 POP PUSH2 0x1141 DUP4 PUSH2 0x10F4 JUMP JUMPDEST SWAP3 POP POP PUSH1 0x1 DUP2 ADD SWAP1 POP PUSH2 0x1122 JUMP JUMPDEST POP DUP6 SWAP4 POP POP POP POP SWAP3 SWAP2 POP POP JUMP JUMPDEST PUSH0 PUSH1 0x20 DUP3 ADD SWAP1 POP DUP2 DUP2 SUB PUSH0 DUP4 ADD MSTORE PUSH2 0x1174 DUP2 DUP5 PUSH2 0x1100 JUMP JUMPDEST SWAP1 POP SWAP3 SWAP2 POP POP JUMP JUMPDEST PUSH2 0x1185 DUP2 PUSH2 0xE0B JUMP JUMPDEST DUP2 EQ PUSH2 0x118F JUMPI PUSH0 DUP1 REVERT JUMPDEST POP JUMP JUMPDEST PUSH0 DUP2 CALLDATALOAD SWAP1 POP PUSH2 0x11A0 DUP2 PUSH2 0x117C JUMP JUMPDEST SWAP3 SWAP2 POP POP JUMP JUMPDEST PUSH0 PUSH1 0x20 DUP3 DUP5 SUB SLT ISZERO PUSH2 0x11BB JUMPI PUSH2 0x11BA PUSH2 0xED3 JUMP JUMPDEST JUMPDEST PUSH0 PUSH2 0x11C8 DUP5 DUP3 DUP6 ADD PUSH2 0x1192 JUMP JUMPDEST SWAP2 POP POP SWAP3 SWAP2 POP POP JUMP JUMPDEST PUSH0 PUSH1 0x20 DUP3 DUP5 SUB SLT ISZERO PUSH2 0x11E6 JUMPI PUSH2 0x11E5 PUSH2 0xED3 JUMP JUMPDEST JUMPDEST PUSH0 PUSH2 0x11F3 DUP5 DUP3 DUP6 ADD PUSH2 0xFB5 JUMP JUMPDEST SWAP2 POP POP SWAP3 SWAP2 POP POP JUMP JUMPDEST PUSH2 0x1205 DUP2 PUSH2 0xF96 JUMP JUMPDEST DUP3 MSTORE POP POP JUMP JUMPDEST PUSH0 PUSH1 0x20 DUP3 ADD SWAP1 POP PUSH2 0x121E PUSH0 DUP4 ADD DUP5 PUSH2 0x11FC JUMP JUMPDEST SWAP3 SWAP2 POP POP JUMP JUMPDEST PUSH0 DUP3 DUP3 MSTORE PUSH1 0x20 DUP3 ADD SWAP1 POP SWAP3 SWAP2 POP POP JUMP JUMPDEST PUSH32 0x4F6E6C792067726F7570206D656D626572732063616E207375626D6974207261 PUSH0 DUP3 ADD MSTORE PUSH32 0x6E6B696E67730000000000000000000000000000000000000000000000000000 PUSH1 0x20 DUP3 ADD MSTORE POP JUMP JUMPDEST PUSH0 PUSH2 0x128E PUSH1 0x26 DUP4 PUSH2 0x1224 JUMP JUMPDEST SWAP2 POP PUSH2 0x1299 DUP3 PUSH2 0x1234 JUMP JUMPDEST PUSH1 0x40 DUP3 ADD SWAP1 POP SWAP2 SWAP1 POP JUMP JUMPDEST PUSH0 PUSH1 0x20 DUP3 ADD SWAP1 POP DUP2 DUP2 SUB PUSH0 DUP4 ADD MSTORE PUSH2 0x12BB DUP2 PUSH2 0x1282 JUMP JUMPDEST SWAP1 POP SWAP2 SWAP1 POP JUMP JUMPDEST PUSH32 0x52616E6B696E67206D75737420696E636C75646520616C6C2067726F7570206D PUSH0 DUP3 ADD MSTORE PUSH32 0x656D626572730000000000000000000000000000000000000000000000000000 PUSH1 0x20 DUP3 ADD MSTORE POP JUMP JUMPDEST PUSH0 PUSH2 0x131C PUSH1 0x26 DUP4 PUSH2 0x1224 JUMP JUMPDEST SWAP2 POP PUSH2 0x1327 DUP3 PUSH2 0x12C2 JUMP JUMPDEST PUSH1 0x40 DUP3 ADD SWAP1 POP SWAP2 SWAP1 POP JUMP JUMPDEST PUSH0 PUSH1 0x20 DUP3 ADD SWAP1 POP DUP2 DUP2 SUB PUSH0 DUP4 ADD MSTORE PUSH2 0x1349 DUP2 PUSH2 0x1310 JUMP JUMPDEST SWAP1 POP SWAP2 SWAP1 POP JUMP JUMPDEST PUSH32 0x4E6F7420616C6C206D656D626572732068617665207375626D69747465642072 PUSH0 DUP3 ADD MSTORE PUSH32 0x616E6B696E677300000000000000000000000000000000000000000000000000 PUSH1 0x20 DUP3 ADD MSTORE POP JUMP JUMPDEST PUSH0 PUSH2 0x13AA PUSH1 0x27 DUP4 PUSH2 0x1224 JUMP JUMPDEST SWAP2 POP PUSH2 0x13B5 DUP3 PUSH2 0x1350 JUMP JUMPDEST PUSH1 0x40 DUP3 ADD SWAP1 POP SWAP2 SWAP1 POP JUMP JUMPDEST PUSH0 PUSH1 0x20 DUP3 ADD SWAP1 POP DUP2 DUP2 SUB PUSH0 DUP4 ADD MSTORE PUSH2 0x13D7 DUP2 PUSH2 0x139E JUMP JUMPDEST SWAP1 POP SWAP2 SWAP1 POP JUMP JUMPDEST PUSH32 0x4E487B7100000000000000000000000000000000000000000000000000000000 PUSH0 MSTORE PUSH1 0x32 PUSH1 0x4 MSTORE PUSH1 0x24 PUSH0 REVERT JUMPDEST PUSH32 0x5472616E7369656E742073636F726520666F72206D656D626572000000000000 PUSH0 DUP3 ADD MSTORE POP JUMP JUMPDEST PUSH0 PUSH2 0x143F PUSH1 0x1A DUP4 PUSH2 0x1224 JUMP JUMPDEST SWAP2 POP PUSH2 0x144A DUP3 PUSH2 0x140B JUMP JUMPDEST PUSH1 0x20 DUP3 ADD SWAP1 POP SWAP2 SWAP1 POP JUMP JUMPDEST PUSH0 PUSH1 0x40 DUP3 ADD SWAP1 POP DUP2 DUP2 SUB PUSH0 DUP4 ADD MSTORE PUSH2 0x146C DUP2 PUSH2 0x1433 JUMP JUMPDEST SWAP1 POP PUSH2 0x147B PUSH1 0x20 DUP4 ADD DUP5 PUSH2 0x11FC JUMP JUMPDEST SWAP3 SWAP2 POP POP JUMP JUMPDEST PUSH0 DUP2 SLOAD SWAP1 POP SWAP2 SWAP1 POP JUMP JUMPDEST PUSH0 DUP2 SWAP1 POP DUP2 PUSH0 MSTORE PUSH1 0x20 PUSH0 KECCAK256 SWAP1 POP SWAP2 SWAP1 POP JUMP JUMPDEST PUSH0 DUP2 PUSH0 SHR SWAP1 POP SWAP2 SWAP1 POP JUMP JUMPDEST PUSH0 DUP2 SWAP1 POP SWAP2 SWAP1 POP JUMP JUMPDEST PUSH0 PUSH2 0x14C3 PUSH2 0x14BE DUP4 PUSH2 0x149D JUMP JUMPDEST PUSH2 0x14A8 JUMP JUMPDEST SWAP1 POP SWAP2 SWAP1 POP JUMP JUMPDEST PUSH0 PUSH2 0x14D5 DUP3 SLOAD PUSH2 0x14B1 JUMP JUMPDEST SWAP1 POP SWAP2 SWAP1 POP JUMP JUMPDEST PUSH0 PUSH1 0x1 DUP3 ADD SWAP1 POP SWAP2 SWAP1 POP JUMP JUMPDEST PUSH0 PUSH2 0x14F2 DUP3 PUSH2 0x1481 JUMP JUMPDEST PUSH2 0x14FC DUP2 DUP6 PUSH2 0x10AF JUMP JUMPDEST SWAP4 POP PUSH2 0x1507 DUP4 PUSH2 0x148B JUMP JUMPDEST DUP1 PUSH0 JUMPDEST DUP4 DUP2 LT ISZERO PUSH2 0x153E JUMPI PUSH2 0x151B DUP3 PUSH2 0x14CA JUMP JUMPDEST PUSH2 0x1525 DUP9 DUP3 PUSH2 0x10DD JUMP JUMPDEST SWAP8 POP PUSH2 0x1530 DUP4 PUSH2 0x14DC JUMP JUMPDEST SWAP3 POP POP PUSH1 0x1 DUP2 ADD SWAP1 POP PUSH2 0x150A JUMP JUMPDEST POP DUP6 SWAP4 POP POP POP POP SWAP3 SWAP2 POP POP JUMP JUMPDEST PUSH0 PUSH1 0x20 DUP3 ADD SWAP1 POP DUP2 DUP2 SUB PUSH0 DUP4 ADD MSTORE PUSH2 0x1563 DUP2 DUP5 PUSH2 0x14E8 JUMP JUMPDEST SWAP1 POP SWAP3 SWAP2 POP POP JUMP JUMPDEST PUSH32 0x4E487B7100000000000000000000000000000000000000000000000000000000 PUSH0 MSTORE PUSH1 0x11 PUSH1 0x4 MSTORE PUSH1 0x24 PUSH0 REVERT JUMPDEST PUSH0 PUSH2 0x15A2 DUP3 PUSH2 0xF96 JUMP JUMPDEST SWAP2 POP PUSH2 0x15AD DUP4 PUSH2 0xF96 JUMP JUMPDEST SWAP3 POP DUP3 DUP3 MUL PUSH2 0x15BB DUP2 PUSH2 0xF96 JUMP JUMPDEST SWAP2 POP DUP3 DUP3 DIV DUP5 EQ DUP4 ISZERO OR PUSH2 0x15D2 JUMPI PUSH2 0x15D1 PUSH2 0x156B JUMP JUMPDEST JUMPDEST POP SWAP3 SWAP2 POP POP JUMP JUMPDEST PUSH32 0x4E487B7100000000000000000000000000000000000000000000000000000000 PUSH0 MSTORE PUSH1 0x12 PUSH1 0x4 MSTORE PUSH1 0x24 PUSH0 REVERT JUMPDEST PUSH0 PUSH2 0x1610 DUP3 PUSH2 0xF96 JUMP JUMPDEST SWAP2 POP PUSH2 0x161B DUP4 PUSH2 0xF96 JUMP JUMPDEST SWAP3 POP DUP3 PUSH2 0x162B JUMPI PUSH2 0x162A PUSH2 0x15D9 JUMP JUMPDEST JUMPDEST DUP3 DUP3 DIV SWAP1 POP SWAP3 SWAP2 POP POP JUMP JUMPDEST PUSH0 PUSH2 0x1640 DUP3 PUSH2 0xF96 JUMP JUMPDEST SWAP2 POP PUSH2 0x164B DUP4 PUSH2 0xF96 JUMP JUMPDEST SWAP3 POP DUP3 DUP3 SUB SWAP1 POP DUP2 DUP2 GT ISZERO PUSH2 0x1663 JUMPI PUSH2 0x1662 PUSH2 0x156B JUMP JUMPDEST JUMPDEST SWAP3 SWAP2 POP POP JUMP JUMPDEST PUSH0 PUSH2 0x1673 DUP3 PUSH2 0xF96 JUMP JUMPDEST SWAP2 POP PUSH2 0x167E DUP4 PUSH2 0xF96 JUMP JUMPDEST SWAP3 POP DUP3 DUP3 ADD SWAP1 POP DUP1 DUP3 GT ISZERO PUSH2 0x1696 JUMPI PUSH2 0x1695 PUSH2 0x156B JUMP JUMPDEST JUMPDEST SWAP3 SWAP2 POP POP JUMP JUMPDEST PUSH0 DUP2 SWAP1 POP SWAP2 SWAP1 POP JUMP JUMPDEST PUSH0 PUSH2 0x16AF DUP3 PUSH2 0x169C JUMP JUMPDEST SWAP2 POP PUSH2 0x16BA DUP4 PUSH2 0x169C JUMP JUMPDEST SWAP3 POP DUP3 DUP3 SUB SWAP1 POP DUP2 DUP2 SLT PUSH0 DUP5 SLT AND DUP3 DUP3 SGT PUSH0 DUP6 SLT ISZERO AND OR ISZERO PUSH2 0x16DF JUMPI PUSH2 0x16DE PUSH2 0x156B JUMP JUMPDEST JUMPDEST SWAP3 SWAP2 POP POP JUMP JUMPDEST PUSH0 PUSH2 0x16EF DUP3 PUSH2 0x169C JUMP JUMPDEST SWAP2 POP PUSH2 0x16FA DUP4 PUSH2 0x169C JUMP JUMPDEST SWAP3 POP DUP3 DUP3 MUL PUSH2 0x1708 DUP2 PUSH2 0x169C JUMP JUMPDEST SWAP2 POP PUSH32 0x8000000000000000000000000000000000000000000000000000000000000000 DUP5 EQ PUSH0 DUP5 SLT AND ISZERO PUSH2 0x173F JUMPI PUSH2 0x173E PUSH2 0x156B JUMP JUMPDEST JUMPDEST DUP3 DUP3 SDIV DUP5 EQ DUP4 ISZERO OR PUSH2 0x1754 JUMPI PUSH2 0x1753 PUSH2 0x156B JUMP JUMPDEST JUMPDEST POP SWAP3 SWAP2 POP POP JUMP INVALID LOG2 PUSH5 0x6970667358 0x22 SLT KECCAK256 CALLDATACOPY PUSH16 0xC2F92AC72377112F79DCB97885427070 SLOAD BALANCE 0xB4 EXTCODECOPY 0xE2 PUSH0 0xB9 0xBD 0xEE GAS PUSH2 0xA425 COINBASE PUSH5 0x736F6C6343 STOP ADDMOD BYTE STOP CALLER "
				},
				"gasEstimates": {
					"creation": {
						"codeDepositCost": "1206600",
						"executionCost": "infinite",
						"totalCost": "infinite"
					},
					"external": {
						"consensusRanking(uint256)": "infinite",
						"determineConsensus()": "infinite",
						"getConsensusRanking()": "infinite",
						"getGroupMembers()": "infinite",
						"getRanking(address)": "infinite",
						"submitRanking(uint256[])": "infinite"
					},
					"internal": {
						"allMembersSubmitted()": "infinite",
						"calculateConsensusTerm(uint256[] memory)": "infinite",
						"calculateMaxVariance(uint256)": "infinite",
						"calculateMean(uint256[] memory)": "infinite",
						"calculateTransientScore(uint256)": "infinite",
						"calculateVariance(uint256[] memory)": "infinite",
						"isGroupMember(address)": "infinite",
						"sortByScore(uint256[] memory)": "infinite"
					}
				},
				"methodIdentifiers": {
					"consensusRanking(uint256)": "ea4c00b2",
					"determineConsensus()": "d8a46ced",
					"getConsensusRanking()": "b6c38518",
					"getGroupMembers()": "3693564b",
					"getRanking(address)": "e2aa1ef3",
					"submitRanking(uint256[])": "91e34038"
				}
			},
			"storageLayout": {
				"storage": [
					{
						"astId": 13,
						"contract": "contracts/consensusranking.sol:SimpleConsensus",
						"label": "group",
						"offset": 0,
						"slot": "0",
						"type": "t_struct(Group)10_storage"
					},
					{
						"astId": 18,
						"contract": "contracts/consensusranking.sol:SimpleConsensus",
						"label": "rankings",
						"offset": 0,
						"slot": "1",
						"type": "t_mapping(t_address,t_struct(Ranking)6_storage)"
					},
					{
						"astId": 21,
						"contract": "contracts/consensusranking.sol:SimpleConsensus",
						"label": "consensusRanking",
						"offset": 0,
						"slot": "2",
						"type": "t_array(t_uint256)dyn_storage"
					}
				],
				"types": {
					"t_address": {
						"encoding": "inplace",
						"label": "address",
						"numberOfBytes": "20"
					},
					"t_array(t_address)dyn_storage": {
						"base": "t_address",
						"encoding": "dynamic_array",
						"label": "address[]",
						"numberOfBytes": "32"
					},
					"t_array(t_uint256)dyn_storage": {
						"base": "t_uint256",
						"encoding": "dynamic_array",
						"label": "uint256[]",
						"numberOfBytes": "32"
					},
					"t_mapping(t_address,t_struct(Ranking)6_storage)": {
						"encoding": "mapping",
						"key": "t_address",
						"label": "mapping(address => struct SimpleConsensus.Ranking)",
						"numberOfBytes": "32",
						"value": "t_struct(Ranking)6_storage"
					},
					"t_struct(Group)10_storage": {
						"encoding": "inplace",
						"label": "struct SimpleConsensus.Group",
						"members": [
							{
								"astId": 9,
								"contract": "contracts/consensusranking.sol:SimpleConsensus",
								"label": "members",
								"offset": 0,
								"slot": "0",
								"type": "t_array(t_address)dyn_storage"
							}
						],
						"numberOfBytes": "32"
					},
					"t_struct(Ranking)6_storage": {
						"encoding": "inplace",
						"label": "struct SimpleConsensus.Ranking",
						"members": [
							{
								"astId": 5,
								"contract": "contracts/consensusranking.sol:SimpleConsensus",
								"label": "rankedScores",
								"offset": 0,
								"slot": "0",
								"type": "t_array(t_uint256)dyn_storage"
							}
						],
						"numberOfBytes": "32"
					},
					"t_uint256": {
						"encoding": "inplace",
						"label": "uint256",
						"numberOfBytes": "32"
					}
				}
			},
			"userdoc": {
				"kind": "user",
				"methods": {},
				"version": 1
			}
		}
	}
}