{
	"data": {
		"bytecode": {
			"linkReferences": {},
			"object": "608060405234801561000f575f80fd5b506040516143f63803806143f6833981810160405281019061003191906100d4565b805f806101000a81548173ffffffffffffffffffffffffffffffffffffffff021916908373ffffffffffffffffffffffffffffffffffffffff160217905550506100ff565b5f80fd5b5f73ffffffffffffffffffffffffffffffffffffffff82169050919050565b5f6100a38261007a565b9050919050565b6100b381610099565b81146100bd575f80fd5b50565b5f815190506100ce816100aa565b92915050565b5f602082840312156100e9576100e8610076565b5b5f6100f6848285016100c0565b91505092915050565b6142ea8061010c5f395ff3fe608060405234801561000f575f80fd5b5060043610610091575f3560e01c8063690ec8d111610064578063690ec8d1146101315780636c331bd31461014d5780637331fa951461017d578063771197d8146101ad5780638ec2c82b146101cb57610091565b806306428f02146100955780633722a0e8146100b35780634fe038a2146100cf578063667f0e63146100ff575b5f80fd5b61009d6101fb565b6040516100aa9190612a70565b60405180910390f35b6100cd60048036038101906100c89190612e86565b61021e565b005b6100e960048036038101906100e49190612f1b565b61076b565b6040516100f69190613010565b60405180910390f35b61011960048036038101906101149190613030565b6108a1565b604051610128939291906132d9565b60405180910390f35b61014b60048036038101906101469190613323565b610dac565b005b6101676004803603810190610162919061334e565b61119f565b6040516101749190613525565b60405180910390f35b61019760048036038101906101929190612f1b565b6112a2565b6040516101a49190613554565b60405180910390f35b6101b56112c7565b6040516101c29190613630565b60405180910390f35b6101e560048036038101906101e0919061334e565b611341565b6040516101f291906136bc565b60405180910390f35b5f8054906101000a900473ffffffffffffffffffffffffffffffffffffffff1681565b5f805f9054906101000a900473ffffffffffffffffffffffffffffffffffffffff1673ffffffffffffffffffffffffffffffffffffffff1663987ee156336040518263ffffffff1660e01b815260040161027891906136eb565b5f60405180830381865afa158015610292573d5f803e3d5ffd5b505050506040513d5f823e3d601f19601f820116820180604052508101906102ba9190613772565b505090505f815111610301576040517f08c379a00000000000000000000000000000000000000000000000000000000081526004016102f890613896565b60405180910390fd5b5f805f8054906101000a900473ffffffffffffffffffffffffffffffffffffffff1673ffffffffffffffffffffffffffffffffffffffff16630b26ed7b33876040518363ffffffff1660e01b815260040161035d9291906138b4565b5f60405180830381865afa158015610377573d5f803e3d5ffd5b505050506040513d5f823e3d601f19601f8201168201806040525081019061039f91906139f8565b509350505091505f82141580156103b35750805b6103f2576040517f08c379a00000000000000000000000000000000000000000000000000000000081526004016103e990613afb565b60405180910390fd5b5f845111610435576040517f08c379a000000000000000000000000000000000000000000000000000000000815260040161042c90613b89565b60405180910390fd5b5f805f9054906101000a900473ffffffffffffffffffffffffffffffffffffffff1673ffffffffffffffffffffffffffffffffffffffff166399664245876040518263ffffffff1660e01b815260040161048f9190613554565b5f60405180830381865afa1580156104a9573d5f803e3d5ffd5b505050506040513d5f823e3d601f19601f820116820180604052508101906104d19190613ba7565b9450505050505f60015f3373ffffffffffffffffffffffffffffffffffffffff1673ffffffffffffffffffffffffffffffffffffffff1681526020019081526020015f205f8881526020019081526020015f2090505f815f0154036105395786815f01819055505b5f816001015f8481526020019081526020015f20905082815f0181905550806001015f6105669190612718565b5f5b875181101561060c578160010188828151811061058857610587613c72565b5b6020026020010151908060018154018082558091505060019003905f5260205f2090600302015f909190919091505f820151815f0190816105c99190613e90565b5060208201518160010190816105df9190613e90565b5060408201518160020190805190602001906105fc929190612739565b5050508080600101915050610568565b505f8260020180549050148061065357508282600201600184600201805490506106369190613f8c565b8154811061064757610646613c72565b5b905f5260205f20015414155b15610681578160020183908060018154018082558091505060019003905f5260205f20015f90919091909150555b61068c8884336113ed565b61070f5760025f8981526020019081526020015f205f8481526020019081526020015f2033908060018154018082558091505060019003905f5260205f20015f9091909190916101000a81548173ffffffffffffffffffffffffffffffffffffffff021916908373ffffffffffffffffffffffffffffffffffffffff1602179055505b873373ffffffffffffffffffffffffffffffffffffffff167f320425f199b1900c87ab751cb74680df52e35b0caffe1ca604850a02fdda470b858a51604051610759929190613fbf565b60405180910390a35050505050505050565b60605f60015f8573ffffffffffffffffffffffffffffffffffffffff1673ffffffffffffffffffffffffffffffffffffffff1681526020019081526020015f205f8481526020019081526020015f205f0154036107fd576040517f08c379a00000000000000000000000000000000000000000000000000000000081526004016107f490614056565b60405180910390fd5b60015f8473ffffffffffffffffffffffffffffffffffffffff1673ffffffffffffffffffffffffffffffffffffffff1681526020019081526020015f205f8381526020019081526020015f2060020180548060200260200160405190810160405280929190818152602001828054801561089457602002820191905f5260205f20905b815481526020019060010190808311610880575b5050505050905092915050565b60608060605f60015f8873ffffffffffffffffffffffffffffffffffffffff1673ffffffffffffffffffffffffffffffffffffffff1681526020019081526020015f205f8781526020019081526020015f205f015403610936576040517f08c379a000000000000000000000000000000000000000000000000000000000815260040161092d90614056565b60405180910390fd5b5f60015f8873ffffffffffffffffffffffffffffffffffffffff1673ffffffffffffffffffffffffffffffffffffffff1681526020019081526020015f205f8781526020019081526020015f206001015f8681526020019081526020015f20600101805480602002602001604051908101604052809291908181526020015f905b82821015610bda578382905f5260205f2090600302016040518060600160405290815f820180546109e790613ccc565b80601f0160208091040260200160405190810160405280929190818152602001828054610a1390613ccc565b8015610a5e5780601f10610a3557610100808354040283529160200191610a5e565b820191905f5260205f20905b815481529060010190602001808311610a4157829003601f168201915b50505050508152602001600182018054610a7790613ccc565b80601f0160208091040260200160405190810160405280929190818152602001828054610aa390613ccc565b8015610aee5780601f10610ac557610100808354040283529160200191610aee565b820191905f5260205f20905b815481529060010190602001808311610ad157829003601f168201915b5050505050815260200160028201805480602002602001604051908101604052809291908181526020015f905b82821015610bc3578382905f5260205f20018054610b3890613ccc565b80601f0160208091040260200160405190810160405280929190818152602001828054610b6490613ccc565b8015610baf5780601f10610b8657610100808354040283529160200191610baf565b820191905f5260205f20905b815481529060010190602001808311610b9257829003601f168201915b505050505081526020019060010190610b1b565b5050505081525050815260200190600101906109b7565b505050509050805167ffffffffffffffff811115610bfb57610bfa612ae1565b5b604051908082528060200260200182016040528015610c2e57816020015b6060815260200190600190039081610c195790505b509350805167ffffffffffffffff811115610c4c57610c4b612ae1565b5b604051908082528060200260200182016040528015610c7f57816020015b6060815260200190600190039081610c6a5790505b509250805167ffffffffffffffff811115610c9d57610c9c612ae1565b5b604051908082528060200260200182016040528015610cd057816020015b6060815260200190600190039081610cbb5790505b5091505f5b8151811015610da157818181518110610cf157610cf0613c72565b5b60200260200101515f0151858281518110610d0f57610d0e613c72565b5b6020026020010181905250818181518110610d2d57610d2c613c72565b5b602002602001015160200151848281518110610d4c57610d4b613c72565b5b6020026020010181905250818181518110610d6a57610d69613c72565b5b602002602001015160400151838281518110610d8957610d88613c72565b5b60200260200101819052508080600101915050610cd5565b505093509350939050565b5f805f9054906101000a900473ffffffffffffffffffffffffffffffffffffffff1673ffffffffffffffffffffffffffffffffffffffff166399664245836040518263ffffffff1660e01b8152600401610e069190613554565b5f60405180830381865afa158015610e20573d5f803e3d5ffd5b505050506040513d5f823e3d601f19601f82011682018060405250810190610e489190613ba7565b94505050505060035f8381526020019081526020015f205f8281526020019081526020015f205f610e799190612790565b5f60025f8481526020019081526020015f205f8381526020019081526020015f20805480602002602001604051908101604052809291908181526020018280548015610f1757602002820191905f5260205f20905b815f9054906101000a900473ffffffffffffffffffffffffffffffffffffffff1673ffffffffffffffffffffffffffffffffffffffff1681526020019060010190808311610ece575b505050505090505f815111610f61576040517f08c379a0000000000000000000000000000000000000000000000000000000008152600401610f58906140e4565b60405180910390fd5b610f6a81611510565b5f610f758251611655565b90505f805b8251811015611123575f838281518110610f9757610f96613c72565b5b602002602001015160ff1667ffffffffffffffff811115610fbb57610fba612ae1565b5b604051908082528060200260200182016040528015610fe95781602001602082028036833780820191505090505b5090505f5b84838151811061100157611000613c72565b5b602002602001015160ff168110801561101a5750855184105b156110a65785848061102b90614102565b95508151811061103e5761103d613c72565b5b602002602001015182828151811061105957611058613c72565b5b602002602001019073ffffffffffffffffffffffffffffffffffffffff16908173ffffffffffffffffffffffffffffffffffffffff1681525050808061109e90614102565b915050610fee565b5060035f8881526020019081526020015f205f8781526020019081526020015f20604051806020016040528083815250908060018154018082558091505060019003905f5260205f20015f909190919091505f820151815f0190805190602001906111129291906127ae565b505050508080600101915050610f7a565b50816004908051906020019061113a929190612835565b50847f23a1c99c38932e128bfcf925232d21eed654965240c06433650755d2b5879d988560035f8981526020019081526020015f205f8881526020019081526020015f2080549050604051611190929190613fbf565b60405180910390a25050505050565b606060035f8481526020019081526020015f205f8381526020019081526020015f20805480602002602001604051908101604052809291908181526020015f905b82821015611296578382905f5260205f20016040518060200160405290815f820180548060200260200160405190810160405280929190818152602001828054801561127e57602002820191905f5260205f20905b815f9054906101000a900473ffffffffffffffffffffffffffffffffffffffff1673ffffffffffffffffffffffffffffffffffffffff1681526020019060010190808311611235575b505050505081525050815260200190600101906111e0565b50505050905092915050565b6001602052815f5260405f20602052805f5260405f205f9150915050805f0154905081565b6060600480548060200260200160405190810160405280929190818152602001828054801561133757602002820191905f5260205f20905f905b82829054906101000a900460ff1660ff16815260200190600101906020825f010492830192600103820291508084116113015790505b5050505050905090565b606060025f8481526020019081526020015f205f8381526020019081526020015f208054806020026020016040519081016040528092919081815260200182805480156113e057602002820191905f5260205f20905b815f9054906101000a900473ffffffffffffffffffffffffffffffffffffffff1673ffffffffffffffffffffffffffffffffffffffff1681526020019060010190808311611397575b5050505050905092915050565b5f8060025f8681526020019081526020015f205f8581526020019081526020015f2080548060200260200160405190810160405280929190818152602001828054801561148c57602002820191905f5260205f20905b815f9054906101000a900473ffffffffffffffffffffffffffffffffffffffff1673ffffffffffffffffffffffffffffffffffffffff1681526020019060010190808311611443575b505050505090505f5b8151811015611503578373ffffffffffffffffffffffffffffffffffffffff168282815181106114c8576114c7613c72565b5b602002602001015173ffffffffffffffffffffffffffffffffffffffff16036114f657600192505050611509565b8080600101915050611495565b505f9150505b9392505050565b5f6001825161151f9190613f8c565b90505b5f811115611651575f6001826115389190614149565b42448460405160200161154d9392919061419c565b604051602081830303815290604052805190602001205f1c61156f9190614205565b905082818151811061158457611583613c72565b5b602002602001015183838151811061159f5761159e613c72565b5b60200260200101518484815181106115ba576115b9613c72565b5b602002602001018584815181106115d4576115d3613c72565b5b602002602001018273ffffffffffffffffffffffffffffffffffffffff1673ffffffffffffffffffffffffffffffffffffffff168152508273ffffffffffffffffffffffffffffffffffffffff1673ffffffffffffffffffffffffffffffffffffffff16815250505050808061164990614235565b915050611522565b5050565b6060601482111561166e576116698261167f565b611678565b611677826117d2565b5b9050919050565b60605f60066005846116919190614149565b61169b919061425c565b67ffffffffffffffff8111156116b4576116b3612ae1565b5b6040519080825280602002602001820160405280156116e25781602001602082028036833780820191505090505b5090505f805b5f8511156117c4575f6006866116fe9190614205565b1415801561170f575060058160ff16105b1561176b57600583838061172290614102565b94508151811061173557611734613c72565b5b602002602001019060ff16908160ff16815250506005856117569190613f8c565b945080806117639061428c565b9150506117bf565b600683838061177990614102565b94508151811061178c5761178b613c72565b5b602002602001019060ff16908160ff16815250506006856117ad9190613f8c565b945060058160ff16036117be575f90505b5b6116e8565b818352829350505050919050565b6060806001830361182e57600167ffffffffffffffff8111156117f8576117f7612ae1565b5b6040519080825280602002602001820160405280156118265781602001602082028036833780820191505090505b509050611ed8565b6002830361188757600167ffffffffffffffff81111561185157611850612ae1565b5b60405190808252806020026020018201604052801561187f5781602001602082028036833780820191505090505b509050611ed7565b600383036118e057600167ffffffffffffffff8111156118aa576118a9612ae1565b5b6040519080825280602002602001820160405280156118d85781602001602082028036833780820191505090505b509050611ed6565b6004830361193957600167ffffffffffffffff81111561190357611902612ae1565b5b6040519080825280602002602001820160405280156119315781602001602082028036833780820191505090505b509050611ed5565b6005830361199257600167ffffffffffffffff81111561195c5761195b612ae1565b5b60405190808252806020026020018201604052801561198a5781602001602082028036833780820191505090505b509050611ed4565b600683036119eb57600167ffffffffffffffff8111156119b5576119b4612ae1565b5b6040519080825280602002602001820160405280156119e35781602001602082028036833780820191505090505b509050611ed3565b60078303611a4457600267ffffffffffffffff811115611a0e57611a0d612ae1565b5b604051908082528060200260200182016040528015611a3c5781602001602082028036833780820191505090505b509050611ed2565b60088303611a9d57600267ffffffffffffffff811115611a6757611a66612ae1565b5b604051908082528060200260200182016040528015611a955781602001602082028036833780820191505090505b509050611ed1565b60098303611af657600267ffffffffffffffff811115611ac057611abf612ae1565b5b604051908082528060200260200182016040528015611aee5781602001602082028036833780820191505090505b509050611ed0565b600a8303611b4f57600267ffffffffffffffff811115611b1957611b18612ae1565b5b604051908082528060200260200182016040528015611b475781602001602082028036833780820191505090505b509050611ecf565b600b8303611ba857600267ffffffffffffffff811115611b7257611b71612ae1565b5b604051908082528060200260200182016040528015611ba05781602001602082028036833780820191505090505b509050611ece565b600c8303611c0157600267ffffffffffffffff811115611bcb57611bca612ae1565b5b604051908082528060200260200182016040528015611bf95781602001602082028036833780820191505090505b509050611ecd565b600d8303611c5a57600367ffffffffffffffff811115611c2457611c23612ae1565b5b604051908082528060200260200182016040528015611c525781602001602082028036833780820191505090505b509050611ecc565b600e8303611cb357600367ffffffffffffffff811115611c7d57611c7c612ae1565b5b604051908082528060200260200182016040528015611cab5781602001602082028036833780820191505090505b509050611ecb565b600f8303611d0c57600367ffffffffffffffff811115611cd657611cd5612ae1565b5b604051908082528060200260200182016040528015611d045781602001602082028036833780820191505090505b509050611eca565b60108303611d6557600367ffffffffffffffff811115611d2f57611d2e612ae1565b5b604051908082528060200260200182016040528015611d5d5781602001602082028036833780820191505090505b509050611ec9565b60118303611dbe57600367ffffffffffffffff811115611d8857611d87612ae1565b5b604051908082528060200260200182016040528015611db65781602001602082028036833780820191505090505b509050611ec8565b60128303611e1757600367ffffffffffffffff811115611de157611de0612ae1565b5b604051908082528060200260200182016040528015611e0f5781602001602082028036833780820191505090505b509050611ec7565b60138303611e7057600467ffffffffffffffff811115611e3a57611e39612ae1565b5b604051908082528060200260200182016040528015611e685781602001602082028036833780820191505090505b509050611ec6565b60148303611ec557600467ffffffffffffffff811115611e9357611e92612ae1565b5b604051908082528060200260200182016040528015611ec15781602001602082028036833780820191505090505b5090505b5b5b5b5b5b5b5b5b5b5b5b5b5b5b5b5b5b5b5b60018303611f0e576001815f81518110611ef557611ef4613c72565b5b602002602001019060ff16908160ff168152505061270f565b60028303611f44576002815f81518110611f2b57611f2a613c72565b5b602002602001019060ff16908160ff168152505061270e565b60038303611f7a576003815f81518110611f6157611f60613c72565b5b602002602001019060ff16908160ff168152505061270d565b60048303611fb0576004815f81518110611f9757611f96613c72565b5b602002602001019060ff16908160ff168152505061270c565b60058303611fe6576005815f81518110611fcd57611fcc613c72565b5b602002602001019060ff16908160ff168152505061270b565b6006830361201c576006815f8151811061200357612002613c72565b5b602002602001019060ff16908160ff168152505061270a565b6007830361207c576003815f8151811061203957612038613c72565b5b602002602001019060ff16908160ff168152505060048160018151811061206357612062613c72565b5b602002602001019060ff16908160ff1681525050612709565b600883036120dc576004815f8151811061209957612098613c72565b5b602002602001019060ff16908160ff16815250506004816001815181106120c3576120c2613c72565b5b602002602001019060ff16908160ff1681525050612708565b6009830361213c576005815f815181106120f9576120f8613c72565b5b602002602001019060ff16908160ff168152505060048160018151811061212357612122613c72565b5b602002602001019060ff16908160ff1681525050612707565b600a830361219c576005815f8151811061215957612158613c72565b5b602002602001019060ff16908160ff168152505060058160018151811061218357612182613c72565b5b602002602001019060ff16908160ff1681525050612706565b600b83036121fc576005815f815181106121b9576121b8613c72565b5b602002602001019060ff16908160ff16815250506006816001815181106121e3576121e2613c72565b5b602002602001019060ff16908160ff1681525050612705565b600c830361225c576006815f8151811061221957612218613c72565b5b602002602001019060ff16908160ff168152505060068160018151811061224357612242613c72565b5b602002602001019060ff16908160ff1681525050612704565b600d83036122e6576005815f8151811061227957612278613c72565b5b602002602001019060ff16908160ff16815250506004816001815181106122a3576122a2613c72565b5b602002602001019060ff16908160ff16815250506004816002815181106122cd576122cc613c72565b5b602002602001019060ff16908160ff1681525050612703565b600e8303612370576005815f8151811061230357612302613c72565b5b602002602001019060ff16908160ff168152505060058160018151811061232d5761232c613c72565b5b602002602001019060ff16908160ff168152505060048160028151811061235757612356613c72565b5b602002602001019060ff16908160ff1681525050612702565b600f83036123fa576005815f8151811061238d5761238c613c72565b5b602002602001019060ff16908160ff16815250506005816001815181106123b7576123b6613c72565b5b602002602001019060ff16908160ff16815250506005816002815181106123e1576123e0613c72565b5b602002602001019060ff16908160ff1681525050612701565b60108303612484576006815f8151811061241757612416613c72565b5b602002602001019060ff16908160ff168152505060058160018151811061244157612440613c72565b5b602002602001019060ff16908160ff168152505060058160028151811061246b5761246a613c72565b5b602002602001019060ff16908160ff1681525050612700565b6011830361250e576006815f815181106124a1576124a0613c72565b5b602002602001019060ff16908160ff16815250506006816001815181106124cb576124ca613c72565b5b602002602001019060ff16908160ff16815250506005816002815181106124f5576124f4613c72565b5b602002602001019060ff16908160ff16815250506126ff565b60128303612598576006815f8151811061252b5761252a613c72565b5b602002602001019060ff16908160ff168152505060068160018151811061255557612554613c72565b5b602002602001019060ff16908160ff168152505060068160028151811061257f5761257e613c72565b5b602002602001019060ff16908160ff16815250506126fe565b6013830361264c576005815f815181106125b5576125b4613c72565b5b602002602001019060ff16908160ff16815250506005816001815181106125df576125de613c72565b5b602002602001019060ff16908160ff168152505060058160028151811061260957612608613c72565b5b602002602001019060ff16908160ff168152505060048160038151811061263357612632613c72565b5b602002602001019060ff16908160ff16815250506126fd565b601483036126fc576005815f8151811061266957612668613c72565b5b602002602001019060ff16908160ff168152505060058160018151811061269357612692613c72565b5b602002602001019060ff16908160ff16815250506005816002815181106126bd576126bc613c72565b5b602002602001019060ff16908160ff16815250506005816003815181106126e7576126e6613c72565b5b602002602001019060ff16908160ff16815250505b5b5b5b5b5b5b5b5b5b5b5b5b5b5b5b5b5b5b5b80915050919050565b5080545f8255600302905f5260205f209081019061273691906128d7565b50565b828054828255905f5260205f2090810192821561277f579160200282015b8281111561277e57825182908161276e9190613e90565b5091602001919060010190612757565b5b50905061278c919061291a565b5090565b5080545f8255905f5260205f20908101906127ab919061293d565b50565b828054828255905f5260205f20908101928215612824579160200282015b82811115612823578251825f6101000a81548173ffffffffffffffffffffffffffffffffffffffff021916908373ffffffffffffffffffffffffffffffffffffffff160217905550916020019190600101906127cc565b5b5090506128319190612962565b5090565b828054828255905f5260205f2090601f016020900481019282156128c6579160200282015f5b8382111561289857835183826101000a81548160ff021916908360ff16021790555092602001926001016020815f0104928301926001030261285b565b80156128c45782816101000a81549060ff02191690556001016020815f01049283019260010302612898565b505b5090506128d39190612962565b5090565b5b80821115612916575f8082015f6128ef919061297d565b600182015f6128fe919061297d565b600282015f61290d91906129ba565b506003016128d8565b5090565b5b80821115612939575f8181612930919061297d565b5060010161291b565b5090565b5b8082111561295e575f8082015f61295591906129d8565b5060010161293e565b5090565b5b80821115612979575f815f905550600101612963565b5090565b50805461298990613ccc565b5f825580601f1061299a57506129b7565b601f0160209004905f5260205f20908101906129b69190612962565b5b50565b5080545f8255905f5260205f20908101906129d5919061291a565b50565b5080545f8255905f5260205f20908101906129f39190612962565b50565b5f73ffffffffffffffffffffffffffffffffffffffff82169050919050565b5f819050919050565b5f612a38612a33612a2e846129f6565b612a15565b6129f6565b9050919050565b5f612a4982612a1e565b9050919050565b5f612a5a82612a3f565b9050919050565b612a6a81612a50565b82525050565b5f602082019050612a835f830184612a61565b92915050565b5f604051905090565b5f80fd5b5f80fd5b5f819050919050565b612aac81612a9a565b8114612ab6575f80fd5b50565b5f81359050612ac781612aa3565b92915050565b5f80fd5b5f601f19601f8301169050919050565b7f4e487b71000000000000000000000000000000000000000000000000000000005f52604160045260245ffd5b612b1782612ad1565b810181811067ffffffffffffffff82111715612b3657612b35612ae1565b5b80604052505050565b5f612b48612a89565b9050612b548282612b0e565b919050565b5f67ffffffffffffffff821115612b7357612b72612ae1565b5b602082029050602081019050919050565b5f80fd5b5f80fd5b5f80fd5b5f80fd5b5f67ffffffffffffffff821115612bae57612bad612ae1565b5b612bb782612ad1565b9050602081019050919050565b828183375f83830152505050565b5f612be4612bdf84612b94565b612b3f565b905082815260208101848484011115612c0057612bff612b90565b5b612c0b848285612bc4565b509392505050565b5f82601f830112612c2757612c26612acd565b5b8135612c37848260208601612bd2565b91505092915050565b5f67ffffffffffffffff821115612c5a57612c59612ae1565b5b602082029050602081019050919050565b5f612c7d612c7884612c40565b612b3f565b90508083825260208201905060208402830185811115612ca057612c9f612b84565b5b835b81811015612ce757803567ffffffffffffffff811115612cc557612cc4612acd565b5b808601612cd28982612c13565b85526020850194505050602081019050612ca2565b5050509392505050565b5f82601f830112612d0557612d04612acd565b5b8135612d15848260208601612c6b565b91505092915050565b5f60608284031215612d3357612d32612b88565b5b612d3d6060612b3f565b90505f82013567ffffffffffffffff811115612d5c57612d5b612b8c565b5b612d6884828501612c13565b5f83015250602082013567ffffffffffffffff811115612d8b57612d8a612b8c565b5b612d9784828501612c13565b602083015250604082013567ffffffffffffffff811115612dbb57612dba612b8c565b5b612dc784828501612cf1565b60408301525092915050565b5f612de5612de084612b59565b612b3f565b90508083825260208201905060208402830185811115612e0857612e07612b84565b5b835b81811015612e4f57803567ffffffffffffffff811115612e2d57612e2c612acd565b5b808601612e3a8982612d1e565b85526020850194505050602081019050612e0a565b5050509392505050565b5f82601f830112612e6d57612e6c612acd565b5b8135612e7d848260208601612dd3565b91505092915050565b5f8060408385031215612e9c57612e9b612a92565b5b5f612ea985828601612ab9565b925050602083013567ffffffffffffffff811115612eca57612ec9612a96565b5b612ed685828601612e59565b9150509250929050565b5f612eea826129f6565b9050919050565b612efa81612ee0565b8114612f04575f80fd5b50565b5f81359050612f1581612ef1565b92915050565b5f8060408385031215612f3157612f30612a92565b5b5f612f3e85828601612f07565b9250506020612f4f85828601612ab9565b9150509250929050565b5f81519050919050565b5f82825260208201905092915050565b5f819050602082019050919050565b612f8b81612a9a565b82525050565b5f612f9c8383612f82565b60208301905092915050565b5f602082019050919050565b5f612fbe82612f59565b612fc88185612f63565b9350612fd383612f73565b805f5b83811015613003578151612fea8882612f91565b9750612ff583612fa8565b925050600181019050612fd6565b5085935050505092915050565b5f6020820190508181035f8301526130288184612fb4565b905092915050565b5f805f6060848603121561304757613046612a92565b5b5f61305486828701612f07565b935050602061306586828701612ab9565b925050604061307686828701612ab9565b9150509250925092565b5f81519050919050565b5f82825260208201905092915050565b5f819050602082019050919050565b5f81519050919050565b5f82825260208201905092915050565b8281835e5f83830152505050565b5f6130db826130a9565b6130e581856130b3565b93506130f58185602086016130c3565b6130fe81612ad1565b840191505092915050565b5f61311483836130d1565b905092915050565b5f602082019050919050565b5f61313282613080565b61313c818561308a565b93508360208202850161314e8561309a565b805f5b85811015613189578484038952815161316a8582613109565b94506131758361311c565b925060208a01995050600181019050613151565b50829750879550505050505092915050565b5f81519050919050565b5f82825260208201905092915050565b5f819050602082019050919050565b5f82825260208201905092915050565b5f6131de82613080565b6131e881856131c4565b9350836020820285016131fa8561309a565b805f5b8581101561323557848403895281516132168582613109565b94506132218361311c565b925060208a019950506001810190506131fd565b50829750879550505050505092915050565b5f61325283836131d4565b905092915050565b5f602082019050919050565b5f6132708261319b565b61327a81856131a5565b93508360208202850161328c856131b5565b805f5b858110156132c757848403895281516132a88582613247565b94506132b38361325a565b925060208a0199505060018101905061328f565b50829750879550505050505092915050565b5f6060820190508181035f8301526132f18186613128565b905081810360208301526133058185613128565b905081810360408301526133198184613266565b9050949350505050565b5f6020828403121561333857613337612a92565b5b5f61334584828501612ab9565b91505092915050565b5f806040838503121561336457613363612a92565b5b5f61337185828601612ab9565b925050602061338285828601612ab9565b9150509250929050565b5f81519050919050565b5f82825260208201905092915050565b5f819050602082019050919050565b5f81519050919050565b5f82825260208201905092915050565b5f819050602082019050919050565b6133e781612ee0565b82525050565b5f6133f883836133de565b60208301905092915050565b5f602082019050919050565b5f61341a826133b5565b61342481856133bf565b935061342f836133cf565b805f5b8381101561345f57815161344688826133ed565b975061345183613404565b925050600181019050613432565b5085935050505092915050565b5f602083015f8301518482035f8601526134868282613410565b9150508091505092915050565b5f61349e838361346c565b905092915050565b5f602082019050919050565b5f6134bc8261338c565b6134c68185613396565b9350836020820285016134d8856133a6565b805f5b8581101561351357848403895281516134f48582613493565b94506134ff836134a6565b925060208a019950506001810190506134db565b50829750879550505050505092915050565b5f6020820190508181035f83015261353d81846134b2565b905092915050565b61354e81612a9a565b82525050565b5f6020820190506135675f830184613545565b92915050565b5f81519050919050565b5f82825260208201905092915050565b5f819050602082019050919050565b5f60ff82169050919050565b6135ab81613596565b82525050565b5f6135bc83836135a2565b60208301905092915050565b5f602082019050919050565b5f6135de8261356d565b6135e88185613577565b93506135f383613587565b805f5b8381101561362357815161360a88826135b1565b9750613615836135c8565b9250506001810190506135f6565b5085935050505092915050565b5f6020820190508181035f83015261364881846135d4565b905092915050565b5f82825260208201905092915050565b5f61366a826133b5565b6136748185613650565b935061367f836133cf565b805f5b838110156136af57815161369688826133ed565b97506136a183613404565b925050600181019050613682565b5085935050505092915050565b5f6020820190508181035f8301526136d48184613660565b905092915050565b6136e581612ee0565b82525050565b5f6020820190506136fe5f8301846136dc565b92915050565b5f61371661371184612b94565b612b3f565b90508281526020810184848401111561373257613731612b90565b5b61373d8482856130c3565b509392505050565b5f82601f83011261375957613758612acd565b5b8151613769848260208601613704565b91505092915050565b5f805f6060848603121561378957613788612a92565b5b5f84015167ffffffffffffffff8111156137a6576137a5612a96565b5b6137b286828701613745565b935050602084015167ffffffffffffffff8111156137d3576137d2612a96565b5b6137df86828701613745565b925050604084015167ffffffffffffffff811115613800576137ff612a96565b5b61380c86828701613745565b9150509250925092565b5f82825260208201905092915050565b7f50726f66696c65206d75737420657869737420746f207375626d697420636f6e5f8201527f747269627574696f6e7300000000000000000000000000000000000000000000602082015250565b5f613880602a83613816565b915061388b82613826565b604082019050919050565b5f6020820190508181035f8301526138ad81613874565b9050919050565b5f6040820190506138c75f8301856136dc565b6138d46020830184613545565b9392505050565b5f815190506138e981612aa3565b92915050565b5f8115159050919050565b613903816138ef565b811461390d575f80fd5b50565b5f8151905061391e816138fa565b92915050565b5f67ffffffffffffffff82111561393e5761393d612ae1565b5b602082029050602081019050919050565b5f8151905061395d81612ef1565b92915050565b5f61397561397084613924565b612b3f565b9050808382526020820190506020840283018581111561399857613997612b84565b5b835b818110156139c157806139ad888261394f565b84526020840193505060208101905061399a565b5050509392505050565b5f82601f8301126139df576139de612acd565b5b81516139ef848260208601613963565b91505092915050565b5f805f805f60a08688031215613a1157613a10612a92565b5b5f613a1e888289016138db565b9550506020613a2f888289016138db565b9450506040613a40888289016138db565b9350506060613a5188828901613910565b925050608086015167ffffffffffffffff811115613a7257613a71612a96565b5b613a7e888289016139cb565b9150509295509295909350565b7f55736572206e6f7420617070726f76656420696e207468697320636f6d6d756e5f8201527f6974790000000000000000000000000000000000000000000000000000000000602082015250565b5f613ae5602383613816565b9150613af082613a8b565b604082019050919050565b5f6020820190508181035f830152613b1281613ad9565b9050919050565b7f4d757374207375626d6974206174206c65617374206f6e6520636f6e747269625f8201527f7574696f6e000000000000000000000000000000000000000000000000000000602082015250565b5f613b73602583613816565b9150613b7e82613b19565b604082019050919050565b5f6020820190508181035f830152613ba081613b67565b9050919050565b5f805f805f60a08688031215613bc057613bbf612a92565b5b5f86015167ffffffffffffffff811115613bdd57613bdc612a96565b5b613be988828901613745565b955050602086015167ffffffffffffffff811115613c0a57613c09612a96565b5b613c1688828901613745565b945050604086015167ffffffffffffffff811115613c3757613c36612a96565b5b613c4388828901613745565b9350506060613c548882890161394f565b9250506080613c65888289016138db565b9150509295509295909350565b7f4e487b71000000000000000000000000000000000000000000000000000000005f52603260045260245ffd5b7f4e487b71000000000000000000000000000000000000000000000000000000005f52602260045260245ffd5b5f6002820490506001821680613ce357607f821691505b602082108103613cf657613cf5613c9f565b5b50919050565b5f819050815f5260205f209050919050565b5f6020601f8301049050919050565b5f82821b905092915050565b5f60088302613d587fffffffffffffffffffffffffffffffffffffffffffffffffffffffffffffffff82613d1d565b613d628683613d1d565b95508019841693508086168417925050509392505050565b5f613d94613d8f613d8a84612a9a565b612a15565b612a9a565b9050919050565b5f819050919050565b613dad83613d7a565b613dc1613db982613d9b565b848454613d29565b825550505050565b5f90565b613dd5613dc9565b613de0818484613da4565b505050565b5b81811015613e0357613df85f82613dcd565b600181019050613de6565b5050565b601f821115613e4857613e1981613cfc565b613e2284613d0e565b81016020851015613e31578190505b613e45613e3d85613d0e565b830182613de5565b50505b505050565b5f82821c905092915050565b5f613e685f1984600802613e4d565b1980831691505092915050565b5f613e808383613e59565b9150826002028217905092915050565b613e99826130a9565b67ffffffffffffffff811115613eb257613eb1612ae1565b5b613ebc8254613ccc565b613ec7828285613e07565b5f60209050601f831160018114613ef8575f8415613ee6578287015190505b613ef08582613e75565b865550613f57565b601f198416613f0686613cfc565b5f5b82811015613f2d57848901518255600182019150602085019450602081019050613f08565b86831015613f4a5784890151613f46601f891682613e59565b8355505b6001600288020188555050505b505050505050565b7f4e487b71000000000000000000000000000000000000000000000000000000005f52601160045260245ffd5b5f613f9682612a9a565b9150613fa183612a9a565b9250828203905081811115613fb957613fb8613f5f565b5b92915050565b5f604082019050613fd25f830185613545565b613fdf6020830184613545565b9392505050565b7f4e6f20636f6e747269627574696f6e7320666f756e6420666f722074686973205f8201527f7573657220696e207468697320636f6d6d756e69747900000000000000000000602082015250565b5f614040603683613816565b915061404b82613fe6565b604082019050919050565b5f6020820190508181035f83015261406d81614034565b9050919050565b7f4e6f20636f6e7472696275746f727320666f72207468652063757272656e74205f8201527f7765656b00000000000000000000000000000000000000000000000000000000602082015250565b5f6140ce602483613816565b91506140d982614074565b604082019050919050565b5f6020820190508181035f8301526140fb816140c2565b9050919050565b5f61410c82612a9a565b91507fffffffffffffffffffffffffffffffffffffffffffffffffffffffffffffffff820361413e5761413d613f5f565b5b600182019050919050565b5f61415382612a9a565b915061415e83612a9a565b925082820190508082111561417657614175613f5f565b5b92915050565b5f819050919050565b61419661419182612a9a565b61417c565b82525050565b5f6141a78286614185565b6020820191506141b78285614185565b6020820191506141c78284614185565b602082019150819050949350505050565b7f4e487b71000000000000000000000000000000000000000000000000000000005f52601260045260245ffd5b5f61420f82612a9a565b915061421a83612a9a565b92508261422a576142296141d8565b5b828206905092915050565b5f61423f82612a9a565b91505f820361425157614250613f5f565b5b600182039050919050565b5f61426682612a9a565b915061427183612a9a565b925082614281576142806141d8565b5b828204905092915050565b5f61429682613596565b915060ff82036142a9576142a8613f5f565b5b60018201905091905056fea2646970667358221220680ee45020cb686bbc9723c7e319aff0dbf8a732ea81b593656ce863cf3fb52864736f6c634300081a0033",
			"opcodes": "PUSH1 0x80 PUSH1 0x40 MSTORE CALLVALUE DUP1 ISZERO PUSH2 0xF JUMPI PUSH0 DUP1 REVERT JUMPDEST POP PUSH1 0x40 MLOAD PUSH2 0x43F6 CODESIZE SUB DUP1 PUSH2 0x43F6 DUP4 CODECOPY DUP2 DUP2 ADD PUSH1 0x40 MSTORE DUP2 ADD SWAP1 PUSH2 0x31 SWAP2 SWAP1 PUSH2 0xD4 JUMP JUMPDEST DUP1 PUSH0 DUP1 PUSH2 0x100 EXP DUP2 SLOAD DUP2 PUSH20 0xFFFFFFFFFFFFFFFFFFFFFFFFFFFFFFFFFFFFFFFF MUL NOT AND SWAP1 DUP4 PUSH20 0xFFFFFFFFFFFFFFFFFFFFFFFFFFFFFFFFFFFFFFFF AND MUL OR SWAP1 SSTORE POP POP PUSH2 0xFF JUMP JUMPDEST PUSH0 DUP1 REVERT JUMPDEST PUSH0 PUSH20 0xFFFFFFFFFFFFFFFFFFFFFFFFFFFFFFFFFFFFFFFF DUP3 AND SWAP1 POP SWAP2 SWAP1 POP JUMP JUMPDEST PUSH0 PUSH2 0xA3 DUP3 PUSH2 0x7A JUMP JUMPDEST SWAP1 POP SWAP2 SWAP1 POP JUMP JUMPDEST PUSH2 0xB3 DUP2 PUSH2 0x99 JUMP JUMPDEST DUP2 EQ PUSH2 0xBD JUMPI PUSH0 DUP1 REVERT JUMPDEST POP JUMP JUMPDEST PUSH0 DUP2 MLOAD SWAP1 POP PUSH2 0xCE DUP2 PUSH2 0xAA JUMP JUMPDEST SWAP3 SWAP2 POP POP JUMP JUMPDEST PUSH0 PUSH1 0x20 DUP3 DUP5 SUB SLT ISZERO PUSH2 0xE9 JUMPI PUSH2 0xE8 PUSH2 0x76 JUMP JUMPDEST JUMPDEST PUSH0 PUSH2 0xF6 DUP5 DUP3 DUP6 ADD PUSH2 0xC0 JUMP JUMPDEST SWAP2 POP POP SWAP3 SWAP2 POP POP JUMP JUMPDEST PUSH2 0x42EA DUP1 PUSH2 0x10C PUSH0 CODECOPY PUSH0 RETURN INVALID PUSH1 0x80 PUSH1 0x40 MSTORE CALLVALUE DUP1 ISZERO PUSH2 0xF JUMPI PUSH0 DUP1 REVERT JUMPDEST POP PUSH1 0x4 CALLDATASIZE LT PUSH2 0x91 JUMPI PUSH0 CALLDATALOAD PUSH1 0xE0 SHR DUP1 PUSH4 0x690EC8D1 GT PUSH2 0x64 JUMPI DUP1 PUSH4 0x690EC8D1 EQ PUSH2 0x131 JUMPI DUP1 PUSH4 0x6C331BD3 EQ PUSH2 0x14D JUMPI DUP1 PUSH4 0x7331FA95 EQ PUSH2 0x17D JUMPI DUP1 PUSH4 0x771197D8 EQ PUSH2 0x1AD JUMPI DUP1 PUSH4 0x8EC2C82B EQ PUSH2 0x1CB JUMPI PUSH2 0x91 JUMP JUMPDEST DUP1 PUSH4 0x6428F02 EQ PUSH2 0x95 JUMPI DUP1 PUSH4 0x3722A0E8 EQ PUSH2 0xB3 JUMPI DUP1 PUSH4 0x4FE038A2 EQ PUSH2 0xCF JUMPI DUP1 PUSH4 0x667F0E63 EQ PUSH2 0xFF JUMPI JUMPDEST PUSH0 DUP1 REVERT JUMPDEST PUSH2 0x9D PUSH2 0x1FB JUMP JUMPDEST PUSH1 0x40 MLOAD PUSH2 0xAA SWAP2 SWAP1 PUSH2 0x2A70 JUMP JUMPDEST PUSH1 0x40 MLOAD DUP1 SWAP2 SUB SWAP1 RETURN JUMPDEST PUSH2 0xCD PUSH1 0x4 DUP1 CALLDATASIZE SUB DUP2 ADD SWAP1 PUSH2 0xC8 SWAP2 SWAP1 PUSH2 0x2E86 JUMP JUMPDEST PUSH2 0x21E JUMP JUMPDEST STOP JUMPDEST PUSH2 0xE9 PUSH1 0x4 DUP1 CALLDATASIZE SUB DUP2 ADD SWAP1 PUSH2 0xE4 SWAP2 SWAP1 PUSH2 0x2F1B JUMP JUMPDEST PUSH2 0x76B JUMP JUMPDEST PUSH1 0x40 MLOAD PUSH2 0xF6 SWAP2 SWAP1 PUSH2 0x3010 JUMP JUMPDEST PUSH1 0x40 MLOAD DUP1 SWAP2 SUB SWAP1 RETURN JUMPDEST PUSH2 0x119 PUSH1 0x4 DUP1 CALLDATASIZE SUB DUP2 ADD SWAP1 PUSH2 0x114 SWAP2 SWAP1 PUSH2 0x3030 JUMP JUMPDEST PUSH2 0x8A1 JUMP JUMPDEST PUSH1 0x40 MLOAD PUSH2 0x128 SWAP4 SWAP3 SWAP2 SWAP1 PUSH2 0x32D9 JUMP JUMPDEST PUSH1 0x40 MLOAD DUP1 SWAP2 SUB SWAP1 RETURN JUMPDEST PUSH2 0x14B PUSH1 0x4 DUP1 CALLDATASIZE SUB DUP2 ADD SWAP1 PUSH2 0x146 SWAP2 SWAP1 PUSH2 0x3323 JUMP JUMPDEST PUSH2 0xDAC JUMP JUMPDEST STOP JUMPDEST PUSH2 0x167 PUSH1 0x4 DUP1 CALLDATASIZE SUB DUP2 ADD SWAP1 PUSH2 0x162 SWAP2 SWAP1 PUSH2 0x334E JUMP JUMPDEST PUSH2 0x119F JUMP JUMPDEST PUSH1 0x40 MLOAD PUSH2 0x174 SWAP2 SWAP1 PUSH2 0x3525 JUMP JUMPDEST PUSH1 0x40 MLOAD DUP1 SWAP2 SUB SWAP1 RETURN JUMPDEST PUSH2 0x197 PUSH1 0x4 DUP1 CALLDATASIZE SUB DUP2 ADD SWAP1 PUSH2 0x192 SWAP2 SWAP1 PUSH2 0x2F1B JUMP JUMPDEST PUSH2 0x12A2 JUMP JUMPDEST PUSH1 0x40 MLOAD PUSH2 0x1A4 SWAP2 SWAP1 PUSH2 0x3554 JUMP JUMPDEST PUSH1 0x40 MLOAD DUP1 SWAP2 SUB SWAP1 RETURN JUMPDEST PUSH2 0x1B5 PUSH2 0x12C7 JUMP JUMPDEST PUSH1 0x40 MLOAD PUSH2 0x1C2 SWAP2 SWAP1 PUSH2 0x3630 JUMP JUMPDEST PUSH1 0x40 MLOAD DUP1 SWAP2 SUB SWAP1 RETURN JUMPDEST PUSH2 0x1E5 PUSH1 0x4 DUP1 CALLDATASIZE SUB DUP2 ADD SWAP1 PUSH2 0x1E0 SWAP2 SWAP1 PUSH2 0x334E JUMP JUMPDEST PUSH2 0x1341 JUMP JUMPDEST PUSH1 0x40 MLOAD PUSH2 0x1F2 SWAP2 SWAP1 PUSH2 0x36BC JUMP JUMPDEST PUSH1 0x40 MLOAD DUP1 SWAP2 SUB SWAP1 RETURN JUMPDEST PUSH0 DUP1 SLOAD SWAP1 PUSH2 0x100 EXP SWAP1 DIV PUSH20 0xFFFFFFFFFFFFFFFFFFFFFFFFFFFFFFFFFFFFFFFF AND DUP2 JUMP JUMPDEST PUSH0 DUP1 PUSH0 SWAP1 SLOAD SWAP1 PUSH2 0x100 EXP SWAP1 DIV PUSH20 0xFFFFFFFFFFFFFFFFFFFFFFFFFFFFFFFFFFFFFFFF AND PUSH20 0xFFFFFFFFFFFFFFFFFFFFFFFFFFFFFFFFFFFFFFFF AND PUSH4 0x987EE156 CALLER PUSH1 0x40 MLOAD DUP3 PUSH4 0xFFFFFFFF AND PUSH1 0xE0 SHL DUP2 MSTORE PUSH1 0x4 ADD PUSH2 0x278 SWAP2 SWAP1 PUSH2 0x36EB JUMP JUMPDEST PUSH0 PUSH1 0x40 MLOAD DUP1 DUP4 SUB DUP2 DUP7 GAS STATICCALL ISZERO DUP1 ISZERO PUSH2 0x292 JUMPI RETURNDATASIZE PUSH0 DUP1 RETURNDATACOPY RETURNDATASIZE PUSH0 REVERT JUMPDEST POP POP POP POP PUSH1 0x40 MLOAD RETURNDATASIZE PUSH0 DUP3 RETURNDATACOPY RETURNDATASIZE PUSH1 0x1F NOT PUSH1 0x1F DUP3 ADD AND DUP3 ADD DUP1 PUSH1 0x40 MSTORE POP DUP2 ADD SWAP1 PUSH2 0x2BA SWAP2 SWAP1 PUSH2 0x3772 JUMP JUMPDEST POP POP SWAP1 POP PUSH0 DUP2 MLOAD GT PUSH2 0x301 JUMPI PUSH1 0x40 MLOAD PUSH32 0x8C379A000000000000000000000000000000000000000000000000000000000 DUP2 MSTORE PUSH1 0x4 ADD PUSH2 0x2F8 SWAP1 PUSH2 0x3896 JUMP JUMPDEST PUSH1 0x40 MLOAD DUP1 SWAP2 SUB SWAP1 REVERT JUMPDEST PUSH0 DUP1 PUSH0 DUP1 SLOAD SWAP1 PUSH2 0x100 EXP SWAP1 DIV PUSH20 0xFFFFFFFFFFFFFFFFFFFFFFFFFFFFFFFFFFFFFFFF AND PUSH20 0xFFFFFFFFFFFFFFFFFFFFFFFFFFFFFFFFFFFFFFFF AND PUSH4 0xB26ED7B CALLER DUP8 PUSH1 0x40 MLOAD DUP4 PUSH4 0xFFFFFFFF AND PUSH1 0xE0 SHL DUP2 MSTORE PUSH1 0x4 ADD PUSH2 0x35D SWAP3 SWAP2 SWAP1 PUSH2 0x38B4 JUMP JUMPDEST PUSH0 PUSH1 0x40 MLOAD DUP1 DUP4 SUB DUP2 DUP7 GAS STATICCALL ISZERO DUP1 ISZERO PUSH2 0x377 JUMPI RETURNDATASIZE PUSH0 DUP1 RETURNDATACOPY RETURNDATASIZE PUSH0 REVERT JUMPDEST POP POP POP POP PUSH1 0x40 MLOAD RETURNDATASIZE PUSH0 DUP3 RETURNDATACOPY RETURNDATASIZE PUSH1 0x1F NOT PUSH1 0x1F DUP3 ADD AND DUP3 ADD DUP1 PUSH1 0x40 MSTORE POP DUP2 ADD SWAP1 PUSH2 0x39F SWAP2 SWAP1 PUSH2 0x39F8 JUMP JUMPDEST POP SWAP4 POP POP POP SWAP2 POP PUSH0 DUP3 EQ ISZERO DUP1 ISZERO PUSH2 0x3B3 JUMPI POP DUP1 JUMPDEST PUSH2 0x3F2 JUMPI PUSH1 0x40 MLOAD PUSH32 0x8C379A000000000000000000000000000000000000000000000000000000000 DUP2 MSTORE PUSH1 0x4 ADD PUSH2 0x3E9 SWAP1 PUSH2 0x3AFB JUMP JUMPDEST PUSH1 0x40 MLOAD DUP1 SWAP2 SUB SWAP1 REVERT JUMPDEST PUSH0 DUP5 MLOAD GT PUSH2 0x435 JUMPI PUSH1 0x40 MLOAD PUSH32 0x8C379A000000000000000000000000000000000000000000000000000000000 DUP2 MSTORE PUSH1 0x4 ADD PUSH2 0x42C SWAP1 PUSH2 0x3B89 JUMP JUMPDEST PUSH1 0x40 MLOAD DUP1 SWAP2 SUB SWAP1 REVERT JUMPDEST PUSH0 DUP1 PUSH0 SWAP1 SLOAD SWAP1 PUSH2 0x100 EXP SWAP1 DIV PUSH20 0xFFFFFFFFFFFFFFFFFFFFFFFFFFFFFFFFFFFFFFFF AND PUSH20 0xFFFFFFFFFFFFFFFFFFFFFFFFFFFFFFFFFFFFFFFF AND PUSH4 0x99664245 DUP8 PUSH1 0x40 MLOAD DUP3 PUSH4 0xFFFFFFFF AND PUSH1 0xE0 SHL DUP2 MSTORE PUSH1 0x4 ADD PUSH2 0x48F SWAP2 SWAP1 PUSH2 0x3554 JUMP JUMPDEST PUSH0 PUSH1 0x40 MLOAD DUP1 DUP4 SUB DUP2 DUP7 GAS STATICCALL ISZERO DUP1 ISZERO PUSH2 0x4A9 JUMPI RETURNDATASIZE PUSH0 DUP1 RETURNDATACOPY RETURNDATASIZE PUSH0 REVERT JUMPDEST POP POP POP POP PUSH1 0x40 MLOAD RETURNDATASIZE PUSH0 DUP3 RETURNDATACOPY RETURNDATASIZE PUSH1 0x1F NOT PUSH1 0x1F DUP3 ADD AND DUP3 ADD DUP1 PUSH1 0x40 MSTORE POP DUP2 ADD SWAP1 PUSH2 0x4D1 SWAP2 SWAP1 PUSH2 0x3BA7 JUMP JUMPDEST SWAP5 POP POP POP POP POP PUSH0 PUSH1 0x1 PUSH0 CALLER PUSH20 0xFFFFFFFFFFFFFFFFFFFFFFFFFFFFFFFFFFFFFFFF AND PUSH20 0xFFFFFFFFFFFFFFFFFFFFFFFFFFFFFFFFFFFFFFFF AND DUP2 MSTORE PUSH1 0x20 ADD SWAP1 DUP2 MSTORE PUSH1 0x20 ADD PUSH0 KECCAK256 PUSH0 DUP9 DUP2 MSTORE PUSH1 0x20 ADD SWAP1 DUP2 MSTORE PUSH1 0x20 ADD PUSH0 KECCAK256 SWAP1 POP PUSH0 DUP2 PUSH0 ADD SLOAD SUB PUSH2 0x539 JUMPI DUP7 DUP2 PUSH0 ADD DUP2 SWAP1 SSTORE POP JUMPDEST PUSH0 DUP2 PUSH1 0x1 ADD PUSH0 DUP5 DUP2 MSTORE PUSH1 0x20 ADD SWAP1 DUP2 MSTORE PUSH1 0x20 ADD PUSH0 KECCAK256 SWAP1 POP DUP3 DUP2 PUSH0 ADD DUP2 SWAP1 SSTORE POP DUP1 PUSH1 0x1 ADD PUSH0 PUSH2 0x566 SWAP2 SWAP1 PUSH2 0x2718 JUMP JUMPDEST PUSH0 JUMPDEST DUP8 MLOAD DUP2 LT ISZERO PUSH2 0x60C JUMPI DUP2 PUSH1 0x1 ADD DUP9 DUP3 DUP2 MLOAD DUP2 LT PUSH2 0x588 JUMPI PUSH2 0x587 PUSH2 0x3C72 JUMP JUMPDEST JUMPDEST PUSH1 0x20 MUL PUSH1 0x20 ADD ADD MLOAD SWAP1 DUP1 PUSH1 0x1 DUP2 SLOAD ADD DUP1 DUP3 SSTORE DUP1 SWAP2 POP POP PUSH1 0x1 SWAP1 SUB SWAP1 PUSH0 MSTORE PUSH1 0x20 PUSH0 KECCAK256 SWAP1 PUSH1 0x3 MUL ADD PUSH0 SWAP1 SWAP2 SWAP1 SWAP2 SWAP1 SWAP2 POP PUSH0 DUP3 ADD MLOAD DUP2 PUSH0 ADD SWAP1 DUP2 PUSH2 0x5C9 SWAP2 SWAP1 PUSH2 0x3E90 JUMP JUMPDEST POP PUSH1 0x20 DUP3 ADD MLOAD DUP2 PUSH1 0x1 ADD SWAP1 DUP2 PUSH2 0x5DF SWAP2 SWAP1 PUSH2 0x3E90 JUMP JUMPDEST POP PUSH1 0x40 DUP3 ADD MLOAD DUP2 PUSH1 0x2 ADD SWAP1 DUP1 MLOAD SWAP1 PUSH1 0x20 ADD SWAP1 PUSH2 0x5FC SWAP3 SWAP2 SWAP1 PUSH2 0x2739 JUMP JUMPDEST POP POP POP DUP1 DUP1 PUSH1 0x1 ADD SWAP2 POP POP PUSH2 0x568 JUMP JUMPDEST POP PUSH0 DUP3 PUSH1 0x2 ADD DUP1 SLOAD SWAP1 POP EQ DUP1 PUSH2 0x653 JUMPI POP DUP3 DUP3 PUSH1 0x2 ADD PUSH1 0x1 DUP5 PUSH1 0x2 ADD DUP1 SLOAD SWAP1 POP PUSH2 0x636 SWAP2 SWAP1 PUSH2 0x3F8C JUMP JUMPDEST DUP2 SLOAD DUP2 LT PUSH2 0x647 JUMPI PUSH2 0x646 PUSH2 0x3C72 JUMP JUMPDEST JUMPDEST SWAP1 PUSH0 MSTORE PUSH1 0x20 PUSH0 KECCAK256 ADD SLOAD EQ ISZERO JUMPDEST ISZERO PUSH2 0x681 JUMPI DUP2 PUSH1 0x2 ADD DUP4 SWAP1 DUP1 PUSH1 0x1 DUP2 SLOAD ADD DUP1 DUP3 SSTORE DUP1 SWAP2 POP POP PUSH1 0x1 SWAP1 SUB SWAP1 PUSH0 MSTORE PUSH1 0x20 PUSH0 KECCAK256 ADD PUSH0 SWAP1 SWAP2 SWAP1 SWAP2 SWAP1 SWAP2 POP SSTORE JUMPDEST PUSH2 0x68C DUP9 DUP5 CALLER PUSH2 0x13ED JUMP JUMPDEST PUSH2 0x70F JUMPI PUSH1 0x2 PUSH0 DUP10 DUP2 MSTORE PUSH1 0x20 ADD SWAP1 DUP2 MSTORE PUSH1 0x20 ADD PUSH0 KECCAK256 PUSH0 DUP5 DUP2 MSTORE PUSH1 0x20 ADD SWAP1 DUP2 MSTORE PUSH1 0x20 ADD PUSH0 KECCAK256 CALLER SWAP1 DUP1 PUSH1 0x1 DUP2 SLOAD ADD DUP1 DUP3 SSTORE DUP1 SWAP2 POP POP PUSH1 0x1 SWAP1 SUB SWAP1 PUSH0 MSTORE PUSH1 0x20 PUSH0 KECCAK256 ADD PUSH0 SWAP1 SWAP2 SWAP1 SWAP2 SWAP1 SWAP2 PUSH2 0x100 EXP DUP2 SLOAD DUP2 PUSH20 0xFFFFFFFFFFFFFFFFFFFFFFFFFFFFFFFFFFFFFFFF MUL NOT AND SWAP1 DUP4 PUSH20 0xFFFFFFFFFFFFFFFFFFFFFFFFFFFFFFFFFFFFFFFF AND MUL OR SWAP1 SSTORE POP JUMPDEST DUP8 CALLER PUSH20 0xFFFFFFFFFFFFFFFFFFFFFFFFFFFFFFFFFFFFFFFF AND PUSH32 0x320425F199B1900C87AB751CB74680DF52E35B0CAFFE1CA604850A02FDDA470B DUP6 DUP11 MLOAD PUSH1 0x40 MLOAD PUSH2 0x759 SWAP3 SWAP2 SWAP1 PUSH2 0x3FBF JUMP JUMPDEST PUSH1 0x40 MLOAD DUP1 SWAP2 SUB SWAP1 LOG3 POP POP POP POP POP POP POP POP JUMP JUMPDEST PUSH1 0x60 PUSH0 PUSH1 0x1 PUSH0 DUP6 PUSH20 0xFFFFFFFFFFFFFFFFFFFFFFFFFFFFFFFFFFFFFFFF AND PUSH20 0xFFFFFFFFFFFFFFFFFFFFFFFFFFFFFFFFFFFFFFFF AND DUP2 MSTORE PUSH1 0x20 ADD SWAP1 DUP2 MSTORE PUSH1 0x20 ADD PUSH0 KECCAK256 PUSH0 DUP5 DUP2 MSTORE PUSH1 0x20 ADD SWAP1 DUP2 MSTORE PUSH1 0x20 ADD PUSH0 KECCAK256 PUSH0 ADD SLOAD SUB PUSH2 0x7FD JUMPI PUSH1 0x40 MLOAD PUSH32 0x8C379A000000000000000000000000000000000000000000000000000000000 DUP2 MSTORE PUSH1 0x4 ADD PUSH2 0x7F4 SWAP1 PUSH2 0x4056 JUMP JUMPDEST PUSH1 0x40 MLOAD DUP1 SWAP2 SUB SWAP1 REVERT JUMPDEST PUSH1 0x1 PUSH0 DUP5 PUSH20 0xFFFFFFFFFFFFFFFFFFFFFFFFFFFFFFFFFFFFFFFF AND PUSH20 0xFFFFFFFFFFFFFFFFFFFFFFFFFFFFFFFFFFFFFFFF AND DUP2 MSTORE PUSH1 0x20 ADD SWAP1 DUP2 MSTORE PUSH1 0x20 ADD PUSH0 KECCAK256 PUSH0 DUP4 DUP2 MSTORE PUSH1 0x20 ADD SWAP1 DUP2 MSTORE PUSH1 0x20 ADD PUSH0 KECCAK256 PUSH1 0x2 ADD DUP1 SLOAD DUP1 PUSH1 0x20 MUL PUSH1 0x20 ADD PUSH1 0x40 MLOAD SWAP1 DUP2 ADD PUSH1 0x40 MSTORE DUP1 SWAP3 SWAP2 SWAP1 DUP2 DUP2 MSTORE PUSH1 0x20 ADD DUP3 DUP1 SLOAD DUP1 ISZERO PUSH2 0x894 JUMPI PUSH1 0x20 MUL DUP3 ADD SWAP2 SWAP1 PUSH0 MSTORE PUSH1 0x20 PUSH0 KECCAK256 SWAP1 JUMPDEST DUP2 SLOAD DUP2 MSTORE PUSH1 0x20 ADD SWAP1 PUSH1 0x1 ADD SWAP1 DUP1 DUP4 GT PUSH2 0x880 JUMPI JUMPDEST POP POP POP POP POP SWAP1 POP SWAP3 SWAP2 POP POP JUMP JUMPDEST PUSH1 0x60 DUP1 PUSH1 0x60 PUSH0 PUSH1 0x1 PUSH0 DUP9 PUSH20 0xFFFFFFFFFFFFFFFFFFFFFFFFFFFFFFFFFFFFFFFF AND PUSH20 0xFFFFFFFFFFFFFFFFFFFFFFFFFFFFFFFFFFFFFFFF AND DUP2 MSTORE PUSH1 0x20 ADD SWAP1 DUP2 MSTORE PUSH1 0x20 ADD PUSH0 KECCAK256 PUSH0 DUP8 DUP2 MSTORE PUSH1 0x20 ADD SWAP1 DUP2 MSTORE PUSH1 0x20 ADD PUSH0 KECCAK256 PUSH0 ADD SLOAD SUB PUSH2 0x936 JUMPI PUSH1 0x40 MLOAD PUSH32 0x8C379A000000000000000000000000000000000000000000000000000000000 DUP2 MSTORE PUSH1 0x4 ADD PUSH2 0x92D SWAP1 PUSH2 0x4056 JUMP JUMPDEST PUSH1 0x40 MLOAD DUP1 SWAP2 SUB SWAP1 REVERT JUMPDEST PUSH0 PUSH1 0x1 PUSH0 DUP9 PUSH20 0xFFFFFFFFFFFFFFFFFFFFFFFFFFFFFFFFFFFFFFFF AND PUSH20 0xFFFFFFFFFFFFFFFFFFFFFFFFFFFFFFFFFFFFFFFF AND DUP2 MSTORE PUSH1 0x20 ADD SWAP1 DUP2 MSTORE PUSH1 0x20 ADD PUSH0 KECCAK256 PUSH0 DUP8 DUP2 MSTORE PUSH1 0x20 ADD SWAP1 DUP2 MSTORE PUSH1 0x20 ADD PUSH0 KECCAK256 PUSH1 0x1 ADD PUSH0 DUP7 DUP2 MSTORE PUSH1 0x20 ADD SWAP1 DUP2 MSTORE PUSH1 0x20 ADD PUSH0 KECCAK256 PUSH1 0x1 ADD DUP1 SLOAD DUP1 PUSH1 0x20 MUL PUSH1 0x20 ADD PUSH1 0x40 MLOAD SWAP1 DUP2 ADD PUSH1 0x40 MSTORE DUP1 SWAP3 SWAP2 SWAP1 DUP2 DUP2 MSTORE PUSH1 0x20 ADD PUSH0 SWAP1 JUMPDEST DUP3 DUP3 LT ISZERO PUSH2 0xBDA JUMPI DUP4 DUP3 SWAP1 PUSH0 MSTORE PUSH1 0x20 PUSH0 KECCAK256 SWAP1 PUSH1 0x3 MUL ADD PUSH1 0x40 MLOAD DUP1 PUSH1 0x60 ADD PUSH1 0x40 MSTORE SWAP1 DUP2 PUSH0 DUP3 ADD DUP1 SLOAD PUSH2 0x9E7 SWAP1 PUSH2 0x3CCC JUMP JUMPDEST DUP1 PUSH1 0x1F ADD PUSH1 0x20 DUP1 SWAP2 DIV MUL PUSH1 0x20 ADD PUSH1 0x40 MLOAD SWAP1 DUP2 ADD PUSH1 0x40 MSTORE DUP1 SWAP3 SWAP2 SWAP1 DUP2 DUP2 MSTORE PUSH1 0x20 ADD DUP3 DUP1 SLOAD PUSH2 0xA13 SWAP1 PUSH2 0x3CCC JUMP JUMPDEST DUP1 ISZERO PUSH2 0xA5E JUMPI DUP1 PUSH1 0x1F LT PUSH2 0xA35 JUMPI PUSH2 0x100 DUP1 DUP4 SLOAD DIV MUL DUP4 MSTORE SWAP2 PUSH1 0x20 ADD SWAP2 PUSH2 0xA5E JUMP JUMPDEST DUP3 ADD SWAP2 SWAP1 PUSH0 MSTORE PUSH1 0x20 PUSH0 KECCAK256 SWAP1 JUMPDEST DUP2 SLOAD DUP2 MSTORE SWAP1 PUSH1 0x1 ADD SWAP1 PUSH1 0x20 ADD DUP1 DUP4 GT PUSH2 0xA41 JUMPI DUP3 SWAP1 SUB PUSH1 0x1F AND DUP3 ADD SWAP2 JUMPDEST POP POP POP POP POP DUP2 MSTORE PUSH1 0x20 ADD PUSH1 0x1 DUP3 ADD DUP1 SLOAD PUSH2 0xA77 SWAP1 PUSH2 0x3CCC JUMP JUMPDEST DUP1 PUSH1 0x1F ADD PUSH1 0x20 DUP1 SWAP2 DIV MUL PUSH1 0x20 ADD PUSH1 0x40 MLOAD SWAP1 DUP2 ADD PUSH1 0x40 MSTORE DUP1 SWAP3 SWAP2 SWAP1 DUP2 DUP2 MSTORE PUSH1 0x20 ADD DUP3 DUP1 SLOAD PUSH2 0xAA3 SWAP1 PUSH2 0x3CCC JUMP JUMPDEST DUP1 ISZERO PUSH2 0xAEE JUMPI DUP1 PUSH1 0x1F LT PUSH2 0xAC5 JUMPI PUSH2 0x100 DUP1 DUP4 SLOAD DIV MUL DUP4 MSTORE SWAP2 PUSH1 0x20 ADD SWAP2 PUSH2 0xAEE JUMP JUMPDEST DUP3 ADD SWAP2 SWAP1 PUSH0 MSTORE PUSH1 0x20 PUSH0 KECCAK256 SWAP1 JUMPDEST DUP2 SLOAD DUP2 MSTORE SWAP1 PUSH1 0x1 ADD SWAP1 PUSH1 0x20 ADD DUP1 DUP4 GT PUSH2 0xAD1 JUMPI DUP3 SWAP1 SUB PUSH1 0x1F AND DUP3 ADD SWAP2 JUMPDEST POP POP POP POP POP DUP2 MSTORE PUSH1 0x20 ADD PUSH1 0x2 DUP3 ADD DUP1 SLOAD DUP1 PUSH1 0x20 MUL PUSH1 0x20 ADD PUSH1 0x40 MLOAD SWAP1 DUP2 ADD PUSH1 0x40 MSTORE DUP1 SWAP3 SWAP2 SWAP1 DUP2 DUP2 MSTORE PUSH1 0x20 ADD PUSH0 SWAP1 JUMPDEST DUP3 DUP3 LT ISZERO PUSH2 0xBC3 JUMPI DUP4 DUP3 SWAP1 PUSH0 MSTORE PUSH1 0x20 PUSH0 KECCAK256 ADD DUP1 SLOAD PUSH2 0xB38 SWAP1 PUSH2 0x3CCC JUMP JUMPDEST DUP1 PUSH1 0x1F ADD PUSH1 0x20 DUP1 SWAP2 DIV MUL PUSH1 0x20 ADD PUSH1 0x40 MLOAD SWAP1 DUP2 ADD PUSH1 0x40 MSTORE DUP1 SWAP3 SWAP2 SWAP1 DUP2 DUP2 MSTORE PUSH1 0x20 ADD DUP3 DUP1 SLOAD PUSH2 0xB64 SWAP1 PUSH2 0x3CCC JUMP JUMPDEST DUP1 ISZERO PUSH2 0xBAF JUMPI DUP1 PUSH1 0x1F LT PUSH2 0xB86 JUMPI PUSH2 0x100 DUP1 DUP4 SLOAD DIV MUL DUP4 MSTORE SWAP2 PUSH1 0x20 ADD SWAP2 PUSH2 0xBAF JUMP JUMPDEST DUP3 ADD SWAP2 SWAP1 PUSH0 MSTORE PUSH1 0x20 PUSH0 KECCAK256 SWAP1 JUMPDEST DUP2 SLOAD DUP2 MSTORE SWAP1 PUSH1 0x1 ADD SWAP1 PUSH1 0x20 ADD DUP1 DUP4 GT PUSH2 0xB92 JUMPI DUP3 SWAP1 SUB PUSH1 0x1F AND DUP3 ADD SWAP2 JUMPDEST POP POP POP POP POP DUP2 MSTORE PUSH1 0x20 ADD SWAP1 PUSH1 0x1 ADD SWAP1 PUSH2 0xB1B JUMP JUMPDEST POP POP POP POP DUP2 MSTORE POP POP DUP2 MSTORE PUSH1 0x20 ADD SWAP1 PUSH1 0x1 ADD SWAP1 PUSH2 0x9B7 JUMP JUMPDEST POP POP POP POP SWAP1 POP DUP1 MLOAD PUSH8 0xFFFFFFFFFFFFFFFF DUP2 GT ISZERO PUSH2 0xBFB JUMPI PUSH2 0xBFA PUSH2 0x2AE1 JUMP JUMPDEST JUMPDEST PUSH1 0x40 MLOAD SWAP1 DUP1 DUP3 MSTORE DUP1 PUSH1 0x20 MUL PUSH1 0x20 ADD DUP3 ADD PUSH1 0x40 MSTORE DUP1 ISZERO PUSH2 0xC2E JUMPI DUP2 PUSH1 0x20 ADD JUMPDEST PUSH1 0x60 DUP2 MSTORE PUSH1 0x20 ADD SWAP1 PUSH1 0x1 SWAP1 SUB SWAP1 DUP2 PUSH2 0xC19 JUMPI SWAP1 POP JUMPDEST POP SWAP4 POP DUP1 MLOAD PUSH8 0xFFFFFFFFFFFFFFFF DUP2 GT ISZERO PUSH2 0xC4C JUMPI PUSH2 0xC4B PUSH2 0x2AE1 JUMP JUMPDEST JUMPDEST PUSH1 0x40 MLOAD SWAP1 DUP1 DUP3 MSTORE DUP1 PUSH1 0x20 MUL PUSH1 0x20 ADD DUP3 ADD PUSH1 0x40 MSTORE DUP1 ISZERO PUSH2 0xC7F JUMPI DUP2 PUSH1 0x20 ADD JUMPDEST PUSH1 0x60 DUP2 MSTORE PUSH1 0x20 ADD SWAP1 PUSH1 0x1 SWAP1 SUB SWAP1 DUP2 PUSH2 0xC6A JUMPI SWAP1 POP JUMPDEST POP SWAP3 POP DUP1 MLOAD PUSH8 0xFFFFFFFFFFFFFFFF DUP2 GT ISZERO PUSH2 0xC9D JUMPI PUSH2 0xC9C PUSH2 0x2AE1 JUMP JUMPDEST JUMPDEST PUSH1 0x40 MLOAD SWAP1 DUP1 DUP3 MSTORE DUP1 PUSH1 0x20 MUL PUSH1 0x20 ADD DUP3 ADD PUSH1 0x40 MSTORE DUP1 ISZERO PUSH2 0xCD0 JUMPI DUP2 PUSH1 0x20 ADD JUMPDEST PUSH1 0x60 DUP2 MSTORE PUSH1 0x20 ADD SWAP1 PUSH1 0x1 SWAP1 SUB SWAP1 DUP2 PUSH2 0xCBB JUMPI SWAP1 POP JUMPDEST POP SWAP2 POP PUSH0 JUMPDEST DUP2 MLOAD DUP2 LT ISZERO PUSH2 0xDA1 JUMPI DUP2 DUP2 DUP2 MLOAD DUP2 LT PUSH2 0xCF1 JUMPI PUSH2 0xCF0 PUSH2 0x3C72 JUMP JUMPDEST JUMPDEST PUSH1 0x20 MUL PUSH1 0x20 ADD ADD MLOAD PUSH0 ADD MLOAD DUP6 DUP3 DUP2 MLOAD DUP2 LT PUSH2 0xD0F JUMPI PUSH2 0xD0E PUSH2 0x3C72 JUMP JUMPDEST JUMPDEST PUSH1 0x20 MUL PUSH1 0x20 ADD ADD DUP2 SWAP1 MSTORE POP DUP2 DUP2 DUP2 MLOAD DUP2 LT PUSH2 0xD2D JUMPI PUSH2 0xD2C PUSH2 0x3C72 JUMP JUMPDEST JUMPDEST PUSH1 0x20 MUL PUSH1 0x20 ADD ADD MLOAD PUSH1 0x20 ADD MLOAD DUP5 DUP3 DUP2 MLOAD DUP2 LT PUSH2 0xD4C JUMPI PUSH2 0xD4B PUSH2 0x3C72 JUMP JUMPDEST JUMPDEST PUSH1 0x20 MUL PUSH1 0x20 ADD ADD DUP2 SWAP1 MSTORE POP DUP2 DUP2 DUP2 MLOAD DUP2 LT PUSH2 0xD6A JUMPI PUSH2 0xD69 PUSH2 0x3C72 JUMP JUMPDEST JUMPDEST PUSH1 0x20 MUL PUSH1 0x20 ADD ADD MLOAD PUSH1 0x40 ADD MLOAD DUP4 DUP3 DUP2 MLOAD DUP2 LT PUSH2 0xD89 JUMPI PUSH2 0xD88 PUSH2 0x3C72 JUMP JUMPDEST JUMPDEST PUSH1 0x20 MUL PUSH1 0x20 ADD ADD DUP2 SWAP1 MSTORE POP DUP1 DUP1 PUSH1 0x1 ADD SWAP2 POP POP PUSH2 0xCD5 JUMP JUMPDEST POP POP SWAP4 POP SWAP4 POP SWAP4 SWAP1 POP JUMP JUMPDEST PUSH0 DUP1 PUSH0 SWAP1 SLOAD SWAP1 PUSH2 0x100 EXP SWAP1 DIV PUSH20 0xFFFFFFFFFFFFFFFFFFFFFFFFFFFFFFFFFFFFFFFF AND PUSH20 0xFFFFFFFFFFFFFFFFFFFFFFFFFFFFFFFFFFFFFFFF AND PUSH4 0x99664245 DUP4 PUSH1 0x40 MLOAD DUP3 PUSH4 0xFFFFFFFF AND PUSH1 0xE0 SHL DUP2 MSTORE PUSH1 0x4 ADD PUSH2 0xE06 SWAP2 SWAP1 PUSH2 0x3554 JUMP JUMPDEST PUSH0 PUSH1 0x40 MLOAD DUP1 DUP4 SUB DUP2 DUP7 GAS STATICCALL ISZERO DUP1 ISZERO PUSH2 0xE20 JUMPI RETURNDATASIZE PUSH0 DUP1 RETURNDATACOPY RETURNDATASIZE PUSH0 REVERT JUMPDEST POP POP POP POP PUSH1 0x40 MLOAD RETURNDATASIZE PUSH0 DUP3 RETURNDATACOPY RETURNDATASIZE PUSH1 0x1F NOT PUSH1 0x1F DUP3 ADD AND DUP3 ADD DUP1 PUSH1 0x40 MSTORE POP DUP2 ADD SWAP1 PUSH2 0xE48 SWAP2 SWAP1 PUSH2 0x3BA7 JUMP JUMPDEST SWAP5 POP POP POP POP POP PUSH1 0x3 PUSH0 DUP4 DUP2 MSTORE PUSH1 0x20 ADD SWAP1 DUP2 MSTORE PUSH1 0x20 ADD PUSH0 KECCAK256 PUSH0 DUP3 DUP2 MSTORE PUSH1 0x20 ADD SWAP1 DUP2 MSTORE PUSH1 0x20 ADD PUSH0 KECCAK256 PUSH0 PUSH2 0xE79 SWAP2 SWAP1 PUSH2 0x2790 JUMP JUMPDEST PUSH0 PUSH1 0x2 PUSH0 DUP5 DUP2 MSTORE PUSH1 0x20 ADD SWAP1 DUP2 MSTORE PUSH1 0x20 ADD PUSH0 KECCAK256 PUSH0 DUP4 DUP2 MSTORE PUSH1 0x20 ADD SWAP1 DUP2 MSTORE PUSH1 0x20 ADD PUSH0 KECCAK256 DUP1 SLOAD DUP1 PUSH1 0x20 MUL PUSH1 0x20 ADD PUSH1 0x40 MLOAD SWAP1 DUP2 ADD PUSH1 0x40 MSTORE DUP1 SWAP3 SWAP2 SWAP1 DUP2 DUP2 MSTORE PUSH1 0x20 ADD DUP3 DUP1 SLOAD DUP1 ISZERO PUSH2 0xF17 JUMPI PUSH1 0x20 MUL DUP3 ADD SWAP2 SWAP1 PUSH0 MSTORE PUSH1 0x20 PUSH0 KECCAK256 SWAP1 JUMPDEST DUP2 PUSH0 SWAP1 SLOAD SWAP1 PUSH2 0x100 EXP SWAP1 DIV PUSH20 0xFFFFFFFFFFFFFFFFFFFFFFFFFFFFFFFFFFFFFFFF AND PUSH20 0xFFFFFFFFFFFFFFFFFFFFFFFFFFFFFFFFFFFFFFFF AND DUP2 MSTORE PUSH1 0x20 ADD SWAP1 PUSH1 0x1 ADD SWAP1 DUP1 DUP4 GT PUSH2 0xECE JUMPI JUMPDEST POP POP POP POP POP SWAP1 POP PUSH0 DUP2 MLOAD GT PUSH2 0xF61 JUMPI PUSH1 0x40 MLOAD PUSH32 0x8C379A000000000000000000000000000000000000000000000000000000000 DUP2 MSTORE PUSH1 0x4 ADD PUSH2 0xF58 SWAP1 PUSH2 0x40E4 JUMP JUMPDEST PUSH1 0x40 MLOAD DUP1 SWAP2 SUB SWAP1 REVERT JUMPDEST PUSH2 0xF6A DUP2 PUSH2 0x1510 JUMP JUMPDEST PUSH0 PUSH2 0xF75 DUP3 MLOAD PUSH2 0x1655 JUMP JUMPDEST SWAP1 POP PUSH0 DUP1 JUMPDEST DUP3 MLOAD DUP2 LT ISZERO PUSH2 0x1123 JUMPI PUSH0 DUP4 DUP3 DUP2 MLOAD DUP2 LT PUSH2 0xF97 JUMPI PUSH2 0xF96 PUSH2 0x3C72 JUMP JUMPDEST JUMPDEST PUSH1 0x20 MUL PUSH1 0x20 ADD ADD MLOAD PUSH1 0xFF AND PUSH8 0xFFFFFFFFFFFFFFFF DUP2 GT ISZERO PUSH2 0xFBB JUMPI PUSH2 0xFBA PUSH2 0x2AE1 JUMP JUMPDEST JUMPDEST PUSH1 0x40 MLOAD SWAP1 DUP1 DUP3 MSTORE DUP1 PUSH1 0x20 MUL PUSH1 0x20 ADD DUP3 ADD PUSH1 0x40 MSTORE DUP1 ISZERO PUSH2 0xFE9 JUMPI DUP2 PUSH1 0x20 ADD PUSH1 0x20 DUP3 MUL DUP1 CALLDATASIZE DUP4 CALLDATACOPY DUP1 DUP3 ADD SWAP2 POP POP SWAP1 POP JUMPDEST POP SWAP1 POP PUSH0 JUMPDEST DUP5 DUP4 DUP2 MLOAD DUP2 LT PUSH2 0x1001 JUMPI PUSH2 0x1000 PUSH2 0x3C72 JUMP JUMPDEST JUMPDEST PUSH1 0x20 MUL PUSH1 0x20 ADD ADD MLOAD PUSH1 0xFF AND DUP2 LT DUP1 ISZERO PUSH2 0x101A JUMPI POP DUP6 MLOAD DUP5 LT JUMPDEST ISZERO PUSH2 0x10A6 JUMPI DUP6 DUP5 DUP1 PUSH2 0x102B SWAP1 PUSH2 0x4102 JUMP JUMPDEST SWAP6 POP DUP2 MLOAD DUP2 LT PUSH2 0x103E JUMPI PUSH2 0x103D PUSH2 0x3C72 JUMP JUMPDEST JUMPDEST PUSH1 0x20 MUL PUSH1 0x20 ADD ADD MLOAD DUP3 DUP3 DUP2 MLOAD DUP2 LT PUSH2 0x1059 JUMPI PUSH2 0x1058 PUSH2 0x3C72 JUMP JUMPDEST JUMPDEST PUSH1 0x20 MUL PUSH1 0x20 ADD ADD SWAP1 PUSH20 0xFFFFFFFFFFFFFFFFFFFFFFFFFFFFFFFFFFFFFFFF AND SWAP1 DUP2 PUSH20 0xFFFFFFFFFFFFFFFFFFFFFFFFFFFFFFFFFFFFFFFF AND DUP2 MSTORE POP POP DUP1 DUP1 PUSH2 0x109E SWAP1 PUSH2 0x4102 JUMP JUMPDEST SWAP2 POP POP PUSH2 0xFEE JUMP JUMPDEST POP PUSH1 0x3 PUSH0 DUP9 DUP2 MSTORE PUSH1 0x20 ADD SWAP1 DUP2 MSTORE PUSH1 0x20 ADD PUSH0 KECCAK256 PUSH0 DUP8 DUP2 MSTORE PUSH1 0x20 ADD SWAP1 DUP2 MSTORE PUSH1 0x20 ADD PUSH0 KECCAK256 PUSH1 0x40 MLOAD DUP1 PUSH1 0x20 ADD PUSH1 0x40 MSTORE DUP1 DUP4 DUP2 MSTORE POP SWAP1 DUP1 PUSH1 0x1 DUP2 SLOAD ADD DUP1 DUP3 SSTORE DUP1 SWAP2 POP POP PUSH1 0x1 SWAP1 SUB SWAP1 PUSH0 MSTORE PUSH1 0x20 PUSH0 KECCAK256 ADD PUSH0 SWAP1 SWAP2 SWAP1 SWAP2 SWAP1 SWAP2 POP PUSH0 DUP3 ADD MLOAD DUP2 PUSH0 ADD SWAP1 DUP1 MLOAD SWAP1 PUSH1 0x20 ADD SWAP1 PUSH2 0x1112 SWAP3 SWAP2 SWAP1 PUSH2 0x27AE JUMP JUMPDEST POP POP POP POP DUP1 DUP1 PUSH1 0x1 ADD SWAP2 POP POP PUSH2 0xF7A JUMP JUMPDEST POP DUP2 PUSH1 0x4 SWAP1 DUP1 MLOAD SWAP1 PUSH1 0x20 ADD SWAP1 PUSH2 0x113A SWAP3 SWAP2 SWAP1 PUSH2 0x2835 JUMP JUMPDEST POP DUP5 PUSH32 0x23A1C99C38932E128BFCF925232D21EED654965240C06433650755D2B5879D98 DUP6 PUSH1 0x3 PUSH0 DUP10 DUP2 MSTORE PUSH1 0x20 ADD SWAP1 DUP2 MSTORE PUSH1 0x20 ADD PUSH0 KECCAK256 PUSH0 DUP9 DUP2 MSTORE PUSH1 0x20 ADD SWAP1 DUP2 MSTORE PUSH1 0x20 ADD PUSH0 KECCAK256 DUP1 SLOAD SWAP1 POP PUSH1 0x40 MLOAD PUSH2 0x1190 SWAP3 SWAP2 SWAP1 PUSH2 0x3FBF JUMP JUMPDEST PUSH1 0x40 MLOAD DUP1 SWAP2 SUB SWAP1 LOG2 POP POP POP POP POP JUMP JUMPDEST PUSH1 0x60 PUSH1 0x3 PUSH0 DUP5 DUP2 MSTORE PUSH1 0x20 ADD SWAP1 DUP2 MSTORE PUSH1 0x20 ADD PUSH0 KECCAK256 PUSH0 DUP4 DUP2 MSTORE PUSH1 0x20 ADD SWAP1 DUP2 MSTORE PUSH1 0x20 ADD PUSH0 KECCAK256 DUP1 SLOAD DUP1 PUSH1 0x20 MUL PUSH1 0x20 ADD PUSH1 0x40 MLOAD SWAP1 DUP2 ADD PUSH1 0x40 MSTORE DUP1 SWAP3 SWAP2 SWAP1 DUP2 DUP2 MSTORE PUSH1 0x20 ADD PUSH0 SWAP1 JUMPDEST DUP3 DUP3 LT ISZERO PUSH2 0x1296 JUMPI DUP4 DUP3 SWAP1 PUSH0 MSTORE PUSH1 0x20 PUSH0 KECCAK256 ADD PUSH1 0x40 MLOAD DUP1 PUSH1 0x20 ADD PUSH1 0x40 MSTORE SWAP1 DUP2 PUSH0 DUP3 ADD DUP1 SLOAD DUP1 PUSH1 0x20 MUL PUSH1 0x20 ADD PUSH1 0x40 MLOAD SWAP1 DUP2 ADD PUSH1 0x40 MSTORE DUP1 SWAP3 SWAP2 SWAP1 DUP2 DUP2 MSTORE PUSH1 0x20 ADD DUP3 DUP1 SLOAD DUP1 ISZERO PUSH2 0x127E JUMPI PUSH1 0x20 MUL DUP3 ADD SWAP2 SWAP1 PUSH0 MSTORE PUSH1 0x20 PUSH0 KECCAK256 SWAP1 JUMPDEST DUP2 PUSH0 SWAP1 SLOAD SWAP1 PUSH2 0x100 EXP SWAP1 DIV PUSH20 0xFFFFFFFFFFFFFFFFFFFFFFFFFFFFFFFFFFFFFFFF AND PUSH20 0xFFFFFFFFFFFFFFFFFFFFFFFFFFFFFFFFFFFFFFFF AND DUP2 MSTORE PUSH1 0x20 ADD SWAP1 PUSH1 0x1 ADD SWAP1 DUP1 DUP4 GT PUSH2 0x1235 JUMPI JUMPDEST POP POP POP POP POP DUP2 MSTORE POP POP DUP2 MSTORE PUSH1 0x20 ADD SWAP1 PUSH1 0x1 ADD SWAP1 PUSH2 0x11E0 JUMP JUMPDEST POP POP POP POP SWAP1 POP SWAP3 SWAP2 POP POP JUMP JUMPDEST PUSH1 0x1 PUSH1 0x20 MSTORE DUP2 PUSH0 MSTORE PUSH1 0x40 PUSH0 KECCAK256 PUSH1 0x20 MSTORE DUP1 PUSH0 MSTORE PUSH1 0x40 PUSH0 KECCAK256 PUSH0 SWAP2 POP SWAP2 POP POP DUP1 PUSH0 ADD SLOAD SWAP1 POP DUP2 JUMP JUMPDEST PUSH1 0x60 PUSH1 0x4 DUP1 SLOAD DUP1 PUSH1 0x20 MUL PUSH1 0x20 ADD PUSH1 0x40 MLOAD SWAP1 DUP2 ADD PUSH1 0x40 MSTORE DUP1 SWAP3 SWAP2 SWAP1 DUP2 DUP2 MSTORE PUSH1 0x20 ADD DUP3 DUP1 SLOAD DUP1 ISZERO PUSH2 0x1337 JUMPI PUSH1 0x20 MUL DUP3 ADD SWAP2 SWAP1 PUSH0 MSTORE PUSH1 0x20 PUSH0 KECCAK256 SWAP1 PUSH0 SWAP1 JUMPDEST DUP3 DUP3 SWAP1 SLOAD SWAP1 PUSH2 0x100 EXP SWAP1 DIV PUSH1 0xFF AND PUSH1 0xFF AND DUP2 MSTORE PUSH1 0x20 ADD SWAP1 PUSH1 0x1 ADD SWAP1 PUSH1 0x20 DUP3 PUSH0 ADD DIV SWAP3 DUP4 ADD SWAP3 PUSH1 0x1 SUB DUP3 MUL SWAP2 POP DUP1 DUP5 GT PUSH2 0x1301 JUMPI SWAP1 POP JUMPDEST POP POP POP POP POP SWAP1 POP SWAP1 JUMP JUMPDEST PUSH1 0x60 PUSH1 0x2 PUSH0 DUP5 DUP2 MSTORE PUSH1 0x20 ADD SWAP1 DUP2 MSTORE PUSH1 0x20 ADD PUSH0 KECCAK256 PUSH0 DUP4 DUP2 MSTORE PUSH1 0x20 ADD SWAP1 DUP2 MSTORE PUSH1 0x20 ADD PUSH0 KECCAK256 DUP1 SLOAD DUP1 PUSH1 0x20 MUL PUSH1 0x20 ADD PUSH1 0x40 MLOAD SWAP1 DUP2 ADD PUSH1 0x40 MSTORE DUP1 SWAP3 SWAP2 SWAP1 DUP2 DUP2 MSTORE PUSH1 0x20 ADD DUP3 DUP1 SLOAD DUP1 ISZERO PUSH2 0x13E0 JUMPI PUSH1 0x20 MUL DUP3 ADD SWAP2 SWAP1 PUSH0 MSTORE PUSH1 0x20 PUSH0 KECCAK256 SWAP1 JUMPDEST DUP2 PUSH0 SWAP1 SLOAD SWAP1 PUSH2 0x100 EXP SWAP1 DIV PUSH20 0xFFFFFFFFFFFFFFFFFFFFFFFFFFFFFFFFFFFFFFFF AND PUSH20 0xFFFFFFFFFFFFFFFFFFFFFFFFFFFFFFFFFFFFFFFF AND DUP2 MSTORE PUSH1 0x20 ADD SWAP1 PUSH1 0x1 ADD SWAP1 DUP1 DUP4 GT PUSH2 0x1397 JUMPI JUMPDEST POP POP POP POP POP SWAP1 POP SWAP3 SWAP2 POP POP JUMP JUMPDEST PUSH0 DUP1 PUSH1 0x2 PUSH0 DUP7 DUP2 MSTORE PUSH1 0x20 ADD SWAP1 DUP2 MSTORE PUSH1 0x20 ADD PUSH0 KECCAK256 PUSH0 DUP6 DUP2 MSTORE PUSH1 0x20 ADD SWAP1 DUP2 MSTORE PUSH1 0x20 ADD PUSH0 KECCAK256 DUP1 SLOAD DUP1 PUSH1 0x20 MUL PUSH1 0x20 ADD PUSH1 0x40 MLOAD SWAP1 DUP2 ADD PUSH1 0x40 MSTORE DUP1 SWAP3 SWAP2 SWAP1 DUP2 DUP2 MSTORE PUSH1 0x20 ADD DUP3 DUP1 SLOAD DUP1 ISZERO PUSH2 0x148C JUMPI PUSH1 0x20 MUL DUP3 ADD SWAP2 SWAP1 PUSH0 MSTORE PUSH1 0x20 PUSH0 KECCAK256 SWAP1 JUMPDEST DUP2 PUSH0 SWAP1 SLOAD SWAP1 PUSH2 0x100 EXP SWAP1 DIV PUSH20 0xFFFFFFFFFFFFFFFFFFFFFFFFFFFFFFFFFFFFFFFF AND PUSH20 0xFFFFFFFFFFFFFFFFFFFFFFFFFFFFFFFFFFFFFFFF AND DUP2 MSTORE PUSH1 0x20 ADD SWAP1 PUSH1 0x1 ADD SWAP1 DUP1 DUP4 GT PUSH2 0x1443 JUMPI JUMPDEST POP POP POP POP POP SWAP1 POP PUSH0 JUMPDEST DUP2 MLOAD DUP2 LT ISZERO PUSH2 0x1503 JUMPI DUP4 PUSH20 0xFFFFFFFFFFFFFFFFFFFFFFFFFFFFFFFFFFFFFFFF AND DUP3 DUP3 DUP2 MLOAD DUP2 LT PUSH2 0x14C8 JUMPI PUSH2 0x14C7 PUSH2 0x3C72 JUMP JUMPDEST JUMPDEST PUSH1 0x20 MUL PUSH1 0x20 ADD ADD MLOAD PUSH20 0xFFFFFFFFFFFFFFFFFFFFFFFFFFFFFFFFFFFFFFFF AND SUB PUSH2 0x14F6 JUMPI PUSH1 0x1 SWAP3 POP POP POP PUSH2 0x1509 JUMP JUMPDEST DUP1 DUP1 PUSH1 0x1 ADD SWAP2 POP POP PUSH2 0x1495 JUMP JUMPDEST POP PUSH0 SWAP2 POP POP JUMPDEST SWAP4 SWAP3 POP POP POP JUMP JUMPDEST PUSH0 PUSH1 0x1 DUP3 MLOAD PUSH2 0x151F SWAP2 SWAP1 PUSH2 0x3F8C JUMP JUMPDEST SWAP1 POP JUMPDEST PUSH0 DUP2 GT ISZERO PUSH2 0x1651 JUMPI PUSH0 PUSH1 0x1 DUP3 PUSH2 0x1538 SWAP2 SWAP1 PUSH2 0x4149 JUMP JUMPDEST TIMESTAMP PREVRANDAO DUP5 PUSH1 0x40 MLOAD PUSH1 0x20 ADD PUSH2 0x154D SWAP4 SWAP3 SWAP2 SWAP1 PUSH2 0x419C JUMP JUMPDEST PUSH1 0x40 MLOAD PUSH1 0x20 DUP2 DUP4 SUB SUB DUP2 MSTORE SWAP1 PUSH1 0x40 MSTORE DUP1 MLOAD SWAP1 PUSH1 0x20 ADD KECCAK256 PUSH0 SHR PUSH2 0x156F SWAP2 SWAP1 PUSH2 0x4205 JUMP JUMPDEST SWAP1 POP DUP3 DUP2 DUP2 MLOAD DUP2 LT PUSH2 0x1584 JUMPI PUSH2 0x1583 PUSH2 0x3C72 JUMP JUMPDEST JUMPDEST PUSH1 0x20 MUL PUSH1 0x20 ADD ADD MLOAD DUP4 DUP4 DUP2 MLOAD DUP2 LT PUSH2 0x159F JUMPI PUSH2 0x159E PUSH2 0x3C72 JUMP JUMPDEST JUMPDEST PUSH1 0x20 MUL PUSH1 0x20 ADD ADD MLOAD DUP5 DUP5 DUP2 MLOAD DUP2 LT PUSH2 0x15BA JUMPI PUSH2 0x15B9 PUSH2 0x3C72 JUMP JUMPDEST JUMPDEST PUSH1 0x20 MUL PUSH1 0x20 ADD ADD DUP6 DUP5 DUP2 MLOAD DUP2 LT PUSH2 0x15D4 JUMPI PUSH2 0x15D3 PUSH2 0x3C72 JUMP JUMPDEST JUMPDEST PUSH1 0x20 MUL PUSH1 0x20 ADD ADD DUP3 PUSH20 0xFFFFFFFFFFFFFFFFFFFFFFFFFFFFFFFFFFFFFFFF AND PUSH20 0xFFFFFFFFFFFFFFFFFFFFFFFFFFFFFFFFFFFFFFFF AND DUP2 MSTORE POP DUP3 PUSH20 0xFFFFFFFFFFFFFFFFFFFFFFFFFFFFFFFFFFFFFFFF AND PUSH20 0xFFFFFFFFFFFFFFFFFFFFFFFFFFFFFFFFFFFFFFFF AND DUP2 MSTORE POP POP POP POP DUP1 DUP1 PUSH2 0x1649 SWAP1 PUSH2 0x4235 JUMP JUMPDEST SWAP2 POP POP PUSH2 0x1522 JUMP JUMPDEST POP POP JUMP JUMPDEST PUSH1 0x60 PUSH1 0x14 DUP3 GT ISZERO PUSH2 0x166E JUMPI PUSH2 0x1669 DUP3 PUSH2 0x167F JUMP JUMPDEST PUSH2 0x1678 JUMP JUMPDEST PUSH2 0x1677 DUP3 PUSH2 0x17D2 JUMP JUMPDEST JUMPDEST SWAP1 POP SWAP2 SWAP1 POP JUMP JUMPDEST PUSH1 0x60 PUSH0 PUSH1 0x6 PUSH1 0x5 DUP5 PUSH2 0x1691 SWAP2 SWAP1 PUSH2 0x4149 JUMP JUMPDEST PUSH2 0x169B SWAP2 SWAP1 PUSH2 0x425C JUMP JUMPDEST PUSH8 0xFFFFFFFFFFFFFFFF DUP2 GT ISZERO PUSH2 0x16B4 JUMPI PUSH2 0x16B3 PUSH2 0x2AE1 JUMP JUMPDEST JUMPDEST PUSH1 0x40 MLOAD SWAP1 DUP1 DUP3 MSTORE DUP1 PUSH1 0x20 MUL PUSH1 0x20 ADD DUP3 ADD PUSH1 0x40 MSTORE DUP1 ISZERO PUSH2 0x16E2 JUMPI DUP2 PUSH1 0x20 ADD PUSH1 0x20 DUP3 MUL DUP1 CALLDATASIZE DUP4 CALLDATACOPY DUP1 DUP3 ADD SWAP2 POP POP SWAP1 POP JUMPDEST POP SWAP1 POP PUSH0 DUP1 JUMPDEST PUSH0 DUP6 GT ISZERO PUSH2 0x17C4 JUMPI PUSH0 PUSH1 0x6 DUP7 PUSH2 0x16FE SWAP2 SWAP1 PUSH2 0x4205 JUMP JUMPDEST EQ ISZERO DUP1 ISZERO PUSH2 0x170F JUMPI POP PUSH1 0x5 DUP2 PUSH1 0xFF AND LT JUMPDEST ISZERO PUSH2 0x176B JUMPI PUSH1 0x5 DUP4 DUP4 DUP1 PUSH2 0x1722 SWAP1 PUSH2 0x4102 JUMP JUMPDEST SWAP5 POP DUP2 MLOAD DUP2 LT PUSH2 0x1735 JUMPI PUSH2 0x1734 PUSH2 0x3C72 JUMP JUMPDEST JUMPDEST PUSH1 0x20 MUL PUSH1 0x20 ADD ADD SWAP1 PUSH1 0xFF AND SWAP1 DUP2 PUSH1 0xFF AND DUP2 MSTORE POP POP PUSH1 0x5 DUP6 PUSH2 0x1756 SWAP2 SWAP1 PUSH2 0x3F8C JUMP JUMPDEST SWAP5 POP DUP1 DUP1 PUSH2 0x1763 SWAP1 PUSH2 0x428C JUMP JUMPDEST SWAP2 POP POP PUSH2 0x17BF JUMP JUMPDEST PUSH1 0x6 DUP4 DUP4 DUP1 PUSH2 0x1779 SWAP1 PUSH2 0x4102 JUMP JUMPDEST SWAP5 POP DUP2 MLOAD DUP2 LT PUSH2 0x178C JUMPI PUSH2 0x178B PUSH2 0x3C72 JUMP JUMPDEST JUMPDEST PUSH1 0x20 MUL PUSH1 0x20 ADD ADD SWAP1 PUSH1 0xFF AND SWAP1 DUP2 PUSH1 0xFF AND DUP2 MSTORE POP POP PUSH1 0x6 DUP6 PUSH2 0x17AD SWAP2 SWAP1 PUSH2 0x3F8C JUMP JUMPDEST SWAP5 POP PUSH1 0x5 DUP2 PUSH1 0xFF AND SUB PUSH2 0x17BE JUMPI PUSH0 SWAP1 POP JUMPDEST JUMPDEST PUSH2 0x16E8 JUMP JUMPDEST DUP2 DUP4 MSTORE DUP3 SWAP4 POP POP POP POP SWAP2 SWAP1 POP JUMP JUMPDEST PUSH1 0x60 DUP1 PUSH1 0x1 DUP4 SUB PUSH2 0x182E JUMPI PUSH1 0x1 PUSH8 0xFFFFFFFFFFFFFFFF DUP2 GT ISZERO PUSH2 0x17F8 JUMPI PUSH2 0x17F7 PUSH2 0x2AE1 JUMP JUMPDEST JUMPDEST PUSH1 0x40 MLOAD SWAP1 DUP1 DUP3 MSTORE DUP1 PUSH1 0x20 MUL PUSH1 0x20 ADD DUP3 ADD PUSH1 0x40 MSTORE DUP1 ISZERO PUSH2 0x1826 JUMPI DUP2 PUSH1 0x20 ADD PUSH1 0x20 DUP3 MUL DUP1 CALLDATASIZE DUP4 CALLDATACOPY DUP1 DUP3 ADD SWAP2 POP POP SWAP1 POP JUMPDEST POP SWAP1 POP PUSH2 0x1ED8 JUMP JUMPDEST PUSH1 0x2 DUP4 SUB PUSH2 0x1887 JUMPI PUSH1 0x1 PUSH8 0xFFFFFFFFFFFFFFFF DUP2 GT ISZERO PUSH2 0x1851 JUMPI PUSH2 0x1850 PUSH2 0x2AE1 JUMP JUMPDEST JUMPDEST PUSH1 0x40 MLOAD SWAP1 DUP1 DUP3 MSTORE DUP1 PUSH1 0x20 MUL PUSH1 0x20 ADD DUP3 ADD PUSH1 0x40 MSTORE DUP1 ISZERO PUSH2 0x187F JUMPI DUP2 PUSH1 0x20 ADD PUSH1 0x20 DUP3 MUL DUP1 CALLDATASIZE DUP4 CALLDATACOPY DUP1 DUP3 ADD SWAP2 POP POP SWAP1 POP JUMPDEST POP SWAP1 POP PUSH2 0x1ED7 JUMP JUMPDEST PUSH1 0x3 DUP4 SUB PUSH2 0x18E0 JUMPI PUSH1 0x1 PUSH8 0xFFFFFFFFFFFFFFFF DUP2 GT ISZERO PUSH2 0x18AA JUMPI PUSH2 0x18A9 PUSH2 0x2AE1 JUMP JUMPDEST JUMPDEST PUSH1 0x40 MLOAD SWAP1 DUP1 DUP3 MSTORE DUP1 PUSH1 0x20 MUL PUSH1 0x20 ADD DUP3 ADD PUSH1 0x40 MSTORE DUP1 ISZERO PUSH2 0x18D8 JUMPI DUP2 PUSH1 0x20 ADD PUSH1 0x20 DUP3 MUL DUP1 CALLDATASIZE DUP4 CALLDATACOPY DUP1 DUP3 ADD SWAP2 POP POP SWAP1 POP JUMPDEST POP SWAP1 POP PUSH2 0x1ED6 JUMP JUMPDEST PUSH1 0x4 DUP4 SUB PUSH2 0x1939 JUMPI PUSH1 0x1 PUSH8 0xFFFFFFFFFFFFFFFF DUP2 GT ISZERO PUSH2 0x1903 JUMPI PUSH2 0x1902 PUSH2 0x2AE1 JUMP JUMPDEST JUMPDEST PUSH1 0x40 MLOAD SWAP1 DUP1 DUP3 MSTORE DUP1 PUSH1 0x20 MUL PUSH1 0x20 ADD DUP3 ADD PUSH1 0x40 MSTORE DUP1 ISZERO PUSH2 0x1931 JUMPI DUP2 PUSH1 0x20 ADD PUSH1 0x20 DUP3 MUL DUP1 CALLDATASIZE DUP4 CALLDATACOPY DUP1 DUP3 ADD SWAP2 POP POP SWAP1 POP JUMPDEST POP SWAP1 POP PUSH2 0x1ED5 JUMP JUMPDEST PUSH1 0x5 DUP4 SUB PUSH2 0x1992 JUMPI PUSH1 0x1 PUSH8 0xFFFFFFFFFFFFFFFF DUP2 GT ISZERO PUSH2 0x195C JUMPI PUSH2 0x195B PUSH2 0x2AE1 JUMP JUMPDEST JUMPDEST PUSH1 0x40 MLOAD SWAP1 DUP1 DUP3 MSTORE DUP1 PUSH1 0x20 MUL PUSH1 0x20 ADD DUP3 ADD PUSH1 0x40 MSTORE DUP1 ISZERO PUSH2 0x198A JUMPI DUP2 PUSH1 0x20 ADD PUSH1 0x20 DUP3 MUL DUP1 CALLDATASIZE DUP4 CALLDATACOPY DUP1 DUP3 ADD SWAP2 POP POP SWAP1 POP JUMPDEST POP SWAP1 POP PUSH2 0x1ED4 JUMP JUMPDEST PUSH1 0x6 DUP4 SUB PUSH2 0x19EB JUMPI PUSH1 0x1 PUSH8 0xFFFFFFFFFFFFFFFF DUP2 GT ISZERO PUSH2 0x19B5 JUMPI PUSH2 0x19B4 PUSH2 0x2AE1 JUMP JUMPDEST JUMPDEST PUSH1 0x40 MLOAD SWAP1 DUP1 DUP3 MSTORE DUP1 PUSH1 0x20 MUL PUSH1 0x20 ADD DUP3 ADD PUSH1 0x40 MSTORE DUP1 ISZERO PUSH2 0x19E3 JUMPI DUP2 PUSH1 0x20 ADD PUSH1 0x20 DUP3 MUL DUP1 CALLDATASIZE DUP4 CALLDATACOPY DUP1 DUP3 ADD SWAP2 POP POP SWAP1 POP JUMPDEST POP SWAP1 POP PUSH2 0x1ED3 JUMP JUMPDEST PUSH1 0x7 DUP4 SUB PUSH2 0x1A44 JUMPI PUSH1 0x2 PUSH8 0xFFFFFFFFFFFFFFFF DUP2 GT ISZERO PUSH2 0x1A0E JUMPI PUSH2 0x1A0D PUSH2 0x2AE1 JUMP JUMPDEST JUMPDEST PUSH1 0x40 MLOAD SWAP1 DUP1 DUP3 MSTORE DUP1 PUSH1 0x20 MUL PUSH1 0x20 ADD DUP3 ADD PUSH1 0x40 MSTORE DUP1 ISZERO PUSH2 0x1A3C JUMPI DUP2 PUSH1 0x20 ADD PUSH1 0x20 DUP3 MUL DUP1 CALLDATASIZE DUP4 CALLDATACOPY DUP1 DUP3 ADD SWAP2 POP POP SWAP1 POP JUMPDEST POP SWAP1 POP PUSH2 0x1ED2 JUMP JUMPDEST PUSH1 0x8 DUP4 SUB PUSH2 0x1A9D JUMPI PUSH1 0x2 PUSH8 0xFFFFFFFFFFFFFFFF DUP2 GT ISZERO PUSH2 0x1A67 JUMPI PUSH2 0x1A66 PUSH2 0x2AE1 JUMP JUMPDEST JUMPDEST PUSH1 0x40 MLOAD SWAP1 DUP1 DUP3 MSTORE DUP1 PUSH1 0x20 MUL PUSH1 0x20 ADD DUP3 ADD PUSH1 0x40 MSTORE DUP1 ISZERO PUSH2 0x1A95 JUMPI DUP2 PUSH1 0x20 ADD PUSH1 0x20 DUP3 MUL DUP1 CALLDATASIZE DUP4 CALLDATACOPY DUP1 DUP3 ADD SWAP2 POP POP SWAP1 POP JUMPDEST POP SWAP1 POP PUSH2 0x1ED1 JUMP JUMPDEST PUSH1 0x9 DUP4 SUB PUSH2 0x1AF6 JUMPI PUSH1 0x2 PUSH8 0xFFFFFFFFFFFFFFFF DUP2 GT ISZERO PUSH2 0x1AC0 JUMPI PUSH2 0x1ABF PUSH2 0x2AE1 JUMP JUMPDEST JUMPDEST PUSH1 0x40 MLOAD SWAP1 DUP1 DUP3 MSTORE DUP1 PUSH1 0x20 MUL PUSH1 0x20 ADD DUP3 ADD PUSH1 0x40 MSTORE DUP1 ISZERO PUSH2 0x1AEE JUMPI DUP2 PUSH1 0x20 ADD PUSH1 0x20 DUP3 MUL DUP1 CALLDATASIZE DUP4 CALLDATACOPY DUP1 DUP3 ADD SWAP2 POP POP SWAP1 POP JUMPDEST POP SWAP1 POP PUSH2 0x1ED0 JUMP JUMPDEST PUSH1 0xA DUP4 SUB PUSH2 0x1B4F JUMPI PUSH1 0x2 PUSH8 0xFFFFFFFFFFFFFFFF DUP2 GT ISZERO PUSH2 0x1B19 JUMPI PUSH2 0x1B18 PUSH2 0x2AE1 JUMP JUMPDEST JUMPDEST PUSH1 0x40 MLOAD SWAP1 DUP1 DUP3 MSTORE DUP1 PUSH1 0x20 MUL PUSH1 0x20 ADD DUP3 ADD PUSH1 0x40 MSTORE DUP1 ISZERO PUSH2 0x1B47 JUMPI DUP2 PUSH1 0x20 ADD PUSH1 0x20 DUP3 MUL DUP1 CALLDATASIZE DUP4 CALLDATACOPY DUP1 DUP3 ADD SWAP2 POP POP SWAP1 POP JUMPDEST POP SWAP1 POP PUSH2 0x1ECF JUMP JUMPDEST PUSH1 0xB DUP4 SUB PUSH2 0x1BA8 JUMPI PUSH1 0x2 PUSH8 0xFFFFFFFFFFFFFFFF DUP2 GT ISZERO PUSH2 0x1B72 JUMPI PUSH2 0x1B71 PUSH2 0x2AE1 JUMP JUMPDEST JUMPDEST PUSH1 0x40 MLOAD SWAP1 DUP1 DUP3 MSTORE DUP1 PUSH1 0x20 MUL PUSH1 0x20 ADD DUP3 ADD PUSH1 0x40 MSTORE DUP1 ISZERO PUSH2 0x1BA0 JUMPI DUP2 PUSH1 0x20 ADD PUSH1 0x20 DUP3 MUL DUP1 CALLDATASIZE DUP4 CALLDATACOPY DUP1 DUP3 ADD SWAP2 POP POP SWAP1 POP JUMPDEST POP SWAP1 POP PUSH2 0x1ECE JUMP JUMPDEST PUSH1 0xC DUP4 SUB PUSH2 0x1C01 JUMPI PUSH1 0x2 PUSH8 0xFFFFFFFFFFFFFFFF DUP2 GT ISZERO PUSH2 0x1BCB JUMPI PUSH2 0x1BCA PUSH2 0x2AE1 JUMP JUMPDEST JUMPDEST PUSH1 0x40 MLOAD SWAP1 DUP1 DUP3 MSTORE DUP1 PUSH1 0x20 MUL PUSH1 0x20 ADD DUP3 ADD PUSH1 0x40 MSTORE DUP1 ISZERO PUSH2 0x1BF9 JUMPI DUP2 PUSH1 0x20 ADD PUSH1 0x20 DUP3 MUL DUP1 CALLDATASIZE DUP4 CALLDATACOPY DUP1 DUP3 ADD SWAP2 POP POP SWAP1 POP JUMPDEST POP SWAP1 POP PUSH2 0x1ECD JUMP JUMPDEST PUSH1 0xD DUP4 SUB PUSH2 0x1C5A JUMPI PUSH1 0x3 PUSH8 0xFFFFFFFFFFFFFFFF DUP2 GT ISZERO PUSH2 0x1C24 JUMPI PUSH2 0x1C23 PUSH2 0x2AE1 JUMP JUMPDEST JUMPDEST PUSH1 0x40 MLOAD SWAP1 DUP1 DUP3 MSTORE DUP1 PUSH1 0x20 MUL PUSH1 0x20 ADD DUP3 ADD PUSH1 0x40 MSTORE DUP1 ISZERO PUSH2 0x1C52 JUMPI DUP2 PUSH1 0x20 ADD PUSH1 0x20 DUP3 MUL DUP1 CALLDATASIZE DUP4 CALLDATACOPY DUP1 DUP3 ADD SWAP2 POP POP SWAP1 POP JUMPDEST POP SWAP1 POP PUSH2 0x1ECC JUMP JUMPDEST PUSH1 0xE DUP4 SUB PUSH2 0x1CB3 JUMPI PUSH1 0x3 PUSH8 0xFFFFFFFFFFFFFFFF DUP2 GT ISZERO PUSH2 0x1C7D JUMPI PUSH2 0x1C7C PUSH2 0x2AE1 JUMP JUMPDEST JUMPDEST PUSH1 0x40 MLOAD SWAP1 DUP1 DUP3 MSTORE DUP1 PUSH1 0x20 MUL PUSH1 0x20 ADD DUP3 ADD PUSH1 0x40 MSTORE DUP1 ISZERO PUSH2 0x1CAB JUMPI DUP2 PUSH1 0x20 ADD PUSH1 0x20 DUP3 MUL DUP1 CALLDATASIZE DUP4 CALLDATACOPY DUP1 DUP3 ADD SWAP2 POP POP SWAP1 POP JUMPDEST POP SWAP1 POP PUSH2 0x1ECB JUMP JUMPDEST PUSH1 0xF DUP4 SUB PUSH2 0x1D0C JUMPI PUSH1 0x3 PUSH8 0xFFFFFFFFFFFFFFFF DUP2 GT ISZERO PUSH2 0x1CD6 JUMPI PUSH2 0x1CD5 PUSH2 0x2AE1 JUMP JUMPDEST JUMPDEST PUSH1 0x40 MLOAD SWAP1 DUP1 DUP3 MSTORE DUP1 PUSH1 0x20 MUL PUSH1 0x20 ADD DUP3 ADD PUSH1 0x40 MSTORE DUP1 ISZERO PUSH2 0x1D04 JUMPI DUP2 PUSH1 0x20 ADD PUSH1 0x20 DUP3 MUL DUP1 CALLDATASIZE DUP4 CALLDATACOPY DUP1 DUP3 ADD SWAP2 POP POP SWAP1 POP JUMPDEST POP SWAP1 POP PUSH2 0x1ECA JUMP JUMPDEST PUSH1 0x10 DUP4 SUB PUSH2 0x1D65 JUMPI PUSH1 0x3 PUSH8 0xFFFFFFFFFFFFFFFF DUP2 GT ISZERO PUSH2 0x1D2F JUMPI PUSH2 0x1D2E PUSH2 0x2AE1 JUMP JUMPDEST JUMPDEST PUSH1 0x40 MLOAD SWAP1 DUP1 DUP3 MSTORE DUP1 PUSH1 0x20 MUL PUSH1 0x20 ADD DUP3 ADD PUSH1 0x40 MSTORE DUP1 ISZERO PUSH2 0x1D5D JUMPI DUP2 PUSH1 0x20 ADD PUSH1 0x20 DUP3 MUL DUP1 CALLDATASIZE DUP4 CALLDATACOPY DUP1 DUP3 ADD SWAP2 POP POP SWAP1 POP JUMPDEST POP SWAP1 POP PUSH2 0x1EC9 JUMP JUMPDEST PUSH1 0x11 DUP4 SUB PUSH2 0x1DBE JUMPI PUSH1 0x3 PUSH8 0xFFFFFFFFFFFFFFFF DUP2 GT ISZERO PUSH2 0x1D88 JUMPI PUSH2 0x1D87 PUSH2 0x2AE1 JUMP JUMPDEST JUMPDEST PUSH1 0x40 MLOAD SWAP1 DUP1 DUP3 MSTORE DUP1 PUSH1 0x20 MUL PUSH1 0x20 ADD DUP3 ADD PUSH1 0x40 MSTORE DUP1 ISZERO PUSH2 0x1DB6 JUMPI DUP2 PUSH1 0x20 ADD PUSH1 0x20 DUP3 MUL DUP1 CALLDATASIZE DUP4 CALLDATACOPY DUP1 DUP3 ADD SWAP2 POP POP SWAP1 POP JUMPDEST POP SWAP1 POP PUSH2 0x1EC8 JUMP JUMPDEST PUSH1 0x12 DUP4 SUB PUSH2 0x1E17 JUMPI PUSH1 0x3 PUSH8 0xFFFFFFFFFFFFFFFF DUP2 GT ISZERO PUSH2 0x1DE1 JUMPI PUSH2 0x1DE0 PUSH2 0x2AE1 JUMP JUMPDEST JUMPDEST PUSH1 0x40 MLOAD SWAP1 DUP1 DUP3 MSTORE DUP1 PUSH1 0x20 MUL PUSH1 0x20 ADD DUP3 ADD PUSH1 0x40 MSTORE DUP1 ISZERO PUSH2 0x1E0F JUMPI DUP2 PUSH1 0x20 ADD PUSH1 0x20 DUP3 MUL DUP1 CALLDATASIZE DUP4 CALLDATACOPY DUP1 DUP3 ADD SWAP2 POP POP SWAP1 POP JUMPDEST POP SWAP1 POP PUSH2 0x1EC7 JUMP JUMPDEST PUSH1 0x13 DUP4 SUB PUSH2 0x1E70 JUMPI PUSH1 0x4 PUSH8 0xFFFFFFFFFFFFFFFF DUP2 GT ISZERO PUSH2 0x1E3A JUMPI PUSH2 0x1E39 PUSH2 0x2AE1 JUMP JUMPDEST JUMPDEST PUSH1 0x40 MLOAD SWAP1 DUP1 DUP3 MSTORE DUP1 PUSH1 0x20 MUL PUSH1 0x20 ADD DUP3 ADD PUSH1 0x40 MSTORE DUP1 ISZERO PUSH2 0x1E68 JUMPI DUP2 PUSH1 0x20 ADD PUSH1 0x20 DUP3 MUL DUP1 CALLDATASIZE DUP4 CALLDATACOPY DUP1 DUP3 ADD SWAP2 POP POP SWAP1 POP JUMPDEST POP SWAP1 POP PUSH2 0x1EC6 JUMP JUMPDEST PUSH1 0x14 DUP4 SUB PUSH2 0x1EC5 JUMPI PUSH1 0x4 PUSH8 0xFFFFFFFFFFFFFFFF DUP2 GT ISZERO PUSH2 0x1E93 JUMPI PUSH2 0x1E92 PUSH2 0x2AE1 JUMP JUMPDEST JUMPDEST PUSH1 0x40 MLOAD SWAP1 DUP1 DUP3 MSTORE DUP1 PUSH1 0x20 MUL PUSH1 0x20 ADD DUP3 ADD PUSH1 0x40 MSTORE DUP1 ISZERO PUSH2 0x1EC1 JUMPI DUP2 PUSH1 0x20 ADD PUSH1 0x20 DUP3 MUL DUP1 CALLDATASIZE DUP4 CALLDATACOPY DUP1 DUP3 ADD SWAP2 POP POP SWAP1 POP JUMPDEST POP SWAP1 POP JUMPDEST JUMPDEST JUMPDEST JUMPDEST JUMPDEST JUMPDEST JUMPDEST JUMPDEST JUMPDEST JUMPDEST JUMPDEST JUMPDEST JUMPDEST JUMPDEST JUMPDEST JUMPDEST JUMPDEST JUMPDEST JUMPDEST JUMPDEST PUSH1 0x1 DUP4 SUB PUSH2 0x1F0E JUMPI PUSH1 0x1 DUP2 PUSH0 DUP2 MLOAD DUP2 LT PUSH2 0x1EF5 JUMPI PUSH2 0x1EF4 PUSH2 0x3C72 JUMP JUMPDEST JUMPDEST PUSH1 0x20 MUL PUSH1 0x20 ADD ADD SWAP1 PUSH1 0xFF AND SWAP1 DUP2 PUSH1 0xFF AND DUP2 MSTORE POP POP PUSH2 0x270F JUMP JUMPDEST PUSH1 0x2 DUP4 SUB PUSH2 0x1F44 JUMPI PUSH1 0x2 DUP2 PUSH0 DUP2 MLOAD DUP2 LT PUSH2 0x1F2B JUMPI PUSH2 0x1F2A PUSH2 0x3C72 JUMP JUMPDEST JUMPDEST PUSH1 0x20 MUL PUSH1 0x20 ADD ADD SWAP1 PUSH1 0xFF AND SWAP1 DUP2 PUSH1 0xFF AND DUP2 MSTORE POP POP PUSH2 0x270E JUMP JUMPDEST PUSH1 0x3 DUP4 SUB PUSH2 0x1F7A JUMPI PUSH1 0x3 DUP2 PUSH0 DUP2 MLOAD DUP2 LT PUSH2 0x1F61 JUMPI PUSH2 0x1F60 PUSH2 0x3C72 JUMP JUMPDEST JUMPDEST PUSH1 0x20 MUL PUSH1 0x20 ADD ADD SWAP1 PUSH1 0xFF AND SWAP1 DUP2 PUSH1 0xFF AND DUP2 MSTORE POP POP PUSH2 0x270D JUMP JUMPDEST PUSH1 0x4 DUP4 SUB PUSH2 0x1FB0 JUMPI PUSH1 0x4 DUP2 PUSH0 DUP2 MLOAD DUP2 LT PUSH2 0x1F97 JUMPI PUSH2 0x1F96 PUSH2 0x3C72 JUMP JUMPDEST JUMPDEST PUSH1 0x20 MUL PUSH1 0x20 ADD ADD SWAP1 PUSH1 0xFF AND SWAP1 DUP2 PUSH1 0xFF AND DUP2 MSTORE POP POP PUSH2 0x270C JUMP JUMPDEST PUSH1 0x5 DUP4 SUB PUSH2 0x1FE6 JUMPI PUSH1 0x5 DUP2 PUSH0 DUP2 MLOAD DUP2 LT PUSH2 0x1FCD JUMPI PUSH2 0x1FCC PUSH2 0x3C72 JUMP JUMPDEST JUMPDEST PUSH1 0x20 MUL PUSH1 0x20 ADD ADD SWAP1 PUSH1 0xFF AND SWAP1 DUP2 PUSH1 0xFF AND DUP2 MSTORE POP POP PUSH2 0x270B JUMP JUMPDEST PUSH1 0x6 DUP4 SUB PUSH2 0x201C JUMPI PUSH1 0x6 DUP2 PUSH0 DUP2 MLOAD DUP2 LT PUSH2 0x2003 JUMPI PUSH2 0x2002 PUSH2 0x3C72 JUMP JUMPDEST JUMPDEST PUSH1 0x20 MUL PUSH1 0x20 ADD ADD SWAP1 PUSH1 0xFF AND SWAP1 DUP2 PUSH1 0xFF AND DUP2 MSTORE POP POP PUSH2 0x270A JUMP JUMPDEST PUSH1 0x7 DUP4 SUB PUSH2 0x207C JUMPI PUSH1 0x3 DUP2 PUSH0 DUP2 MLOAD DUP2 LT PUSH2 0x2039 JUMPI PUSH2 0x2038 PUSH2 0x3C72 JUMP JUMPDEST JUMPDEST PUSH1 0x20 MUL PUSH1 0x20 ADD ADD SWAP1 PUSH1 0xFF AND SWAP1 DUP2 PUSH1 0xFF AND DUP2 MSTORE POP POP PUSH1 0x4 DUP2 PUSH1 0x1 DUP2 MLOAD DUP2 LT PUSH2 0x2063 JUMPI PUSH2 0x2062 PUSH2 0x3C72 JUMP JUMPDEST JUMPDEST PUSH1 0x20 MUL PUSH1 0x20 ADD ADD SWAP1 PUSH1 0xFF AND SWAP1 DUP2 PUSH1 0xFF AND DUP2 MSTORE POP POP PUSH2 0x2709 JUMP JUMPDEST PUSH1 0x8 DUP4 SUB PUSH2 0x20DC JUMPI PUSH1 0x4 DUP2 PUSH0 DUP2 MLOAD DUP2 LT PUSH2 0x2099 JUMPI PUSH2 0x2098 PUSH2 0x3C72 JUMP JUMPDEST JUMPDEST PUSH1 0x20 MUL PUSH1 0x20 ADD ADD SWAP1 PUSH1 0xFF AND SWAP1 DUP2 PUSH1 0xFF AND DUP2 MSTORE POP POP PUSH1 0x4 DUP2 PUSH1 0x1 DUP2 MLOAD DUP2 LT PUSH2 0x20C3 JUMPI PUSH2 0x20C2 PUSH2 0x3C72 JUMP JUMPDEST JUMPDEST PUSH1 0x20 MUL PUSH1 0x20 ADD ADD SWAP1 PUSH1 0xFF AND SWAP1 DUP2 PUSH1 0xFF AND DUP2 MSTORE POP POP PUSH2 0x2708 JUMP JUMPDEST PUSH1 0x9 DUP4 SUB PUSH2 0x213C JUMPI PUSH1 0x5 DUP2 PUSH0 DUP2 MLOAD DUP2 LT PUSH2 0x20F9 JUMPI PUSH2 0x20F8 PUSH2 0x3C72 JUMP JUMPDEST JUMPDEST PUSH1 0x20 MUL PUSH1 0x20 ADD ADD SWAP1 PUSH1 0xFF AND SWAP1 DUP2 PUSH1 0xFF AND DUP2 MSTORE POP POP PUSH1 0x4 DUP2 PUSH1 0x1 DUP2 MLOAD DUP2 LT PUSH2 0x2123 JUMPI PUSH2 0x2122 PUSH2 0x3C72 JUMP JUMPDEST JUMPDEST PUSH1 0x20 MUL PUSH1 0x20 ADD ADD SWAP1 PUSH1 0xFF AND SWAP1 DUP2 PUSH1 0xFF AND DUP2 MSTORE POP POP PUSH2 0x2707 JUMP JUMPDEST PUSH1 0xA DUP4 SUB PUSH2 0x219C JUMPI PUSH1 0x5 DUP2 PUSH0 DUP2 MLOAD DUP2 LT PUSH2 0x2159 JUMPI PUSH2 0x2158 PUSH2 0x3C72 JUMP JUMPDEST JUMPDEST PUSH1 0x20 MUL PUSH1 0x20 ADD ADD SWAP1 PUSH1 0xFF AND SWAP1 DUP2 PUSH1 0xFF AND DUP2 MSTORE POP POP PUSH1 0x5 DUP2 PUSH1 0x1 DUP2 MLOAD DUP2 LT PUSH2 0x2183 JUMPI PUSH2 0x2182 PUSH2 0x3C72 JUMP JUMPDEST JUMPDEST PUSH1 0x20 MUL PUSH1 0x20 ADD ADD SWAP1 PUSH1 0xFF AND SWAP1 DUP2 PUSH1 0xFF AND DUP2 MSTORE POP POP PUSH2 0x2706 JUMP JUMPDEST PUSH1 0xB DUP4 SUB PUSH2 0x21FC JUMPI PUSH1 0x5 DUP2 PUSH0 DUP2 MLOAD DUP2 LT PUSH2 0x21B9 JUMPI PUSH2 0x21B8 PUSH2 0x3C72 JUMP JUMPDEST JUMPDEST PUSH1 0x20 MUL PUSH1 0x20 ADD ADD SWAP1 PUSH1 0xFF AND SWAP1 DUP2 PUSH1 0xFF AND DUP2 MSTORE POP POP PUSH1 0x6 DUP2 PUSH1 0x1 DUP2 MLOAD DUP2 LT PUSH2 0x21E3 JUMPI PUSH2 0x21E2 PUSH2 0x3C72 JUMP JUMPDEST JUMPDEST PUSH1 0x20 MUL PUSH1 0x20 ADD ADD SWAP1 PUSH1 0xFF AND SWAP1 DUP2 PUSH1 0xFF AND DUP2 MSTORE POP POP PUSH2 0x2705 JUMP JUMPDEST PUSH1 0xC DUP4 SUB PUSH2 0x225C JUMPI PUSH1 0x6 DUP2 PUSH0 DUP2 MLOAD DUP2 LT PUSH2 0x2219 JUMPI PUSH2 0x2218 PUSH2 0x3C72 JUMP JUMPDEST JUMPDEST PUSH1 0x20 MUL PUSH1 0x20 ADD ADD SWAP1 PUSH1 0xFF AND SWAP1 DUP2 PUSH1 0xFF AND DUP2 MSTORE POP POP PUSH1 0x6 DUP2 PUSH1 0x1 DUP2 MLOAD DUP2 LT PUSH2 0x2243 JUMPI PUSH2 0x2242 PUSH2 0x3C72 JUMP JUMPDEST JUMPDEST PUSH1 0x20 MUL PUSH1 0x20 ADD ADD SWAP1 PUSH1 0xFF AND SWAP1 DUP2 PUSH1 0xFF AND DUP2 MSTORE POP POP PUSH2 0x2704 JUMP JUMPDEST PUSH1 0xD DUP4 SUB PUSH2 0x22E6 JUMPI PUSH1 0x5 DUP2 PUSH0 DUP2 MLOAD DUP2 LT PUSH2 0x2279 JUMPI PUSH2 0x2278 PUSH2 0x3C72 JUMP JUMPDEST JUMPDEST PUSH1 0x20 MUL PUSH1 0x20 ADD ADD SWAP1 PUSH1 0xFF AND SWAP1 DUP2 PUSH1 0xFF AND DUP2 MSTORE POP POP PUSH1 0x4 DUP2 PUSH1 0x1 DUP2 MLOAD DUP2 LT PUSH2 0x22A3 JUMPI PUSH2 0x22A2 PUSH2 0x3C72 JUMP JUMPDEST JUMPDEST PUSH1 0x20 MUL PUSH1 0x20 ADD ADD SWAP1 PUSH1 0xFF AND SWAP1 DUP2 PUSH1 0xFF AND DUP2 MSTORE POP POP PUSH1 0x4 DUP2 PUSH1 0x2 DUP2 MLOAD DUP2 LT PUSH2 0x22CD JUMPI PUSH2 0x22CC PUSH2 0x3C72 JUMP JUMPDEST JUMPDEST PUSH1 0x20 MUL PUSH1 0x20 ADD ADD SWAP1 PUSH1 0xFF AND SWAP1 DUP2 PUSH1 0xFF AND DUP2 MSTORE POP POP PUSH2 0x2703 JUMP JUMPDEST PUSH1 0xE DUP4 SUB PUSH2 0x2370 JUMPI PUSH1 0x5 DUP2 PUSH0 DUP2 MLOAD DUP2 LT PUSH2 0x2303 JUMPI PUSH2 0x2302 PUSH2 0x3C72 JUMP JUMPDEST JUMPDEST PUSH1 0x20 MUL PUSH1 0x20 ADD ADD SWAP1 PUSH1 0xFF AND SWAP1 DUP2 PUSH1 0xFF AND DUP2 MSTORE POP POP PUSH1 0x5 DUP2 PUSH1 0x1 DUP2 MLOAD DUP2 LT PUSH2 0x232D JUMPI PUSH2 0x232C PUSH2 0x3C72 JUMP JUMPDEST JUMPDEST PUSH1 0x20 MUL PUSH1 0x20 ADD ADD SWAP1 PUSH1 0xFF AND SWAP1 DUP2 PUSH1 0xFF AND DUP2 MSTORE POP POP PUSH1 0x4 DUP2 PUSH1 0x2 DUP2 MLOAD DUP2 LT PUSH2 0x2357 JUMPI PUSH2 0x2356 PUSH2 0x3C72 JUMP JUMPDEST JUMPDEST PUSH1 0x20 MUL PUSH1 0x20 ADD ADD SWAP1 PUSH1 0xFF AND SWAP1 DUP2 PUSH1 0xFF AND DUP2 MSTORE POP POP PUSH2 0x2702 JUMP JUMPDEST PUSH1 0xF DUP4 SUB PUSH2 0x23FA JUMPI PUSH1 0x5 DUP2 PUSH0 DUP2 MLOAD DUP2 LT PUSH2 0x238D JUMPI PUSH2 0x238C PUSH2 0x3C72 JUMP JUMPDEST JUMPDEST PUSH1 0x20 MUL PUSH1 0x20 ADD ADD SWAP1 PUSH1 0xFF AND SWAP1 DUP2 PUSH1 0xFF AND DUP2 MSTORE POP POP PUSH1 0x5 DUP2 PUSH1 0x1 DUP2 MLOAD DUP2 LT PUSH2 0x23B7 JUMPI PUSH2 0x23B6 PUSH2 0x3C72 JUMP JUMPDEST JUMPDEST PUSH1 0x20 MUL PUSH1 0x20 ADD ADD SWAP1 PUSH1 0xFF AND SWAP1 DUP2 PUSH1 0xFF AND DUP2 MSTORE POP POP PUSH1 0x5 DUP2 PUSH1 0x2 DUP2 MLOAD DUP2 LT PUSH2 0x23E1 JUMPI PUSH2 0x23E0 PUSH2 0x3C72 JUMP JUMPDEST JUMPDEST PUSH1 0x20 MUL PUSH1 0x20 ADD ADD SWAP1 PUSH1 0xFF AND SWAP1 DUP2 PUSH1 0xFF AND DUP2 MSTORE POP POP PUSH2 0x2701 JUMP JUMPDEST PUSH1 0x10 DUP4 SUB PUSH2 0x2484 JUMPI PUSH1 0x6 DUP2 PUSH0 DUP2 MLOAD DUP2 LT PUSH2 0x2417 JUMPI PUSH2 0x2416 PUSH2 0x3C72 JUMP JUMPDEST JUMPDEST PUSH1 0x20 MUL PUSH1 0x20 ADD ADD SWAP1 PUSH1 0xFF AND SWAP1 DUP2 PUSH1 0xFF AND DUP2 MSTORE POP POP PUSH1 0x5 DUP2 PUSH1 0x1 DUP2 MLOAD DUP2 LT PUSH2 0x2441 JUMPI PUSH2 0x2440 PUSH2 0x3C72 JUMP JUMPDEST JUMPDEST PUSH1 0x20 MUL PUSH1 0x20 ADD ADD SWAP1 PUSH1 0xFF AND SWAP1 DUP2 PUSH1 0xFF AND DUP2 MSTORE POP POP PUSH1 0x5 DUP2 PUSH1 0x2 DUP2 MLOAD DUP2 LT PUSH2 0x246B JUMPI PUSH2 0x246A PUSH2 0x3C72 JUMP JUMPDEST JUMPDEST PUSH1 0x20 MUL PUSH1 0x20 ADD ADD SWAP1 PUSH1 0xFF AND SWAP1 DUP2 PUSH1 0xFF AND DUP2 MSTORE POP POP PUSH2 0x2700 JUMP JUMPDEST PUSH1 0x11 DUP4 SUB PUSH2 0x250E JUMPI PUSH1 0x6 DUP2 PUSH0 DUP2 MLOAD DUP2 LT PUSH2 0x24A1 JUMPI PUSH2 0x24A0 PUSH2 0x3C72 JUMP JUMPDEST JUMPDEST PUSH1 0x20 MUL PUSH1 0x20 ADD ADD SWAP1 PUSH1 0xFF AND SWAP1 DUP2 PUSH1 0xFF AND DUP2 MSTORE POP POP PUSH1 0x6 DUP2 PUSH1 0x1 DUP2 MLOAD DUP2 LT PUSH2 0x24CB JUMPI PUSH2 0x24CA PUSH2 0x3C72 JUMP JUMPDEST JUMPDEST PUSH1 0x20 MUL PUSH1 0x20 ADD ADD SWAP1 PUSH1 0xFF AND SWAP1 DUP2 PUSH1 0xFF AND DUP2 MSTORE POP POP PUSH1 0x5 DUP2 PUSH1 0x2 DUP2 MLOAD DUP2 LT PUSH2 0x24F5 JUMPI PUSH2 0x24F4 PUSH2 0x3C72 JUMP JUMPDEST JUMPDEST PUSH1 0x20 MUL PUSH1 0x20 ADD ADD SWAP1 PUSH1 0xFF AND SWAP1 DUP2 PUSH1 0xFF AND DUP2 MSTORE POP POP PUSH2 0x26FF JUMP JUMPDEST PUSH1 0x12 DUP4 SUB PUSH2 0x2598 JUMPI PUSH1 0x6 DUP2 PUSH0 DUP2 MLOAD DUP2 LT PUSH2 0x252B JUMPI PUSH2 0x252A PUSH2 0x3C72 JUMP JUMPDEST JUMPDEST PUSH1 0x20 MUL PUSH1 0x20 ADD ADD SWAP1 PUSH1 0xFF AND SWAP1 DUP2 PUSH1 0xFF AND DUP2 MSTORE POP POP PUSH1 0x6 DUP2 PUSH1 0x1 DUP2 MLOAD DUP2 LT PUSH2 0x2555 JUMPI PUSH2 0x2554 PUSH2 0x3C72 JUMP JUMPDEST JUMPDEST PUSH1 0x20 MUL PUSH1 0x20 ADD ADD SWAP1 PUSH1 0xFF AND SWAP1 DUP2 PUSH1 0xFF AND DUP2 MSTORE POP POP PUSH1 0x6 DUP2 PUSH1 0x2 DUP2 MLOAD DUP2 LT PUSH2 0x257F JUMPI PUSH2 0x257E PUSH2 0x3C72 JUMP JUMPDEST JUMPDEST PUSH1 0x20 MUL PUSH1 0x20 ADD ADD SWAP1 PUSH1 0xFF AND SWAP1 DUP2 PUSH1 0xFF AND DUP2 MSTORE POP POP PUSH2 0x26FE JUMP JUMPDEST PUSH1 0x13 DUP4 SUB PUSH2 0x264C JUMPI PUSH1 0x5 DUP2 PUSH0 DUP2 MLOAD DUP2 LT PUSH2 0x25B5 JUMPI PUSH2 0x25B4 PUSH2 0x3C72 JUMP JUMPDEST JUMPDEST PUSH1 0x20 MUL PUSH1 0x20 ADD ADD SWAP1 PUSH1 0xFF AND SWAP1 DUP2 PUSH1 0xFF AND DUP2 MSTORE POP POP PUSH1 0x5 DUP2 PUSH1 0x1 DUP2 MLOAD DUP2 LT PUSH2 0x25DF JUMPI PUSH2 0x25DE PUSH2 0x3C72 JUMP JUMPDEST JUMPDEST PUSH1 0x20 MUL PUSH1 0x20 ADD ADD SWAP1 PUSH1 0xFF AND SWAP1 DUP2 PUSH1 0xFF AND DUP2 MSTORE POP POP PUSH1 0x5 DUP2 PUSH1 0x2 DUP2 MLOAD DUP2 LT PUSH2 0x2609 JUMPI PUSH2 0x2608 PUSH2 0x3C72 JUMP JUMPDEST JUMPDEST PUSH1 0x20 MUL PUSH1 0x20 ADD ADD SWAP1 PUSH1 0xFF AND SWAP1 DUP2 PUSH1 0xFF AND DUP2 MSTORE POP POP PUSH1 0x4 DUP2 PUSH1 0x3 DUP2 MLOAD DUP2 LT PUSH2 0x2633 JUMPI PUSH2 0x2632 PUSH2 0x3C72 JUMP JUMPDEST JUMPDEST PUSH1 0x20 MUL PUSH1 0x20 ADD ADD SWAP1 PUSH1 0xFF AND SWAP1 DUP2 PUSH1 0xFF AND DUP2 MSTORE POP POP PUSH2 0x26FD JUMP JUMPDEST PUSH1 0x14 DUP4 SUB PUSH2 0x26FC JUMPI PUSH1 0x5 DUP2 PUSH0 DUP2 MLOAD DUP2 LT PUSH2 0x2669 JUMPI PUSH2 0x2668 PUSH2 0x3C72 JUMP JUMPDEST JUMPDEST PUSH1 0x20 MUL PUSH1 0x20 ADD ADD SWAP1 PUSH1 0xFF AND SWAP1 DUP2 PUSH1 0xFF AND DUP2 MSTORE POP POP PUSH1 0x5 DUP2 PUSH1 0x1 DUP2 MLOAD DUP2 LT PUSH2 0x2693 JUMPI PUSH2 0x2692 PUSH2 0x3C72 JUMP JUMPDEST JUMPDEST PUSH1 0x20 MUL PUSH1 0x20 ADD ADD SWAP1 PUSH1 0xFF AND SWAP1 DUP2 PUSH1 0xFF AND DUP2 MSTORE POP POP PUSH1 0x5 DUP2 PUSH1 0x2 DUP2 MLOAD DUP2 LT PUSH2 0x26BD JUMPI PUSH2 0x26BC PUSH2 0x3C72 JUMP JUMPDEST JUMPDEST PUSH1 0x20 MUL PUSH1 0x20 ADD ADD SWAP1 PUSH1 0xFF AND SWAP1 DUP2 PUSH1 0xFF AND DUP2 MSTORE POP POP PUSH1 0x5 DUP2 PUSH1 0x3 DUP2 MLOAD DUP2 LT PUSH2 0x26E7 JUMPI PUSH2 0x26E6 PUSH2 0x3C72 JUMP JUMPDEST JUMPDEST PUSH1 0x20 MUL PUSH1 0x20 ADD ADD SWAP1 PUSH1 0xFF AND SWAP1 DUP2 PUSH1 0xFF AND DUP2 MSTORE POP POP JUMPDEST JUMPDEST JUMPDEST JUMPDEST JUMPDEST JUMPDEST JUMPDEST JUMPDEST JUMPDEST JUMPDEST JUMPDEST JUMPDEST JUMPDEST JUMPDEST JUMPDEST JUMPDEST JUMPDEST JUMPDEST JUMPDEST JUMPDEST DUP1 SWAP2 POP POP SWAP2 SWAP1 POP JUMP JUMPDEST POP DUP1 SLOAD PUSH0 DUP3 SSTORE PUSH1 0x3 MUL SWAP1 PUSH0 MSTORE PUSH1 0x20 PUSH0 KECCAK256 SWAP1 DUP2 ADD SWAP1 PUSH2 0x2736 SWAP2 SWAP1 PUSH2 0x28D7 JUMP JUMPDEST POP JUMP JUMPDEST DUP3 DUP1 SLOAD DUP3 DUP3 SSTORE SWAP1 PUSH0 MSTORE PUSH1 0x20 PUSH0 KECCAK256 SWAP1 DUP2 ADD SWAP3 DUP3 ISZERO PUSH2 0x277F JUMPI SWAP2 PUSH1 0x20 MUL DUP3 ADD JUMPDEST DUP3 DUP2 GT ISZERO PUSH2 0x277E JUMPI DUP3 MLOAD DUP3 SWAP1 DUP2 PUSH2 0x276E SWAP2 SWAP1 PUSH2 0x3E90 JUMP JUMPDEST POP SWAP2 PUSH1 0x20 ADD SWAP2 SWAP1 PUSH1 0x1 ADD SWAP1 PUSH2 0x2757 JUMP JUMPDEST JUMPDEST POP SWAP1 POP PUSH2 0x278C SWAP2 SWAP1 PUSH2 0x291A JUMP JUMPDEST POP SWAP1 JUMP JUMPDEST POP DUP1 SLOAD PUSH0 DUP3 SSTORE SWAP1 PUSH0 MSTORE PUSH1 0x20 PUSH0 KECCAK256 SWAP1 DUP2 ADD SWAP1 PUSH2 0x27AB SWAP2 SWAP1 PUSH2 0x293D JUMP JUMPDEST POP JUMP JUMPDEST DUP3 DUP1 SLOAD DUP3 DUP3 SSTORE SWAP1 PUSH0 MSTORE PUSH1 0x20 PUSH0 KECCAK256 SWAP1 DUP2 ADD SWAP3 DUP3 ISZERO PUSH2 0x2824 JUMPI SWAP2 PUSH1 0x20 MUL DUP3 ADD JUMPDEST DUP3 DUP2 GT ISZERO PUSH2 0x2823 JUMPI DUP3 MLOAD DUP3 PUSH0 PUSH2 0x100 EXP DUP2 SLOAD DUP2 PUSH20 0xFFFFFFFFFFFFFFFFFFFFFFFFFFFFFFFFFFFFFFFF MUL NOT AND SWAP1 DUP4 PUSH20 0xFFFFFFFFFFFFFFFFFFFFFFFFFFFFFFFFFFFFFFFF AND MUL OR SWAP1 SSTORE POP SWAP2 PUSH1 0x20 ADD SWAP2 SWAP1 PUSH1 0x1 ADD SWAP1 PUSH2 0x27CC JUMP JUMPDEST JUMPDEST POP SWAP1 POP PUSH2 0x2831 SWAP2 SWAP1 PUSH2 0x2962 JUMP JUMPDEST POP SWAP1 JUMP JUMPDEST DUP3 DUP1 SLOAD DUP3 DUP3 SSTORE SWAP1 PUSH0 MSTORE PUSH1 0x20 PUSH0 KECCAK256 SWAP1 PUSH1 0x1F ADD PUSH1 0x20 SWAP1 DIV DUP2 ADD SWAP3 DUP3 ISZERO PUSH2 0x28C6 JUMPI SWAP2 PUSH1 0x20 MUL DUP3 ADD PUSH0 JUMPDEST DUP4 DUP3 GT ISZERO PUSH2 0x2898 JUMPI DUP4 MLOAD DUP4 DUP3 PUSH2 0x100 EXP DUP2 SLOAD DUP2 PUSH1 0xFF MUL NOT AND SWAP1 DUP4 PUSH1 0xFF AND MUL OR SWAP1 SSTORE POP SWAP3 PUSH1 0x20 ADD SWAP3 PUSH1 0x1 ADD PUSH1 0x20 DUP2 PUSH0 ADD DIV SWAP3 DUP4 ADD SWAP3 PUSH1 0x1 SUB MUL PUSH2 0x285B JUMP JUMPDEST DUP1 ISZERO PUSH2 0x28C4 JUMPI DUP3 DUP2 PUSH2 0x100 EXP DUP2 SLOAD SWAP1 PUSH1 0xFF MUL NOT AND SWAP1 SSTORE PUSH1 0x1 ADD PUSH1 0x20 DUP2 PUSH0 ADD DIV SWAP3 DUP4 ADD SWAP3 PUSH1 0x1 SUB MUL PUSH2 0x2898 JUMP JUMPDEST POP JUMPDEST POP SWAP1 POP PUSH2 0x28D3 SWAP2 SWAP1 PUSH2 0x2962 JUMP JUMPDEST POP SWAP1 JUMP JUMPDEST JUMPDEST DUP1 DUP3 GT ISZERO PUSH2 0x2916 JUMPI PUSH0 DUP1 DUP3 ADD PUSH0 PUSH2 0x28EF SWAP2 SWAP1 PUSH2 0x297D JUMP JUMPDEST PUSH1 0x1 DUP3 ADD PUSH0 PUSH2 0x28FE SWAP2 SWAP1 PUSH2 0x297D JUMP JUMPDEST PUSH1 0x2 DUP3 ADD PUSH0 PUSH2 0x290D SWAP2 SWAP1 PUSH2 0x29BA JUMP JUMPDEST POP PUSH1 0x3 ADD PUSH2 0x28D8 JUMP JUMPDEST POP SWAP1 JUMP JUMPDEST JUMPDEST DUP1 DUP3 GT ISZERO PUSH2 0x2939 JUMPI PUSH0 DUP2 DUP2 PUSH2 0x2930 SWAP2 SWAP1 PUSH2 0x297D JUMP JUMPDEST POP PUSH1 0x1 ADD PUSH2 0x291B JUMP JUMPDEST POP SWAP1 JUMP JUMPDEST JUMPDEST DUP1 DUP3 GT ISZERO PUSH2 0x295E JUMPI PUSH0 DUP1 DUP3 ADD PUSH0 PUSH2 0x2955 SWAP2 SWAP1 PUSH2 0x29D8 JUMP JUMPDEST POP PUSH1 0x1 ADD PUSH2 0x293E JUMP JUMPDEST POP SWAP1 JUMP JUMPDEST JUMPDEST DUP1 DUP3 GT ISZERO PUSH2 0x2979 JUMPI PUSH0 DUP2 PUSH0 SWAP1 SSTORE POP PUSH1 0x1 ADD PUSH2 0x2963 JUMP JUMPDEST POP SWAP1 JUMP JUMPDEST POP DUP1 SLOAD PUSH2 0x2989 SWAP1 PUSH2 0x3CCC JUMP JUMPDEST PUSH0 DUP3 SSTORE DUP1 PUSH1 0x1F LT PUSH2 0x299A JUMPI POP PUSH2 0x29B7 JUMP JUMPDEST PUSH1 0x1F ADD PUSH1 0x20 SWAP1 DIV SWAP1 PUSH0 MSTORE PUSH1 0x20 PUSH0 KECCAK256 SWAP1 DUP2 ADD SWAP1 PUSH2 0x29B6 SWAP2 SWAP1 PUSH2 0x2962 JUMP JUMPDEST JUMPDEST POP JUMP JUMPDEST POP DUP1 SLOAD PUSH0 DUP3 SSTORE SWAP1 PUSH0 MSTORE PUSH1 0x20 PUSH0 KECCAK256 SWAP1 DUP2 ADD SWAP1 PUSH2 0x29D5 SWAP2 SWAP1 PUSH2 0x291A JUMP JUMPDEST POP JUMP JUMPDEST POP DUP1 SLOAD PUSH0 DUP3 SSTORE SWAP1 PUSH0 MSTORE PUSH1 0x20 PUSH0 KECCAK256 SWAP1 DUP2 ADD SWAP1 PUSH2 0x29F3 SWAP2 SWAP1 PUSH2 0x2962 JUMP JUMPDEST POP JUMP JUMPDEST PUSH0 PUSH20 0xFFFFFFFFFFFFFFFFFFFFFFFFFFFFFFFFFFFFFFFF DUP3 AND SWAP1 POP SWAP2 SWAP1 POP JUMP JUMPDEST PUSH0 DUP2 SWAP1 POP SWAP2 SWAP1 POP JUMP JUMPDEST PUSH0 PUSH2 0x2A38 PUSH2 0x2A33 PUSH2 0x2A2E DUP5 PUSH2 0x29F6 JUMP JUMPDEST PUSH2 0x2A15 JUMP JUMPDEST PUSH2 0x29F6 JUMP JUMPDEST SWAP1 POP SWAP2 SWAP1 POP JUMP JUMPDEST PUSH0 PUSH2 0x2A49 DUP3 PUSH2 0x2A1E JUMP JUMPDEST SWAP1 POP SWAP2 SWAP1 POP JUMP JUMPDEST PUSH0 PUSH2 0x2A5A DUP3 PUSH2 0x2A3F JUMP JUMPDEST SWAP1 POP SWAP2 SWAP1 POP JUMP JUMPDEST PUSH2 0x2A6A DUP2 PUSH2 0x2A50 JUMP JUMPDEST DUP3 MSTORE POP POP JUMP JUMPDEST PUSH0 PUSH1 0x20 DUP3 ADD SWAP1 POP PUSH2 0x2A83 PUSH0 DUP4 ADD DUP5 PUSH2 0x2A61 JUMP JUMPDEST SWAP3 SWAP2 POP POP JUMP JUMPDEST PUSH0 PUSH1 0x40 MLOAD SWAP1 POP SWAP1 JUMP JUMPDEST PUSH0 DUP1 REVERT JUMPDEST PUSH0 DUP1 REVERT JUMPDEST PUSH0 DUP2 SWAP1 POP SWAP2 SWAP1 POP JUMP JUMPDEST PUSH2 0x2AAC DUP2 PUSH2 0x2A9A JUMP JUMPDEST DUP2 EQ PUSH2 0x2AB6 JUMPI PUSH0 DUP1 REVERT JUMPDEST POP JUMP JUMPDEST PUSH0 DUP2 CALLDATALOAD SWAP1 POP PUSH2 0x2AC7 DUP2 PUSH2 0x2AA3 JUMP JUMPDEST SWAP3 SWAP2 POP POP JUMP JUMPDEST PUSH0 DUP1 REVERT JUMPDEST PUSH0 PUSH1 0x1F NOT PUSH1 0x1F DUP4 ADD AND SWAP1 POP SWAP2 SWAP1 POP JUMP JUMPDEST PUSH32 0x4E487B7100000000000000000000000000000000000000000000000000000000 PUSH0 MSTORE PUSH1 0x41 PUSH1 0x4 MSTORE PUSH1 0x24 PUSH0 REVERT JUMPDEST PUSH2 0x2B17 DUP3 PUSH2 0x2AD1 JUMP JUMPDEST DUP2 ADD DUP2 DUP2 LT PUSH8 0xFFFFFFFFFFFFFFFF DUP3 GT OR ISZERO PUSH2 0x2B36 JUMPI PUSH2 0x2B35 PUSH2 0x2AE1 JUMP JUMPDEST JUMPDEST DUP1 PUSH1 0x40 MSTORE POP POP POP JUMP JUMPDEST PUSH0 PUSH2 0x2B48 PUSH2 0x2A89 JUMP JUMPDEST SWAP1 POP PUSH2 0x2B54 DUP3 DUP3 PUSH2 0x2B0E JUMP JUMPDEST SWAP2 SWAP1 POP JUMP JUMPDEST PUSH0 PUSH8 0xFFFFFFFFFFFFFFFF DUP3 GT ISZERO PUSH2 0x2B73 JUMPI PUSH2 0x2B72 PUSH2 0x2AE1 JUMP JUMPDEST JUMPDEST PUSH1 0x20 DUP3 MUL SWAP1 POP PUSH1 0x20 DUP2 ADD SWAP1 POP SWAP2 SWAP1 POP JUMP JUMPDEST PUSH0 DUP1 REVERT JUMPDEST PUSH0 DUP1 REVERT JUMPDEST PUSH0 DUP1 REVERT JUMPDEST PUSH0 DUP1 REVERT JUMPDEST PUSH0 PUSH8 0xFFFFFFFFFFFFFFFF DUP3 GT ISZERO PUSH2 0x2BAE JUMPI PUSH2 0x2BAD PUSH2 0x2AE1 JUMP JUMPDEST JUMPDEST PUSH2 0x2BB7 DUP3 PUSH2 0x2AD1 JUMP JUMPDEST SWAP1 POP PUSH1 0x20 DUP2 ADD SWAP1 POP SWAP2 SWAP1 POP JUMP JUMPDEST DUP3 DUP2 DUP4 CALLDATACOPY PUSH0 DUP4 DUP4 ADD MSTORE POP POP POP JUMP JUMPDEST PUSH0 PUSH2 0x2BE4 PUSH2 0x2BDF DUP5 PUSH2 0x2B94 JUMP JUMPDEST PUSH2 0x2B3F JUMP JUMPDEST SWAP1 POP DUP3 DUP2 MSTORE PUSH1 0x20 DUP2 ADD DUP5 DUP5 DUP5 ADD GT ISZERO PUSH2 0x2C00 JUMPI PUSH2 0x2BFF PUSH2 0x2B90 JUMP JUMPDEST JUMPDEST PUSH2 0x2C0B DUP5 DUP3 DUP6 PUSH2 0x2BC4 JUMP JUMPDEST POP SWAP4 SWAP3 POP POP POP JUMP JUMPDEST PUSH0 DUP3 PUSH1 0x1F DUP4 ADD SLT PUSH2 0x2C27 JUMPI PUSH2 0x2C26 PUSH2 0x2ACD JUMP JUMPDEST JUMPDEST DUP2 CALLDATALOAD PUSH2 0x2C37 DUP5 DUP3 PUSH1 0x20 DUP7 ADD PUSH2 0x2BD2 JUMP JUMPDEST SWAP2 POP POP SWAP3 SWAP2 POP POP JUMP JUMPDEST PUSH0 PUSH8 0xFFFFFFFFFFFFFFFF DUP3 GT ISZERO PUSH2 0x2C5A JUMPI PUSH2 0x2C59 PUSH2 0x2AE1 JUMP JUMPDEST JUMPDEST PUSH1 0x20 DUP3 MUL SWAP1 POP PUSH1 0x20 DUP2 ADD SWAP1 POP SWAP2 SWAP1 POP JUMP JUMPDEST PUSH0 PUSH2 0x2C7D PUSH2 0x2C78 DUP5 PUSH2 0x2C40 JUMP JUMPDEST PUSH2 0x2B3F JUMP JUMPDEST SWAP1 POP DUP1 DUP4 DUP3 MSTORE PUSH1 0x20 DUP3 ADD SWAP1 POP PUSH1 0x20 DUP5 MUL DUP4 ADD DUP6 DUP2 GT ISZERO PUSH2 0x2CA0 JUMPI PUSH2 0x2C9F PUSH2 0x2B84 JUMP JUMPDEST JUMPDEST DUP4 JUMPDEST DUP2 DUP2 LT ISZERO PUSH2 0x2CE7 JUMPI DUP1 CALLDATALOAD PUSH8 0xFFFFFFFFFFFFFFFF DUP2 GT ISZERO PUSH2 0x2CC5 JUMPI PUSH2 0x2CC4 PUSH2 0x2ACD JUMP JUMPDEST JUMPDEST DUP1 DUP7 ADD PUSH2 0x2CD2 DUP10 DUP3 PUSH2 0x2C13 JUMP JUMPDEST DUP6 MSTORE PUSH1 0x20 DUP6 ADD SWAP5 POP POP POP PUSH1 0x20 DUP2 ADD SWAP1 POP PUSH2 0x2CA2 JUMP JUMPDEST POP POP POP SWAP4 SWAP3 POP POP POP JUMP JUMPDEST PUSH0 DUP3 PUSH1 0x1F DUP4 ADD SLT PUSH2 0x2D05 JUMPI PUSH2 0x2D04 PUSH2 0x2ACD JUMP JUMPDEST JUMPDEST DUP2 CALLDATALOAD PUSH2 0x2D15 DUP5 DUP3 PUSH1 0x20 DUP7 ADD PUSH2 0x2C6B JUMP JUMPDEST SWAP2 POP POP SWAP3 SWAP2 POP POP JUMP JUMPDEST PUSH0 PUSH1 0x60 DUP3 DUP5 SUB SLT ISZERO PUSH2 0x2D33 JUMPI PUSH2 0x2D32 PUSH2 0x2B88 JUMP JUMPDEST JUMPDEST PUSH2 0x2D3D PUSH1 0x60 PUSH2 0x2B3F JUMP JUMPDEST SWAP1 POP PUSH0 DUP3 ADD CALLDATALOAD PUSH8 0xFFFFFFFFFFFFFFFF DUP2 GT ISZERO PUSH2 0x2D5C JUMPI PUSH2 0x2D5B PUSH2 0x2B8C JUMP JUMPDEST JUMPDEST PUSH2 0x2D68 DUP5 DUP3 DUP6 ADD PUSH2 0x2C13 JUMP JUMPDEST PUSH0 DUP4 ADD MSTORE POP PUSH1 0x20 DUP3 ADD CALLDATALOAD PUSH8 0xFFFFFFFFFFFFFFFF DUP2 GT ISZERO PUSH2 0x2D8B JUMPI PUSH2 0x2D8A PUSH2 0x2B8C JUMP JUMPDEST JUMPDEST PUSH2 0x2D97 DUP5 DUP3 DUP6 ADD PUSH2 0x2C13 JUMP JUMPDEST PUSH1 0x20 DUP4 ADD MSTORE POP PUSH1 0x40 DUP3 ADD CALLDATALOAD PUSH8 0xFFFFFFFFFFFFFFFF DUP2 GT ISZERO PUSH2 0x2DBB JUMPI PUSH2 0x2DBA PUSH2 0x2B8C JUMP JUMPDEST JUMPDEST PUSH2 0x2DC7 DUP5 DUP3 DUP6 ADD PUSH2 0x2CF1 JUMP JUMPDEST PUSH1 0x40 DUP4 ADD MSTORE POP SWAP3 SWAP2 POP POP JUMP JUMPDEST PUSH0 PUSH2 0x2DE5 PUSH2 0x2DE0 DUP5 PUSH2 0x2B59 JUMP JUMPDEST PUSH2 0x2B3F JUMP JUMPDEST SWAP1 POP DUP1 DUP4 DUP3 MSTORE PUSH1 0x20 DUP3 ADD SWAP1 POP PUSH1 0x20 DUP5 MUL DUP4 ADD DUP6 DUP2 GT ISZERO PUSH2 0x2E08 JUMPI PUSH2 0x2E07 PUSH2 0x2B84 JUMP JUMPDEST JUMPDEST DUP4 JUMPDEST DUP2 DUP2 LT ISZERO PUSH2 0x2E4F JUMPI DUP1 CALLDATALOAD PUSH8 0xFFFFFFFFFFFFFFFF DUP2 GT ISZERO PUSH2 0x2E2D JUMPI PUSH2 0x2E2C PUSH2 0x2ACD JUMP JUMPDEST JUMPDEST DUP1 DUP7 ADD PUSH2 0x2E3A DUP10 DUP3 PUSH2 0x2D1E JUMP JUMPDEST DUP6 MSTORE PUSH1 0x20 DUP6 ADD SWAP5 POP POP POP PUSH1 0x20 DUP2 ADD SWAP1 POP PUSH2 0x2E0A JUMP JUMPDEST POP POP POP SWAP4 SWAP3 POP POP POP JUMP JUMPDEST PUSH0 DUP3 PUSH1 0x1F DUP4 ADD SLT PUSH2 0x2E6D JUMPI PUSH2 0x2E6C PUSH2 0x2ACD JUMP JUMPDEST JUMPDEST DUP2 CALLDATALOAD PUSH2 0x2E7D DUP5 DUP3 PUSH1 0x20 DUP7 ADD PUSH2 0x2DD3 JUMP JUMPDEST SWAP2 POP POP SWAP3 SWAP2 POP POP JUMP JUMPDEST PUSH0 DUP1 PUSH1 0x40 DUP4 DUP6 SUB SLT ISZERO PUSH2 0x2E9C JUMPI PUSH2 0x2E9B PUSH2 0x2A92 JUMP JUMPDEST JUMPDEST PUSH0 PUSH2 0x2EA9 DUP6 DUP3 DUP7 ADD PUSH2 0x2AB9 JUMP JUMPDEST SWAP3 POP POP PUSH1 0x20 DUP4 ADD CALLDATALOAD PUSH8 0xFFFFFFFFFFFFFFFF DUP2 GT ISZERO PUSH2 0x2ECA JUMPI PUSH2 0x2EC9 PUSH2 0x2A96 JUMP JUMPDEST JUMPDEST PUSH2 0x2ED6 DUP6 DUP3 DUP7 ADD PUSH2 0x2E59 JUMP JUMPDEST SWAP2 POP POP SWAP3 POP SWAP3 SWAP1 POP JUMP JUMPDEST PUSH0 PUSH2 0x2EEA DUP3 PUSH2 0x29F6 JUMP JUMPDEST SWAP1 POP SWAP2 SWAP1 POP JUMP JUMPDEST PUSH2 0x2EFA DUP2 PUSH2 0x2EE0 JUMP JUMPDEST DUP2 EQ PUSH2 0x2F04 JUMPI PUSH0 DUP1 REVERT JUMPDEST POP JUMP JUMPDEST PUSH0 DUP2 CALLDATALOAD SWAP1 POP PUSH2 0x2F15 DUP2 PUSH2 0x2EF1 JUMP JUMPDEST SWAP3 SWAP2 POP POP JUMP JUMPDEST PUSH0 DUP1 PUSH1 0x40 DUP4 DUP6 SUB SLT ISZERO PUSH2 0x2F31 JUMPI PUSH2 0x2F30 PUSH2 0x2A92 JUMP JUMPDEST JUMPDEST PUSH0 PUSH2 0x2F3E DUP6 DUP3 DUP7 ADD PUSH2 0x2F07 JUMP JUMPDEST SWAP3 POP POP PUSH1 0x20 PUSH2 0x2F4F DUP6 DUP3 DUP7 ADD PUSH2 0x2AB9 JUMP JUMPDEST SWAP2 POP POP SWAP3 POP SWAP3 SWAP1 POP JUMP JUMPDEST PUSH0 DUP2 MLOAD SWAP1 POP SWAP2 SWAP1 POP JUMP JUMPDEST PUSH0 DUP3 DUP3 MSTORE PUSH1 0x20 DUP3 ADD SWAP1 POP SWAP3 SWAP2 POP POP JUMP JUMPDEST PUSH0 DUP2 SWAP1 POP PUSH1 0x20 DUP3 ADD SWAP1 POP SWAP2 SWAP1 POP JUMP JUMPDEST PUSH2 0x2F8B DUP2 PUSH2 0x2A9A JUMP JUMPDEST DUP3 MSTORE POP POP JUMP JUMPDEST PUSH0 PUSH2 0x2F9C DUP4 DUP4 PUSH2 0x2F82 JUMP JUMPDEST PUSH1 0x20 DUP4 ADD SWAP1 POP SWAP3 SWAP2 POP POP JUMP JUMPDEST PUSH0 PUSH1 0x20 DUP3 ADD SWAP1 POP SWAP2 SWAP1 POP JUMP JUMPDEST PUSH0 PUSH2 0x2FBE DUP3 PUSH2 0x2F59 JUMP JUMPDEST PUSH2 0x2FC8 DUP2 DUP6 PUSH2 0x2F63 JUMP JUMPDEST SWAP4 POP PUSH2 0x2FD3 DUP4 PUSH2 0x2F73 JUMP JUMPDEST DUP1 PUSH0 JUMPDEST DUP4 DUP2 LT ISZERO PUSH2 0x3003 JUMPI DUP2 MLOAD PUSH2 0x2FEA DUP9 DUP3 PUSH2 0x2F91 JUMP JUMPDEST SWAP8 POP PUSH2 0x2FF5 DUP4 PUSH2 0x2FA8 JUMP JUMPDEST SWAP3 POP POP PUSH1 0x1 DUP2 ADD SWAP1 POP PUSH2 0x2FD6 JUMP JUMPDEST POP DUP6 SWAP4 POP POP POP POP SWAP3 SWAP2 POP POP JUMP JUMPDEST PUSH0 PUSH1 0x20 DUP3 ADD SWAP1 POP DUP2 DUP2 SUB PUSH0 DUP4 ADD MSTORE PUSH2 0x3028 DUP2 DUP5 PUSH2 0x2FB4 JUMP JUMPDEST SWAP1 POP SWAP3 SWAP2 POP POP JUMP JUMPDEST PUSH0 DUP1 PUSH0 PUSH1 0x60 DUP5 DUP7 SUB SLT ISZERO PUSH2 0x3047 JUMPI PUSH2 0x3046 PUSH2 0x2A92 JUMP JUMPDEST JUMPDEST PUSH0 PUSH2 0x3054 DUP7 DUP3 DUP8 ADD PUSH2 0x2F07 JUMP JUMPDEST SWAP4 POP POP PUSH1 0x20 PUSH2 0x3065 DUP7 DUP3 DUP8 ADD PUSH2 0x2AB9 JUMP JUMPDEST SWAP3 POP POP PUSH1 0x40 PUSH2 0x3076 DUP7 DUP3 DUP8 ADD PUSH2 0x2AB9 JUMP JUMPDEST SWAP2 POP POP SWAP3 POP SWAP3 POP SWAP3 JUMP JUMPDEST PUSH0 DUP2 MLOAD SWAP1 POP SWAP2 SWAP1 POP JUMP JUMPDEST PUSH0 DUP3 DUP3 MSTORE PUSH1 0x20 DUP3 ADD SWAP1 POP SWAP3 SWAP2 POP POP JUMP JUMPDEST PUSH0 DUP2 SWAP1 POP PUSH1 0x20 DUP3 ADD SWAP1 POP SWAP2 SWAP1 POP JUMP JUMPDEST PUSH0 DUP2 MLOAD SWAP1 POP SWAP2 SWAP1 POP JUMP JUMPDEST PUSH0 DUP3 DUP3 MSTORE PUSH1 0x20 DUP3 ADD SWAP1 POP SWAP3 SWAP2 POP POP JUMP JUMPDEST DUP3 DUP2 DUP4 MCOPY PUSH0 DUP4 DUP4 ADD MSTORE POP POP POP JUMP JUMPDEST PUSH0 PUSH2 0x30DB DUP3 PUSH2 0x30A9 JUMP JUMPDEST PUSH2 0x30E5 DUP2 DUP6 PUSH2 0x30B3 JUMP JUMPDEST SWAP4 POP PUSH2 0x30F5 DUP2 DUP6 PUSH1 0x20 DUP7 ADD PUSH2 0x30C3 JUMP JUMPDEST PUSH2 0x30FE DUP2 PUSH2 0x2AD1 JUMP JUMPDEST DUP5 ADD SWAP2 POP POP SWAP3 SWAP2 POP POP JUMP JUMPDEST PUSH0 PUSH2 0x3114 DUP4 DUP4 PUSH2 0x30D1 JUMP JUMPDEST SWAP1 POP SWAP3 SWAP2 POP POP JUMP JUMPDEST PUSH0 PUSH1 0x20 DUP3 ADD SWAP1 POP SWAP2 SWAP1 POP JUMP JUMPDEST PUSH0 PUSH2 0x3132 DUP3 PUSH2 0x3080 JUMP JUMPDEST PUSH2 0x313C DUP2 DUP6 PUSH2 0x308A JUMP JUMPDEST SWAP4 POP DUP4 PUSH1 0x20 DUP3 MUL DUP6 ADD PUSH2 0x314E DUP6 PUSH2 0x309A JUMP JUMPDEST DUP1 PUSH0 JUMPDEST DUP6 DUP2 LT ISZERO PUSH2 0x3189 JUMPI DUP5 DUP5 SUB DUP10 MSTORE DUP2 MLOAD PUSH2 0x316A DUP6 DUP3 PUSH2 0x3109 JUMP JUMPDEST SWAP5 POP PUSH2 0x3175 DUP4 PUSH2 0x311C JUMP JUMPDEST SWAP3 POP PUSH1 0x20 DUP11 ADD SWAP10 POP POP PUSH1 0x1 DUP2 ADD SWAP1 POP PUSH2 0x3151 JUMP JUMPDEST POP DUP3 SWAP8 POP DUP8 SWAP6 POP POP POP POP POP POP SWAP3 SWAP2 POP POP JUMP JUMPDEST PUSH0 DUP2 MLOAD SWAP1 POP SWAP2 SWAP1 POP JUMP JUMPDEST PUSH0 DUP3 DUP3 MSTORE PUSH1 0x20 DUP3 ADD SWAP1 POP SWAP3 SWAP2 POP POP JUMP JUMPDEST PUSH0 DUP2 SWAP1 POP PUSH1 0x20 DUP3 ADD SWAP1 POP SWAP2 SWAP1 POP JUMP JUMPDEST PUSH0 DUP3 DUP3 MSTORE PUSH1 0x20 DUP3 ADD SWAP1 POP SWAP3 SWAP2 POP POP JUMP JUMPDEST PUSH0 PUSH2 0x31DE DUP3 PUSH2 0x3080 JUMP JUMPDEST PUSH2 0x31E8 DUP2 DUP6 PUSH2 0x31C4 JUMP JUMPDEST SWAP4 POP DUP4 PUSH1 0x20 DUP3 MUL DUP6 ADD PUSH2 0x31FA DUP6 PUSH2 0x309A JUMP JUMPDEST DUP1 PUSH0 JUMPDEST DUP6 DUP2 LT ISZERO PUSH2 0x3235 JUMPI DUP5 DUP5 SUB DUP10 MSTORE DUP2 MLOAD PUSH2 0x3216 DUP6 DUP3 PUSH2 0x3109 JUMP JUMPDEST SWAP5 POP PUSH2 0x3221 DUP4 PUSH2 0x311C JUMP JUMPDEST SWAP3 POP PUSH1 0x20 DUP11 ADD SWAP10 POP POP PUSH1 0x1 DUP2 ADD SWAP1 POP PUSH2 0x31FD JUMP JUMPDEST POP DUP3 SWAP8 POP DUP8 SWAP6 POP POP POP POP POP POP SWAP3 SWAP2 POP POP JUMP JUMPDEST PUSH0 PUSH2 0x3252 DUP4 DUP4 PUSH2 0x31D4 JUMP JUMPDEST SWAP1 POP SWAP3 SWAP2 POP POP JUMP JUMPDEST PUSH0 PUSH1 0x20 DUP3 ADD SWAP1 POP SWAP2 SWAP1 POP JUMP JUMPDEST PUSH0 PUSH2 0x3270 DUP3 PUSH2 0x319B JUMP JUMPDEST PUSH2 0x327A DUP2 DUP6 PUSH2 0x31A5 JUMP JUMPDEST SWAP4 POP DUP4 PUSH1 0x20 DUP3 MUL DUP6 ADD PUSH2 0x328C DUP6 PUSH2 0x31B5 JUMP JUMPDEST DUP1 PUSH0 JUMPDEST DUP6 DUP2 LT ISZERO PUSH2 0x32C7 JUMPI DUP5 DUP5 SUB DUP10 MSTORE DUP2 MLOAD PUSH2 0x32A8 DUP6 DUP3 PUSH2 0x3247 JUMP JUMPDEST SWAP5 POP PUSH2 0x32B3 DUP4 PUSH2 0x325A JUMP JUMPDEST SWAP3 POP PUSH1 0x20 DUP11 ADD SWAP10 POP POP PUSH1 0x1 DUP2 ADD SWAP1 POP PUSH2 0x328F JUMP JUMPDEST POP DUP3 SWAP8 POP DUP8 SWAP6 POP POP POP POP POP POP SWAP3 SWAP2 POP POP JUMP JUMPDEST PUSH0 PUSH1 0x60 DUP3 ADD SWAP1 POP DUP2 DUP2 SUB PUSH0 DUP4 ADD MSTORE PUSH2 0x32F1 DUP2 DUP7 PUSH2 0x3128 JUMP JUMPDEST SWAP1 POP DUP2 DUP2 SUB PUSH1 0x20 DUP4 ADD MSTORE PUSH2 0x3305 DUP2 DUP6 PUSH2 0x3128 JUMP JUMPDEST SWAP1 POP DUP2 DUP2 SUB PUSH1 0x40 DUP4 ADD MSTORE PUSH2 0x3319 DUP2 DUP5 PUSH2 0x3266 JUMP JUMPDEST SWAP1 POP SWAP5 SWAP4 POP POP POP POP JUMP JUMPDEST PUSH0 PUSH1 0x20 DUP3 DUP5 SUB SLT ISZERO PUSH2 0x3338 JUMPI PUSH2 0x3337 PUSH2 0x2A92 JUMP JUMPDEST JUMPDEST PUSH0 PUSH2 0x3345 DUP5 DUP3 DUP6 ADD PUSH2 0x2AB9 JUMP JUMPDEST SWAP2 POP POP SWAP3 SWAP2 POP POP JUMP JUMPDEST PUSH0 DUP1 PUSH1 0x40 DUP4 DUP6 SUB SLT ISZERO PUSH2 0x3364 JUMPI PUSH2 0x3363 PUSH2 0x2A92 JUMP JUMPDEST JUMPDEST PUSH0 PUSH2 0x3371 DUP6 DUP3 DUP7 ADD PUSH2 0x2AB9 JUMP JUMPDEST SWAP3 POP POP PUSH1 0x20 PUSH2 0x3382 DUP6 DUP3 DUP7 ADD PUSH2 0x2AB9 JUMP JUMPDEST SWAP2 POP POP SWAP3 POP SWAP3 SWAP1 POP JUMP JUMPDEST PUSH0 DUP2 MLOAD SWAP1 POP SWAP2 SWAP1 POP JUMP JUMPDEST PUSH0 DUP3 DUP3 MSTORE PUSH1 0x20 DUP3 ADD SWAP1 POP SWAP3 SWAP2 POP POP JUMP JUMPDEST PUSH0 DUP2 SWAP1 POP PUSH1 0x20 DUP3 ADD SWAP1 POP SWAP2 SWAP1 POP JUMP JUMPDEST PUSH0 DUP2 MLOAD SWAP1 POP SWAP2 SWAP1 POP JUMP JUMPDEST PUSH0 DUP3 DUP3 MSTORE PUSH1 0x20 DUP3 ADD SWAP1 POP SWAP3 SWAP2 POP POP JUMP JUMPDEST PUSH0 DUP2 SWAP1 POP PUSH1 0x20 DUP3 ADD SWAP1 POP SWAP2 SWAP1 POP JUMP JUMPDEST PUSH2 0x33E7 DUP2 PUSH2 0x2EE0 JUMP JUMPDEST DUP3 MSTORE POP POP JUMP JUMPDEST PUSH0 PUSH2 0x33F8 DUP4 DUP4 PUSH2 0x33DE JUMP JUMPDEST PUSH1 0x20 DUP4 ADD SWAP1 POP SWAP3 SWAP2 POP POP JUMP JUMPDEST PUSH0 PUSH1 0x20 DUP3 ADD SWAP1 POP SWAP2 SWAP1 POP JUMP JUMPDEST PUSH0 PUSH2 0x341A DUP3 PUSH2 0x33B5 JUMP JUMPDEST PUSH2 0x3424 DUP2 DUP6 PUSH2 0x33BF JUMP JUMPDEST SWAP4 POP PUSH2 0x342F DUP4 PUSH2 0x33CF JUMP JUMPDEST DUP1 PUSH0 JUMPDEST DUP4 DUP2 LT ISZERO PUSH2 0x345F JUMPI DUP2 MLOAD PUSH2 0x3446 DUP9 DUP3 PUSH2 0x33ED JUMP JUMPDEST SWAP8 POP PUSH2 0x3451 DUP4 PUSH2 0x3404 JUMP JUMPDEST SWAP3 POP POP PUSH1 0x1 DUP2 ADD SWAP1 POP PUSH2 0x3432 JUMP JUMPDEST POP DUP6 SWAP4 POP POP POP POP SWAP3 SWAP2 POP POP JUMP JUMPDEST PUSH0 PUSH1 0x20 DUP4 ADD PUSH0 DUP4 ADD MLOAD DUP5 DUP3 SUB PUSH0 DUP7 ADD MSTORE PUSH2 0x3486 DUP3 DUP3 PUSH2 0x3410 JUMP JUMPDEST SWAP2 POP POP DUP1 SWAP2 POP POP SWAP3 SWAP2 POP POP JUMP JUMPDEST PUSH0 PUSH2 0x349E DUP4 DUP4 PUSH2 0x346C JUMP JUMPDEST SWAP1 POP SWAP3 SWAP2 POP POP JUMP JUMPDEST PUSH0 PUSH1 0x20 DUP3 ADD SWAP1 POP SWAP2 SWAP1 POP JUMP JUMPDEST PUSH0 PUSH2 0x34BC DUP3 PUSH2 0x338C JUMP JUMPDEST PUSH2 0x34C6 DUP2 DUP6 PUSH2 0x3396 JUMP JUMPDEST SWAP4 POP DUP4 PUSH1 0x20 DUP3 MUL DUP6 ADD PUSH2 0x34D8 DUP6 PUSH2 0x33A6 JUMP JUMPDEST DUP1 PUSH0 JUMPDEST DUP6 DUP2 LT ISZERO PUSH2 0x3513 JUMPI DUP5 DUP5 SUB DUP10 MSTORE DUP2 MLOAD PUSH2 0x34F4 DUP6 DUP3 PUSH2 0x3493 JUMP JUMPDEST SWAP5 POP PUSH2 0x34FF DUP4 PUSH2 0x34A6 JUMP JUMPDEST SWAP3 POP PUSH1 0x20 DUP11 ADD SWAP10 POP POP PUSH1 0x1 DUP2 ADD SWAP1 POP PUSH2 0x34DB JUMP JUMPDEST POP DUP3 SWAP8 POP DUP8 SWAP6 POP POP POP POP POP POP SWAP3 SWAP2 POP POP JUMP JUMPDEST PUSH0 PUSH1 0x20 DUP3 ADD SWAP1 POP DUP2 DUP2 SUB PUSH0 DUP4 ADD MSTORE PUSH2 0x353D DUP2 DUP5 PUSH2 0x34B2 JUMP JUMPDEST SWAP1 POP SWAP3 SWAP2 POP POP JUMP JUMPDEST PUSH2 0x354E DUP2 PUSH2 0x2A9A JUMP JUMPDEST DUP3 MSTORE POP POP JUMP JUMPDEST PUSH0 PUSH1 0x20 DUP3 ADD SWAP1 POP PUSH2 0x3567 PUSH0 DUP4 ADD DUP5 PUSH2 0x3545 JUMP JUMPDEST SWAP3 SWAP2 POP POP JUMP JUMPDEST PUSH0 DUP2 MLOAD SWAP1 POP SWAP2 SWAP1 POP JUMP JUMPDEST PUSH0 DUP3 DUP3 MSTORE PUSH1 0x20 DUP3 ADD SWAP1 POP SWAP3 SWAP2 POP POP JUMP JUMPDEST PUSH0 DUP2 SWAP1 POP PUSH1 0x20 DUP3 ADD SWAP1 POP SWAP2 SWAP1 POP JUMP JUMPDEST PUSH0 PUSH1 0xFF DUP3 AND SWAP1 POP SWAP2 SWAP1 POP JUMP JUMPDEST PUSH2 0x35AB DUP2 PUSH2 0x3596 JUMP JUMPDEST DUP3 MSTORE POP POP JUMP JUMPDEST PUSH0 PUSH2 0x35BC DUP4 DUP4 PUSH2 0x35A2 JUMP JUMPDEST PUSH1 0x20 DUP4 ADD SWAP1 POP SWAP3 SWAP2 POP POP JUMP JUMPDEST PUSH0 PUSH1 0x20 DUP3 ADD SWAP1 POP SWAP2 SWAP1 POP JUMP JUMPDEST PUSH0 PUSH2 0x35DE DUP3 PUSH2 0x356D JUMP JUMPDEST PUSH2 0x35E8 DUP2 DUP6 PUSH2 0x3577 JUMP JUMPDEST SWAP4 POP PUSH2 0x35F3 DUP4 PUSH2 0x3587 JUMP JUMPDEST DUP1 PUSH0 JUMPDEST DUP4 DUP2 LT ISZERO PUSH2 0x3623 JUMPI DUP2 MLOAD PUSH2 0x360A DUP9 DUP3 PUSH2 0x35B1 JUMP JUMPDEST SWAP8 POP PUSH2 0x3615 DUP4 PUSH2 0x35C8 JUMP JUMPDEST SWAP3 POP POP PUSH1 0x1 DUP2 ADD SWAP1 POP PUSH2 0x35F6 JUMP JUMPDEST POP DUP6 SWAP4 POP POP POP POP SWAP3 SWAP2 POP POP JUMP JUMPDEST PUSH0 PUSH1 0x20 DUP3 ADD SWAP1 POP DUP2 DUP2 SUB PUSH0 DUP4 ADD MSTORE PUSH2 0x3648 DUP2 DUP5 PUSH2 0x35D4 JUMP JUMPDEST SWAP1 POP SWAP3 SWAP2 POP POP JUMP JUMPDEST PUSH0 DUP3 DUP3 MSTORE PUSH1 0x20 DUP3 ADD SWAP1 POP SWAP3 SWAP2 POP POP JUMP JUMPDEST PUSH0 PUSH2 0x366A DUP3 PUSH2 0x33B5 JUMP JUMPDEST PUSH2 0x3674 DUP2 DUP6 PUSH2 0x3650 JUMP JUMPDEST SWAP4 POP PUSH2 0x367F DUP4 PUSH2 0x33CF JUMP JUMPDEST DUP1 PUSH0 JUMPDEST DUP4 DUP2 LT ISZERO PUSH2 0x36AF JUMPI DUP2 MLOAD PUSH2 0x3696 DUP9 DUP3 PUSH2 0x33ED JUMP JUMPDEST SWAP8 POP PUSH2 0x36A1 DUP4 PUSH2 0x3404 JUMP JUMPDEST SWAP3 POP POP PUSH1 0x1 DUP2 ADD SWAP1 POP PUSH2 0x3682 JUMP JUMPDEST POP DUP6 SWAP4 POP POP POP POP SWAP3 SWAP2 POP POP JUMP JUMPDEST PUSH0 PUSH1 0x20 DUP3 ADD SWAP1 POP DUP2 DUP2 SUB PUSH0 DUP4 ADD MSTORE PUSH2 0x36D4 DUP2 DUP5 PUSH2 0x3660 JUMP JUMPDEST SWAP1 POP SWAP3 SWAP2 POP POP JUMP JUMPDEST PUSH2 0x36E5 DUP2 PUSH2 0x2EE0 JUMP JUMPDEST DUP3 MSTORE POP POP JUMP JUMPDEST PUSH0 PUSH1 0x20 DUP3 ADD SWAP1 POP PUSH2 0x36FE PUSH0 DUP4 ADD DUP5 PUSH2 0x36DC JUMP JUMPDEST SWAP3 SWAP2 POP POP JUMP JUMPDEST PUSH0 PUSH2 0x3716 PUSH2 0x3711 DUP5 PUSH2 0x2B94 JUMP JUMPDEST PUSH2 0x2B3F JUMP JUMPDEST SWAP1 POP DUP3 DUP2 MSTORE PUSH1 0x20 DUP2 ADD DUP5 DUP5 DUP5 ADD GT ISZERO PUSH2 0x3732 JUMPI PUSH2 0x3731 PUSH2 0x2B90 JUMP JUMPDEST JUMPDEST PUSH2 0x373D DUP5 DUP3 DUP6 PUSH2 0x30C3 JUMP JUMPDEST POP SWAP4 SWAP3 POP POP POP JUMP JUMPDEST PUSH0 DUP3 PUSH1 0x1F DUP4 ADD SLT PUSH2 0x3759 JUMPI PUSH2 0x3758 PUSH2 0x2ACD JUMP JUMPDEST JUMPDEST DUP2 MLOAD PUSH2 0x3769 DUP5 DUP3 PUSH1 0x20 DUP7 ADD PUSH2 0x3704 JUMP JUMPDEST SWAP2 POP POP SWAP3 SWAP2 POP POP JUMP JUMPDEST PUSH0 DUP1 PUSH0 PUSH1 0x60 DUP5 DUP7 SUB SLT ISZERO PUSH2 0x3789 JUMPI PUSH2 0x3788 PUSH2 0x2A92 JUMP JUMPDEST JUMPDEST PUSH0 DUP5 ADD MLOAD PUSH8 0xFFFFFFFFFFFFFFFF DUP2 GT ISZERO PUSH2 0x37A6 JUMPI PUSH2 0x37A5 PUSH2 0x2A96 JUMP JUMPDEST JUMPDEST PUSH2 0x37B2 DUP7 DUP3 DUP8 ADD PUSH2 0x3745 JUMP JUMPDEST SWAP4 POP POP PUSH1 0x20 DUP5 ADD MLOAD PUSH8 0xFFFFFFFFFFFFFFFF DUP2 GT ISZERO PUSH2 0x37D3 JUMPI PUSH2 0x37D2 PUSH2 0x2A96 JUMP JUMPDEST JUMPDEST PUSH2 0x37DF DUP7 DUP3 DUP8 ADD PUSH2 0x3745 JUMP JUMPDEST SWAP3 POP POP PUSH1 0x40 DUP5 ADD MLOAD PUSH8 0xFFFFFFFFFFFFFFFF DUP2 GT ISZERO PUSH2 0x3800 JUMPI PUSH2 0x37FF PUSH2 0x2A96 JUMP JUMPDEST JUMPDEST PUSH2 0x380C DUP7 DUP3 DUP8 ADD PUSH2 0x3745 JUMP JUMPDEST SWAP2 POP POP SWAP3 POP SWAP3 POP SWAP3 JUMP JUMPDEST PUSH0 DUP3 DUP3 MSTORE PUSH1 0x20 DUP3 ADD SWAP1 POP SWAP3 SWAP2 POP POP JUMP JUMPDEST PUSH32 0x50726F66696C65206D75737420657869737420746F207375626D697420636F6E PUSH0 DUP3 ADD MSTORE PUSH32 0x747269627574696F6E7300000000000000000000000000000000000000000000 PUSH1 0x20 DUP3 ADD MSTORE POP JUMP JUMPDEST PUSH0 PUSH2 0x3880 PUSH1 0x2A DUP4 PUSH2 0x3816 JUMP JUMPDEST SWAP2 POP PUSH2 0x388B DUP3 PUSH2 0x3826 JUMP JUMPDEST PUSH1 0x40 DUP3 ADD SWAP1 POP SWAP2 SWAP1 POP JUMP JUMPDEST PUSH0 PUSH1 0x20 DUP3 ADD SWAP1 POP DUP2 DUP2 SUB PUSH0 DUP4 ADD MSTORE PUSH2 0x38AD DUP2 PUSH2 0x3874 JUMP JUMPDEST SWAP1 POP SWAP2 SWAP1 POP JUMP JUMPDEST PUSH0 PUSH1 0x40 DUP3 ADD SWAP1 POP PUSH2 0x38C7 PUSH0 DUP4 ADD DUP6 PUSH2 0x36DC JUMP JUMPDEST PUSH2 0x38D4 PUSH1 0x20 DUP4 ADD DUP5 PUSH2 0x3545 JUMP JUMPDEST SWAP4 SWAP3 POP POP POP JUMP JUMPDEST PUSH0 DUP2 MLOAD SWAP1 POP PUSH2 0x38E9 DUP2 PUSH2 0x2AA3 JUMP JUMPDEST SWAP3 SWAP2 POP POP JUMP JUMPDEST PUSH0 DUP2 ISZERO ISZERO SWAP1 POP SWAP2 SWAP1 POP JUMP JUMPDEST PUSH2 0x3903 DUP2 PUSH2 0x38EF JUMP JUMPDEST DUP2 EQ PUSH2 0x390D JUMPI PUSH0 DUP1 REVERT JUMPDEST POP JUMP JUMPDEST PUSH0 DUP2 MLOAD SWAP1 POP PUSH2 0x391E DUP2 PUSH2 0x38FA JUMP JUMPDEST SWAP3 SWAP2 POP POP JUMP JUMPDEST PUSH0 PUSH8 0xFFFFFFFFFFFFFFFF DUP3 GT ISZERO PUSH2 0x393E JUMPI PUSH2 0x393D PUSH2 0x2AE1 JUMP JUMPDEST JUMPDEST PUSH1 0x20 DUP3 MUL SWAP1 POP PUSH1 0x20 DUP2 ADD SWAP1 POP SWAP2 SWAP1 POP JUMP JUMPDEST PUSH0 DUP2 MLOAD SWAP1 POP PUSH2 0x395D DUP2 PUSH2 0x2EF1 JUMP JUMPDEST SWAP3 SWAP2 POP POP JUMP JUMPDEST PUSH0 PUSH2 0x3975 PUSH2 0x3970 DUP5 PUSH2 0x3924 JUMP JUMPDEST PUSH2 0x2B3F JUMP JUMPDEST SWAP1 POP DUP1 DUP4 DUP3 MSTORE PUSH1 0x20 DUP3 ADD SWAP1 POP PUSH1 0x20 DUP5 MUL DUP4 ADD DUP6 DUP2 GT ISZERO PUSH2 0x3998 JUMPI PUSH2 0x3997 PUSH2 0x2B84 JUMP JUMPDEST JUMPDEST DUP4 JUMPDEST DUP2 DUP2 LT ISZERO PUSH2 0x39C1 JUMPI DUP1 PUSH2 0x39AD DUP9 DUP3 PUSH2 0x394F JUMP JUMPDEST DUP5 MSTORE PUSH1 0x20 DUP5 ADD SWAP4 POP POP PUSH1 0x20 DUP2 ADD SWAP1 POP PUSH2 0x399A JUMP JUMPDEST POP POP POP SWAP4 SWAP3 POP POP POP JUMP JUMPDEST PUSH0 DUP3 PUSH1 0x1F DUP4 ADD SLT PUSH2 0x39DF JUMPI PUSH2 0x39DE PUSH2 0x2ACD JUMP JUMPDEST JUMPDEST DUP2 MLOAD PUSH2 0x39EF DUP5 DUP3 PUSH1 0x20 DUP7 ADD PUSH2 0x3963 JUMP JUMPDEST SWAP2 POP POP SWAP3 SWAP2 POP POP JUMP JUMPDEST PUSH0 DUP1 PUSH0 DUP1 PUSH0 PUSH1 0xA0 DUP7 DUP9 SUB SLT ISZERO PUSH2 0x3A11 JUMPI PUSH2 0x3A10 PUSH2 0x2A92 JUMP JUMPDEST JUMPDEST PUSH0 PUSH2 0x3A1E DUP9 DUP3 DUP10 ADD PUSH2 0x38DB JUMP JUMPDEST SWAP6 POP POP PUSH1 0x20 PUSH2 0x3A2F DUP9 DUP3 DUP10 ADD PUSH2 0x38DB JUMP JUMPDEST SWAP5 POP POP PUSH1 0x40 PUSH2 0x3A40 DUP9 DUP3 DUP10 ADD PUSH2 0x38DB JUMP JUMPDEST SWAP4 POP POP PUSH1 0x60 PUSH2 0x3A51 DUP9 DUP3 DUP10 ADD PUSH2 0x3910 JUMP JUMPDEST SWAP3 POP POP PUSH1 0x80 DUP7 ADD MLOAD PUSH8 0xFFFFFFFFFFFFFFFF DUP2 GT ISZERO PUSH2 0x3A72 JUMPI PUSH2 0x3A71 PUSH2 0x2A96 JUMP JUMPDEST JUMPDEST PUSH2 0x3A7E DUP9 DUP3 DUP10 ADD PUSH2 0x39CB JUMP JUMPDEST SWAP2 POP POP SWAP3 SWAP6 POP SWAP3 SWAP6 SWAP1 SWAP4 POP JUMP JUMPDEST PUSH32 0x55736572206E6F7420617070726F76656420696E207468697320636F6D6D756E PUSH0 DUP3 ADD MSTORE PUSH32 0x6974790000000000000000000000000000000000000000000000000000000000 PUSH1 0x20 DUP3 ADD MSTORE POP JUMP JUMPDEST PUSH0 PUSH2 0x3AE5 PUSH1 0x23 DUP4 PUSH2 0x3816 JUMP JUMPDEST SWAP2 POP PUSH2 0x3AF0 DUP3 PUSH2 0x3A8B JUMP JUMPDEST PUSH1 0x40 DUP3 ADD SWAP1 POP SWAP2 SWAP1 POP JUMP JUMPDEST PUSH0 PUSH1 0x20 DUP3 ADD SWAP1 POP DUP2 DUP2 SUB PUSH0 DUP4 ADD MSTORE PUSH2 0x3B12 DUP2 PUSH2 0x3AD9 JUMP JUMPDEST SWAP1 POP SWAP2 SWAP1 POP JUMP JUMPDEST PUSH32 0x4D757374207375626D6974206174206C65617374206F6E6520636F6E74726962 PUSH0 DUP3 ADD MSTORE PUSH32 0x7574696F6E000000000000000000000000000000000000000000000000000000 PUSH1 0x20 DUP3 ADD MSTORE POP JUMP JUMPDEST PUSH0 PUSH2 0x3B73 PUSH1 0x25 DUP4 PUSH2 0x3816 JUMP JUMPDEST SWAP2 POP PUSH2 0x3B7E DUP3 PUSH2 0x3B19 JUMP JUMPDEST PUSH1 0x40 DUP3 ADD SWAP1 POP SWAP2 SWAP1 POP JUMP JUMPDEST PUSH0 PUSH1 0x20 DUP3 ADD SWAP1 POP DUP2 DUP2 SUB PUSH0 DUP4 ADD MSTORE PUSH2 0x3BA0 DUP2 PUSH2 0x3B67 JUMP JUMPDEST SWAP1 POP SWAP2 SWAP1 POP JUMP JUMPDEST PUSH0 DUP1 PUSH0 DUP1 PUSH0 PUSH1 0xA0 DUP7 DUP9 SUB SLT ISZERO PUSH2 0x3BC0 JUMPI PUSH2 0x3BBF PUSH2 0x2A92 JUMP JUMPDEST JUMPDEST PUSH0 DUP7 ADD MLOAD PUSH8 0xFFFFFFFFFFFFFFFF DUP2 GT ISZERO PUSH2 0x3BDD JUMPI PUSH2 0x3BDC PUSH2 0x2A96 JUMP JUMPDEST JUMPDEST PUSH2 0x3BE9 DUP9 DUP3 DUP10 ADD PUSH2 0x3745 JUMP JUMPDEST SWAP6 POP POP PUSH1 0x20 DUP7 ADD MLOAD PUSH8 0xFFFFFFFFFFFFFFFF DUP2 GT ISZERO PUSH2 0x3C0A JUMPI PUSH2 0x3C09 PUSH2 0x2A96 JUMP JUMPDEST JUMPDEST PUSH2 0x3C16 DUP9 DUP3 DUP10 ADD PUSH2 0x3745 JUMP JUMPDEST SWAP5 POP POP PUSH1 0x40 DUP7 ADD MLOAD PUSH8 0xFFFFFFFFFFFFFFFF DUP2 GT ISZERO PUSH2 0x3C37 JUMPI PUSH2 0x3C36 PUSH2 0x2A96 JUMP JUMPDEST JUMPDEST PUSH2 0x3C43 DUP9 DUP3 DUP10 ADD PUSH2 0x3745 JUMP JUMPDEST SWAP4 POP POP PUSH1 0x60 PUSH2 0x3C54 DUP9 DUP3 DUP10 ADD PUSH2 0x394F JUMP JUMPDEST SWAP3 POP POP PUSH1 0x80 PUSH2 0x3C65 DUP9 DUP3 DUP10 ADD PUSH2 0x38DB JUMP JUMPDEST SWAP2 POP POP SWAP3 SWAP6 POP SWAP3 SWAP6 SWAP1 SWAP4 POP JUMP JUMPDEST PUSH32 0x4E487B7100000000000000000000000000000000000000000000000000000000 PUSH0 MSTORE PUSH1 0x32 PUSH1 0x4 MSTORE PUSH1 0x24 PUSH0 REVERT JUMPDEST PUSH32 0x4E487B7100000000000000000000000000000000000000000000000000000000 PUSH0 MSTORE PUSH1 0x22 PUSH1 0x4 MSTORE PUSH1 0x24 PUSH0 REVERT JUMPDEST PUSH0 PUSH1 0x2 DUP3 DIV SWAP1 POP PUSH1 0x1 DUP3 AND DUP1 PUSH2 0x3CE3 JUMPI PUSH1 0x7F DUP3 AND SWAP2 POP JUMPDEST PUSH1 0x20 DUP3 LT DUP2 SUB PUSH2 0x3CF6 JUMPI PUSH2 0x3CF5 PUSH2 0x3C9F JUMP JUMPDEST JUMPDEST POP SWAP2 SWAP1 POP JUMP JUMPDEST PUSH0 DUP2 SWAP1 POP DUP2 PUSH0 MSTORE PUSH1 0x20 PUSH0 KECCAK256 SWAP1 POP SWAP2 SWAP1 POP JUMP JUMPDEST PUSH0 PUSH1 0x20 PUSH1 0x1F DUP4 ADD DIV SWAP1 POP SWAP2 SWAP1 POP JUMP JUMPDEST PUSH0 DUP3 DUP3 SHL SWAP1 POP SWAP3 SWAP2 POP POP JUMP JUMPDEST PUSH0 PUSH1 0x8 DUP4 MUL PUSH2 0x3D58 PUSH32 0xFFFFFFFFFFFFFFFFFFFFFFFFFFFFFFFFFFFFFFFFFFFFFFFFFFFFFFFFFFFFFFFF DUP3 PUSH2 0x3D1D JUMP JUMPDEST PUSH2 0x3D62 DUP7 DUP4 PUSH2 0x3D1D JUMP JUMPDEST SWAP6 POP DUP1 NOT DUP5 AND SWAP4 POP DUP1 DUP7 AND DUP5 OR SWAP3 POP POP POP SWAP4 SWAP3 POP POP POP JUMP JUMPDEST PUSH0 PUSH2 0x3D94 PUSH2 0x3D8F PUSH2 0x3D8A DUP5 PUSH2 0x2A9A JUMP JUMPDEST PUSH2 0x2A15 JUMP JUMPDEST PUSH2 0x2A9A JUMP JUMPDEST SWAP1 POP SWAP2 SWAP1 POP JUMP JUMPDEST PUSH0 DUP2 SWAP1 POP SWAP2 SWAP1 POP JUMP JUMPDEST PUSH2 0x3DAD DUP4 PUSH2 0x3D7A JUMP JUMPDEST PUSH2 0x3DC1 PUSH2 0x3DB9 DUP3 PUSH2 0x3D9B JUMP JUMPDEST DUP5 DUP5 SLOAD PUSH2 0x3D29 JUMP JUMPDEST DUP3 SSTORE POP POP POP POP JUMP JUMPDEST PUSH0 SWAP1 JUMP JUMPDEST PUSH2 0x3DD5 PUSH2 0x3DC9 JUMP JUMPDEST PUSH2 0x3DE0 DUP2 DUP5 DUP5 PUSH2 0x3DA4 JUMP JUMPDEST POP POP POP JUMP JUMPDEST JUMPDEST DUP2 DUP2 LT ISZERO PUSH2 0x3E03 JUMPI PUSH2 0x3DF8 PUSH0 DUP3 PUSH2 0x3DCD JUMP JUMPDEST PUSH1 0x1 DUP2 ADD SWAP1 POP PUSH2 0x3DE6 JUMP JUMPDEST POP POP JUMP JUMPDEST PUSH1 0x1F DUP3 GT ISZERO PUSH2 0x3E48 JUMPI PUSH2 0x3E19 DUP2 PUSH2 0x3CFC JUMP JUMPDEST PUSH2 0x3E22 DUP5 PUSH2 0x3D0E JUMP JUMPDEST DUP2 ADD PUSH1 0x20 DUP6 LT ISZERO PUSH2 0x3E31 JUMPI DUP2 SWAP1 POP JUMPDEST PUSH2 0x3E45 PUSH2 0x3E3D DUP6 PUSH2 0x3D0E JUMP JUMPDEST DUP4 ADD DUP3 PUSH2 0x3DE5 JUMP JUMPDEST POP POP JUMPDEST POP POP POP JUMP JUMPDEST PUSH0 DUP3 DUP3 SHR SWAP1 POP SWAP3 SWAP2 POP POP JUMP JUMPDEST PUSH0 PUSH2 0x3E68 PUSH0 NOT DUP5 PUSH1 0x8 MUL PUSH2 0x3E4D JUMP JUMPDEST NOT DUP1 DUP4 AND SWAP2 POP POP SWAP3 SWAP2 POP POP JUMP JUMPDEST PUSH0 PUSH2 0x3E80 DUP4 DUP4 PUSH2 0x3E59 JUMP JUMPDEST SWAP2 POP DUP3 PUSH1 0x2 MUL DUP3 OR SWAP1 POP SWAP3 SWAP2 POP POP JUMP JUMPDEST PUSH2 0x3E99 DUP3 PUSH2 0x30A9 JUMP JUMPDEST PUSH8 0xFFFFFFFFFFFFFFFF DUP2 GT ISZERO PUSH2 0x3EB2 JUMPI PUSH2 0x3EB1 PUSH2 0x2AE1 JUMP JUMPDEST JUMPDEST PUSH2 0x3EBC DUP3 SLOAD PUSH2 0x3CCC JUMP JUMPDEST PUSH2 0x3EC7 DUP3 DUP3 DUP6 PUSH2 0x3E07 JUMP JUMPDEST PUSH0 PUSH1 0x20 SWAP1 POP PUSH1 0x1F DUP4 GT PUSH1 0x1 DUP2 EQ PUSH2 0x3EF8 JUMPI PUSH0 DUP5 ISZERO PUSH2 0x3EE6 JUMPI DUP3 DUP8 ADD MLOAD SWAP1 POP JUMPDEST PUSH2 0x3EF0 DUP6 DUP3 PUSH2 0x3E75 JUMP JUMPDEST DUP7 SSTORE POP PUSH2 0x3F57 JUMP JUMPDEST PUSH1 0x1F NOT DUP5 AND PUSH2 0x3F06 DUP7 PUSH2 0x3CFC JUMP JUMPDEST PUSH0 JUMPDEST DUP3 DUP2 LT ISZERO PUSH2 0x3F2D JUMPI DUP5 DUP10 ADD MLOAD DUP3 SSTORE PUSH1 0x1 DUP3 ADD SWAP2 POP PUSH1 0x20 DUP6 ADD SWAP5 POP PUSH1 0x20 DUP2 ADD SWAP1 POP PUSH2 0x3F08 JUMP JUMPDEST DUP7 DUP4 LT ISZERO PUSH2 0x3F4A JUMPI DUP5 DUP10 ADD MLOAD PUSH2 0x3F46 PUSH1 0x1F DUP10 AND DUP3 PUSH2 0x3E59 JUMP JUMPDEST DUP4 SSTORE POP JUMPDEST PUSH1 0x1 PUSH1 0x2 DUP9 MUL ADD DUP9 SSTORE POP POP POP JUMPDEST POP POP POP POP POP POP JUMP JUMPDEST PUSH32 0x4E487B7100000000000000000000000000000000000000000000000000000000 PUSH0 MSTORE PUSH1 0x11 PUSH1 0x4 MSTORE PUSH1 0x24 PUSH0 REVERT JUMPDEST PUSH0 PUSH2 0x3F96 DUP3 PUSH2 0x2A9A JUMP JUMPDEST SWAP2 POP PUSH2 0x3FA1 DUP4 PUSH2 0x2A9A JUMP JUMPDEST SWAP3 POP DUP3 DUP3 SUB SWAP1 POP DUP2 DUP2 GT ISZERO PUSH2 0x3FB9 JUMPI PUSH2 0x3FB8 PUSH2 0x3F5F JUMP JUMPDEST JUMPDEST SWAP3 SWAP2 POP POP JUMP JUMPDEST PUSH0 PUSH1 0x40 DUP3 ADD SWAP1 POP PUSH2 0x3FD2 PUSH0 DUP4 ADD DUP6 PUSH2 0x3545 JUMP JUMPDEST PUSH2 0x3FDF PUSH1 0x20 DUP4 ADD DUP5 PUSH2 0x3545 JUMP JUMPDEST SWAP4 SWAP3 POP POP POP JUMP JUMPDEST PUSH32 0x4E6F20636F6E747269627574696F6E7320666F756E6420666F72207468697320 PUSH0 DUP3 ADD MSTORE PUSH32 0x7573657220696E207468697320636F6D6D756E69747900000000000000000000 PUSH1 0x20 DUP3 ADD MSTORE POP JUMP JUMPDEST PUSH0 PUSH2 0x4040 PUSH1 0x36 DUP4 PUSH2 0x3816 JUMP JUMPDEST SWAP2 POP PUSH2 0x404B DUP3 PUSH2 0x3FE6 JUMP JUMPDEST PUSH1 0x40 DUP3 ADD SWAP1 POP SWAP2 SWAP1 POP JUMP JUMPDEST PUSH0 PUSH1 0x20 DUP3 ADD SWAP1 POP DUP2 DUP2 SUB PUSH0 DUP4 ADD MSTORE PUSH2 0x406D DUP2 PUSH2 0x4034 JUMP JUMPDEST SWAP1 POP SWAP2 SWAP1 POP JUMP JUMPDEST PUSH32 0x4E6F20636F6E7472696275746F727320666F72207468652063757272656E7420 PUSH0 DUP3 ADD MSTORE PUSH32 0x7765656B00000000000000000000000000000000000000000000000000000000 PUSH1 0x20 DUP3 ADD MSTORE POP JUMP JUMPDEST PUSH0 PUSH2 0x40CE PUSH1 0x24 DUP4 PUSH2 0x3816 JUMP JUMPDEST SWAP2 POP PUSH2 0x40D9 DUP3 PUSH2 0x4074 JUMP JUMPDEST PUSH1 0x40 DUP3 ADD SWAP1 POP SWAP2 SWAP1 POP JUMP JUMPDEST PUSH0 PUSH1 0x20 DUP3 ADD SWAP1 POP DUP2 DUP2 SUB PUSH0 DUP4 ADD MSTORE PUSH2 0x40FB DUP2 PUSH2 0x40C2 JUMP JUMPDEST SWAP1 POP SWAP2 SWAP1 POP JUMP JUMPDEST PUSH0 PUSH2 0x410C DUP3 PUSH2 0x2A9A JUMP JUMPDEST SWAP2 POP PUSH32 0xFFFFFFFFFFFFFFFFFFFFFFFFFFFFFFFFFFFFFFFFFFFFFFFFFFFFFFFFFFFFFFFF DUP3 SUB PUSH2 0x413E JUMPI PUSH2 0x413D PUSH2 0x3F5F JUMP JUMPDEST JUMPDEST PUSH1 0x1 DUP3 ADD SWAP1 POP SWAP2 SWAP1 POP JUMP JUMPDEST PUSH0 PUSH2 0x4153 DUP3 PUSH2 0x2A9A JUMP JUMPDEST SWAP2 POP PUSH2 0x415E DUP4 PUSH2 0x2A9A JUMP JUMPDEST SWAP3 POP DUP3 DUP3 ADD SWAP1 POP DUP1 DUP3 GT ISZERO PUSH2 0x4176 JUMPI PUSH2 0x4175 PUSH2 0x3F5F JUMP JUMPDEST JUMPDEST SWAP3 SWAP2 POP POP JUMP JUMPDEST PUSH0 DUP2 SWAP1 POP SWAP2 SWAP1 POP JUMP JUMPDEST PUSH2 0x4196 PUSH2 0x4191 DUP3 PUSH2 0x2A9A JUMP JUMPDEST PUSH2 0x417C JUMP JUMPDEST DUP3 MSTORE POP POP JUMP JUMPDEST PUSH0 PUSH2 0x41A7 DUP3 DUP7 PUSH2 0x4185 JUMP JUMPDEST PUSH1 0x20 DUP3 ADD SWAP2 POP PUSH2 0x41B7 DUP3 DUP6 PUSH2 0x4185 JUMP JUMPDEST PUSH1 0x20 DUP3 ADD SWAP2 POP PUSH2 0x41C7 DUP3 DUP5 PUSH2 0x4185 JUMP JUMPDEST PUSH1 0x20 DUP3 ADD SWAP2 POP DUP2 SWAP1 POP SWAP5 SWAP4 POP POP POP POP JUMP JUMPDEST PUSH32 0x4E487B7100000000000000000000000000000000000000000000000000000000 PUSH0 MSTORE PUSH1 0x12 PUSH1 0x4 MSTORE PUSH1 0x24 PUSH0 REVERT JUMPDEST PUSH0 PUSH2 0x420F DUP3 PUSH2 0x2A9A JUMP JUMPDEST SWAP2 POP PUSH2 0x421A DUP4 PUSH2 0x2A9A JUMP JUMPDEST SWAP3 POP DUP3 PUSH2 0x422A JUMPI PUSH2 0x4229 PUSH2 0x41D8 JUMP JUMPDEST JUMPDEST DUP3 DUP3 MOD SWAP1 POP SWAP3 SWAP2 POP POP JUMP JUMPDEST PUSH0 PUSH2 0x423F DUP3 PUSH2 0x2A9A JUMP JUMPDEST SWAP2 POP PUSH0 DUP3 SUB PUSH2 0x4251 JUMPI PUSH2 0x4250 PUSH2 0x3F5F JUMP JUMPDEST JUMPDEST PUSH1 0x1 DUP3 SUB SWAP1 POP SWAP2 SWAP1 POP JUMP JUMPDEST PUSH0 PUSH2 0x4266 DUP3 PUSH2 0x2A9A JUMP JUMPDEST SWAP2 POP PUSH2 0x4271 DUP4 PUSH2 0x2A9A JUMP JUMPDEST SWAP3 POP DUP3 PUSH2 0x4281 JUMPI PUSH2 0x4280 PUSH2 0x41D8 JUMP JUMPDEST JUMPDEST DUP3 DUP3 DIV SWAP1 POP SWAP3 SWAP2 POP POP JUMP JUMPDEST PUSH0 PUSH2 0x4296 DUP3 PUSH2 0x3596 JUMP JUMPDEST SWAP2 POP PUSH1 0xFF DUP3 SUB PUSH2 0x42A9 JUMPI PUSH2 0x42A8 PUSH2 0x3F5F JUMP JUMPDEST JUMPDEST PUSH1 0x1 DUP3 ADD SWAP1 POP SWAP2 SWAP1 POP JUMP INVALID LOG2 PUSH5 0x6970667358 0x22 SLT KECCAK256 PUSH9 0xEE45020CB686BBC97 0x23 0xC7 0xE3 NOT 0xAF CREATE 0xDB 0xF8 0xA7 ORIGIN 0xEA DUP2 0xB5 SWAP4 PUSH6 0x6CE863CF3FB5 0x28 PUSH5 0x736F6C6343 STOP ADDMOD BYTE STOP CALLER "
		},
		"gasEstimates": {
			"creation": {
				"codeDepositCost": "3426000",
				"executionCost": "infinite",
				"totalCost": "infinite"
			},
			"external": {
				"createGroupsForCurrentWeek(uint256)": "infinite",
				"getContributions(address,uint256,uint256)": "infinite",
				"getGroupsForWeek(uint256,uint256)": "infinite",
				"getLastRoomSizes()": "infinite",
				"getUserContributedWeeks(address,uint256)": "infinite",
				"getWeeklyContributors(uint256,uint256)": "infinite",
				"profilesContract()": "infinite",
				"submitContributions(uint256,(string,string,string[])[])": "infinite",
				"userContributions(address,uint256)": "infinite"
			},
			"internal": {
				"determineRoomSizes(uint256)": "infinite",
				"genericRoomSizes(uint256)": "infinite",
				"hardcodedRoomSizes(uint256)": "infinite",
				"isContributor(uint256,uint256,address)": "infinite",
				"shuffle(address[] memory)": "infinite"
			}
		},
		"methodIdentifiers": {
			"createGroupsForCurrentWeek(uint256)": "690ec8d1",
			"getContributions(address,uint256,uint256)": "667f0e63",
			"getGroupsForWeek(uint256,uint256)": "6c331bd3",
			"getLastRoomSizes()": "771197d8",
			"getUserContributedWeeks(address,uint256)": "4fe038a2",
			"getWeeklyContributors(uint256,uint256)": "8ec2c82b",
			"profilesContract()": "06428f02",
			"submitContributions(uint256,(string,string,string[])[])": "3722a0e8",
			"userContributions(address,uint256)": "7331fa95"
		}
	},
	"abi": [
		{
			"inputs": [
				{
					"internalType": "address",
					"name": "_profilesContractAddress",
					"type": "address"
				}
			],
			"stateMutability": "nonpayable",
			"type": "constructor"
		},
		{
			"anonymous": false,
			"inputs": [
				{
					"indexed": true,
					"internalType": "address",
					"name": "user",
					"type": "address"
				},
				{
					"indexed": true,
					"internalType": "uint256",
					"name": "communityId",
					"type": "uint256"
				},
				{
					"indexed": false,
					"internalType": "uint256",
					"name": "weekNumber",
					"type": "uint256"
				},
				{
					"indexed": false,
					"internalType": "uint256",
					"name": "contributionIndex",
					"type": "uint256"
				}
			],
			"name": "ContributionSubmitted",
			"type": "event"
		},
		{
			"anonymous": false,
			"inputs": [
				{
					"indexed": true,
					"internalType": "uint256",
					"name": "communityId",
					"type": "uint256"
				},
				{
					"indexed": false,
					"internalType": "uint256",
					"name": "weekNumber",
					"type": "uint256"
				},
				{
					"indexed": false,
					"internalType": "uint256",
					"name": "groupCount",
					"type": "uint256"
				}
			],
			"name": "GroupsCreated",
			"type": "event"
		},
		{
			"inputs": [
				{
					"internalType": "uint256",
					"name": "_communityId",
					"type": "uint256"
				}
			],
			"name": "createGroupsForCurrentWeek",
			"outputs": [],
			"stateMutability": "nonpayable",
			"type": "function"
		},
		{
			"inputs": [
				{
					"internalType": "address",
					"name": "_user",
					"type": "address"
				},
				{
					"internalType": "uint256",
					"name": "_communityId",
					"type": "uint256"
				},
				{
					"internalType": "uint256",
					"name": "_weekNumber",
					"type": "uint256"
				}
			],
			"name": "getContributions",
			"outputs": [
				{
					"internalType": "string[]",
					"name": "names",
					"type": "string[]"
				},
				{
					"internalType": "string[]",
					"name": "descriptions",
					"type": "string[]"
				},
				{
					"internalType": "string[][]",
					"name": "links",
					"type": "string[][]"
				}
			],
			"stateMutability": "view",
			"type": "function"
		},
		{
			"inputs": [
				{
					"internalType": "uint256",
					"name": "_communityId",
					"type": "uint256"
				},
				{
					"internalType": "uint256",
					"name": "_weekNumber",
					"type": "uint256"
				}
			],
			"name": "getGroupsForWeek",
			"outputs": [
				{
					"components": [
						{
							"internalType": "address[]",
							"name": "members",
							"type": "address[]"
						}
					],
					"internalType": "struct CommunityGovernanceContributions.Group[]",
					"name": "",
					"type": "tuple[]"
				}
			],
			"stateMutability": "view",
			"type": "function"
		},
		{
			"inputs": [],
			"name": "getLastRoomSizes",
			"outputs": [
				{
					"internalType": "uint8[]",
					"name": "",
					"type": "uint8[]"
				}
			],
			"stateMutability": "view",
			"type": "function"
		},
		{
			"inputs": [
				{
					"internalType": "address",
					"name": "_user",
					"type": "address"
				},
				{
					"internalType": "uint256",
					"name": "_communityId",
					"type": "uint256"
				}
			],
			"name": "getUserContributedWeeks",
			"outputs": [
				{
					"internalType": "uint256[]",
					"name": "",
					"type": "uint256[]"
				}
			],
			"stateMutability": "view",
			"type": "function"
		},
		{
			"inputs": [
				{
					"internalType": "uint256",
					"name": "_communityId",
					"type": "uint256"
				},
				{
					"internalType": "uint256",
					"name": "_week",
					"type": "uint256"
				}
			],
			"name": "getWeeklyContributors",
			"outputs": [
				{
					"internalType": "address[]",
					"name": "",
					"type": "address[]"
				}
			],
			"stateMutability": "view",
			"type": "function"
		},
		{
			"inputs": [],
			"name": "profilesContract",
			"outputs": [
				{
					"internalType": "contract ICommunityGovernanceProfiles",
					"name": "",
					"type": "address"
				}
			],
			"stateMutability": "view",
			"type": "function"
		},
		{
			"inputs": [
				{
					"internalType": "uint256",
					"name": "_communityId",
					"type": "uint256"
				},
				{
					"components": [
						{
							"internalType": "string",
							"name": "name",
							"type": "string"
						},
						{
							"internalType": "string",
							"name": "description",
							"type": "string"
						},
						{
							"internalType": "string[]",
							"name": "links",
							"type": "string[]"
						}
					],
					"internalType": "struct CommunityGovernanceContributions.Contribution[]",
					"name": "_contributions",
					"type": "tuple[]"
				}
			],
			"name": "submitContributions",
			"outputs": [],
			"stateMutability": "nonpayable",
			"type": "function"
		},
		{
			"inputs": [
				{
					"internalType": "address",
					"name": "",
					"type": "address"
				},
				{
					"internalType": "uint256",
					"name": "",
					"type": "uint256"
				}
			],
			"name": "userContributions",
			"outputs": [
				{
					"internalType": "uint256",
					"name": "communityId",
					"type": "uint256"
				}
			],
			"stateMutability": "view",
			"type": "function"
		}
	]
}